:020000040000FA
:10000000A0710010E1000000E5000000E700000022
:10001000E9000000EB000000ED000000000000001F
:10002000000000000000000000000000EF000000E1
:10003000F100000000000000F3000000573800004D
:10004000F7000000110200003D020000F700000070
:10005000F7000000B377000067930000F70000008E
:10006000F7000000F7000000F7000000F7000000B4
:10007000F7000000F7000000F7000000F7000000A4
:10008000F7000000F7000000F7000000F700000094
:10009000F7000000F700000093120000F7000000D6
:1000A000F7000000F7000000F7000000F700000074
:1000B000199B0000F7000000F7000000F7000000A7
:1000C000F7000000F7000000F7000000DFF80CD098
:1000D0000AF0BCF9004800479B390000A0710010ED
:1000E00005480047FEE7FEE7FEE7FEE7FEE7FEE71E
:1000F000FEE7FEE7FEE7FEE7CD000000FEE710B5F5
:100100000CF00CFD0CF098FD0CF08AFD0CF018FDC5
:10011000AFF30080BDE810400CF054BD10B50DF0F9
:1001200065FB0EF0A7F80DF0B9FBBDE810400DF02F
:1001300031BD0DF079BA0DF041B809B1002070471A
:100140000BF048BD0020704730B54FF000000E4B5B
:10015000A3F1140202F10A04115C61B1255CA94209
:1001600009D1195C39B1A1F10101C9B2195411B910
:100170004FF000011154115C215400F10100C0B294
:100180000A28E9D330BD0000305900100949088120
:1001900070470849B1F90800002809D0A0F1010012
:1001A00000B20881002803D10146084600F084BA55
:1001B000704700001000001090F900308B4200DA08
:1001C000027090F90030934200DD0170704790F9A1
:1001D00000308B4200DA017090F90010914200DD8E
:1001E00002707047B0F900308B4200DA0180B0F93C
:1001F0000010914200DD02807047B0F900308B4260
:1002000000DA0280B0F90030934200DD01807047CF
:100210004FF040214FF0010008600D48016801F1E6
:10022000010101600B48016821F0FF0101F10401A7
:100230000160016841F080710160704706494FF02C
:10024000010008600248416801F101014160704706
:100250000C58001000400340008000402049086A0C
:1002600040F0004008621F4A5068C3070AD01E4B86
:100270001B883BB18B6B43F000438B634FF006014F
:10028000917003E0CB6B43F00043CB634FEA500027
:1002900050605078A0F1010010F0FF00507004D1C0
:1002A0004FF02000507090685060704710B50D4AB4
:1002B000002420234F2909D041290BD052290DD0E9
:1002C000532902D154609460537010BD5060946003
:1002D000537010BD50609060537010BD906010BDA1
:1002E00000C0092024C1072030C00720014600209B
:1002F00000E0401C0A5C002AFBD17047FFFFFFFFB3
:100300004FF00000FA4A4FF02001115400F10100B3
:10031000C0B2C828F9D3704701464FF00000F44A34
:1003200000F10100C0B2135C8B4201D0C828F7D3A2
:10033000704710B54FF00001EE4C4FF00A02034633
:10034000B0FBF2F002FB1033635401F10101C9B2BA
:100350000529F4D310BDF0B5E74D4FF00101297028
:100360004FF00501E34B4FF020064FF000072A78CD
:1003700042B15A1812F8014C24B9814202D902F84C
:10038000016C07E003EB010212F8014D04F13004A7
:1003900014702F70A1F10101C9B20029E7D1F0BD9D
:1003A00070B50D4616461C46FFF7C3FF601CC0B271
:1003B000FFF7D1FF05EB850006EB8000C1B24FF0DF
:1003C0000000CC4BCA4DA04201D21A5C6A5407D33C
:1003D0001A5C202A04D064B105EB010606F8012C52
:1003E000A1F10101C9B200F10100C0B20528EAD3B0
:1003F00070BD6A54F4E730B5044608461546FFF769
:100400008BFFFF280CD0BA4A07E000EB050304F18C
:100410000104D15400F10100C0B221780029F4D1C7
:1004200030BD70B50D461446FFF783FF601CC0B2A7
:10043000FFF791FF2846FFF76FFF4FF00001AD4A2D
:10044000AB4D24B9535C202B01D02B5415E0A142B5
:1004500002D2535C2B5410E008D14FF02E032B54E2
:1004600005EB0006535C06F8013C06E0535C202BCC
:1004700003D005EB000606F8013CA0F10100C0B274
:1004800001F10101C9B20529DBD370BDF0B5044605
:10049000084616461F46FFF73FFF02461046944D9A
:1004A000FF2806D108E0295404F1010400F10100FD
:1004B000C0B221780029F6D190480078002806D0F3
:1004C000002F04D002EB06014FF05F006854F0BD2E
:1004D0002DE9F04F0746DDE90905884691469A4621
:1004E000FFF71AFF854B2021814C0A224FF0640C44
:1004F000012D09D11E783EB104EB0006A6F10E06CF
:10050000B1707170317017E097FBF2FB02FB1B7E3C
:1005100004EB00060EF1300E06F80CEC9BFBF2FE2D
:1005200002FB1EBB0BF1300B06F80DBC97FBFCF772
:1005300007F1300706F80E7C022D09D11E783EB176
:1005400004EB0006A6F10A06B1707170317017E075
:1005500098FBF2F702FB178B04EB0006A6F10A06E4
:100560000BF1300B86F802B097FBF2FB02FB1B7716
:1005700007F13007777098FBFCF707F13007377009
:10058000032D09D11E783EB104EB0006A6F1060644
:10059000B1707170317017E099FBF2F702FB179898
:1005A00004EB0006A6F1060608F1300886F8028082
:1005B00097FBF2F802FB187707F13007777099FB89
:1005C000FCF707F130073770042D09D11B783BB1D8
:1005D00021542044A0F1020041700170BDE8F08F69
:1005E0009AFBF2F102FB11A303F13003235491FBB8
:1005F000F2F302FB13112044A0F1020001F13001DB
:1006000041709AFBFCF101F130010170E6E730B571
:100610003B490124364B91F9012091F904108A429B
:1006200004D100EB800003F8204030BD4D1CAA42ED
:1006300006D100F1010000EB800003F8204030BD3E
:100640008D1CAA4206D100F1020000EB800003F8E5
:10065000204030BDCD1CAA4206D100F1030000EBC2
:10066000800003F8204030BD0D1DAA4206D100F1E4
:10067000040000EB800003F8204030BD4D1DAA426D
:1006800006D100F1050000EB800003F8204030BDEA
:100690008D1DAA4206D100F1060000EB800003F890
:1006A000204030BDC91D8A42FBD100F1070000EB9C
:1006B000800003F8204030BD124B1A88A2F10102DD
:1006C00012B21A80002A02DC4FF000021A801A8847
:1006D000104400B218800C4A00EB80000244084825
:1006E00013680360127902714278114441707047B7
:1006F000FB000010DEC00720F002001038000010E0
:10070000F10000100CC007207803082070B5254DBB
:10071000B5F9004004F101062E80234D04EB84045A
:100720002544224C26682E6026792E712070617037
:100730002271A37070BD2DE9F04180460F46164628
:10074000FFF7DEFD1A4C4FF0000518F8010B04F816
:10075000010B05F10105EDB2142DF6D34FF00000A9
:1007600017F8011B04F8011B00F10100C0B21428A6
:10077000F6D34FF0000016F8011B04F8011B00F13E
:100780000100C0B21428F6D34FF0000013F8011B8B
:1007900004F8011B00F10100C0B21428F6D3BDE833
:1007A000F08100000CC0072078030820F100001041
:1007B000FB000010FF494FF01100087270472DE94F
:1007C000F04F06464FF000021146FB484FF041073C
:1007D0004FF0440C4FF042084FF046094FF0470AE3
:1007E0004FF0480B4FF05E034FF05804ACE0C02DC3
:1007F0007ED0C12D7DD0C22D7CD0C32D7BD0C42D09
:100800007AD0C52D79D0A82D78D0C62D77D0C72D18
:1008100076D0C82D75D0C92D74D0CA2D73D0CB2DEC
:1008200072D0CC2D71D0CD2D70D0CE2D6FD0CF2DDC
:100830006ED0D02D6DD0D12D6CD0D22D6BD0D32DCC
:100840006AD0D42D69D0D52D68D0D62D67D0D72DBC
:1008500066D0D82D7ED0D92D7DD0DA2D7CD0DB2D61
:100860007BD0DC2D7AD0DD2D79D0DE2D78D0DF2D38
:1008700077D0E02D76D0E12D75D0E22D74D0E32D28
:1008800073D0E42D72D0E52D71D0B82D70D0E62D47
:100890006FD0E72D6ED0E82D6DD0E92D6CD0EA2D0C
:1008A0006BD0EB2D6AD0EC2D69D0ED2D68D0EE2DFC
:1008B00067D0EF2D66D0F02D74D0F12D73D0F22DCE
:1008C00072D0F32D71D0F42D70D0F52D6FD0F62DA0
:1008D0006ED0F72D6DD0F82D6CD0F92D6BD0FA2D90
:1008E0006AD0FB2D69D0FC2D68D0FD2D67D018E0B3
:1008F0004CE065E071E07FE08FE09BE0A9E0BDE0C7
:10090000D1E0DFE0EDE0FBE009E117E125E133E1D3
:1009100041E153E161E16FE17DE18BE197E1A3E129
:10092000B1E1FE2D75D0FF2D74D0B02D73D0B92D4F
:1009300072D015468E4602F10102755D01F101018A
:1009400012B209B200F80E50B55C002D7FF44FAF23
:100950002A4618E0A6E1B7E1C9E1DBE1EDE1FFE1FC
:1009600011E21FE22DE23BE249E257E265E273E267
:1009700081E295E2A9E2B7E2C5E2D3E2E1E2EFE289
:10098000FDE20BE319E34254BDE8F08F01F10105EC
:100990002DB2435405F1010109B2475502F101029C
:1009A00012B2D1E718E326E334E342E350E35EE317
:1009B0006CE37AE388E39CE3B0E3C4E3D8E3ECE3DD
:1009C00001F101052DB2435405F1010109B200F80E
:1009D000058002F1010212B2B6E701F101052DB264
:1009E00043544FF0570E05F1010109B200F805E03C
:1009F00002F1010212B2A7E701F101052DB2435441
:100A000005F1010109B200F805A002F1010212B2DC
:100A10009AE7D7E3E5E3F3E3F3E301F101052DB250
:100A2000435405F1010109B200F805C002F10102C9
:100A300012B289E701F101052DB243544FF0450E82
:100A400005F1010109B200F805E002F1010212B25C
:100A50007AE701F101050FFA85FE43540EF1010119
:100A60000DB200F80E404FF0450E05F1010109B23C
:100A700000F805E002F1010212B265E701F101059B
:100A80000FFA85FE43540EF101010DB200F80E403D
:100A90004FF0430E05F1010109B200F805E002F143
:100AA000010212B250E701F101052DB243544FF09B
:100AB0005A0E05F1010109B200F805E002F1010248
:100AC00012B241E701F101052DB243544FF0490E36
:100AD00005F1010109B200F805E002F1010212B2CC
:100AE00032E701F101052DB243544FF04A0E05F1F2
:100AF000010109B200F805E002F1010212B223E798
:100B000001F101052DB243544FF04B0E05F10101E7
:100B100009B200F805E002F1010212B214E701F196
:100B200001052DB243544FF04C0E05F1010109B2FD
:100B300000F805E002F1010212B205E701F101053A
:100B40002DB243544FF04D0E05F1010109B200F8EA
:100B500005E002F1010212B2F6E601F101052DB243
:100B600043544FF04E0E05F1010109B200F805E0C3
:100B700002F1010212B2E7E601F101052DB2435480
:100B80004FF04F0E05F1010109B200F805E002F146
:100B9000010212B2D8E601F101052DB243544FF023
:100BA000500E05F1010109B200F805E002F1010261
:100BB00012B2C9E6004002404CFA072001F10105DB
:100BC0002DB243544FF0520E05F1010109B200F865
:100BD00005E002F1010212B2B6E601F101052DB203
:100BE00043544FF0530E05F1010109B200F805E03E
:100BF00002F1010212B2A7E601F101052DB2435440
:100C00004FF0540E05F1010109B200F805E002F1C0
:100C1000010212B298E601F101052DB243544FF0E2
:100C2000550E05F1010109B200F805E002F10102DB
:100C300012B289E601F101052DB2435405F101011B
:100C400009B200F8059002F1010212B27CE601F14E
:100C500001052DB2435405F1010109B200F805B0B8
:100C600002F1010212B26FE601F101052DB2435407
:100C70004FF0430E05F1010109B200F805E002F161
:100C8000010212B260E601F101052DB243544FF0AA
:100C9000590E05F1010109B200F805E002F1010267
:100CA00012B251E601F101050FFA85FE43540EF12F
:100CB00001010DB200F80E4005F1010109B24755DE
:100CC00002F1010212B23FE601F101050FFA85FEC1
:100CD00043540EF101010DB200F80E4005F101017F
:100CE00009B200F805C002F1010212B22CE601F1CE
:100CF00001050FFA85FE43540EF101010DB200F813
:100D00000E4005F1010109B200F8058002F101026F
:100D100012B219E601F101050FFA85FE43540EF1F6
:100D200001010DB200F80E4005F1010109B200F811
:100D3000059002F1010212B206E601F101050FFA77
:100D400085FE43540EF101010DB200F80E4005F18D
:100D5000010109B200F805A002F1010212B2F3E5A7
:100D600001F101050FFA85FE43540EF101010DB2A8
:100D700000F80E4005F1010109B200F805B002F1DA
:100D8000010212B2E0E501F101052DB243544FF02A
:100D9000560E05F1010109B200F805E002F1010269
:100DA00012B2D1E501F101052DB243544FF0510EBD
:100DB00005F1010109B200F805E002F1010212B2E9
:100DC000C2E501F101052DB243544FF0610E05F16A
:100DD000010109B200F805E002F1010212B2B3E527
:100DE00001F101052DB243544FF0620E05F10101EE
:100DF00009B200F805E002F1010212B2A4E501F126
:100E000001052DB243544FF0770E05F1010109B2EF
:100E100000F805E002F1010212B295E501F10105C9
:100E20002DB243544FF0670E05F1010109B200F8ED
:100E300005E002F1010212B286E501F101052DB2D1
:100E400043544FF0640E05F1010109B200F805E0CA
:100E500002F1010212B277E501F101052DB243540E
:100E60004FF0650E05F1010109B200F805E002F14D
:100E7000010212B268E501F101050FFA85FE435443
:100E80000EF101010DB200F80E404FF0650E05F1B4
:100E9000010109B200F805E002F1010212B253E5C6
:100EA00001F101050FFA85FE43540EF101010DB267
:100EB00000F80E404FF0630E05F1010109B200F891
:100EC00005E002F1010212B23EE501F101052DB289
:100ED00043544FF07A0E05F1010109B200F805E024
:100EE00002F1010212B22FE501F101052DB24354C6
:100EF0004FF0690E05F1010109B200F805E002F1B9
:100F0000010212B220E501F101052DB243544FF068
:100F10006A0E05F1010109B200F805E002F10102D3
:100F200012B211E501F101052DB243544FF06B0EE1
:100F300005F1010109B200F805E002F1010212B267
:100F400002E501F101052DB243544FF06C0E05F19D
:100F5000010109B200F805E002F1010212B2F3E466
:100F600001F101052DB243544FF06D0E05F1010161
:100F700009B200F805E002F1010212B2E4E401F165
:100F800001052DB243544FF06E0E05F1010109B277
:100F900000F805E002F1010212B2D5E401F1010509
:100FA0002DB243544FF06F0E05F1010109B200F864
:100FB00005E002F1010212B2C6E401F101052DB211
:100FC00043544FF0700E05F1010109B200F805E03D
:100FD00002F1010212B2B7E401F101052DB243544E
:100FE0004FF0720E05F1010109B200F805E002F1BF
:100FF000010212B2A8E401F101052DB243544FF0F1
:10100000730E05F1010109B200F805E002F10102D9
:1010100012B299E401F101052DB243544FF0740E60
:1010200005F1010109B200F805E002F1010212B276
:101030008AE401F101052DB243544FF0750E05F11C
:10104000010109B200F805E002F1010212B27BE4ED
:1010500001F101052DB243544FF0660E05F1010177
:1010600009B200F805E002F1010212B26CE401F1EC
:1010700001052DB243544FF0680E05F1010109B28C
:1010800000F805E002F1010212B25DE401F1010590
:101090002DB243544FF0630E05F1010109B200F87F
:1010A00005E002F1010212B24EE401F101052DB298
:1010B00043544FF0790E05F1010109B200F805E043
:1010C00002F1010212B23FE401F101050FFA85FEBF
:1010D00043540EF101010DB200F80E404FF0610EC5
:1010E00005F1010109B200F805E002F1010212B2B6
:1010F0002AE401F101050FFA85FE43540EF10101C6
:101100000DB200F80E404FF0640E05F1010109B276
:1011100000F805E002F1010212B215E401F1010547
:101120000FFA85FE43540EF101010DB200F80E4096
:101130004FF0620E05F1010109B200F805E002F17D
:10114000010212B200E401F101050FFA85FE4354D9
:101150000EF101010DB200F80E404FF0660E05F1E0
:10116000010109B200F805E002F1010212B218E42F
:1011700001F101050FFA85FE43540EF101010DB294
:1011800000F80E404FF0670E05F1010109B200F8BA
:1011900005E002F1010212B21EE401F101050FFAAD
:1011A00085FE43540EF101010DB200F80E404FF0E0
:1011B000680E05F1010109B200F805E002F1010233
:1011C00012B209E401F101052DB243544FF0760E3D
:1011D00005F1010109B200F805E002F1010212B2C5
:1011E00009E401F101052DB243544FF0710E05F1F0
:1011F000010109B200F805E002F1010212B207E4B0
:1012000000E014E001F101050FFA85FE43540EF1F0
:1012100001010DB200F80E404FF0690E05F1010119
:1012200009B200F805E002F1010212B210E401F186
:1012300001050FFA85FE43540EF101010DB200F8CD
:101240000E404FF06A0E05F1010109B200F805E009
:1012500002F1010212B210E410B54FF0C004FF48D1
:1012600004704FF0A80242704FF0010383704FF0FA
:101270002301C1704FF0FF010172417281724FF082
:101280000001C1720471427183714FF0FE01C1719E
:1012900010BDF348016821F0E06101607047F14939
:1012A0004FF0000008704870887001F12D014870FF
:1012B00070472DE9F0414FF00000EB4B01464FF431
:1012C000F472195400F1010000B29042F9DB4FF0C2
:1012D00000024FF0140C4FF07A0102FB01F002EB18
:1012E00082014FEA810109B202EB82040CEB840710
:1012F00024E0DC4CDD4E3734645C04EB440500F143
:10130000010416F8158003F8008006EB450004F18F
:10131000010645781D55847806F101059C55C47871
:1013200005F101065C55057906F101049D554579E5
:1013300004F101001D5501F1010109B28F42D8DC11
:1013400002F1010212B2042AC5DBBDE8F0812DE9E9
:10135000F047ADF5AD6DC34EA03EB6F84200B6F80D
:10136000441008443070B07900F10100C0B2B0718F
:101370004FF00004142808D3B471707900F1010013
:10138000C0B27071052800D37471B64D0DF5806C34
:101390002D3529462A7891F90100A1F14D0791F9DF
:1013A0000410012A02D0C42A7ED0FBE3B0A2CDF8FB
:1013B0000024AFA2CDF80424ADA2CDF80824ACA23D
:1013C000CDF80C2430B10A1A022A05DD00F1020022
:1013D000287104E02C7102E0884200DD287196F843
:1013E0000580B8F1050F0FD295F90400C11C5CF817
:1013F0002130811C401C5CF821205CF82010DDF8B5
:101400000004FFF798F911E095F90400A8F1050828
:10141000C11C5CF82130811C401C5CF821205CF868
:10142000201006A850F82800FFF785F9F079502819
:10143000B88A4FF001024FF0230180B2FEF7F1FFAE
:10144000F88A0122242180B2FEF7EBFFDFF8388210
:1014500098F8280000222521FEF7E3FF98F82400E1
:1014600000225E21FEF7DDFF98F8200000222621F1
:10147000FEF7D7FF98F82C0000223C21FEF7D1FFA1
:10148000B8F83C0000227B21FEF7CBFF98F838002B
:101490004FF0010918B198F838000C2801D988F8E4
:1014A000389098F8380000E01AE17849002201EB02
:1014B00080003E21FEF79FFFDFF8A881307D08F114
:1014C000370888B13A20FEF727FF4FF0200A08F8C6
:1014D00000A04FF03A00FEF71FFF08F800A03A20E6
:1014E000FEF71AFF08F800A095F9040090B195F9ED
:1014F000011079B1884202D188F83C900AE0401A84
:10150000012802D0022803D004E088F8289001E0E6
:1015100088F81490307A00F10100C1B23172B6F946
:10152000400000EB8002B1EB820F00DB347268B147
:10153000307A1424B0FBF4F1DFF828814846A8F192
:10154000580898F80020552A08D106E06FF00102EB
:101550007A214FA0FEF74FFF41E000200844401CD5
:1015600000227A21FEF75DFF307A98F80010B0FB78
:10157000F4F0552901D14FF000094844401C0022E5
:101580007A21FEF74EFFB6F84000474D01280AD1F8
:1015900098F80000552806D0B5F84E0001225D21CC
:1015A000FEF73FFF0DE0307A0122B0FBF4F000EBD4
:1015B000400101EB001005EB80005D214088FEF743
:1015C00030FF307A0122B0FBF4F000EB400101EB78
:1015D000001005EB80005D214088FEF722FFB08DF2
:1015E00000230422194680B2FEF7DAFEF08D0023B4
:1015F0000822194680B2FEF7D3FE1A4C0023283485
:10160000032220780121FEF7CBFE60780023072219
:101610000121FEF7C5FEA07800230B220121FEF771
:10162000BFFEE07800230F220121FEF7B9FE2079EA
:10163000002313220121FEF7B3FE1B4C0023983434
:101640000322E069022180B2FEF7AAFEA06F032206
:1016500080B200231146FEF7A3FE27E05C3108208C
:1016600000400340C40000104CF6072060EB00006F
:10167000202020202020202020202020202020206A
:1016800020202020000000000040024060F1000007
:1016900020D0E0E1EEF2E020E1E5E720E1E0F2E059
:1016A000F0E5E9200000000048EB0720A84C0023EB
:1016B000072220780221FEF773FE607800230B22B8
:1016C0000221FEF76DFEA07800230F220221FEF713
:1016D00067FEE078002313220221FEF761FE2BE370
:1016E0009C4AD2E90D38D26BCDE9033805929AA213
:1016F000CDF800249EA2CDF80424A3A2CDF808249E
:10170000A7A2CDF80C24ACA2CDF81024B0A2CDF83D
:101710001424B5A2CDF81824B9A2CDF81C24BEA279
:10172000CDF82024C2A2CDF82424C7A2CDF82824C5
:10173000CBA2CDF82C24D0A2CDF83024D4A2CDF861
:101740003424D9A2CDF83824DDA2CDF83C24E2A27D
:10175000CDF84024E6A2CDF84424EBA2CDF84824ED
:10176000EFA2CDF84C24F4A2CDF85024F8A2CDF885
:101770005424B6F84A2052B9F5A2CDF80424AFF2A9
:101780001012CDF80824AFF21812CDF80C248842BC
:1017900001DA287105E0411A022902DDA0F10200F8
:1017A000287195F90400811C5CF82130411C5CF81B
:1017B00021205CF82010ECA0FEF7BDFF0120FEF711
:1017C00026FFB6F84A006FF002086FF0030928B14F
:1017D00042462121EAA0FEF70EFE04E04A462121FE
:1017E000E9A0FEF708FEB6F84C0028B142464021B9
:1017F000E3A0FEF700FE04E04A464021E2A0FEF727
:10180000FAFD6978232002293ED0CDE90004B6F91B
:101810005430B6F95220B6F95010B6F94E00FEF722
:1018200057FE6978242004293ED0CDE90004B6F99A
:101830005C30B6F95A20B6F95810B6F95600FEF7E2
:1018400047FE6978292006293ED0CDE90004B7F982
:101850001030B7F90E20B7F90C10B7F90A00FEF7EF
:1018600037FEF88800225B2180B2FEF7DAFD388966
:1018700000225D2180B2FEF7D4FDB6F95E006FF064
:101880000D08FF2830D03BE0A978491CC9B2CDE94A
:101890000001B6F95430B6F95220B6F95010B6F935
:1018A0004E00FEF715FEBCE7A978491CC9B2CDE988
:1018B0000001B6F95C30B6F95A20B6F95810B6F9FD
:1018C0005600FEF705FEBCE7A978491CC9B2CDE970
:1018D0000001B7F91030B7F90E20B7F90C10B7F9BD
:1018E0000A00FEF7F5FDBCE7B6F86010FF2907D146
:1018F000B6F86210FF2903D1B6F86410FF2912D0A0
:10190000697825220B2914D0CDE90024B6F964307A
:10191000B6F96220B6F96010FEF7DAFDB6F9660096
:10192000FF2814D04BE14246252199A0FEF763FD24
:10193000F4E7A978491CC9B2CDE90021B6F96430B1
:10194000B6F96220B6F96010FEF7C2FDE6E72AE1BB
:101950005C31082060F100002045746865726E6596
:1019600074202020202020202020212000000000A2
:101970002044484350EAEBE8E5EDF2202020202007
:101980002020402000000000204950E0E4F0E5F174
:1019900020202020202020202020202000000000C7
:1019A00020203030302E3030302E3030302E30305D
:1019B000232020200000000020CCE0F1EAE020EF0E
:1019C000EEE4F1E5F2E820202020202000000000D5
:1019D00020203030302E3030302E3030302E30302D
:1019E000242020200000000020D8EBFEE72020204B
:1019F0002020202020202020202020200000000067
:101A000020203030302E3030302E3030302E3030FC
:101A1000292020200000000020CFEEF0F22EF7F267
:101A2000E5EDE8FF202020202020205B00000000C2
:101A300020CFEEF0F22EE7E0EFE8F1E820202020C2
:101A40002020205D0000000020436F6D6D756E69E1
:101A50007479203C2020202020202020000000003D
:101A600020C0E4F0E5F1E0F220E4EBFF2054524125
:101A700050204E310000000020203030302E303019
:101A8000302E3030302E3030252020200000000055
:101A900020C0E4F0E5F1E0F220E4EBFF20545241F5
:101AA00050204E320000000020203030302E3030E8
:101AB000302E3030302E30305E20202000000000EC
:101AC00020C0E4F0E5F1E0F220E4EBFF20545241C5
:101AD00050204E330000000020203030302E3030B7
:101AE000302E3030302E30302620202000000000F4
:101AF00020C0E4F0E5F1E0F220E4EBFF2054524195
:101B000050204E340000000020203030302E303085
:101B1000302E3030302E30302A20202000000000BF
:101B200020C0E4F0E5F1E0F220E4EBFF2054524164
:101B300050204E350000000020203030302E303054
:101B4000302E3030302E3030282020200000000091
:101B500020C2FBF5EEE420202020202020202020A1
:101B6000202020200000000020D3D1D2C0CDCEC242
:101B7000CAC82045746865726E6574200000000054
:101B8000C2CACB2E00000000C2DBCACB2E00000070
:101B900020202020EDE5E0EAF2E8E2E5ED2020203B
:101BA00020000000C8E0B6F86810FF2907D1B6F899
:101BB0006A10FF2903D1B6F86C10FF2912D069789A
:101BC0005E220D2915D0CDE90024B6F96C30B6F9A6
:101BD0006A20B6F96810FEF77BFCB6F96E00FF28A4
:101BE00015D020E042465E21AFF25C00FEF703FC18
:101BF000F3E7A978491CC9B2CDE90021B6F96C30E8
:101C0000B6F96A20B6F96810FEF762FCE5E7B6F8A7
:101C10007010FF2907D1B6F87210FF2903D1B6F86A
:101C20007410FF2912D0697826220F2915D0CDE92A
:101C30000024B6F97430B6F97220B6F97010FEF7C8
:101C400047FCB6F97600FF2815D020E04246262151
:101C5000AFF2C400FEF7CFFBF3E7A978491CC9B285
:101C6000CDE90021B6F97430B6F97220B6F97010DA
:101C7000FEF72EFCE5E7B6F87810FF2907D1B6F895
:101C80007A10FF2903D1B6F87C10FF2912D06978A9
:101C90002A22112915D0CDE90024B6F97C30B6F9F5
:101CA0007A20B6F97810FEF713FCB6F97E00FF280B
:101CB00015D01DE042462A21AFF22C10FEF79BFB07
:101CC000F3E7A978491CC9B2CDE90021B6F97C3007
:101CD000B6F97A20B6F97810FEF7FAFBE5E739880D
:101CE000FF2905D17988FF2902D1B988FF2938D089
:101CF0006978282213293BD0CDE90024B7F90430B4
:101D0000B7F90220B7F90010FEF7E2FB4FF0000030
:101D1000FA4903AA0B5C135400F10100C0B2092870
:101D2000F8D38DF8154068780A282FD0AA780023B8
:101D30003C2103A8FEF7AAFBF07D00282DD0A0F1DE
:101D40000100F07507F12C000FC8FEF7F4FC388B8A
:101D5000327E0DF5AD6D4021BDE8F04780B2FEF753
:101D600060BB42462821AFF2D810FEF744FBCDE716
:101D7000A978491CC9B2CDE90021B7F90430B7F9F7
:101D80000220B7F90010FEF7A3FBBFE7AA780123F2
:101D90003C2103A8FEF77AFBCEE70DF5AD6DBDE85B
:101DA000F0872DE9F043D649086A40F40010086234
:101DB000486B20F400104863086A20F0F86008625D
:101DC000D048C26CD04B02EA0302C264086C40F4F3
:101DD00080700864486D20F4807048654FF0000002
:101DE00000BF00BF00BF00BF00BF00BF00BF00BFFB
:101DF00000F10100C0B2C828F2D3086C40F4807032
:101E00000864486D40F480704865486BBF4F60F0CF
:101E1000F8604FEA90523A64A7F1800338461C7F7D
:101E2000456C587F997FA2F5407905F07F064FF009
:101E3000010C4FF00008B9F1FF0901D0AA4219D0F6
:101E400083F81F80042C00D228B193F8204014B9E5
:101E500083F821C0DD76884202D383F821C0DE7684
:101E600083F820804FF01400987783F81C8083F863
:101E70001D801EE004F10104E4B21C77042C18D389
:101E800083F81C8000F10100C0B25877884210D35B
:101E9000DE7683F81D8083F821C083F820C0D87FC8
:101EA00038B14FEA51009877022802D84FF002006B
:101EB00098777A64BDE8F0832DE9F05F934F0026B0
:101EC000803F97F82100002821D007F1CD00FA7E4D
:101ED00003788E4DF92A0BD00124E72A1DD0792AE8
:101EE000F2D07A2A1FD04FF0050AFE2A25D027E02B
:101EF0008B2B0DD0D5F84D00C5F8520015F8510FB9
:101F0000687100231A4610218B20FEF7FFFBD5E3F2
:101F100000210846FEF7D0FBF9E7EC6353210020CF
:101F2000FEF7C4F9F3E797F8230018B187F82360A8
:101F3000FE77ECE787F82340FAE73979032913D0D5
:101F400072494D318B2B91F9011001F1010C4FFABF
:101F50008CF8A1F1010C4FFA8CF90DD0012B77D040
:101F60008046C42B73D0D2E787F804A005214FF434
:101F7000B47005F094FACAE7EF2A12D0F72A19D004
:101F8000044601291FD00529C1D020460E2940D082
:101F90005E494D31FD2A91F904103FD0FB2A49D00A
:101FA000B5E780F80180067110220021401CFEF781
:101FB00003F9ACE780F80190067110220021401C63
:101FC000FEF7FAF8A3E7FD2A0BD1A078A0F10100F3
:101FD000A0704FF01E024FF0000104F10200FEF766
:101FE000F6F8F87EFB280BD1A07800F10100A07074
:101FF0004FF01E024FF0000104F10200FEF7E7F877
:10200000F87EFE2888D126706670A670E67026716C
:102010007DE7FE2A86D102F06FFF78E7A1F101018A
:1020200001714FF004024FF0000100F10400FEF7CF
:10203000CEF86CE701F1010101714FF004024FF09D
:10204000000100F10400FEF7C2F860E700E05AE189
:10205000DFF8B8A0FB2AAAF1800ABAF94440BAF91D
:102060004030BAF9425003EB040BBAF946A0AB4436
:1020700008D0FD2A16D0F72A24D0FE2A24D07E2AA2
:102080007CD044E780F80180BAF1000F01D0012133
:1020900000E0002159440C314AB20021401CFEF7F7
:1020A00096F834E780F80190BAF1000F01D00121D1
:1020B00000E0002159440C314AB20021401CFEF7D7
:1020C00086F824E7467022E70029A1D020DD994256
:1020D0001EDC0E4838380078552806D0002201232F
:1020E00011462320FEF712FB11E700220CF0FF033C
:1020F00011462320FEF70AFB09E70000065F0010E7
:1021000000C0092000C00240FF0FC0FFA400001063
:10211000DFF8348A08F1CD02B8F940C092F9012005
:10212000B8F94280A2EB0C02521EC444994208DD69
:10213000614506DCD3B2002211462D20FEF7E6FAF7
:10214000E5E661450ADD23442B44994206DCD3B21F
:1021500000221146C520FEF7D9FAD8E60CEB04029E
:10216000531C99420BD100231A4619461420FEF73E
:10217000CDFA4FF47A70FEF709F8C8E6B8E0931C80
:1021800099420AD100231A4619464A20FEF7BEFAA0
:102190004FF47A70FDF7FAFFB9E6D31C994290D05C
:1021A000131D99420AD100231A460121C120FEF7CE
:1021B000ADFA4FF47A70FDF7E9FFA8E6531D994296
:1021C0000DD1BAF1000F0AD000231A461946C320D8
:1021D000FEF79CFA4FF47A70FDF7D8FF97E6BAF154
:1021E000000F01D0012300E0002363449B1D8B42BC
:1021F0000AD100231A4619464220FEF787FA4FF407
:102200007A70FDF7C3FF82E6BAF1000F01D0012317
:1022100000E000231344DB1D8B420BD100231A4640
:1022200019463020FEF772FA3220FDF7AFFFFFF7B4
:1022300036F86CE6BAF1000F01D0012300E000236C
:10224000134408338B420AD100231A461946B8209A
:10225000FEF75CFA4FF47A70FDF798FF57E6BAF193
:10226000000F01D0012300E00023134409338B4207
:1022700001D146704BE6BAF1000F01D0012000E019
:10228000002010440A3088420AD100231A46194619
:10229000BA20FEF73BFA4FF47A70FDF777FF36E687
:1022A000BAF1000F01D0012000E0002010440B30F3
:1022B00088420AD1002201231146BA20FEF726FAED
:1022C0004FF47A70FDF762FF21E6BAF1000F01D0FA
:1022D000012000E0002010440C30884293D10023FC
:1022E0001A4619465B20FEF711FAFEF7D8FF0EE6F4
:1022F00000231A461946C420FEF708FA4FF47A70F4
:10230000FDF744FF03E64FF47A70FDF73FFF4FF00F
:102310000102B7F94A0008B14FF01502F97E4FF0FB
:102320000D094FF00F0BFB2912D0FD297ED07B2920
:102330007DD040F2CE294FF4347A40F2D22B672977
:1023400076D098F90130002B73D0012B72D0B6E112
:1023500098F8010000F1010041B288F8011002294B
:1023600006D198F8040018B988F8044088F802608B
:102370004046032906D14FF0040141704FF003019C
:10238000017186704178052905D14FF00601417031
:1023900080F804A086704178072903D14FF0080126
:1023A0004170867090F901100A2900D186700B29BE
:1023B00003D14FF00A03037186700C2901D180F814
:1023C000019090F901100D2903D14FF00C03037116
:1023D00086700E2901D180F801B090F901100F2903
:1023E00003D14FF00E0303718670102902D14FF014
:1023F0001101417090F90110112903D14FF0100320
:1024000003718670122902D14FF01301417090F9C7
:102410000110132903D14FF01203037186701429A0
:1024200002D14FF01501417052B204E008E051E0D2
:1024300053E01DE12FE10021401CFDF7C8FE66E5D9
:1024400098F80100A0F1010088F8010052B24FF0A5
:10245000000108F10100FDF7BAFE98F80100142808
:1024600003D14FF0130088F8010098F801001228FA
:1024700003D14FF0110088F8010098F801001028EE
:1024800001D188F801B098F801000E2801D188F830
:10249000019098F801000C2803D14FF00B0088F848
:1024A000010098F80100072803D14FF0060088F8D2
:1024B000010098F80100052803D14FF0040088F8C6
:1024C000010098F801000328B9D14FF0020088F804
:1024D00001001CE588F8012019E501214FF4337053
:1024E00005F014F80121484605F010F8C0215046C7
:1024F00005F00CF8A821584605F008F801214FF422
:10250000357005F003F8FB2140F2D62004F0FEFF01
:10251000FF214FF4367004F0F9FFFF2140F2DA207A
:1025200004F0F4FFFF214FF4377004F0EFFF0021B7
:1025300040F2DE2004F0EAFFC0214FF4437004F0C3
:10254000E5FFA82140F20E3004F0E0FF01214FF436
:10255000447004F0DBFFFE2140F2123004F0D6FF9D
:10256000A1214FF4427004F0D1FFA22140F20A30C1
:1025700004F0CCFF312140F2DA3004F0C7FF322101
:102580004FF4777004F0C2FF332140F2DE3004F0E4
:10259000BDFF00214FF4787004F0B8FF002140F235
:1025A000E23004F0B3FFFF214FF4387004F0AEFFC7
:1025B000FF2140F2E22004F0A9FFFF214FF439701F
:1025C00004F0A4FFFF2140F2E62004F09FFFFF216A
:1025D0004FF43A7004F09AFFFF2140F2EA2004F031
:1025E00095FFFF214FF43B7004F090FFFF2140F274
:1025F000EE2004F08BFFFF214FF43C7004F086FFC7
:10260000FF2140F2F22004F081FFFF214FF43D70E2
:1026100004F07CFFFF2140F2F62004F077FFFF2159
:102620004FF43E7004F072FFFF2140F2FA2004F0F4
:102630006DFFFF214FF43F7004F068FFFF2140F26F
:10264000FE2004F063FFFF214FF4407004F05EFFB2
:10265000FF2140F2023004F059FFFF214FF4417096
:1026600004F054FFFF2140F2063004F04FFF4EE427
:10267000FE2903D0F72901D0EF29F8D128B1002194
:102680004FF4337004F042FF41E401214FF4337002
:1026900004F03CFF3BE490B1FE2903D0F72901D0C0
:1026A000EF29E4D1B7F84C0020B10021484604F0EE
:1026B0002DFF2CE40121484604F028FF0BE2022BF9
:1026C00019D0042B6FD0062B6ED0082B6DD0092BA0
:1026D0006CD00A2B6BD040460B2B69D00D2B68D0E9
:1026E0000F2B67D0112B7BD0132B7AD09342BED106
:1026F000FE2977D0EFE17E2909D098F90200A8B130
:10270000012847D002286ED003286DD0E3E198F865
:10271000020000F1010088F802004FF003024FF0C0
:10272000000108F10200FDF747FDD4E1EF2906D0D2
:102730006F2904D0F72917D0772915D028E0B7F8EA
:102740004E0000F10100A7F84E00FF484FF0FF02D5
:102750004FF0000100F14E00FDF74FFDB7F94E10AC
:10276000504604F0D3FE13E0B7F84E00A0F101008C
:10277000A7F84E00F4484FF0FF024FF0000100F1BF
:102780004E00FDF73AFDB7F94E10504604F0BEFE7C
:10279000FC77A0E1EF290ED06F290CD0F72924D0C7
:1027A000772922D035E0A2E096E17AE29DE2C0E20C
:1027B00049E3F0E3F0E3B7F8500000F10100A7F8B7
:1027C0005000E1484FF0FF024FF0000100F15000CF
:1027D000FDF713FDB7F95010584604F097FE18E0C6
:1027E000F0E3F0E3F0E316E04BE0B7F85000A0F1BF
:1027F0000100A7F85000D4484FF0FF024FF000014D
:1028000000F15000FDF7F9FCB7F95010584604F0FC
:102810007DFEFC775FE1EF2906D06F2904D0F72910
:1028200018D0772916D02AE0B7F8520000F101003D
:10283000A7F85200C4484FF0FF024FF0000100F12A
:102840005200FDF7DAFCB7F952104FF4357004F07E
:102850005DFE14E0B7F85200A0F10100A7F85200A5
:10286000B9484FF0FF024FF0000100F15200FDF7B0
:10287000C4FCB7F952104FF4357004F047FEFC77F2
:1028800029E1EF2906D06F2904D0F72918D077293C
:1028900016D02AE0B7F8540000F10100A7F8540060
:1028A000A9484FF0FF024FF0000100F15400FDF77E
:1028B000A4FCB7F9541040F2D62004F027FE14E02F
:1028C000B7F85400A0F10100A7F854009E484FF05B
:1028D000FF024FF0000100F15400FDF78EFCB7F944
:1028E000541040F2D62004F011FEFC77F3E07E296C
:1028F00009D098F90200A8B1012849D002287FD058
:1029000003287CD0E7E098F8020000F1010088F885
:1029100002004FF003024FF0000108F10200FDF742
:102920004BFCD8E0EF2906D06F2904D0F72918D046
:10293000772916D02AE0B7F8560000F10100A7F871
:10294000560081484FF0FF024FF0000100F15600A1
:10295000FDF753FCB7F956104FF4367004F0D6FD6E
:1029600014E0B7F85600A0F10100A7F85600764829
:102970004FF0FF024FF0000100F15600FDF73DFC63
:10298000B7F956104FF4367004F0C0FDFC77A2E0A2
:10299000EF2906D06F2904D0F72918D0772916D04F
:1029A0002AE0B7F8580000F10100A7F8580066487F
:1029B0004FF0FF024FF0000100F15800FDF71DFC41
:1029C000B7F9581040F2DA2004F0A0FD14E0B7F88F
:1029D0005800A0F10100A7F858005B484FF0FF0233
:1029E0004FF0000100F15800FDF707FCB7F958104F
:1029F00040F2DA2004F08AFDFC776CE000E035E07C
:102A0000EF2906D06F2904D0F72918D0772916D0DE
:102A10002AE0B7F85A0000F10100A7F85A004A4826
:102A20004FF0FF024FF0000100F15A00FDF7E5FB07
:102A3000B7F95A104FF4377004F068FD14E0B7F896
:102A40005A00A0F10100A7F85A003F484FF0FF02DA
:102A50004FF0000100F15A00FDF7CFFBB7F95A1013
:102A60004FF4377004F052FDFC7734E0EF2906D0C4
:102A70006F2904D0F72918D0772916D02AE0B7F8A3
:102A80005C0000F10100A7F85C002F484FF0FF0246
:102A90004FF0000100F15C00FDF7AFFBB7F95C10EF
:102AA00040F2DE2004F032FD14E0B7F85C00A0F143
:102AB0000100A7F85C0024484FF0FF024FF000012E
:102AC00000F15C00FDF799FBB7F95C1040F2DE20E5
:102AD00004F01CFDFC7704E27E2909D098F902007D
:102AE000A8B1012845D0022877D0032874D0F8E196
:102AF00098F8020000F1010088F802004FF003028C
:102B00004FF0000108F10200FDF756FBE9E1EF2963
:102B100006D06F2904D0F72918D0772916D026E0DF
:102B2000688900F10100688107484FF0FF024FF00B
:102B3000000100F18A00FDF760FBB5F90A104FF4BF
:102B4000437004F0E3FC12E0240000106889A0F157
:102B5000010068814FF0FF024FF00001FC48FDF7D3
:102B60004CFBB5F90A104FF4437004F0CFFCFC772E
:102B7000B7E1EF2906D06F2904D0F72916D07729BD
:102B800014D026E0A88900F10100A881F0484FF098
:102B9000FF024FF0000100F10200FDF72EFBB5F936
:102BA0000C1040F20E3004F0B1FC12E0A889A0F144
:102BB0000100A881E6484FF0FF024FF0000100F14C
:102BC0000200FDF71AFBB5F90C1040F20E3004F0CC
:102BD0009DFCFC7785E100E031E0EF2906D06F290C
:102BE00004D0F72916D0772914D026E0E88900F11F
:102BF0000100E881D6484FF0FF024FF0000100F1DC
:102C00000400FDF7FAFAB5F90E104FF4447004F021
:102C10007DFC12E0E889A0F10100E881CC484FF08A
:102C2000FF024FF0000100F10400FDF7E6FAB5F9EC
:102C30000E104FF4447004F069FCFC7751E1EF2969
:102C400006D06F2904D0F72916D0772914D026E0B2
:102C5000288A00F101002882BD484FF0FF024FF0A2
:102C6000000100F10600FDF7C8FAB5F9101040F2B6
:102C7000123004F04BFC12E0288AA0F101002882F7
:102C8000B3484FF0FF024FF0000100F10600FDF7DE
:102C9000B4FAB5F9101040F2123004F037FCFC77AA
:102CA0001FE1EF2906D06F2909D0F7290CD0772929
:102CB0000FD012E0E88800F10100E8800DE0E8881C
:102CC00000F10200E88008E0E888A0F10100E88057
:102CD00003E0E888A0F10200E880FC77B5F906106F
:102CE0004FF4427004F012FCFBE0EF2906D06F298C
:102CF00009D0F7290CD077290FD012E0288900F1EC
:102D0000010028810DE0288900F10200288108E0F7
:102D10002889A0F10100288103E02889A0F10200A0
:102D20002881FC77B5F9081040F20A3004F0EEFB78
:102D3000D7E07E290DD198F8020000F1010088F853
:102D400002004FF008024FF0000108F10200FDF709
:102D500033FAF87E2025DFF8FC91EF2801D06F28A8
:102D600035D198F9020019F8001001F10101C9B23A
:102D700009F80010202902D209F800501EE0A1F144
:102D800021020F2A04D24FF0300109F8001015E09B
:102D9000A1F13A02072A04D24FF0410109F80010CC
:102DA0000CE0A1F15B02062A04D24FF0610109F8A0
:102DB000001003E07A2901D909F8005019F8001031
:102DC00040F2DA3202EB400004F0A0FBFC77F87E20
:102DD000F72801D0772887D198F9020019F8001058
:102DE000A1F10101C9B209F800104FF07A022029BF
:102DF00002D209F800201CE0A1F121030F2B02D21E
:102E000009F8005015E0A1F13A03072B04D24FF066
:102E1000390109F800100CE0A1F15B03062B04D284
:102E20004FF05A0109F8001003E07A2901D909F896
:102E3000002019F8001040F2DA3202EB400004F0F2
:102E400065FBFC774DE07E2909D090F9020098B12E
:102E5000012847D002287FD003287ED041E0817826
:102E600001F1010181704FF003024FF0000100F108
:102E70000200FDF7A1F934E0EF2906D06F2904D054
:102E8000F72918D0772916D02AE0B7F85E0000F1AC
:102E90000100A7F85E002E484FF0FF024FF000013E
:102EA000A0F12C00FDF7A9F9B7F95E104FF43870C6
:102EB00004F02CFB14E0B7F85E00A0F10100A7F8C5
:102EC0005E0023484FF0FF024FF00001A0F12C00FC
:102ED000FDF793F9B7F95E104FF4387004F016FB64
:102EE000FC771FE2EF2906D06F2904D0F72918D00C
:102EF000772916D02AE0B7F8600000F10100A7F8A2
:102F0000600013484FF0FF024FF00001A0F12A00CB
:102F1000FDF773F9B7F9601040F2E22004F0F6FA19
:102F200014E0B7F86000A0F10100A7F860000848BD
:102F30004FF0FF024FF00001A0F12A00FDF75DF90C
:102F4000B7F9601040F2E22004F0E0FAFC77E9E122
:102F5000AE000010065F001000E036E0EF2906D05A
:102F60006F2904D0F72918D0772916D028E0B7F8B0
:102F7000620000F10100A7F862004FF0FF024FF07D
:102F80000001F948FDF739F9B7F962104FF43970CB
:102F900004F0BCFA14E04EE040E1B7F86200A0F1A2
:102FA0000100A7F862004FF0FF024FF00001EE4869
:102FB000FDF723F9B7F962104FF4397004F0A6FA5F
:102FC000FC77FBE31DE20FE3F3E3EF2906D06F2963
:102FD00004D0F72918D0772916D02AE0B7F8640072
:102FE00000F10100A7F86400DF484FF0FF024FF046
:102FF000000100F10200FDF700F9B7F9641040F29A
:10300000E62004F083FA14E0B7F86400A0F10100B0
:10301000A7F86400D4484FF0FF024FF0000100F120
:103020000200FDF7EAF8B7F9641040F2E62004F078
:103030006DFAFC77C2E37E2909D090F9020098B1BD
:10304000012847D002287DD003287AD0B6E38178C2
:1030500001F1010181704FF003024FF0000100F116
:103060000200FDF7A9F8A9E3EF2906D06F2904D0E3
:10307000F72918D0772916D02AE0B7F8660000F1B2
:103080000100A7F86600B8484FF0FF024FF00001BA
:1030900000F10400FDF7B1F8B7F966104FF43A708B
:1030A00004F034FA14E0B7F86600A0F10100A7F8C4
:1030B0006600AD484FF0FF024FF0000100F1040040
:1030C000FDF79BF8B7F966104FF43A7004F01EFA5A
:1030D000FC7773E3EF2906D06F2904D0F72918D0C5
:1030E000772916D02AE0B7F8680000F10100A7F8A8
:1030F00068009D484FF0FF024FF0000100F106000C
:10310000FDF77BF8B7F9681040F2EA2004F0FEF909
:1031100014E0B7F86800A0F10100A7F86800924831
:103120004FF0FF024FF0000100F10600FDF765F8D7
:10313000B7F9681040F2EA2004F0E8F9FC773DE3C3
:1031400000E035E0EF2906D06F2904D0F72918D028
:10315000772916D02AE0B7F86A0000F10100A7F835
:103160006A0081484FF0FF024FF0000100F10800B3
:10317000FDF743F8B7F96A104FF43B7004F0C6F955
:1031800014E0B7F86A00A0F10100A7F86A007648D9
:103190004FF0FF024FF0000100F10800FDF72DF89D
:1031A000B7F96A104FF43B7004F0B0F9FC7705E30F
:1031B000EF2906D06F2904D0F72918D0772916D027
:1031C0002AE0B7F86C0000F10100A7F86C0066482F
:1031D0004FF0FF024FF0000100F10A00FDF70DF87B
:1031E000B7F96C1040F2EE2004F090F914E0B7F853
:1031F0006C00A0F10100A7F86C005B484FF0FF02E3
:103200004FF0000100F10A00FCF7F7FFB7F96C106E
:1032100040F2EE2004F07AF9FC77CFE27E2909D063
:1032200090F9020098B1012847D002287DD00328E8
:103230007AD0C3E2817801F1010181704FF003027D
:103240004FF0000100F10200FCF7B6FFB6E2EF29F3
:1032500006D06F2904D0F72918D0772916D02AE094
:10326000B7F86E0000F10100A7F86E003E484FF07D
:10327000FF024FF0000100F10C00FCF7BEFFB7F9B0
:103280006E104FF43C7004F041F914E0B7F86E0092
:10329000A0F10100A7F86E0033484FF0FF024FF095
:1032A000000100F10C00FCF7A8FFB7F96E104FF415
:1032B0003C7004F02BF9FC7780E2EF2906D06F29EF
:1032C00004D0F72918D0772916D02AE0B7F8700073
:1032D00000F10100A7F8700023484FF0FF024FF003
:1032E000000100F10E00FCF788FFB7F9701040F202
:1032F000F22004F00BF914E0B7F87000A0F101001F
:10330000A7F8700018484FF0FF024FF0000100F1DD
:103310000E00FCF772FFB7F9701040F2F22004F0D3
:10332000F5F8FC774AE200E035E0EF2906D06F2996
:1033300004D0F7291AD0772918D02AE0B7F87200FC
:1033400000F10100A7F8720007484FF0FF024FF0AC
:10335000000100F11000FCF750FFB7F972104FF4B4
:103360003D7004F0D3F814E086000010B7F8720046
:10337000A0F10100A7F872004FF0FF024FF000012A
:10338000F848FCF73AFFB7F972104FF43D7004F0BB
:10339000BDF8FC7712E2EF2906D06F2904D0F72997
:1033A00018D0772916D02AE0B7F8740000F1010090
:1033B000A7F87400EB484FF0FF024FF0000100F156
:1033C0000200FCF71AFFB7F9741040F2F62004F07F
:1033D0009DF814E0B7F87400A0F10100A7F874009C
:1033E000E0484FF0FF024FF0000100F10200FCF74F
:1033F00004FFB7F9741040F2F62004F087F8FC7768
:10340000DCE17E2909D090F9020098B1012847D06B
:1034100002287DD003287AD0D0E1817801F1010122
:1034200081704FF003024FF0000100F10200FCF741
:10343000C3FEC3E1EF2906D06F2904D0F72918D0C5
:10344000772916D02AE0B7F8760000F10100A7F836
:103450007600C4484FF0FF024FF0000100F1040075
:10346000FCF7CBFEB7F976104FF43E7004F04EF83F
:1034700014E0B7F87600A0F10100A7F87600B9488B
:103480004FF0FF024FF0000100F10400FCF7B5FE21
:10349000B7F976104FF43E7004F038F8FC778DE100
:1034A000EF2906D06F2904D0F72918D0772916D034
:1034B0002AE0B7F8780000F10100A7F87800A948E1
:1034C0004FF0FF024FF0000100F10600FCF795FEFF
:1034D000B7F9781040F2FA2004F018F814E0B7F8C1
:1034E0007800A0F10100A7F878009E484FF0FF0295
:1034F0004FF0000100F10600FCF77FFEB7F97810ED
:1035000040F2FA2004F002F8FC7757E100E035E0E1
:10351000EF2906D06F2904D0F72918D0772916D0C3
:103520002AE0B7F87A0000F10100A7F87A008D4888
:103530004FF0FF024FF0000100F10800FCF75DFEC4
:10354000B7F97A104FF43F7003F0E0FF14E0B7F8DA
:103550007A00A0F10100A7F87A0082484FF0FF023C
:103560004FF0000100F10800FCF747FEB7F97A10B0
:103570004FF43F7003F0CAFFFC771FE1EF2906D03C
:103580006F2904D0F72918D0772916D02AE0B7F888
:103590007C0000F10100A7F87C0072484FF0FF02A8
:1035A0004FF0000100F10A00FCF727FEB7F97C108C
:1035B00040F2FE2003F0AAFF14E0B7F87C00A0F16F
:1035C0000100A7F87C0067484FF0FF024FF00001B0
:1035D00000F10A00FCF711FEB7F97C1040F2FE2062
:1035E00003F094FFFC77E9E07E2909D090F902000E
:1035F00098B1012847D0022879D0032876D0DDE0A1
:10360000817801F1010181704FF003024FF0000158
:1036100000F10200FCF7D0FDD0E0EF2906D06F29C1
:1036200004D0F72918D0772916D02AE0B7F87E0001
:1036300000F10100A7F87E004A484FF0FF024FF06A
:10364000000100F10C00FCF7D8FDB7F97E104FF433
:10365000407003F05BFF14E0B7F87E00A0F10100BA
:10366000A7F87E003F484FF0FF024FF0000100F145
:103670000C00FCF7C2FDB7F97E104FF4407003F068
:1036800045FFFC779AE0EF2906D06F2904D0F7298F
:1036900016D0772914D026E0288800F10100288070
:1036A00030484FF0FF024FF0000100F10E00FCF730
:1036B000A4FDB5F9001040F2023003F027FF12E03C
:1036C0002888A0F10100288026484FF0FF024FF023
:1036D000000100F10E00FCF790FDB5F9001040F27A
:1036E000023003F013FFFC7768E000E031E0EF29DF
:1036F00006D06F2904D0F72916D0772914D026E0F8
:10370000688800F10100688016484FF0FF024FF012
:10371000000100F11000FCF770FDB5F902104FF444
:10372000417003F0F3FE12E06888A0F101006880A8
:103730000C484FF0FF024FF0000100F11000FCF7C1
:103740005CFDB5F902104FF4417003F0DFFEFC7729
:1037500034E0EF2908D06F2906D0F72916D0772951
:1037600014D024E096000010A88800F10100A88081
:103770004FF0FF024FF00001FF48FCF73EFDB5F9A6
:10378000041040F2063003F0C1FE10E0A888A0F15A
:103790000100A8804FF0FF024FF00001F648FCF74F
:1037A0002CFDB5F9041040F2063003F0AFFEFC77B3
:1037B00004E0FFE700210846FCF77EFF87F8216060
:1037C000BDE8F09F4FF08040EC4941604FF00001B0
:1037D00001614FF0030101704FF0AA0101724FF037
:1037E0005501017270474FF080404FF0AA010172FD
:1037F0004FF055010172704730B5DF498439488D6B
:1038000000F1010000B24885142802DD4FF00000ED
:1038100048854FF00000DA4DB1F92A40C0EBC002F4
:1038200002EB001200EB040105EB820201F52F739D
:10383000D36101F13203536201F12303DBB29362DE
:1038400001F10A03937082F8421000F10100C0B246
:103850000528E3D330BD2DE9F041C74E4FF00105F7
:10386000A6F18406F572B07DC64938B1086A40F009
:1038700080600862486B80F080604863708F00242D
:10388000401C00B27087022875DB7487B5724869E6
:10389000C0F3C0607076B849B27E091F904203D071
:1038A0008A8B02F101028A83B076B08F401C00B28D
:1038B000B087142801DBB4877573308E401C00B2CA
:1038C00030860A2857DB34863573C88B00F1010037
:1038D00000B2C883B0F5FA7F03DBCC83888B4883C2
:1038E0008C83708E42F21077401C00B270860A28DA
:1038F0000ADB7486B573FCF7B1FCB6F92600B84252
:1039000002DA00F10100F084B08E401C00B2B086F3
:10391000142806DBB486F573F07C08B1F47400E07B
:10392000F574F08E401C00B2F086322806DBF48677
:103930003574307D08B1347500E03575308F401C2A
:1039400000B23087642816DB34877574B6F9280016
:10395000B84202DA00F101003085707D08B174755B
:1039600000E07575F08F00F1010000B2F0873C288F
:1039700001DBF487B5748449844A0878062808D2A4
:1039800000F10100C0B20870062800D31570BDE830
:10399000F081FCD90C701470F9E71CB57CA003C849
:1039A000CDE9000102F0E2FF734E4FF00109A6F1EC
:1039B000840686F8169078484FF4FA610068B0FBE8
:1039C000F1F14FF0E020A1F1010141614FF0070159
:1039D00001616B494FF00500887081F85E0081F845
:1039E000BA0081F8160181F8720181F8CE0181F8E0
:1039F0002A02644C206820F000602060206C40F0B7
:103A000080002064206C40F480702064206E40F0C0
:103A100000702066E06F40F00070E06703F097F8F8
:103A20005E48A0F101000028FBD14FF0210003F017
:103A3000A1F80D2003F09EF8112003F09BF844201C
:103A400003F098F8564947F6FF7048808880C88090
:103A5000088148818881C881088248828882C8821A
:103A6000088348838883C88348848884C8840885F9
:103A700048858885C885088648868886C8860887D8
:103A800048878887C88747490880488003F048FBF3
:103A900003F098FB03F07AFBFCF78CFE364F4937B6
:103AA00087F80090404B41A246A11846FCF743FE20
:103AB000206840F400602060A06940F40060A061CC
:103AC0004FF086014FF0640003F020FD02F030F863
:103AD000A7F14D08B8F9120000EB8000410000206A
:103AE00003F0F6FDA7F1250001788DF80510417867
:103AF0008DF8041080788DF8030006226946374857
:103B000009F0FAF940F2DA3003F042FC344D287043
:103B10004FF4777003F03CFCC0B268704FF00004C3
:103B200008B1202800D16C7040F2DE3003F030FC88
:103B3000C0B2A87008B1202800D1AC704FF47870E2
:103B400003F026FCC0B2E87008B1202800D1EC7068
:103B500040F2E23003F01CFCC0B2287108B120280A
:103B600000D12C714FF4797003F012FCC0B268716F
:103B700008B1202837D135E0A800001080841E004D
:103B8000E0EB072000C00920225800102458001044
:103B9000007304323C46000020C1072080A90300C6
:103BA000CC0308201E580010701600002020202092
:103BB000202045746865726E6574202020202020C6
:103BC0000000000020202020C8EDE8F6E8E0EBE847
:103BD000E7E0F6E8FF2020200000000000000010D1
:103BE000080000106C7140F2E63003F0D1FBC0B267
:103BF000A87108B1202800D1AC714FF47A7003F09D
:103C0000C7FBC0B2E87108B1202800D1EC7140F2C6
:103C1000EA3003F0BDFBC0B2287208B1202800D101
:103C20002C726C72764BAFF27C02AFF268011846D0
:103C3000FCF781FDFDF73DFB724803F0CBFA08F07D
:103C40003DFF704803F0C6FAFDF706FB4FF03A055A
:103C5000FFF7B8FDB8F9120000EB8000400004F057
:103C6000CBFF6948A0F101000028FBD1B8F9120090
:103C700000EB80004FEA400004F0BEFF634B0A22D5
:103C8000002101200AF012FA86F8240018B14FF43E
:103C9000FB710AF04FFA4FF4165005F01EFB5C4A18
:103CA000032100200AF0B8FD5A49087018B140F20B
:103CB000E9310AF0D5FD87F80090DFF85CB1DFF854
:103CC0005CA1574FB47509F0E9F8387810B13C7031
:103CD00004F0F0FB9BF8000018B18BF8004005F0F1
:103CE00074FC5048017811B1047003F03DFF707A04
:103CF00000B17472F07A00B1F472B07A10B1B4729B
:103D000004F0C6FF307B40B13473B078F1780843DB
:103D100001D1FEF746F8FEF7CFF8707B00B174735F
:103D2000387810B13C7004F0C5FBB07B10B30AF0DA
:103D300065FDC8F82490B473FDF709FBFDF7B9FAE7
:103D4000F07810B92F4803F045FAFCF7FDF9FCF7BD
:103D500020FA9AF80000401CC0B28AF800000D2832
:103D600008D38AF80040B8F9120000EB8000400048
:103D700004F042FFF07B70B1F473F07808B902F000
:103D800078FFF07808B901F0D3FE00F04FF8B08D5D
:103D900000F10100B085307C20B13474F08D00F169
:103DA0000100F085387810B13C7004F083FB707C22
:103DB00000B374741C49087800F101000870FFF723
:103DC0001BFDB07808B9FFF70EFD96F8220000F150
:103DD000010086F8220005F10105EDB23C2D07D364
:103DE0004FF0000503F09CF903F0ECF903F0CEF975
:103DF00001F0B4F8B07C00283FF464AFB47461E71C
:103E0000701600004CF60720804F1200698D0000EC
:103E10008D4D0000D857001059C107204BC1072015
:103E20002458001031C10720EC0000102DE9F05F8C
:103E3000FF4C2088FF4F3884FF4800887884FF4873
:103E40000088B884FE480088F884FE4800883885D9
:103E5000FD4800887885FD480088B885FC480088C2
:103E60007882FC480088B882FB480088F882FB48CA
:103E700000883883FA4800887883FA480088B88335
:103E800040F6026003F084FAF883F7480088B886A9
:103E9000F5484088F886F44880883887F3480188D8
:103EA00079874188B9878088F887F14807F18008C9
:103EB0000068C8F84C00EF480088A7F84200208846
:103EC000A7F8400007F1AC0C4FF00100ACF800007F
:103ED000E94A07F1B0065188318006F1180193884C
:103EE0000B8006F1040511892980E4490988A1F5B0
:103EF000AC432F3B01D0283307D1E14991F8E012C0
:103F0000092902D1DF4909882980DFF828B35189BE
:103F10000BF1B80BABF80010DFF86CA345F2555E5F
:103F20000BF10403BAF90010714503D1D749098890
:103F3000198000E01980BF49148AC0310C80BD4C43
:103F400092F83D10C4342180D14991F80090FF21AE
:103F5000B9F1550F00D021804FF00209ACF8029062
:103F6000B2F84EC0A6F802C0B24EB2F850C006F188
:103F7000C806A6F802C0B2F854606E80B2F8565077
:103F8000ABF80250BAF90250754503D1BF4D6D88A8
:103F90005D8000E05D80A74BB2F85C50C0335D806F
:103FA00092F889206280BA4A5278552A00D06180FE
:103FB000B84C2080B24B04F11005DA692A8004F174
:103FC00020065A6A328004F1300C9A6AACF800205C
:103FD00004F1400293F801A0A2F800A0DFF874A257
:103FE000BAF900A0BAF1000F00DC1180A4F8029029
:103FF000D3F878B0A5F802B0D3F880B0A6F802B034
:10400000D3F884B0ACF802B093F85DB0A2F802B077
:10401000BAF1010F00DC51804FF0030EA4F804E068
:10402000D3F8D4B0A5F804B0D3F8DCB0A6F804B047
:10403000D3F8E0B0ACF804B093F8B9B0A2F804B08B
:10404000BAF1020F00DC91804FF0040BA4F806B027
:10405000D3F830B1A5F806B0D3F838B1A6F806B059
:10406000D3F83CB1ACF806B093F815B1A2F806B09D
:10407000BAF1030F00DCD1804FF0050BA4F808B0B3
:10408000D3F88CB1A5F808B0D3F894B1A6F808B06D
:10409000D3F898B1ACF808B093F871B1A2F808B0B1
:1040A000BAF1040F00DC11814FF0060BA4F80AB03E
:1040B000D3F8E8B1A5F80AB0D3F8F0B1A6F80AB081
:1040C000D3F8F4B1ACF80AB093F8CDB1A2F80AB0C5
:1040D000BAF1050F00DC51814FF0070BA4F80CB0CA
:1040E000D3F844B2A5F80CB0D3F84CB2A6F80CB093
:1040F000D3F850B2ACF80CB093F829B2A2F80CB0D7
:10410000BAF1060F00DC91814FF0080BA4F80EB055
:1041100003F52173DC69EC815C6AF4819C6AACF87C
:104120000E405B78D381BAF1070F00DCD181414AA0
:10413000E43210805849931D8C691C809C1DCD6908
:104140002580A51D0E6A2E80AE1D91F846C0A6F8EA
:1041500000C0A2F80290D1F878C0A3F802C0D1F84C
:104160007CC0A4F802C0D1F880C0A5F802C091F8C4
:10417000A6C0A6F802C0F246A2F804E0D1F8D82002
:104180009A80D1F8DC20A280D1F8E020AA8091F8B2
:104190000611B180A3F11A0E8EF800003D4D3FA12B
:1041A00005F188050A686A644A68AA640989A5F85D
:1041B0004C10DFF8F0B0A4F11C024FF000019BF8A6
:1041C0000030012B33D01170374B1C88194BD8337A
:1041D000002C71D01970354C2678164CDC34012E29
:1041E0006BD021708EF8019031A6D6F800C0C5F8CA
:1041F00058C0D6F804C0C5F85CC03689A5F8606020
:104200009BF80160012E7ED05170274EB6F802C097
:10421000BCF1000F78D05970DFF890C09CF801C055
:10422000BCF1010F71D06170DFF808C046E096E084
:10423000F20200102C030010F6020010E4C0072068
:10424000F4020010E6C00720B8000010BA00001009
:104250006400001066000010680000106A00001082
:104260007E02001060C00720EEC00720020300108D
:1042700010030010FAC0072048EB072096C0072063
:10428000E0EB0720EC020010B2020010AE020010BA
:104290006C000010045D0010F8FB0720446F6F7283
:1042A000000000002A020010B4C007200EC0072042
:1042B000536D6F6B6500000053E054E00CF1D00CBF
:1042C0008CF802A00FF2104CDCF800E0C5F86CE0AE
:1042D000DCF804E0C5F870E0BCF808C0A5F874C0CC
:1042E000FF4DAD78012D46D09170FE4DAD88ADB338
:1042F0009970DFF8F4B39BF80250012D3FD0A17004
:104300004FF0040502E030E031E032E0F74EF570A6
:10431000F74E0FF2E03CDCF800E0C6F800E0DCF815
:1043200004E0C6F804E0BCF808C0A6F808C0EC4EEB
:10433000F678012E25D0D170EA4AD2881AB3D97006
:104340009BF80320012A20D0E170EC4AE74BB2F938
:1043500028403833082C1ADD18801BE00DE010705F
:1043600032E7187037E720703CE750704DE758701F
:1043700052E7607058E79070B7E79870B9E7A0709F
:10438000BEE7D070D8E7D870DAE7E070DDE7022C3E
:1043900000DA1980B2F95240082C01DD588002E0A1
:1043A000022C00DA5980B2F97C40082C01DD98809B
:1043B00002E0022C00DA9980B2F9A640082C01DD57
:1043C000D88002E0022C00DAD980C84C53894034EE
:1043D0002380C64B948948331C80C44CD389503405
:1043E00023800834138A23800834538A2380203C96
:1043F000938E63800834D38E63800834138F638078
:104400000834538F63800834938F6380203CB2F864
:104410005E30A3800834B2F86030A3800834B2F86C
:104420006230A3800834B2F86430A3800834B2F854
:104430006630A380203CB2F88830E3800834B2F8BC
:104440008A30E3800834B2F88C30E3800834B2F864
:104450008E30E3800834B2F89030E380A34B948A26
:1044600068331C8003F10804D68A268003F1100605
:10447000B2F818C0A6F800C003F1180CB2F81AB0D0
:10448000ACF800B003F1200BB2F81CE0ABF800E090
:10449000B2F83EE0A3F802E0B2F840E0A4F802E08F
:1044A000B2F842E0A6F802E0B2F844E0ACF802E06C
:1044B000B2F846E0ABF802E0B2F868E0A3F804E036
:1044C000B2F86AE0A4F804E0B2F86CE0A6F804E000
:1044D000B2F86EE0ACF804E0B2F870E0ABF804E0DB
:1044E000B2F892E0A3F806E0B2F89430E380B2F8B4
:1044F0009630F380B2F89830ACF80630B2F89A30C3
:10450000ABF8063006F11803D48B1C8003F10804C5
:10451000168C268003F11006B2F822C0A6F800C05F
:1045200003F1180CB2F824B0ACF800B003F1200B82
:10453000B2F826E0ABF800E0B2F848E0A3F802E0F9
:10454000B2F84AE0A4F802E0B2F84CE0A6F802E0C3
:10455000B2F84EE0ACF802E0B2F850E0ABF802E09E
:10456000B2F872E0A3F804E0B2F874E0A4F804E052
:10457000B2F876E0A6F804E0B2F878E0ACF804E02F
:10458000B2F87AE0ABF804E0B2F89CE0A3F806E0F9
:10459000B2F89E30E380B2F8A030F380B2F8A230D7
:1045A000ACF80630B2F8A420ABF80620544A1288C2
:1045B000A7F87620534AA4F5B4731288A3F878209C
:1045C000514A1288A3F87A20504A1288A3F87C2016
:1045D0004F4A1288A3F87E204E4A1288A8F800207D
:1045E0004D4A1288A8F802204C4A1288A8F80420E4
:1045F0004B4A1288A8F806204A4A1288A8F80820D0
:10460000494AB2F90070A8F80A70B2F902C0A8F8D5
:104610000CC0B2F904B0A8F80EB0444A1288A3F84E
:104620004820434A1288A3F84A20424A1288A3F835
:104630004C20414A1288A3F84E20404A404BA4F532
:10464000B47412881B88A2EB0303A4F850303D4BCE
:104650001B88A4F852302346A3F854203A4A128803
:10466000A3F85620394A1288A3F85820384A1288ED
:10467000A3F85A20374A1288A3F85C20364A1388D8
:104680002246A2F85E30354A23461288A3F86020FD
:10469000334A1288A3F86220324A1288A3F86420B1
:1046A000314A1288A3F86620304A1288A3F868209D
:1046B0002F4B1B88A4F86A302E4B1B88A4F86C3053
:1046C0002D4B1B88A4F86E302346A3F870202B4A8C
:1046D0001288A3F8722053E053686F636B000000E8
:1046E0002A020010B4C007200EC00720FC030010EF
:1046F0000C5E00102020202020000000D85900105F
:10470000E8C00720640200107602001058C007209D
:10471000780200105AC007206802001046C0072027
:104720006A02001048C00720F802001030C00720BD
:104730004E0200105C02001028C007202AC007208B
:104740005E0200104A0200102EC007205002001026
:1047500038C00720520200105802001034C0072051
:104760005602001032C007205A0200104C020010FE
:1047700040C00720600200102CC007206202001019
:10478000FB4A1288A3F874204FF00002F94CDFF8BE
:10479000E88304F10C0602F10103A35418F802E0C7
:1047A000BEF1000F7ED0B054DAB20C2AF3D3F34935
:1047B000087081F8019081F802A072310F80A1F891
:1047C00002C0A1F804B0EE4CEC4BDB1C2178197050
:1047D000EC494FF0FF32B1F90010012900DA1A70EC
:1047E00066785E70022900DA1A70A4789C7003293A
:1047F00000DA1A70042900DA1A70DE49683108807C
:10480000A1F80290A1F804A0CD804FF00500088126
:104810004FF0060048814FF0070088814FF00000FC
:10482000D94D01F10E0301F11C0601F12A0701F136
:10483000380C01F1460801F1540901F1620A01F155
:10484000700B01F17E0E00EB400101EB001205EB55
:1048500082010C8923F8104035F8222026F8102018
:104860004A8827F810208A882CF81020CA8828F84F
:1048700010204A8929F810208A892AF81020CA892C
:104880002BF810200A8A2EF81020BA4A4C8A02F11E
:10489000F40222F8104002F10E028C8A22F8104035
:1048A000CC8A00E03BE002F10E0222F8104002F157
:1048B0000E024C8B22F8104002F10E028C8B22F873
:1048C0001040AE4A91F83A4002F106021454AB4C43
:1048D00091F83B2004F10904225404F1030491F8F7
:1048E0003C20225404F1030491F83D20225404F1A9
:1048F000030491F83E20225404F1030291F83F1082
:10490000115400F10100C0B203289CD34FF0000005
:1049100000F10100C0B20728FAD3BDE8F09FB154FE
:1049200042E770B501280CD14FF00004974D04F513
:104930006570295D02F0B3FD04F10104E4B2402C7E
:10494000F5D370BD01280FD18C48483001789048CC
:1049500021B1B0F90000002102F0D8BDB0F900008B
:104960004FF0FF3102F0D2BD704701280FD18348CC
:1049700048304178864821B1B0F90200002102F0A8
:10498000C5BDB0F902004FF0FF3102F0BFBD704766
:1049900001280FD17948483081787D4821B1B0F99C
:1049A0000400002102F0B2BDB0F904004FF0FF3165
:1049B00002F0ACBD704701280FD170484830C17873
:1049C000734821B1B0F90600002102F09FBDB0F993
:1049D00006004FF0FF3102F099BD7047012806D163
:1049E00066489038B0F94810862002F08FBD7047B5
:1049F000012806D161489038B0F94A10802002F0B1
:104A000085BD7047012806D15C489038B0F94C103C
:104A1000C22002F07BBD7047012806D1574890386C
:104A2000B0F94E10782002F071BD704701280AD10C
:104A30005249584890390088B1F85010401A01B2D4
:104A4000C82002F063BD704710B501280DD14B4C52
:104A50007A20903CB4F9521002F058FDB4F952108B
:104A6000BDE810407C2002F051BD10BD012806D1E8
:104A700042489038B0F952107A2002F047BD704792
:104A8000012806D13D489038B0F954107C2002F03E
:104A90003DBD7047012806D138489038B0F956100E
:104AA000822002F033BD7047012806D13348903888
:104AB000B0F95810842002F029BD7047012806D1B2
:104AC0002E489038B0F95A10942002F01FBD70475C
:104AD000012806D129489038B0F95C10882002F0EE
:104AE00015BD7047012806D124489038B0F95E10F2
:104AF000922002F00BBD7047012806D11F48903864
:104B0000B0F960108C2002F001BD7047012806D179
:104B10001A489038B0F962108E2002F0F7BC704746
:104B2000012806D115489038B0F96610962002F099
:104B3000EDBC7047012806D110489038B0F96A10D2
:104B4000CE2002F0E3BC7047012806D10B48903814
:104B5000B0F96C10CC2002F0D9BC7047012806D106
:104B600006489038B0F96E10C62002F0CFBC7047EE
:104B7000E8020010B85D0010805A0010BC0300105D
:104B8000EBC007207E02001014FB0720A05C001081
:104B900058EB00002AC007200128E8D17A48B0F974
:104BA00070107E2002F0B2BCE1E70128DFD1764828
:104BB000B0F96410DE2002F0A9BCD8E70128D6D1F4
:104BC0007148B0F972104FF4197002F09FBCCEE733
:104BD0000128CCD16C48B0F9741040F2622002F088
:104BE00095BCC4E710B5012813D1674845F255526A
:104BF0000146B0F94440D343E41EB1F94610062CF7
:104C00001CD2DFE804F00A15031B1807A0F84420A3
:104C1000012910BDA0F8442010BD491E172902D853
:104C2000A0F8443010BD4EF6EF61A0F8441010BD5E
:104C3000A0F8443010BDA0F8442010BD4EF6EE613F
:104C4000A0F8441010BD012891D14F4801784FF4CD
:104C50008270012902D0002102F058BC012102F02B
:104C600055BC84E7012882D1474841784FF48A70C7
:104C7000012902D0002102F049BC012102F046BC0A
:104C800075E7012806D1404890F902104FF483706F
:104C900002F03CBC6BE7012806D13B4890F90310B9
:104CA0004FF4847002F032BC61E7012806D1364827
:104CB00090F904104FF4857002F028BC57E70128E2
:104CC00006D1314890F905104FF4A37002F01EBCD4
:104CD0004DE7012806D12C4890F906104FF4A27038
:104CE00002F014BC43E7012806D1274890F90710C9
:104CF0004FF4A17002F00ABC39E7012806D122481E
:104D000090F908104FF4A07002F000BC2FE70128C2
:104D100006D11D4890F909104FF49F7002F0F6BBC0
:104D200025E7012806D1184890F90A104FF4A97018
:104D300002F0ECBB1BE7012806D1134890F90B10D9
:104D40004FF4A87002F0E2BB11E7012806D10E482B
:104D500090F90C104FF4A77002F0D8BB07E70128B8
:104D600006D1094890F90D104FF4A67002F0CEBBA1
:104D7000FDE6012806D1044890F90E104FF4A57005
:104D800002F0C4BBF3E600002C0300102DE9F04351
:104D9000874C658805F1010565802578A84277D1A3
:104DA000A68806F10106A680824D087828804878FA
:104DB00068808878A880C878E8802A8113F8287FDE
:104DC0006F815978A9819A78EA81D87828824FEA48
:104DD000072341EA03014FEA012142EA01024FEAB7
:104DE000022140EA010006F10106A680724941183D
:104DF0007248B0F90000C0EB4012C2EB002001EB9A
:104E00000017A7626E48B7FBF0F6266206F10102B2
:104E100062624FF00003E3626381E06A844600F25D
:104E20006D10E06261895FEA817802D100F10100D2
:104E3000E062E06A824205D8C4F82CC0A2EB0C0004
:104E4000E08005E001F1010188B260816428E4D3CB
:104E500023814FF00100A081DFF86881B4F80AC017
:104E6000E3882189A08938F810200A4492B222816F
:104E70005FEA8C7904D1022802D102F10102228179
:104E80002289934205D82181A3EB0100E08106E04D
:104E900030E000F1010080B2A0810D28E1D3A6EB43
:104EA000061000EB4000C0EB001007EBC0102063C1
:104EB0004FF46166B0FBF6F291B2218206FB120656
:104EC0004FF03C07B6FBF7F082B2628207FB10603E
:104ED00086B2A682AB82E08A00280BD03A480172E3
:104EE00002710670A0F81CC0A1890176E1890173E6
:104EF000A0F12000BDE8F08338B52D4D28780028BA
:104F00002BD0302009F080FC04464FF030024FF0E7
:104F10000001204604F04AFE4FF0E30020704FF0FD
:104F2000000060704FF00600A0704FF0EC00E070E1
:104F30004FF0310121734FF04E006073A1734FF0B9
:104F40003400E0734FF03000009023464FF07B02B6
:104F500005F11801287809F0C1FC38BD70B5144C72
:104F6000E08A10B1A0F10100E082184D28880028E5
:104F700016D0E069002813D0A0F10100E0610028FC
:104F80000ED14FF00500E082FFF7B6FFB5F9000043
:104F9000012806D0022808D0032801D10C48E0617E
:104FA00070BD4FF46160E06170BD0548E06170BDA7
:104FB000D8570010B4030820003EE8439E020010BA
:104FC00080510100A8F10000204002407EC007206F
:104FD000803A090000B59DB0C0EBC00101EB0011A3
:104FE000F94800EB8100827890F84210836ACDE99D
:104FF00000320291436AC269F4A104A805F0BAFC28
:1050000004A81DB000BD2DE9F04387B08146F449E6
:10501000487800F1010048704FF0280006F0B6F91A
:105020000446DFF8C08303AF06AD05AE2822214653
:10503000484607F0E1F88146207800281DD0EAA113
:10504000204608F0AFFF012818D0E8A1204608F05C
:10505000A9FF012827D0E7A1204608F0A3FF0128D7
:1050600036D0E5A1204608F09DFF012845D0E4A1F7
:10507000204608F097FF012854D067E0CDE900658D
:105080003B1D03AAE0A1E01C04F0C8FD039888F8CA
:105090000000049888F80100059888F80200069836
:1050A00088F8030052E0CDE900653B1D03AAD6A1B4
:1050B000201D04F0B3FD039888F80800049888F8D0
:1050C0000900059888F80A00069888F80B003DE06A
:1050D000CDE900653B1D03AACBA1E01C04F09EFDB9
:1050E000039888F80400049888F80500059888F863
:1050F0000600069888F8070028E0CDE900653B1D0A
:1051000003AAC1A1601D04F089FD039888F80C0072
:10511000049888F80D00059888F80E00069888F81D
:105120000F0013E0CDE900653B1D03AAB6A1601D89
:1051300004F074FD039888F81000049888F81100B2
:10514000059888F81200069888F81300B9F1000F46
:105150007FF46CAF204606F089FD07B0BDE8F08310
:10516000F0B587B003460F469D4EB07800F10100C0
:10517000B070F0781044F070002B56D1A549184655
:105180004870002A51D004464FF0280006F0FEF87F
:10519000054628222946384607F02EF80746287883
:1051A00000282DD09CA1284608F0FCFE012827D01D
:1051B0009CA1284608F0F6FE012838D09CA128467C
:1051C00008F0F0FE01281BD09CA1284608F0EAFE5A
:1051D000012815D09CA1284608F0E4FE01283BD008
:1051E0009AA1284608F0DEFE01283CD099A1284665
:1051F00008F0D8FE012803D098A1284608F0D2FE76
:10520000002FC6D1284606F031FD032C0DD104A88D
:10521000FBF76CF882B201A904A807F05DFE012833
:1052200003D104A98F4808F0A5FE07B0F0BD8EA1F8
:10523000284604F0CEFC20B1707800F101007070B7
:10524000DEE78AA1284604F0C4FC0028D8D0707894
:10525000A0F101007070D3E7E91C04A808F08AFEF1
:1052600044F00104CCE7291D01A808F083FE44F0B6
:105270000204C5E72DE9F04788B004460E46904683
:105280001F464FF0000556492078DFF8889191F8C5
:1052900000C0662876D017DC4FF0010C622875D06C
:1052A0000BDC0A463228127802F10102D2B26BD02E
:1052B00033286AD0612834D119E063287DD064286E
:1052C0007CD06528F7D176E1524A7328526876D0AF
:1052D00006DC672874D06C2873D06D28EBD1E8E128
:1052E00078286FD079286ED07A28E4D1E8E3A078C6
:1052F0003C496D2816D004DC67281FD06928DAD114
:1053000004E0702826D07328D5D12FE0C8788A7899
:10531000CDE900204B780A78211D304605F02AFBA4
:105320000546D4E3C87A8A7ACDE900204B7A0A7A16
:10533000211D304605F01EFB0546C8E3C8798A7971
:10534000CDE900204B790A79211D304605F012FB8A
:105350000546BCE3C87B8A7BCDE900204B7B0A7BFA
:10536000211D304605F006FB0546B0E3C87C8A7C6B
:10537000CDE900204B7C0A7C211D304605F0FAFA6D
:105380000546A4E35DE101E078E388E3A0786328C3
:10539000C7D0A0F13000C0B2072801D94FF00000FB
:1053A0000CFA00FC0CF0FF0099F8011030A2014249
:1053B00000D10FA2211D30465EE061E0C1E0D5E1E1
:1053C00044E198E154E315E3E0EB07202564202550
:1053D0006420256420256420307825303278000050
:1053E000EC0000105C31082069703D006D736B3D6E
:1053F0000000000067773D0070646E733D000000A0
:1054000073646E733D00000025642E25642E2564B0
:105410002E25640018C107206275743D62757430D2
:10542000000000006275743D627574310000000078
:105430006275743D62757432000000006275743DDF
:10544000627574330000000070773D007077323D64
:10545000000000006C6364313D0000006C63643246
:105460003D00000094C10720706C00006D690000D1
:10547000636865636B65640005F07CFA054626E3A6
:10548000DFF8FC93DFF8FCA343E03888FE4A00EB2A
:10549000400101EBC00102EB810400F10100388002
:1054A00006EB0500F9A105F065FA0544207801280E
:1054B0000DD800EB400101EBC000F14900EB0903FE
:1054C0003A8870197C3105F055FA05441CE0022831
:1054D0002BD02389E18B628994F807C0CDE903C3FF
:1054E000CDE905216279A17923790291CDE90032D4
:1054F00000EB400101EBC00000EB09033A88701992
:10550000E74905F037FA054438889AF800108842D0
:1055100003D005F196004045B7D338889AF80010BB
:105520008842ACD245F40045D1E26089D44B00906A
:1055300016333A88701903F1AE0105F01BFA0544E1
:10554000E2E7607830289AD1A0783138072896D2DF
:10555000DFE800F0040E0E0F1C232A00D048543060
:10556000FBF72DF90246211D304605F003FA0546EA
:10557000ADE2087900F1010008714FF0020204F178
:105580000401304605F0F6F90546A0E20722211D88
:10559000304605F0EFF9054699E20522211D304617
:1055A00005F0E8F9054692E20322211D304605F098
:1055B000E1F905468BE206F011FE0546B9A1284641
:1055C00004F01DFB68B3B8A1284604F018FB50B3E3
:1055D000B7A1284604F013FB38B3B7A1284604F05E
:1055E0000EFB20B3B5A1284604F009FB08B3B5A112
:1055F000284604F004FBF0B1B4A1284604F0FFFAF9
:10560000D8B1B3A1284604F0FAFAC0B1B1A506F0AA
:10561000E5FD03462A46A11C304605F0ABF90546D8
:1056200055E2AEA5F3E7AFA5F1E7B1A5EFE7B3A566
:10563000EDE7B4A5EBE7B6A5E9E7B8A5E7E7B9A5B7
:10564000E5E7A078312893D0322840E2A0783128CD
:1056500004D0322808D033288AD11BE0211D3046DF
:1056600005F088F9054632E2104604F02FFC04F0FC
:1056700032FC4FF06632AD4B04F0A0FB6FF0090234
:1056800004F00DFC02460B46211D304605F072F970
:1056900005461CE24FF0640002FB00F24FEA922242
:1056A000C9F8042004F10401304605F063F9054609
:1056B0000DE26078312804D032280BD03328AFD1E6
:1056C00011E09B48E11CB0F90020304605F052F98A
:1056D0000546FCE19748E11CB0F90020304605F092
:1056E00049F90546F3E19448E11C0268304605F0AB
:1056F00041F90546EBE16078302822D0642804D0D7
:10570000652829D06E288BD106E00A22E11C30469C
:1057100005F030F90546DAE199F80020E11C304641
:1057200005F028F9054699F8000000F10100C0B223
:1057300089F800000A2888D34FF0000089F800009B
:10574000C5E15748B430FBF73AF80246E11C304651
:1057500005F010F90546BAE178A0FBF730F80246EB
:10576000E11C304605F006F90546B0E160783028C6
:1057700002D031288DD16EE0A07830380A2888D246
:10578000DFE800F0050F19232D37414B555F00204E
:10579000FFF720FC0246211D304605F0EBF80546D8
:1057A00095E10120FFF716FC0246211D304605F069
:1057B000E1F805468BE10220FFF70CFC0246211DB3
:1057C000304605F0D7F8054681E10320FFF702FCDB
:1057D0000246211D304605F0CDF8054677E104204C
:1057E000FFF7F8FB0246211D304605F0C3F80546D9
:1057F0006DE10520FFF7EEFB0246211D304605F066
:10580000B9F8054663E10620FFF7E4FB0246211DD7
:10581000304605F0AFF8054659E10720FFF7DAFBFF
:105820000246211D304605F0A5F805464FE1082047
:10583000FFF7D0FB0246211D304605F09BF80546D8
:1058400045E10920FFF7C6FB0246211D304605F061
:1058500091F805463BE1A07830380A2885D2DFE888
:1058600000F0056F79838D97A1ABB5BF0A20FFF7D4
:10587000B1FB0246211D304605F07CF8054626E1C5
:10588000C4F1000029EB000038EA07203C747220C4
:10589000616C69676E3D2263656E746572223E00BD
:1058A000D0F20000656E0000656E2D75730000007B
:1058B000656E2D67620000006465000064652D63FD
:1058C0006800000064652D617400000066720000CD
:1058D000736C0000556E6B6E6F776E00456E676C73
:1058E00069736800456E676C6973682055534100A1
:1058F000456E676C69736820474200004765726DAA
:10590000616E00004765726D616E204348000000C3
:105910004765726D616E2041540000004672656EED
:1059200063680000536C6F76656E650066660A40BA
:10593000520000105000001000C00720656E640087
:105940000B20FFF747FB0246211D304605F012F8F9
:105950000546BCE00C20FFF73DFB0246211D30460A
:1059600005F008F80546B2E00D20FFF733FB0246CC
:10597000211D304604F0FEFF0546A8E00E20FFF78B
:1059800029FB0246211D304604F0F4FF05469EE047
:105990000F20FFF71FFB0246211D304604F0EAFFEF
:1059A000054694E01020FFF715FB0246211D304606
:1059B00004F0E0FF05468AE01120FFF70BFB0246EA
:1059C000211D304604F0D6FF054680E01220FFF787
:1059D00001FB0246211D304604F0CCFF054676E06F
:1059E0001320FFF7F7FA0246211D304604F0C2FFEC
:1059F00005466CE06078302808D06E2867D1042214
:105A0000E11C304604F0B6FF054660E0A07831386E
:105A100005285CD2DFE800F0030B131C24002EA342
:105A20006246211D304604F0A5FF05464FE04A7846
:105A300029A3211D304604F09DFF054647E026A31B
:105A400045F6AA12211D304604F094FF05463EE0BB
:105A500022A30022211D304604F08CFF054636E0CB
:105A600020A30022211D304604F084FF05462EE0CD
:105A7000611C304604F07EFF054628E00A7062781B
:105A80001AA3A2F130000CFA00FC5FEA8C7000D17E
:105A900018A31AA1304604F06DFF054617E00A70FE
:105AA000627812A3A2F130000CFA00FC1CF0060F81
:105AB00000D110A311A1304604F05CFF054606E0BA
:105AC000AFF28812A11C304604F054FF054608B01E
:105AD000A8B2BDE8F08700002000000061626364A6
