:020000040000FA
:10000000A0710010E1000000E5000000E700000022
:10001000E9000000EB000000ED000000000000001F
:10002000000000000000000000000000EF000000E1
:10003000F100000000000000F30000006732000043
:10004000F7000000110200003D020000F700000070
:10005000F70000003B710000EF8C0000F70000008B
:10006000F7000000F7000000F7000000F7000000B4
:10007000F7000000F7000000F7000000F7000000A4
:10008000F7000000F7000000F7000000F700000094
:10009000F7000000F7000000A30C0000F7000000CC
:1000A000F7000000F7000000F7000000F700000074
:1000B000A1940000F7000000F7000000F700000026
:1000C000F7000000F7000000F7000000DFF80CD098
:1000D00009F080FE00480047AB330000A07100101B
:1000E00005480047FEE7FEE7FEE7FEE7FEE7FEE71E
:1000F000FEE7FEE7FEE7FEE7CD000000FEE710B5F5
:100100000CF0D0F90CF05CFA0CF04EFA0CF0DCF9C3
:10011000AFF30080BDE810400CF018BA10B50DF038
:1001200029F80DF06BFD0DF07DF8BDE810400DF0E5
:10013000F5B90CF03DBF0CF005BD09B100207047CA
:100140000BF00CBA0020704730B54FF000000E4B9A
:10015000A3F1140202F10A04115C61B1255CA94209
:1001600009D1195C39B1A1F10101C9B2195411B910
:100170004FF000011154115C215400F10100C0B294
:100180000A28E9D330BD0000305900100949088120
:1001900070470849B1F90800002809D0A0F1010012
:1001A00000B20881002803D10146084600F084BA55
:1001B000704700001000001090F900308B4200DA08
:1001C000027090F90030934200DD0170704790F9A1
:1001D00000308B4200DA017090F90010914200DD8E
:1001E00002707047B0F900308B4200DA0180B0F93C
:1001F0000010914200DD02807047B0F900308B4260
:1002000000DA0280B0F90030934200DD01807047CF
:100210004FF040214FF0010008600D48016801F1E6
:10022000010101600B48016821F0FF0101F10401A7
:100230000160016841F080710160704706494FF02C
:10024000010008600248416801F101014160704706
:100250000C58001000400340008000402049086A0C
:1002600040F0004008621F4A5068C3070AD01E4B86
:100270001B883BB18B6B43F000438B634FF006014F
:10028000917003E0CB6B43F00043CB634FEA500027
:1002900050605078A0F1010010F0FF00507004D1C0
:1002A0004FF02000507090685060704710B50D4AB4
:1002B000002420234F2909D041290BD052290DD0E9
:1002C000532902D154609460537010BD5060946003
:1002D000537010BD50609060537010BD906010BDA1
:1002E00000C0092024C1072030C00720014600209B
:1002F00000E0401C0A5C002AFBD17047FFFFFFFFB3
:100300004FF00000FA4A4FF02001115400F10100B3
:10031000C0B2C828F9D3704701464FF00000F44A34
:1003200000F10100C0B2135C8B4201D0C828F7D3A2
:10033000704710B54FF00001EE4C4FF00A02034633
:10034000B0FBF2F002FB1033635401F10101C9B2BA
:100350000529F4D310BDF0B5E74D4FF00101297028
:100360004FF00501E34B4FF020064FF000072A78CD
:1003700042B15A1812F8014C24B9814202D902F84C
:10038000016C07E003EB010212F8014D04F13004A7
:1003900014702F70A1F10101C9B20029E7D1F0BD9D
:1003A00070B50D4616461C46FFF7C3FF601CC0B271
:1003B000FFF7D1FF05EB850006EB8000C1B24FF0DF
:1003C0000000CC4BCA4DA04201D21A5C6A5407D33C
:1003D0001A5C202A04D064B105EB010606F8012C52
:1003E000A1F10101C9B200F10100C0B20528EAD3B0
:1003F00070BD6A54F4E730B5044608461546FFF769
:100400008BFFFF280CD0BA4A07E000EB050304F18C
:100410000104D15400F10100C0B221780029F4D1C7
:1004200030BD70B50D461446FFF783FF601CC0B2A7
:10043000FFF791FF2846FFF76FFF4FF00001AD4A2D
:10044000AB4D24B9535C202B01D02B5415E0A142B5
:1004500002D2535C2B5410E008D14FF02E032B54E2
:1004600005EB0006535C06F8013C06E0535C202BCC
:1004700003D005EB000606F8013CA0F10100C0B274
:1004800001F10101C9B20529DBD370BDF0B5044605
:10049000084616461F46FFF73FFF02461046944D9A
:1004A000FF2806D108E0295404F1010400F10100FD
:1004B000C0B221780029F6D190480078002806D0F3
:1004C000002F04D002EB06014FF05F006854F0BD2E
:1004D0002DE9F04F0746DDE90905884691469A4621
:1004E000FFF71AFF854B2021814C0A224FF0640C44
:1004F000012D09D11E783EB104EB0006A6F10E06CF
:10050000B1707170317017E097FBF2FB02FB1B7E3C
:1005100004EB00060EF1300E06F80CEC9BFBF2FE2D
:1005200002FB1EBB0BF1300B06F80DBC97FBFCF772
:1005300007F1300706F80E7C022D09D11E783EB176
:1005400004EB0006A6F10A06B1707170317017E075
:1005500098FBF2F702FB178B04EB0006A6F10A06E4
:100560000BF1300B86F802B097FBF2FB02FB1B7716
:1005700007F13007777098FBFCF707F13007377009
:10058000032D09D11E783EB104EB0006A6F1060644
:10059000B1707170317017E099FBF2F702FB179898
:1005A00004EB0006A6F1060608F1300886F8028082
:1005B00097FBF2F802FB187707F13007777099FB89
:1005C000FCF707F130073770042D09D11B783BB1D8
:1005D00021542044A0F1020041700170BDE8F08F69
:1005E0009AFBF2F102FB11A303F13003235491FBB8
:1005F000F2F302FB13112044A0F1020001F13001DB
:1006000041709AFBFCF101F130010170E6E730B571
:100610003B490124364B91F9012091F904108A429B
:1006200004D100EB800003F8204030BD4D1CAA42ED
:1006300006D100F1010000EB800003F8204030BD3E
:100640008D1CAA4206D100F1020000EB800003F8E5
:10065000204030BDCD1CAA4206D100F1030000EBC2
:10066000800003F8204030BD0D1DAA4206D100F1E4
:10067000040000EB800003F8204030BD4D1DAA426D
:1006800006D100F1050000EB800003F8204030BDEA
:100690008D1DAA4206D100F1060000EB800003F890
:1006A000204030BDC91D8A42FBD100F1070000EB9C
:1006B000800003F8204030BD124B1A88A2F10102DD
:1006C00012B21A80002A02DC4FF000021A801A8847
:1006D000104400B218800C4A00EB80000244084825
:1006E00013680360127902714278114441707047B7
:1006F000FB000010DEC00720F002001038000010E0
:10070000F10000100CC007207803082070B5254DBB
:10071000B5F9004004F101062E80234D04EB84045A
:100720002544224C26682E6026792E712070617037
:100730002271A37070BD2DE9F04180460F46164628
:10074000FFF7DEFD1A4C4FF0000518F8010B04F816
:10075000010B05F10105EDB2142DF6D34FF00000A9
:1007600017F8011B04F8011B00F10100C0B21428A6
:10077000F6D34FF0000016F8011B04F8011B00F13E
:100780000100C0B21428F6D34FF0000013F8011B8B
:1007900004F8011B00F10100C0B21428F6D3BDE833
:1007A000F08100000CC0072078030820F100001041
:1007B000FB000010FE494FF01100087270472DE950
:1007C000F04F06464FF000021146FA484FF052072C
:1007D0004FF0540C4FF055084FF046094FF0480ABF
:1007E0004FF05E044FF043054DE0C02B52D0C12BBB
:1007F0005FD0C22B6CD0C32B79D0C42B78D0C52B43
:1008000077D0A82B76D0C62B75D0C72B74D0C82B29
:1008100073D0C92B72D0CA2B71D0CB2B70D0CC2BFC
:100820006FD0CD2B6ED0CE2B6DD0CF2B6CD0D02BEC
:100830006BD0D12B6AD0D22B69D0D32B68D0D42BDC
:1008400067D0D52B75D0D62B74D0D72B73D0D82B9F
:1008500072D0D92B71D0DA2B70D0DB2B6FD0DC2B80
:100860006ED0DD2B6DD0DE2B6CD0DF2B6BD0134622
:1008700002F1010216F803B00B4601F1010112B2B8
:1008800009B200F803B0B35C002BAED11A46425453
:10089000BDE8F08F01F101031BB244544FF0410B4E
:1008A00003F1010109B200F803B002F1010212B232
:1008B000E9E701F101031BB244544FF0420B03F18D
:1008C000010109B200F803B002F1010212B2DAE745
:1008D00001F101031BB244544FF0560B03F1010127
:1008E00009B200F803B002F1010212B2CBE711E045
:1008F0002AE038E046E054E062E070E07EE08CE020
:100900009AE0A8E0B6E0C4E0D2E0E0E0EBE0F6E098
:1009100002E10EE101F101031BB244544FF0470B19
:1009200003F1010109B200F803B002F1010212B2B1
:10093000A9E70BE117E122E12DE13DE149E155E1B4
:1009400061E16DE178E183E101F101031BB24454FF
:100950004FF0440B03F1010109B200F803B002F1BA
:10096000010212B28FE701F101031BB244544FF0B0
:10097000450B03F1010109B200F803B002F10102D5
:1009800012B280E701F101031BB244544FF0310B66
:1009900003F1010109B200F803B002F1010212B241
:1009A00071E701F101031BB244544FF0330B03F123
:1009B000010109B200F803B002F1010212B262E7CC
:1009C00001F101031BB244544FF05A0B03F1010132
:1009D00009B200F803B002F1010212B253E701F1CB
:1009E00001031BB244544FF0490B03F1010109B25A
:1009F00000F803B002F1010212B244E701F1010371
:100A00001BB244544FF0350B03F1010109B200F859
:100A100003B002F1010212B235E701F101031BB28A
:100A200044544FF04B0B03F1010109B200F803B03D
:100A300002F1010212B226E701F101031BB2445494
:100A40004FF04C0B03F1010109B200F803B002F1C1
:100A5000010212B217E701F101031BB244544FF037
:100A60004D0B03F1010109B200F803B002F10102DC
:100A700012B208E701F101031BB244544FF04E0BD0
:100A800003F1010109B200F803B002F1010212B250
:100A9000F9E601F101031BB244544FF04F0B03F18F
:100AA000010109B200F803B002F1010212B2EAE654
:100AB00001F101031BB244544FF0500B03F101014B
:100AC00009B200F803B002F1010212B2DBE601F153
:100AD00001031BB2445403F1010109B2C75402F1EE
:100AE000010212B2CFE601F101031BB2445403F13B
:100AF000010109B2C55402F1010212B2C3E601F1CB
:100B000001031BB2445403F1010109B200F803C010
:100B100002F1010212B2B6E601F101031BB2445424
:100B200003F1010109B200F8038002F1010212B2DF
:100B3000A9E601F101031BB2445403F1010109B21A
:100B400000F8039002F1010212B29CE601F10103E8
:100B50001BB2445403F1010109B200F803A002F1F1
:100B6000010212B28FE601F101031BB2445403F1FA
:100B7000010109B2C55402F1010212B283E601F18A
:100B800001031BB2445403F1010109B2C75402F13D
:100B9000010212B277E601F101031BB2445403F1E2
:100BA000010109B2C55402F1010212B26BE6000064
:100BB000004002404CFA072001F101031BB24454EB
:100BC00003F1010109B200F803C002F1010212B2FF
:100BD00059E601F101031BB2445403F1010109B2CA
:100BE00000F8038002F1010212B24CE601F10103A8
:100BF0001BB2445403F1010109B200F8039002F161
:100C0000010212B23FE601F101031BB2445403F1A9
:100C1000010109B200F803A002F1010212B232E6AA
:100C200001F101031BB2445403F1010109B2C5549F
:100C300002F1010212B226E601F101031BB2445493
:100C400003F1010109B2C55402F1010212B21AE620
:100C500001F101031BB2445403F1010109B2C5546F
:100C600002F1010212B20EE610B54FF0C004FF48C7
:100C700004704FF0A80242704FF0010383704FF0F0
:100C80002301C1704FF0FF010172417281724FF078
:100C90000001C1720471427183714FF0FE01C17194
:100CA00010BDF348016821F0E06101607047F1492F
:100CB0004FF0000008704870887001F12D014870F5
:100CC00070472DE9F0414FF00000EB4B01464FF427
:100CD000F472195400F1010000B29042F9DB4FF0B8
:100CE00000024FF0140C4FF07A0102FB01F002EB0E
:100CF00082014FEA810109B202EB82040CEB840706
:100D000024E0DC4CDD4E3734645C04EB440500F138
:100D1000010416F8158003F8008006EB450004F185
:100D2000010645781D55847806F101059C55C47867
:100D300005F101065C55057906F101049D554579DB
:100D400004F101001D5501F1010109B28F42D8DC07
:100D500002F1010212B2042AC5DBBDE8F0812DE9DF
:100D6000F047ADF5AD6DC34EA03EB6F84200B6F803
:100D7000441008443070B07900F10100C0B2B07185
:100D80004FF00004142808D3B471707900F1010009
:100D9000C0B27071052800D37471B64D0DF5806C2A
:100DA0002D3529462A7891F90100A1F14D0791F9D5
:100DB0000410012A02D0C42A7ED0FBE3B0A2CDF8F1
:100DC0000024AFA2CDF80424ADA2CDF80824ACA233
:100DD000CDF80C2430B10A1A022A05DD00F1020018
:100DE000287104E02C7102E0884200DD287196F839
:100DF0000580B8F1050F0FD295F90400C11C5CF80D
:100E00002130811C401C5CF821205CF82010DDF8AA
:100E10000004FFF790FC11E095F90400A8F1050823
:100E2000C11C5CF82130811C401C5CF821205CF85E
:100E3000201006A850F82800FFF77DFCF079502814
:100E4000B88A4FF001024FF0230180B2FFF7E9FAB0
:100E5000F88A0122242180B2FFF7E3FADFF8388212
:100E600098F8280000222521FFF7DBFA98F82400E3
:100E700000225E21FFF7D5FA98F8200000222621F3
:100E8000FFF7CFFA98F82C0000223C21FFF7C9FAAF
:100E9000B8F83C0000227B21FFF7C3FA98F838002D
:100EA0004FF0010918B198F838000C2801D988F8DA
:100EB000389098F8380000E01AE17849002201EBF8
:100EC00080003E21FFF797FADFF8A881307D08F116
:100ED000370888B13A20FFF71FFA4FF0200A08F8C8
:100EE00000A04FF03A00FFF717FA08F800A03A20E8
:100EF000FFF712FA08F800A095F9040090B195F9EF
:100F0000011079B1884202D188F83C900AE0401A79
:100F1000012802D0022803D004E088F8289001E0DC
:100F200088F81490307A00F10100C1B23172B6F93C
:100F3000400000EB8002B1EB820F00DB347268B13D
:100F4000307A1424B0FBF4F1DFF828814846A8F188
:100F5000580898F80020552A08D106E06FF00102E1
:100F60007A214FA0FFF747FA41E000200844401CD7
:100F700000227A21FFF755FA307A98F80010B0FB7A
:100F8000F4F0552901D14FF000094844401C0022DB
:100F90007A21FFF746FAB6F84000474D01280AD1FA
:100FA00098F80000552806D0B5F84E0001225D21C2
:100FB000FFF737FA0DE0307A0122B0FBF4F000EBD6
:100FC000400101EB001005EB80005D214088FFF738
:100FD00028FA307A0122B0FBF4F000EB400101EB7B
:100FE000001005EB80005D214088FFF71AFAB08DF4
:100FF00000230422194680B2FFF7D2F9F08D0023B6
:101000000822194680B2FFF7CBF91A4C0023283486
:10101000032220780121FFF7C3F96078002307221B
:101020000121FFF7BDF9A07800230B220121FFF772
:10103000B7F9E07800230F220121FFF7B1F92079F9
:10104000002313220121FFF7ABF91B4C0023983436
:101050000322E069022180B2FFF7A2F9A06F032208
:1010600080B200231146FFF79BF927E05C3108208E
:1010700000400340C40000104CF60720E8E40000E4
:101080002020202020202020202020202020202060
:10109000202020200000000000400240E8EA00007C
:1010A00020D0E0E1EEF2E020E1E5E720E1E0F2E04F
:1010B000F0E5E9200000000048EB0720A84C0023E1
:1010C000072220780221FFF76BF9607800230B22BA
:1010D0000221FFF765F9A07800230F220221FFF714
:1010E0005FF9E078002313220221FFF759F92BE37F
:1010F0009C4AD2E90D38D26BCDE9033805929AA209
:10110000CDF800249EA2CDF80424A3A2CDF8082493
:10111000A7A2CDF80C24ACA2CDF81024B0A2CDF833
:101120001424B5A2CDF81824B9A2CDF81C24BEA26F
:10113000CDF82024C2A2CDF82424C7A2CDF82824BB
:10114000CBA2CDF82C24D0A2CDF83024D4A2CDF857
:101150003424D9A2CDF83824DDA2CDF83C24E2A273
:10116000CDF84024E6A2CDF84424EBA2CDF84824E3
:10117000EFA2CDF84C24F4A2CDF85024F8A2CDF87B
:101180005424B6F84A2052B9F5A2CDF80424AFF29F
:101190001012CDF80824AFF21812CDF80C248842B2
:1011A00001DA287105E0411A022902DDA0F10200EE
:1011B000287195F90400811C5CF82130411C5CF811
:1011C00021205CF82010ECA0FFF7B5FA0120FFF712
:1011D0001EFAB6F84A006FF002086FF0030928B152
:1011E00042462121EAA0FFF706F904E04A46212100
:1011F000E9A0FFF700F9B6F84C0028B142464021BB
:10120000E3A0FFF7F8F804E04A464021E2A0FFF728
:10121000F2F86978232002293ED0CDE90004B6F91E
:101220005430B6F95220B6F95010B6F94E00FFF717
:101230004FF96978242004293ED0CDE90004B6F99D
:101240005C30B6F95A20B6F95810B6F95600FFF7D7
:101250003FF96978292006293ED0CDE90004B7F985
:101260001030B7F90E20B7F90C10B7F90A00FFF7E4
:101270002FF9F88800225B2180B2FFF7D2F8388975
:1012800000225D2180B2FFF7CCF8B6F95E006FF066
:101290000D08FF2830D03BE0A978491CC9B2CDE940
:1012A0000001B6F95430B6F95220B6F95010B6F92B
:1012B0004E00FFF70DF9BCE7A978491CC9B2CDE98A
:1012C0000001B6F95C30B6F95A20B6F95810B6F9F3
:1012D0005600FFF7FDF8BCE7A978491CC9B2CDE973
:1012E0000001B7F91030B7F90E20B7F90C10B7F9B3
:1012F0000A00FFF7EDF8BCE7B6F86010FF2907D148
:10130000B6F86210FF2903D1B6F86410FF2912D095
:10131000697825220B2914D0CDE90024B6F9643070
:10132000B6F96220B6F96010FFF7D2F8B6F9660098
:10133000FF2814D04BE14246252199A0FFF75BF826
:10134000F4E7A978491CC9B2CDE90021B6F96430A7
:10135000B6F96220B6F96010FFF7BAF8E6E72AE1BD
:101360005C310820E8EA00002045746865726E650B
:101370007420202020202020202021200000000098
:101380002044484350EAEBE8E5EDF22020202020FD
:101390002020402000000000204950E0E4F0E5F16A
:1013A00020202020202020202020202000000000BD
:1013B00020203030302E3030302E3030302E303053
:1013C000232020200000000020CCE0F1EAE020EF04
:1013D000EEE4F1E5F2E820202020202000000000CB
:1013E00020203030302E3030302E3030302E303023
:1013F000242020200000000020D8EBFEE720202041
:10140000202020202020202020202020000000005C
:1014100020203030302E3030302E3030302E3030F2
:10142000292020200000000020CFEEF0F22EF7F25D
:10143000E5EDE8FF202020202020205B00000000B8
:1014400020CFEEF0F22EE7E0EFE8F1E820202020B8
:101450002020205D0000000020436F6D6D756E69D7
:101460007479203C20202020202020200000000033
:1014700020C0E4F0E5F1E0F220E4EBFF205452411B
:1014800050204E310000000020203030302E30300F
:10149000302E3030302E303025202020000000004B
:1014A00020C0E4F0E5F1E0F220E4EBFF20545241EB
:1014B00050204E320000000020203030302E3030DE
:1014C000302E3030302E30305E20202000000000E2
:1014D00020C0E4F0E5F1E0F220E4EBFF20545241BB
:1014E00050204E330000000020203030302E3030AD
:1014F000302E3030302E30302620202000000000EA
:1015000020C0E4F0E5F1E0F220E4EBFF205452418A
:1015100050204E340000000020203030302E30307B
:10152000302E3030302E30302A20202000000000B5
:1015300020C0E4F0E5F1E0F220E4EBFF205452415A
:1015400050204E350000000020203030302E30304A
:10155000302E3030302E3030282020200000000087
:1015600020C2FBF5EEE42020202020202020202097
:10157000202020200000000020D3D1D2C0CDCEC238
:10158000CAC82045746865726E657420000000004A
:10159000C2CACB2E00000000C2DBCACB2E00000066
:1015A00020202020EDE5E0EAF2E8E2E5ED20202031
:1015B00020000000C8E0B6F86810FF2907D1B6F88F
:1015C0006A10FF2903D1B6F86C10FF2912D0697890
:1015D0005E220D2915D0CDE90024B6F96C30B6F99C
:1015E0006A20B6F96810FEF773FFB6F96E00FF289F
:1015F00015D020E042465E21AFF25C00FEF7FBFE14
:10160000F3E7A978491CC9B2CDE90021B6F96C30DD
:10161000B6F96A20B6F96810FEF75AFFE5E7B6F8A2
:101620007010FF2907D1B6F87210FF2903D1B6F860
:101630007410FF2912D0697826220F2915D0CDE920
:101640000024B6F97430B6F97220B6F97010FEF7BE
:101650003FFFB6F97600FF2815D020E0424626214C
:10166000AFF2C400FEF7C7FEF3E7A978491CC9B280
:10167000CDE90021B6F97430B6F97220B6F97010D0
:10168000FEF726FFE5E7B6F87810FF2907D1B6F890
:101690007A10FF2903D1B6F87C10FF2912D069789F
:1016A0002A22112915D0CDE90024B6F97C30B6F9EB
:1016B0007A20B6F97810FEF70BFFB6F97E00FF2806
:1016C00015D01DE042462A21AFF22C10FEF793FE02
:1016D000F3E7A978491CC9B2CDE90021B6F97C30FD
:1016E000B6F97A20B6F97810FEF7F2FEE5E7398808
:1016F000FF2905D17988FF2902D1B988FF2938D07F
:101700006978282213293BD0CDE90024B7F90430A9
:10171000B7F90220B7F90010FEF7DAFE4FF000002B
:10172000FA4903AA0B5C135400F10100C0B2092866
:10173000F8D38DF8154068780A282FD0AA780023AE
:101740003C2103A8FEF7A2FEF07D00282DD0A0F1D9
:101750000100F07507F12C000FC8FEF7ECFF388B85
:10176000327E0DF5AD6D4021BDE8F04780B2FEF749
:1017700058BE42462821AFF2D810FEF73CFECDE716
:10178000A978491CC9B2CDE90021B7F90430B7F9ED
:101790000220B7F90010FEF79BFEBFE7AA780123ED
:1017A0003C2103A8FEF772FECEE70DF5AD6DBDE856
:1017B000F0872DE9F043D649086A40F4001008622A
:1017C000486B20F400104863086A20F0F860086253
:1017D000D048C26CD04B02EA0302C264086C40F4E9
:1017E00080700864486D20F4807048654FF00000F8
:1017F00000BF00BF00BF00BF00BF00BF00BF00BFF1
:1018000000F10100C0B2C828F2D3086C40F4807027
:101810000864486D40F480704865486BBF4F60F0C5
:10182000F8604FEA90523A64A7F1800338461C7F73
:10183000456C587F997FA2F5407905F07F064FF0FF
:10184000010C4FF00008B9F1FF0901D0AA4219D0EC
:1018500083F81F80042C00D228B193F8204014B9DB
:1018600083F821C0DD76884202D383F821C0DE767A
:1018700083F820804FF01400987783F81C8083F859
:101880001D801EE004F10104E4B21C77042C18D37F
:1018900083F81C8000F10100C0B25877884210D351
:1018A000DE7683F81D8083F821C083F820C0D87FBE
:1018B00038B14FEA51009877022802D84FF0020061
:1018C00098777A64BDE8F0832DE9F05F934F0026A6
:1018D000803F97F82100002821D007F1CD00FA7E43
:1018E00003788E4DF92A0BD00124E72A1DD0792ADE
:1018F000F2D07A2A1FD04FF0050AFE2A25D027E021
:101900008B2B0DD0D5F84D00C5F8520015F8510FAE
:10191000687100231A4610218B20FEF7F7FED5E3ED
:1019200000210846FEF7C8FEF9E7EC6353210020CA
:10193000FEF7BCFCF3E797F8230018B187F82360A3
:10194000FE77ECE787F82340FAE73979032913D0CB
:1019500072494D318B2B91F9011001F1010C4FFAB5
:101960008CF8A1F1010C4FFA8CF90DD0012B77D036
:101970008046C42B73D0D2E787F804A005214FF42A
:10198000B47005F050FACAE7EF2A12D0F72A19D03E
:10199000044601291FD00529C1D020460E2940D078
:1019A0005E494D31FD2A91F904103FD0FB2A49D000
:1019B000B5E780F80180067110220021401CFEF777
:1019C000FBFBACE780F80190067110220021401C5F
:1019D000FEF7F2FBA3E7FD2A0BD1A078A0F10100EE
:1019E000A0704FF01E024FF0000104F10200FEF75C
:1019F000EEFBF87EFB280BD1A07800F10100A0706F
:101A00004FF01E024FF0000104F10200FEF7DFFB71
:101A1000F87EFE2888D126706670A670E670267162
:101A20007DE7FE2A86D102F06FFF78E7A1F1010180
:101A300001714FF004024FF0000100F10400FEF7C5
:101A4000C6FB6CE701F1010101714FF004024FF098
:101A5000000100F10400FEF7BAFB60E700E05AE184
:101A6000DFF8B8A0FB2AAAF1800ABAF94440BAF913
:101A70004030BAF9425003EB040BBAF946A0AB442C
:101A800008D0FD2A16D0F72A24D0FE2A24D07E2A98
:101A90007CD044E780F80180BAF1000F01D0012129
:101AA00000E0002159440C314AB20021401CFEF7ED
:101AB0008EFB34E780F80190BAF1000F01D00121CC
:101AC00000E0002159440C314AB20021401CFEF7CD
:101AD0007EFB24E7467022E70029A1D020DD994251
:101AE0001EDC0E4838380078552806D00022012325
:101AF00011462320FEF70AFE11E700220CF0FF0337
:101B000011462320FEF702FE09E70000065F0010E1
:101B100000C0092000C00240FF0FC0FFA400001059
:101B2000DFF8348A08F1CD02B8F940C092F90120FB
:101B3000B8F94280A2EB0C02521EC444994208DD5F
:101B4000614506DCD3B2002211462D20FEF7DEFDF2
:101B5000E5E661450ADD23442B44994206DCD3B215
:101B600000221146C520FEF7D1FDD8E60CEB040299
:101B7000531C99420BD100231A4619461420FEF734
:101B8000C5FD4FF47A70FEF701FBC8E6B8E0931C80
:101B900099420AD100231A4619464A20FEF7B6FD9B
:101BA0004FF47A70FEF7F2FAB9E6D31C994290D05E
:101BB000131D99420AD100231A460121C120FEF7C4
:101BC000A5FD4FF47A70FEF7E1FAA8E6531D99429D
:101BD0000DD1BAF1000F0AD000231A461946C320CE
:101BE000FEF794FD4FF47A70FEF7D0FA97E6BAF15B
:101BF000000F01D0012300E0002363449B1D8B42B2
:101C00000AD100231A4619464220FEF77FFD4FF401
:101C10007A70FEF7BBFA82E6BAF1000F01D0012319
:101C200000E000231344DB1D8B420BD100231A4636
:101C300019463020FEF76AFD3220FEF7A7FAFFF7BB
:101C400036F86CE6BAF1000F01D0012300E0002362
:101C5000134408338B420AD100231A461946B82090
:101C6000FEF754FD4FF47A70FEF790FA57E6BAF19A
:101C7000000F01D0012300E00023134409338B42FD
:101C800001D146704BE6BAF1000F01D0012000E00F
:101C9000002010440A3088420AD100231A4619460F
:101CA000BA20FEF733FD4FF47A70FEF76FFA36E68E
:101CB000BAF1000F01D0012000E0002010440B30E9
:101CC00088420AD1002201231146BA20FEF71EFDE8
:101CD0004FF47A70FEF75AFA21E6BAF1000F01D0FC
:101CE000012000E0002010440C30884293D10023F2
:101CF0001A4619465B20FEF709FDFEF7D8FF0EE6EF
:101D000000231A461946C420FEF700FD4FF47A70EE
:101D1000FEF73CFA03E64FF47A70FEF737FA4FF01D
:101D20000102B7F94A0008B14FF01502F97E4FF0F1
:101D30000D094FF00F0BFB2912D0FD297ED07B2916
:101D40007DD040F2CE294FF4347A40F2D22B67296D
:101D500076D098F90130002B73D0012B72D0B6E108
:101D600098F8010000F1010041B288F80110022941
:101D700006D198F8040018B988F8044088F8026081
:101D80004046032906D14FF0040141704FF0030192
:101D9000017186704178052905D14FF00601417027
:101DA00080F804A086704178072903D14FF008011C
:101DB0004170867090F901100A2900D186700B29B4
:101DC00003D14FF00A03037186700C2901D180F80A
:101DD000019090F901100D2903D14FF00C0303710C
:101DE00086700E2901D180F801B090F901100F29F9
:101DF00003D14FF00E0303718670102902D14FF00A
:101E00001101417090F90110112903D14FF0100315
:101E100003718670122902D14FF01301417090F9BD
:101E20000110132903D14FF0120303718670142996
:101E300002D14FF01501417052B204E008E051E0C8
:101E400053E01DE12FE10021401CFEF7C0F966E5DB
:101E500098F80100A0F1010088F8010052B24FF09B
:101E6000000108F10100FEF7B2F998F8010014280A
:101E700003D14FF0130088F8010098F801001228F0
:101E800003D14FF0110088F8010098F801001028E4
:101E900001D188F801B098F801000E2801D188F826
:101EA000019098F801000C2803D14FF00B0088F83E
:101EB000010098F80100072803D14FF0060088F8C8
:101EC000010098F80100052803D14FF0040088F8BC
:101ED000010098F801000328B9D14FF0020088F8FA
:101EE00001001CE588F8012019E501214FF4337049
:101EF00004F0D0FF0121484604F0CCFFC021504639
:101F000004F0C8FFA821584604F0C4FF01214FF493
:101F1000357004F0BFFFFB2140F2D62004F0BAFF79
:101F2000FF214FF4367004F0B5FFFF2140F2DA20B4
:101F300004F0B0FFFF214FF4377004F0ABFF002135
:101F400040F2DE2004F0A6FFC0214FF4437004F0FD
:101F5000A1FFA82140F20E3004F09CFF01214FF4B4
:101F6000447004F097FFFE2140F2123004F092FF1B
:101F7000A1214FF4427004F08DFFA22140F20A30FB
:101F800004F088FF312140F2DA3004F083FF32217F
:101F90004FF4777004F07EFF332140F2DE3004F01E
:101FA00079FF00214FF4787004F074FF002140F2B3
:101FB000E23004F06FFFFF214FF4387004F06AFF45
:101FC000FF2140F2E22004F065FFFF214FF4397059
:101FD00004F060FFFF2140F2E62004F05BFFFF21E8
:101FE0004FF43A7004F056FFFF2140F2EA2004F06B
:101FF00051FFFF214FF43B7004F04CFFFF2140F2F2
:10200000EE2004F047FFFF214FF43C7004F042FF44
:10201000FF2140F2F22004F03DFFFF214FF43D701C
:1020200004F038FFFF2140F2F62004F033FFFF21D7
:102030004FF43E7004F02EFFFF2140F2FA2004F02E
:1020400029FFFF214FF43F7004F024FFFF2140F2ED
:10205000FE2004F01FFFFF214FF4407004F01AFF30
:10206000FF2140F2023004F015FFFF214FF44170D0
:1020700004F010FFFF2140F2063004F00BFF4EE4A5
:10208000FE2903D0F72901D0EF29F8D128B100218A
:102090004FF4337004F0FEFE41E401214FF433703D
:1020A00004F0F8FE3BE490B1FE2903D0F72901D0FB
:1020B000EF29E4D1B7F84C0020B10021484604F0E4
:1020C000E9FE2CE40121484604F0E4FE0BE2022B79
:1020D00019D0042B6FD0062B6ED0082B6DD0092B96
:1020E0006CD00A2B6BD040460B2B69D00D2B68D0DF
:1020F0000F2B67D0112B7BD0132B7AD09342BED1FC
:10210000FE2977D0EFE17E2909D098F90200A8B125
:10211000012847D002286ED003286DD0E3E198F85B
:10212000020000F1010088F802004FF003024FF0B6
:10213000000108F10200FEF73FF8D4E1EF2906D0D4
:102140006F2904D0F72917D0772915D028E0B7F8E0
:102150004E0000F10100A7F84E00FF484FF0FF02CB
:102160004FF0000100F14E00FEF747F8B7F94E10AE
:10217000504604F08FFE13E0B7F84E00A0F10100C6
:10218000A7F84E00F4484FF0FF024FF0000100F1B5
:102190004E00FEF732F8B7F94E10504604F07AFEC2
:1021A000FC77A0E1EF290ED06F290CD0F72924D0BD
:1021B000772922D035E0A2E096E17AE29DE2C0E202
:1021C00049E3F0E3F0E3B7F8500000F10100A7F8AD
:1021D0005000E1484FF0FF024FF0000100F15000C5
:1021E000FEF70BF8B7F95010584604F053FE18E00C
:1021F000F0E3F0E3F0E316E04BE0B7F85000A0F1B5
:102200000100A7F85000D4484FF0FF024FF0000142
:1022100000F15000FDF7F1FFB7F95010584604F0F7
:1022200039FEFC775FE1EF2906D06F2904D0F7294A
:1022300018D0772916D02AE0B7F8520000F1010033
:10224000A7F85200C4484FF0FF024FF0000100F120
:102250005200FDF7D2FFB7F952104FF4357004F079
:1022600019FE14E0B7F85200A0F10100A7F85200DF
:10227000B9484FF0FF024FF0000100F15200FDF7A6
:10228000BCFFB7F952104FF4357004F003FEFC7731
:1022900029E1EF2906D06F2904D0F72918D0772932
:1022A00016D02AE0B7F8540000F10100A7F8540056
:1022B000A9484FF0FF024FF0000100F15400FDF774
:1022C0009CFFB7F9541040F2D62004F0E3FD14E06F
:1022D000B7F85400A0F10100A7F854009E484FF051
:1022E000FF024FF0000100F15400FDF786FFB7F93F
:1022F000541040F2D62004F0CDFDFC77F3E07E29A7
:1023000009D098F90200A8B1012849D002287FD04D
:1023100003287CD0E7E098F8020000F1010088F87B
:1023200002004FF003024FF0000108F10200FDF738
:1023300043FFD8E0EF2906D06F2904D0F72918D041
:10234000772916D02AE0B7F8560000F10100A7F867
:10235000560081484FF0FF024FF0000100F1560097
:10236000FDF74BFFB7F956104FF4367004F092FDAD
:1023700014E0B7F85600A0F10100A7F8560076481F
:102380004FF0FF024FF0000100F15600FDF735FF5E
:10239000B7F956104FF4367004F07CFDFC77A2E0DC
:1023A000EF2906D06F2904D0F72918D0772916D045
:1023B0002AE0B7F8580000F10100A7F85800664875
:1023C0004FF0FF024FF0000100F15800FDF715FF3C
:1023D000B7F9581040F2DA2004F05CFD14E0B7F8C9
:1023E0005800A0F10100A7F858005B484FF0FF0229
:1023F0004FF0000100F15800FDF7FFFEB7F958104B
:1024000040F2DA2004F046FDFC776CE000E035E0B5
:10241000EF2906D06F2904D0F72918D0772916D0D4
:102420002AE0B7F85A0000F10100A7F85A004A481C
:102430004FF0FF024FF0000100F15A00FDF7DDFE02
:10244000B7F95A104FF4377004F024FD14E0B7F8D0
:102450005A00A0F10100A7F85A003F484FF0FF02D0
:102460004FF0000100F15A00FDF7C7FEB7F95A100E
:102470004FF4377004F00EFDFC7734E0EF2906D0FE
:102480006F2904D0F72918D0772916D02AE0B7F899
:102490005C0000F10100A7F85C002F484FF0FF023C
:1024A0004FF0000100F15C00FDF7A7FEB7F95C10EA
:1024B00040F2DE2004F0EEFC14E0B7F85C00A0F17E
:1024C0000100A7F85C0024484FF0FF024FF0000124
:1024D00000F15C00FDF791FEB7F95C1040F2DE20E0
:1024E00004F0D8FCFC7704E27E2909D098F90200B8
:1024F000A8B1012845D0022877D0032874D0F8E18C
:1025000098F8020000F1010088F802004FF0030281
:102510004FF0000108F10200FDF74EFEE9E1EF295E
:1025200006D06F2904D0F72918D0772916D026E0D5
:10253000688900F10100688107484FF0FF024FF001
:10254000000100F18A00FDF758FEB5F90A104FF4BA
:10255000437004F09FFC12E0240000106889A0F191
:10256000010068814FF0FF024FF00001FC48FDF7C9
:1025700044FEB5F90A104FF4437004F08BFCFC776D
:10258000B7E1EF2906D06F2904D0F72916D07729B3
:1025900014D026E0A88900F10100A881F0484FF08E
:1025A000FF024FF0000100F10200FDF726FEB5F931
:1025B0000C1040F20E3004F06DFC12E0A889A0F17E
:1025C0000100A881E6484FF0FF024FF0000100F142
:1025D0000200FDF712FEB5F90C1040F20E3004F0C7
:1025E00059FCFC7785E100E031E0EF2906D06F2946
:1025F00004D0F72916D0772914D026E0E88900F115
:102600000100E881D6484FF0FF024FF0000100F1D1
:102610000400FDF7F2FDB5F90E104FF4447004F01C
:1026200039FC12E0E889A0F10100E881CC484FF0C4
:10263000FF024FF0000100F10400FDF7DEFDB5F9E7
:102640000E104FF4447004F025FCFC7751E1EF29A3
:1026500006D06F2904D0F72916D0772914D026E0A8
:10266000288A00F101002882BD484FF0FF024FF098
:10267000000100F10600FDF7C0FDB5F9101040F2B1
:10268000123004F007FC12E0288AA0F10100288231
:10269000B3484FF0FF024FF0000100F10600FDF7D4
:1026A000ACFDB5F9101040F2123004F0F3FBFC77EA
:1026B0001FE1EF2906D06F2909D0F7290CD077291F
:1026C0000FD012E0E88800F10100E8800DE0E88812
:1026D00000F10200E88008E0E888A0F10100E8804D
:1026E00003E0E888A0F10200E880FC77B5F9061065
:1026F0004FF4427004F0CEFBFBE0EF2906D06F29C7
:1027000009D0F7290CD077290FD012E0288900F1E1
:10271000010028810DE0288900F10200288108E0ED
:102720002889A0F10100288103E02889A0F1020096
:102730002881FC77B5F9081040F20A3004F0AAFBB2
:10274000D7E07E290DD198F8020000F1010088F849
:1027500002004FF008024FF0000108F10200FDF7FF
:102760002BFDF87E2025DFF8FC91EF2801D06F28A3
:1027700035D198F9020019F8001001F10101C9B230
:1027800009F80010202902D209F800501EE0A1F13A
:1027900021020F2A04D24FF0300109F8001015E091
:1027A000A1F13A02072A04D24FF0410109F80010C2
:1027B0000CE0A1F15B02062A04D24FF0610109F896
:1027C000001003E07A2901D909F8005019F8001027
:1027D00040F2DA3202EB400004F05CFBFC77F87E5A
:1027E000F72801D0772887D198F9020019F800104E
:1027F000A1F10101C9B209F800104FF07A022029B5
:1028000002D209F800201CE0A1F121030F2B02D213
:1028100009F8005015E0A1F13A03072B04D24FF05C
:10282000390109F800100CE0A1F15B03062B04D27A
:102830004FF05A0109F8001003E07A2901D909F88C
:10284000002019F8001040F2DA3202EB400004F0E8
:1028500021FBFC774DE07E2909D090F9020098B168
:10286000012847D002287FD003287ED041E081781C
:1028700001F1010181704FF003024FF0000100F1FE
:102880000200FDF799FC34E0EF2906D06F2904D04F
:10289000F72918D0772916D02AE0B7F85E0000F1A2
:1028A0000100A7F85E002E484FF0FF024FF0000134
:1028B000A0F12C00FDF7A1FCB7F95E104FF43870C1
:1028C00004F0E8FA14E0B7F85E00A0F10100A7F800
:1028D0005E0023484FF0FF024FF00001A0F12C00F2
:1028E000FDF78BFCB7F95E104FF4387004F0D2FAA4
:1028F000FC771FE2EF2906D06F2904D0F72918D002
:10290000772916D02AE0B7F8600000F10100A7F897
:10291000600013484FF0FF024FF00001A0F12A00C1
:10292000FDF76BFCB7F9601040F2E22004F0B2FA58
:1029300014E0B7F86000A0F10100A7F860000848B3
:102940004FF0FF024FF00001A0F12A00FDF755FC07
:10295000B7F9601040F2E22004F09CFAFC77E9E15C
:10296000AE000010065F001000E036E0EF2906D050
:102970006F2904D0F72918D0772916D028E0B7F8A6
:10298000620000F10100A7F862004FF0FF024FF073
:102990000001F948FDF731FCB7F962104FF43970C6
:1029A00004F078FA14E04EE040E1B7F86200A0F1DC
:1029B0000100A7F862004FF0FF024FF00001EE485F
:1029C000FDF71BFCB7F962104FF4397004F062FA9E
:1029D000FC77FBE31DE20FE3F3E3EF2906D06F2959
:1029E00004D0F72918D0772916D02AE0B7F8640068
:1029F00000F10100A7F86400DF484FF0FF024FF03C
:102A0000000100F10200FDF7F8FBB7F9641040F295
:102A1000E62004F03FFA14E0B7F86400A0F10100EA
:102A2000A7F86400D4484FF0FF024FF0000100F116
:102A30000200FDF7E2FBB7F9641040F2E62004F073
:102A400029FAFC77C2E37E2909D090F9020098B1F7
:102A5000012847D002287DD003287AD0B6E38178B8
:102A600001F1010181704FF003024FF0000100F10C
:102A70000200FDF7A1FBA9E3EF2906D06F2904D0DE
:102A8000F72918D0772916D02AE0B7F8660000F1A8
:102A90000100A7F86600B8484FF0FF024FF00001B0
:102AA00000F10400FDF7A9FBB7F966104FF43A7086
:102AB00004F0F0F914E0B7F86600A0F10100A7F8FF
:102AC0006600AD484FF0FF024FF0000100F1040036
:102AD000FDF793FBB7F966104FF43A7004F0DAF99A
:102AE000FC7773E3EF2906D06F2904D0F72918D0BB
:102AF000772916D02AE0B7F8680000F10100A7F89E
:102B000068009D484FF0FF024FF0000100F1060001
:102B1000FDF773FBB7F9681040F2EA2004F0BAF948
:102B200014E0B7F86800A0F10100A7F86800924827
:102B30004FF0FF024FF0000100F10600FDF75DFBD2
:102B4000B7F9681040F2EA2004F0A4F9FC773DE3FD
:102B500000E035E0EF2906D06F2904D0F72918D01E
:102B6000772916D02AE0B7F86A0000F10100A7F82B
:102B70006A0081484FF0FF024FF0000100F10800A9
:102B8000FDF73BFBB7F96A104FF43B7004F082F994
:102B900014E0B7F86A00A0F10100A7F86A007648CF
:102BA0004FF0FF024FF0000100F10800FDF725FB98
:102BB000B7F96A104FF43B7004F06CF9FC7705E349
:102BC000EF2906D06F2904D0F72918D0772916D01D
:102BD0002AE0B7F86C0000F10100A7F86C00664825
:102BE0004FF0FF024FF0000100F10A00FDF705FB76
:102BF000B7F96C1040F2EE2004F04CF914E0B7F88D
:102C00006C00A0F10100A7F86C005B484FF0FF02D8
:102C10004FF0000100F10A00FDF7EFFAB7F96C1070
:102C200040F2EE2004F036F9FC77CFE27E2909D09D
:102C300090F9020098B1012847D002287DD00328DE
:102C40007AD0C3E2817801F1010181704FF0030273
:102C50004FF0000100F10200FDF7AEFAB6E2EF29F5
:102C600006D06F2904D0F72918D0772916D02AE08A
:102C7000B7F86E0000F10100A7F86E003E484FF073
:102C8000FF024FF0000100F10C00FDF7B6FAB7F9B2
:102C90006E104FF43C7004F0FDF814E0B7F86E00CD
:102CA000A0F10100A7F86E0033484FF0FF024FF08B
:102CB000000100F10C00FDF7A0FAB7F96E104FF417
:102CC0003C7004F0E7F8FC7780E2EF2906D06F292A
:102CD00004D0F72918D0772916D02AE0B7F8700069
:102CE00000F10100A7F8700023484FF0FF024FF0F9
:102CF000000100F10E00FDF780FAB7F9701040F204
:102D0000F22004F0C7F814E0B7F87000A0F1010059
:102D1000A7F8700018484FF0FF024FF0000100F1D3
:102D20000E00FDF76AFAB7F9701040F2F22004F0D5
:102D3000B1F8FC774AE200E035E0EF2906D06F29D0
:102D400004D0F7291AD0772918D02AE0B7F87200F2
:102D500000F10100A7F8720007484FF0FF024FF0A2
:102D6000000100F11000FDF748FAB7F972104FF4B6
:102D70003D7004F08FF814E086000010B7F8720080
:102D8000A0F10100A7F872004FF0FF024FF0000120
:102D9000F848FDF732FAB7F972104FF43D7004F0BD
:102DA00079F8FC7712E2EF2906D06F2904D0F729D1
:102DB00018D0772916D02AE0B7F8740000F1010086
:102DC000A7F87400EB484FF0FF024FF0000100F14C
:102DD0000200FDF712FAB7F9741040F2F62004F081
:102DE00059F814E0B7F87400A0F10100A7F87400D6
:102DF000E0484FF0FF024FF0000100F10200FDF744
:102E0000FCF9B7F9741040F2F62004F043F8FC77AF
:102E1000DCE17E2909D090F9020098B1012847D061
:102E200002287DD003287AD0D0E1817801F1010118
:102E300081704FF003024FF0000100F10200FDF736
:102E4000BBF9C3E1EF2906D06F2904D0F72918D0C8
:102E5000772916D02AE0B7F8760000F10100A7F82C
:102E60007600C4484FF0FF024FF0000100F104006B
:102E7000FDF7C3F9B7F976104FF43E7004F00AF885
:102E800014E0B7F87600A0F10100A7F87600B94881
:102E90004FF0FF024FF0000100F10400FDF7ADF923
:102EA000B7F976104FF43E7003F0F4FFFC778DE134
:102EB000EF2906D06F2904D0F72918D0772916D02A
:102EC0002AE0B7F8780000F10100A7F87800A948D7
:102ED0004FF0FF024FF0000100F10600FDF78DF901
:102EE000B7F9781040F2FA2003F0D4FF14E0B7F8F5
:102EF0007800A0F10100A7F878009E484FF0FF028B
:102F00004FF0000100F10600FDF777F9B7F97810EE
:102F100040F2FA2003F0BEFFFC7757E100E035E015
:102F2000EF2906D06F2904D0F72918D0772916D0B9
:102F30002AE0B7F87A0000F10100A7F87A008D487E
:102F40004FF0FF024FF0000100F10800FDF755F9C6
:102F5000B7F97A104FF43F7003F09CFF14E0B7F814
:102F60007A00A0F10100A7F87A0082484FF0FF0232
:102F70004FF0000100F10800FDF73FF9B7F97A10B2
:102F80004FF43F7003F086FFFC771FE1EF2906D076
:102F90006F2904D0F72918D0772916D02AE0B7F87E
:102FA0007C0000F10100A7F87C0072484FF0FF029E
:102FB0004FF0000100F10A00FDF71FF9B7F97C108E
:102FC00040F2FE2003F066FF14E0B7F87C00A0F1A9
:102FD0000100A7F87C0067484FF0FF024FF00001A6
:102FE00000F10A00FDF709F9B7F97C1040F2FE2064
:102FF00003F050FFFC77E9E07E2909D090F9020048
:1030000098B1012847D0022879D0032876D0DDE096
:10301000817801F1010181704FF003024FF000014E
:1030200000F10200FDF7C8F8D0E0EF2906D06F29C3
:1030300004D0F72918D0772916D02AE0B7F87E00F7
:1030400000F10100A7F87E004A484FF0FF024FF060
:10305000000100F10C00FDF7D0F8B7F97E104FF435
:10306000407003F017FF14E0B7F87E00A0F10100F4
:10307000A7F87E003F484FF0FF024FF0000100F13B
:103080000C00FDF7BAF8B7F97E104FF4407003F06A
:1030900001FFFC779AE0EF2906D06F2904D0F729C9
:1030A00016D0772914D026E0288800F10100288066
:1030B00030484FF0FF024FF0000100F10E00FDF725
:1030C0009CF8B5F9001040F2023003F0E3FE12E084
:1030D0002888A0F10100288026484FF0FF024FF019
:1030E000000100F10E00FDF788F8B5F9001040F27C
:1030F000023003F0CFFEFC7768E000E031E0EF291A
:1031000006D06F2904D0F72916D0772914D026E0ED
:10311000688800F10100688016484FF0FF024FF008
:10312000000100F11000FDF768F8B5F902104FF446
:10313000417003F0AFFE12E06888A0F101006880E2
:103140000C484FF0FF024FF0000100F11000FDF7B6
:1031500054F8B5F902104FF4417003F09BFEFC7770
:1031600034E0EF2908D06F2906D0F72916D0772947
:1031700014D024E096000010A88800F10100A88077
:103180004FF0FF024FF00001FF48FDF736F8B5F9A8
:10319000041040F2063003F07DFE10E0A888A0F194
:1031A0000100A8804FF0FF024FF00001F648FDF744
:1031B00024F8B5F9041040F2063003F06BFEFC77FA
:1031C00004E0FFE700210846FDF776FA87F8216062
:1031D000BDE8F09F4FF08040EC4941604FF00001A6
:1031E00001614FF0030101704FF0AA0101724FF02D
:1031F0005501017270474FF080404FF0AA010172F3
:103200004FF055010172704730B5DF498439488D60
:1032100000F1010000B24885142802DD4FF00000E3
:1032200048854FF00000DA4DB1F92A40C0EBC002EA
:1032300002EB001200EB040105EB820201F52F7393
:10324000D36101F13203536201F12303DBB29362D4
:1032500001F10A03937082F8421000F10100C0B23C
:103260000528E3D330BD2DE9F041C74E4FF00105ED
:10327000A6F18406F572B07DC64938B1086A40F0FF
:1032800080600862486B80F080604863708F002423
:10329000401C00B27087022875DB7487B5724869DC
:1032A000C0F3C0607076B849B27E091F904203D067
:1032B0008A8B02F101028A83B076B08F401C00B283
:1032C000B087142801DBB4877573308E401C00B2C0
:1032D00030860A2857DB34863573C88B00F101002D
:1032E00000B2C883B0F5FA7F03DBCC83888B4883B8
:1032F0008C83708E42F21077401C00B270860A28D0
:103300000ADB7486B573FCF7A9FFB6F92600B8424C
:1033100002DA00F10100F084B08E401C00B2B086E9
:10332000142806DBB486F573F07C08B1F47400E071
:10333000F574F08E401C00B2F086322806DBF4866D
:103340003574307D08B1347500E03575308F401C20
:1033500000B23087642816DB34877574B6F928000C
:10336000B84202DA00F101003085707D08B1747551
:1033700000E07575F08F00F1010000B2F0873C2885
:1033800001DBF487B5748449844A0878062808D29A
:1033900000F10100C0B20870062800D31570BDE826
:1033A000F081FCD90C701470F9E71CB57CA003C83F
:1033B000CDE9000102F09EFF734E4FF00109A6F126
:1033C000840686F8169078484FF4FA610068B0FBDE
:1033D000F1F14FF0E020A1F1010141614FF007014F
:1033E00001616B494FF00500887081F85E0081F83B
:1033F000BA0081F8160181F8720181F8CE0181F8D6
:103400002A02644C206820F000602060206C40F0AC
:1034100080002064206C40F480702064206E40F0B6
:1034200000702066E06F40F00070E06703F053F832
:103430005E48A0F101000028FBD14FF0210003F00D
:103440005DF80D2003F05AF8112003F057F84420DE
:1034500003F054F8564947F6FF7048808880C880CA
:10346000088148818881C881088248828882C88210
:10347000088348838883C88348848884C8840885EF
:1034800048858885C885088648868886C8860887CE
:1034900048878887C88747490880488003F004FB2D
:1034A00003F054FB03F036FBFDF784F9364F493740
:1034B00087F80090404B41A246A11846FDF73BF922
:1034C000206840F400602060A06940F40060A061C2
:1034D0004FF086014FF0640003F0DCFC01F0ECFFDC
:1034E000A7F14D08B8F9120000EB80004100002060
:1034F00003F0B2FDA7F1250001788DF805104178A1
:103500008DF8041080788DF803000622694637484C
:1035100009F0B6F940F2DA3003F0FEFB344D2870C2
:103520004FF4777003F0F8FBC0B268704FF00004FE
:1035300008B1202800D16C7040F2DE3003F0ECFBC3
:10354000C0B2A87008B1202800D1AC704FF47870D8
:1035500003F0E2FBC0B2E87008B1202800D1EC70A3
:1035600040F2E23003F0D8FBC0B2287108B1202845
:1035700000D12C714FF4797003F0CEFBC0B26871AA
:1035800008B1202837D135E0A800001080841E0043
:10359000E0EB072000C0092022580010245800103A
:1035A000007304323C46000020C1072080A90300BC
:1035B000CC0308201E58001080100000202020207E
:1035C000202045746865726E6574202020202020BC
:1035D0000000000020202020C8EDE8F6E8E0EBE83D
:1035E000E7E0F6E8FF2020200000000000000010C7
:1035F000080000106C7140F2E63003F08DFBC0B2A1
:10360000A87108B1202800D1AC714FF47A7003F092
:1036100083FBC0B2E87108B1202800D1EC7140F200
:10362000EA3003F079FBC0B2287208B1202800D13B
:103630002C726C72764BAFF27C02AFF268011846C6
:10364000FDF779F8FDF73DFB724803F087FA08F0C3
:10365000F9FE704803F082FAFDF706FB4FF03A05D9
:10366000FFF7B8FDB8F9120000EB8000400004F04D
:1036700087FF6948A0F101000028FBD1B8F91200CA
:1036800000EB80004FEA400004F07AFF634B0A220F
:10369000002101200AF0CEF986F8240018B14FF479
:1036A000FB710AF00BFA4FF4165005F0DAFA5C4A97
:1036B000032100200AF074FD5A49087018B140F245
:1036C000E9310AF091FD87F80090DFF85CB1DFF88E
:1036D0005CA1574FB47509F0A5F8387810B13C706B
:1036E00004F0ACFB9BF8000018B18BF8004005F02B
:1036F00030FC5048017811B1047003F0F9FE707A83
:1037000000B17472F07A00B1F472B07A10B1B47290
:1037100004F082FF307B40B13473B078F178084315
:1037200001D1FEF746F8FEF7CFF8707B00B1747355
:10373000387810B13C7004F081FBB07B10B30AF014
:1037400021FDC8F82490B473FDF709FBFDF7B9FA21
:10375000F07810B92F4803F001FAFCF7F5FCFCF7FC
:1037600018FD9AF80000401CC0B28AF800000D282D
:1037700008D38AF80040B8F9120000EB800040003E
:1037800004F0FEFEF07B70B1F473F07808B902F03B
:1037900034FFF07808B901F08FFE00F04FF8B08DDB
:1037A00000F10100B085307C20B13474F08D00F15F
:1037B0000100F085387810B13C7004F03FFB707C5C
:1037C00000B374741C49087800F101000870FFF719
:1037D0001BFDB07808B9FFF70EFD96F8220000F146
:1037E000010086F8220005F10105EDB23C2D07D35A
:1037F0004FF0000503F058F903F0A8F903F08AF937
:1038000001F0B4F8B07C00283FF464AFB47461E711
:10381000801000004CF60720804F1200F186000057
:103820009D470000D857001059C107204BC1072001
:103830002458001031C10720EC0000102DE9F05F82
:10384000FF4C2088FF4F3884FF4800887884FF4869
:103850000088B884FE480088F884FE4800883885CF
:10386000FD4800887885FD480088B885FC480088B8
:103870007882FC480088B882FB480088F882FB48C0
:1038800000883883FA4800887883FA480088B8832B
:1038900040F6026003F040FAF883F7480088B886E3
:1038A000F5484088F886F44880883887F3480188CE
:1038B00079874188B9878088F887F14807F18008BF
:1038C0000068C8F84C00EF480088A7F8420020883C
:1038D000A7F8400007F1AC0C4FF00100ACF8000075
:1038E000E94A07F1B0065188318006F11801938842
:1038F0000B8006F1040511892980E4490988A1F5A6
:10390000AC432F3B01D0283307D1E14991F8E012B5
:10391000092902D1DF4909882980DFF828B35189B4
:103920000BF1B80BABF80010DFF86CA345F2555E55
:103930000BF10403BAF90010714503D1D749098886
:10394000198000E01980BF49148AC0310C80BD4C39
:1039500092F83D10C4342180D14991F80090FF21A4
:10396000B9F1550F00D021804FF00209ACF8029058
:10397000B2F84EC0A6F802C0B24EB2F850C006F17E
:10398000C806A6F802C0B2F854606E80B2F856506D
:10399000ABF80250BAF90250754503D1BF4D6D889E
:1039A0005D8000E05D80A74BB2F85C50C0335D8065
:1039B00092F889206280BA4A5278552A00D06180F4
:1039C000B84C2080B24B04F11005DA692A8004F16A
:1039D00020065A6A328004F1300C9A6AACF8002052
:1039E00004F1400293F801A0A2F800A0DFF874A24D
:1039F000BAF900A0BAF1000F00DC1180A4F802901F
:103A0000D3F878B0A5F802B0D3F880B0A6F802B029
:103A1000D3F884B0ACF802B093F85DB0A2F802B06D
:103A2000BAF1010F00DC51804FF0030EA4F804E05E
:103A3000D3F8D4B0A5F804B0D3F8DCB0A6F804B03D
:103A4000D3F8E0B0ACF804B093F8B9B0A2F804B081
:103A5000BAF1020F00DC91804FF0040BA4F806B01D
:103A6000D3F830B1A5F806B0D3F838B1A6F806B04F
:103A7000D3F83CB1ACF806B093F815B1A2F806B093
:103A8000BAF1030F00DCD1804FF0050BA4F808B0A9
:103A9000D3F88CB1A5F808B0D3F894B1A6F808B063
:103AA000D3F898B1ACF808B093F871B1A2F808B0A7
:103AB000BAF1040F00DC11814FF0060BA4F80AB034
:103AC000D3F8E8B1A5F80AB0D3F8F0B1A6F80AB077
:103AD000D3F8F4B1ACF80AB093F8CDB1A2F80AB0BB
:103AE000BAF1050F00DC51814FF0070BA4F80CB0C0
:103AF000D3F844B2A5F80CB0D3F84CB2A6F80CB089
:103B0000D3F850B2ACF80CB093F829B2A2F80CB0CC
:103B1000BAF1060F00DC91814FF0080BA4F80EB04B
:103B200003F52173DC69EC815C6AF4819C6AACF872
:103B30000E405B78D381BAF1070F00DCD181414A96
:103B4000E43210805849931D8C691C809C1DCD69FE
:103B50002580A51D0E6A2E80AE1D91F846C0A6F8E0
:103B600000C0A2F80290D1F878C0A3F802C0D1F842
:103B70007CC0A4F802C0D1F880C0A5F802C091F8BA
:103B8000A6C0A6F802C0F246A2F804E0D1F8D820F8
:103B90009A80D1F8DC20A280D1F8E020AA8091F8A8
:103BA0000611B180A3F11A0E8EF800003D4D3FA121
:103BB00005F188050A686A644A68AA640989A5F853
:103BC0004C10DFF8F0B0A4F11C024FF000019BF89C
:103BD0000030012B33D01170374B1C88194BD83370
:103BE000002C71D01970354C2678164CDC34012E1F
:103BF0006BD021708EF8019031A6D6F800C0C5F8C0
:103C000058C0D6F804C0C5F85CC03689A5F8606015
:103C10009BF80160012E7ED05170274EB6F802C08D
:103C2000BCF1000F78D05970DFF890C09CF801C04B
:103C3000BCF1010F71D06170DFF808C046E096E07A
:103C4000F20200102C030010F6020010E4C007205E
:103C5000F4020010E6C00720B8000010BA000010FF
:103C60006400001066000010680000106A00001078
:103C70007E02001060C00720EEC007200203001083
:103C800010030010FAC0072048EB072096C0072059
:103C9000E0EB0720EC020010B2020010AE020010B0
:103CA0006C000010045D0010F8FB0720446F6F7279
:103CB000000000002A020010B4C007200EC0072038
:103CC000536D6F6B6500000053E054E00CF1D00CB5
:103CD0008CF802A00FF2104CDCF800E0C5F86CE0A4
:103CE000DCF804E0C5F870E0BCF808C0A5F874C0C2
:103CF000FF4DAD78012D46D09170FE4DAD88ADB32E
:103D00009970DFF8F4B39BF80250012D3FD0A170F9
:103D10004FF0040502E030E031E032E0F74EF5709C
:103D2000F74E0FF2E03CDCF800E0C6F800E0DCF80B
:103D300004E0C6F804E0BCF808C0A6F808C0EC4EE1
:103D4000F678012E25D0D170EA4AD2881AB3D970FC
:103D50009BF80320012A20D0E170EC4AE74BB2F92E
:103D600028403833082C1ADD18801BE00DE0107055
:103D700032E7187037E720703CE750704DE7587015
:103D800052E7607058E79070B7E79870B9E7A07095
:103D9000BEE7D070D8E7D870DAE7E070DDE7022C34
:103DA00000DA1980B2F95240082C01DD588002E097
:103DB000022C00DA5980B2F97C40082C01DD988091
:103DC00002E0022C00DA9980B2F9A640082C01DD4D
:103DD000D88002E0022C00DAD980C84C53894034E4
:103DE0002380C64B948948331C80C44CD3895034FB
:103DF00023800834138A23800834538A2380203C8C
:103E0000938E63800834D38E63800834138F63806D
:103E10000834538F63800834938F6380203CB2F85A
:103E20005E30A3800834B2F86030A3800834B2F862
:103E30006230A3800834B2F86430A3800834B2F84A
:103E40006630A380203CB2F88830E3800834B2F8B2
:103E50008A30E3800834B2F88C30E3800834B2F85A
:103E60008E30E3800834B2F89030E380A34B948A1C
:103E700068331C8003F10804D68A268003F11006FB
:103E8000B2F818C0A6F800C003F1180CB2F81AB0C6
:103E9000ACF800B003F1200BB2F81CE0ABF800E086
:103EA000B2F83EE0A3F802E0B2F840E0A4F802E085
:103EB000B2F842E0A6F802E0B2F844E0ACF802E062
:103EC000B2F846E0ABF802E0B2F868E0A3F804E02C
:103ED000B2F86AE0A4F804E0B2F86CE0A6F804E0F6
:103EE000B2F86EE0ACF804E0B2F870E0ABF804E0D1
:103EF000B2F892E0A3F806E0B2F89430E380B2F8AA
:103F00009630F380B2F89830ACF80630B2F89A30B8
:103F1000ABF8063006F11803D48B1C8003F10804BB
:103F2000168C268003F11006B2F822C0A6F800C055
:103F300003F1180CB2F824B0ACF800B003F1200B78
:103F4000B2F826E0ABF800E0B2F848E0A3F802E0EF
:103F5000B2F84AE0A4F802E0B2F84CE0A6F802E0B9
:103F6000B2F84EE0ACF802E0B2F850E0ABF802E094
:103F7000B2F872E0A3F804E0B2F874E0A4F804E048
:103F8000B2F876E0A6F804E0B2F878E0ACF804E025
:103F9000B2F87AE0ABF804E0B2F89CE0A3F806E0EF
:103FA000B2F89E30E380B2F8A030F380B2F8A230CD
:103FB000ACF80630B2F8A420ABF80620544A1288B8
:103FC000A7F87620534AA4F5B4731288A3F8782092
:103FD000514A1288A3F87A20504A1288A3F87C200C
:103FE0004F4A1288A3F87E204E4A1288A8F8002073
:103FF0004D4A1288A8F802204C4A1288A8F80420DA
:104000004B4A1288A8F806204A4A1288A8F80820C5
:10401000494AB2F90070A8F80A70B2F902C0A8F8CB
:104020000CC0B2F904B0A8F80EB0444A1288A3F844
:104030004820434A1288A3F84A20424A1288A3F82B
:104040004C20414A1288A3F84E20404A404BA4F528
:10405000B47412881B88A2EB0303A4F850303D4BC4
:104060001B88A4F852302346A3F854203A4A1288F9
:10407000A3F85620394A1288A3F85820384A1288E3
:10408000A3F85A20374A1288A3F85C20364A1388CE
:104090002246A2F85E30354A23461288A3F86020F3
:1040A000334A1288A3F86220324A1288A3F86420A7
:1040B000314A1288A3F86620304A1288A3F8682093
:1040C0002F4B1B88A4F86A302E4B1B88A4F86C3049
:1040D0002D4B1B88A4F86E302346A3F870202B4A82
:1040E0001288A3F8722053E053686F636B000000DE
:1040F0002A020010B4C007200EC00720FC030010E5
:104100000C5E00102020202020000000D859001054
:10411000E8C00720640200107602001058C0072093
:10412000780200105AC007206802001046C007201D
:104130006A02001048C00720F802001030C00720B3
:104140004E0200105C02001028C007202AC0072081
:104150005E0200104A0200102EC00720500200101C
:1041600038C00720520200105802001034C0072047
:104170005602001032C007205A0200104C020010F4
:1041800040C00720600200102CC00720620200100F
:10419000FB4A1288A3F874204FF00002F94CDFF8B4
:1041A000E88304F10C0602F10103A35418F802E0BD
:1041B000BEF1000F7ED0B054DAB20C2AF3D3F3492B
:1041C000087081F8019081F802A072310F80A1F887
:1041D00002C0A1F804B0EE4CEC4BDB1C2178197046
:1041E000EC494FF0FF32B1F90010012900DA1A70E2
:1041F00066785E70022900DA1A70A4789C70032930
:1042000000DA1A70042900DA1A70DE496831088071
:10421000A1F80290A1F804A0CD804FF0050008811C
:104220004FF0060048814FF0070088814FF00000F2
:10423000D94D01F10E0301F11C0601F12A0701F12C
:10424000380C01F1460801F1540901F1620A01F14B
:10425000700B01F17E0E00EB400101EB001205EB4B
:1042600082010C8923F8104035F8222026F810200E
:104270004A8827F810208A882CF81020CA8828F845
:1042800010204A8929F810208A892AF81020CA8922
:104290002BF810200A8A2EF81020BA4A4C8A02F114
:1042A000F40222F8104002F10E028C8A22F810402B
:1042B000CC8A00E03BE002F10E0222F8104002F14D
:1042C0000E024C8B22F8104002F10E028C8B22F869
:1042D0001040AE4A91F83A4002F106021454AB4C39
:1042E00091F83B2004F10904225404F1030491F8ED
:1042F0003C20225404F1030491F83D20225404F19F
:10430000030491F83E20225404F1030291F83F1077
:10431000115400F10100C0B203289CD34FF00000FB
:1043200000F10100C0B20728FAD3BDE8F09FB154F4
:1043300042E770B501280CD14FF00004974D04F509
:104340006570295D02F06FFD04F10104E4B2402CB8
:10435000F5D370BD01280FD18C48483001789048C2
:1043600021B1B0F90000002102F094BDB0F90000C5
:104370004FF0FF3102F08EBD704701280FD1834806
:1043800048304178864821B1B0F90200002102F09E
:1043900081BDB0F902004FF0FF3102F07BBD7047E4
:1043A00001280FD17948483081787D4821B1B0F992
:1043B0000400002102F06EBDB0F904004FF0FF319F
:1043C00002F068BD704701280FD170484830C178AD
:1043D000734821B1B0F90600002102F05BBDB0F9CD
:1043E00006004FF0FF3102F055BD7047012806D19D
:1043F00066489038B0F94810862002F04BBD7047EF
:10440000012806D161489038B0F94A10802002F0A6
:1044100041BD7047012806D15C489038B0F94C1076
:10442000C22002F037BD7047012806D157489038A6
:10443000B0F94E10782002F02DBD704701280AD146
:104440005249584890390088B1F85010401A01B2CA
:10445000C82002F01FBD704710B501280DD14B4C8C
:104460007A20903CB4F9521002F014FDB4F95210C5
:10447000BDE810407C2002F00DBD10BD012806D122
:1044800042489038B0F952107A2002F003BD7047CC
:10449000012806D13D489038B0F954107C2002F034
:1044A000F9BC7047012806D138489038B0F9561049
:1044B000822002F0EFBC7047012806D133489038C3
:1044C000B0F95810842002F0E5BC7047012806D1ED
:1044D0002E489038B0F95A10942002F0DBBC704797
:1044E000012806D129489038B0F95C10882002F0E4
:1044F000D1BC7047012806D124489038B0F95E102D
:10450000922002F0C7BC7047012806D11F4890389E
:10451000B0F960108C2002F0BDBC7047012806D1B4
:104520001A489038B0F962108E2002F0B3BC704780
:10453000012806D115489038B0F96610962002F08F
:10454000A9BC7047012806D110489038B0F96A100C
:10455000CE2002F09FBC7047012806D10B4890384E
:10456000B0F96C10CC2002F095BC7047012806D140
:1045700006489038B0F96E10C62002F08BBC704728
:10458000E8020010B85D0010805A0010BC03001053
:10459000EBC007207E02001014FB0720A05C001077
:1045A000E0E400002AC007200128E8D17A48B0F9E9
:1045B00070107E2002F06EBCE1E70128DFD1764862
:1045C000B0F96410DE2002F065BCD8E70128D6D12E
:1045D0007148B0F972104FF4197002F05BBCCEE76D
:1045E0000128CCD16C48B0F9741040F2622002F07E
:1045F00051BCC4E710B5012813D1674845F25552A4
:104600000146B0F94440D343E41EB1F94610062CEC
:104610001CD2DFE804F00A15031B1807A0F8442099
:10462000012910BDA0F8442010BD491E172902D849
:10463000A0F8443010BD4EF6EF61A0F8441010BD54
:10464000A0F8443010BDA0F8442010BD4EF6EE6135
:10465000A0F8441010BD012891D14F4801784FF4C3
:104660008270012902D0002102F014BC012102F065
:1046700011BC84E7012882D1474841784FF48A7001
:10468000012902D0002102F005BC012102F002BC88
:1046900075E7012806D1404890F902104FF4837065
:1046A00002F0F8BB6BE7012806D13B4890F90310F4
:1046B0004FF4847002F0EEBB61E7012806D1364862
:1046C00090F904104FF4857002F0E4BB57E701281D
:1046D00006D1314890F905104FF4A37002F0DABB0F
:1046E0004DE7012806D12C4890F906104FF4A2702E
:1046F00002F0D0BB43E7012806D1274890F9071004
:104700004FF4A17002F0C6BB39E7012806D1224858
:1047100090F908104FF4A07002F0BCBB2FE70128FD
:1047200006D11D4890F909104FF49F7002F0B2BBFA
:1047300025E7012806D1184890F90A104FF4A9700E
:1047400002F0A8BB1BE7012806D1134890F90B1013
:104750004FF4A87002F09EBB11E7012806D10E4865
:1047600090F90C104FF4A77002F094BB07E70128F2
:1047700006D1094890F90D104FF4A67002F08ABBDB
:10478000FDE6012806D1044890F90E104FF4A570FB
:1047900002F080BBF3E600002C0300102DE9F0438B
:1047A000874C658805F1010565802578A84277D199
:1047B000A68806F10106A680824D087828804878F0
:1047C00068808878A880C878E8802A8113F8287FD4
:1047D0006F815978A9819A78EA81D87828824FEA3E
:1047E000072341EA03014FEA012142EA01024FEAAD
:1047F000022140EA010006F10106A6807249411833
:104800007248B0F90000C0EB4012C2EB002001EB8F
:104810000017A7626E48B7FBF0F6266206F10102A8
:1048200062624FF00003E3626381E06A844600F253
:104830006D10E06261895FEA817802D100F10100C8
:10484000E062E06A824205D8C4F82CC0A2EB0C00FA
:10485000E08005E001F1010188B260816428E4D3C1
:1048600023814FF00100A081DFF86881B4F80AC00D
:10487000E3882189A08938F810200A4492B2228165
:104880005FEA8C7904D1022802D102F1010222816F
:104890002289934205D82181A3EB0100E08106E043
:1048A00030E000F1010080B2A0810D28E1D3A6EB39
:1048B000061000EB4000C0EB001007EBC0102063B7
:1048C0004FF46166B0FBF6F291B2218206FB12064C
:1048D0004FF03C07B6FBF7F082B2628207FB106034
:1048E00086B2A682AB82E08A00280BD03A480172D9
:1048F00002710670A0F81CC0A1890176E1890173DC
:10490000A0F12000BDE8F08338B52D4D28780028AF
:104910002BD0302009F03CFC04464FF030024FF021
:104920000001204604F006FE4FF0E30020704FF037
:10493000000060704FF00600A0704FF0EC00E070D7
:104940004FF0310121734FF04E006073A1734FF0AF
:104950003400E0734FF03000009023464FF07B02AC
:1049600005F11801287809F07DFC38BD70B5144CAC
:10497000E08A10B1A0F10100E082184D28880028DB
:1049800016D0E069002813D0A0F10100E0610028F2
:104990000ED14FF00500E082FFF7B6FFB5F9000039
:1049A000012806D0022808D0032801D10C48E06174
:1049B00070BD4FF46160E06170BD0548E06170BD9D
:1049C000D8570010B4030820003EE8439E020010B0
:1049D0008051010030EB0000204002407EC00720E3
:1049E000803A090000B59DB0C0EBC00101EB001199
:1049F000F84800EB8100827890F84210836ACDE994
:104A000000320291436AC269F3A104A805F076FC62
:104A100004A81DB000BD2DE9F04387B08146F349DD
:104A2000487800F1010048704FF0280006F072F954
:104A30000446DFF8BC8303AF06AD05AE282221464D
:104A4000484607F09DF88146207800281DD0E9A14E
:104A5000204608F06BFF012818D0E7A1204608F097
:104A600065FF012827D0E6A1204608F05FFF012856
:104A700036D0E4A1204608F059FF012845D0E3A133
:104A8000204608F053FF012854D067E0CDE90065C7
:104A90003B1D03AADFA1E01C04F084FD039888F805
:104AA0000000049888F80100059888F8020006982C
:104AB00088F8030052E0CDE900653B1D03AAD5A1AB
:104AC000201D04F06FFD039888F80800049888F80A
:104AD0000900059888F80A00069888F80B003DE060
:104AE000CDE900653B1D03AACAA1E01C04F05AFDF4
:104AF000039888F80400049888F80500059888F859
:104B00000600069888F8070028E0CDE900653B1DFF
:104B100003AAC0A1601D04F045FD039888F80C00AD
:104B2000049888F80D00059888F80E00069888F813
:104B30000F0013E0CDE900653B1D03AAB5A1601D80
:104B400004F030FD039888F81000049888F81100EC
:104B5000059888F81200069888F81300B9F1000F3C
:104B60007FF46CAF204606F045FD07B0BDE8F0834A
:104B7000F0B587B003460F469C4EB07800F10100B7
:104B8000B070F0781044F070002B56D1A44918464C
:104B90000870002A51D004464FF0280006F0BAF8F9
:104BA000054628222946384606F0EAFF07462878B7
:104BB00000282DD09BA1284608F0B8FE012827D058
:104BC0009BA1284608F0B2FE012838D09BA12846B8
:104BD00008F0ACFE01281BD09BA1284608F0A6FED9
:104BE000012815D09BA1284608F0A0FE01283BD043
:104BF00099A1284608F09AFE01283CD098A12846A1
:104C000008F094FE012803D097A1284608F08EFEF4
:104C1000002FC6D1284606F0EDFC032C0DD104A8C8
:104C2000FBF764FB82B201A904A807F019FE012872
:104C300003D104A98E4808F061FE07B0F0BD8DA134
:104C4000284604F08AFC20B1707800F101007070F1
:104C5000DEE789A1284604F080FC0028D8D07078CF
:104C6000A0F101007070D3E7E91C04A808F046FE2B
:104C700044F00104CCE7291D01A808F03FFE44F0F0
:104C80000204C5E72DE9F04788B004460E46904679
:104C90001F464FF0000555492078614B91F800C040
:104CA000662874D017DC4FF0010C622873D00BDC3F
:104CB0000A463228127802F10102D2B269D03328B2
:104CC00068D0612832D117E063287DD064287CD079
:104CD0006528F7D171E1524A7828526876D006DC0F
:104CE000672874D06D2873D07328EBD104E279283B
:104CF0006FD07A28E6D1A7E3A0783D496D2816D079
:104D000004DC67281FD06928DCD104E0702826D095
:104D10007328D7D12FE0CA788878CDE900024B7884
:104D20000A78211D304605F0E9FA054692E3C87A73
:104D30008A7ACDE900204B7A0A7A211D304605F0A7
:104D4000DDFA054686E3C8798A79CDE900204B79FA
:104D50000A79211D304605F0D1FA05467AE3CA7B6F
:104D6000887BCDE900024B7B0A7B211D304605F094
:104D7000C5FA05466EE3C87C8A7CCDE900204B7CF1
:104D80000A7C211D304605F0B9FA054662E35AE176
:104D900001E037E347E3A0786328C7D0A0F13000F3
:104DA000C0B2072801D94FF000000CFA00FC0CF04B
:104DB000FF00197831A2014200D110A2211D304616
:104DC00005F09CFA054645E35CE0BCE014E33FE1F6
:104DD00070E1D3E2E0EB0720256420256420256400
:104DE000202564203078253032780000EC00001057
:104DF0005C31082069703D006D736B3D0000000060
:104E000067773D0070646E733D00000073646E73DD
:104E10003D00000025642E25642E25642E256400A7
:104E200018C107206275743D62757430000000007F
:104E30006275743D62757431000000006275743DE6
:104E400062757432000000006275743D62757433DF
:104E50000000000070773D007077323D00000000D8
:104E60006C6364313D0000006C6364323D000000FF
:104E700094C10720706C00006D6900006368656371
:104E80006B656400DFF8FC93DFF8FCA343E038882F
:104E9000FE4A00EB400101EBC00102EB810400F18E
:104EA0000100388006EB0500F9A105F027FA05445A
:104EB000207801280DD800EB400101EBC000F1493A
:104EC00000EB09033A8870197C3105F017FA0544A4
:104ED0001CE002282BD02389E18B628994F807C05B
:104EE000CDE903C3CDE905216279A1792379029146
:104EF000CDE9003200EB400101EBC00000EB0903FB
:104F00003A887019E74905F0F9F9054438889AF8A4
:104F10000010884203D005F196004045B7D3388889
:104F20009AF80010884201D245F4004592E2608967
:104F3000D44B009016333A88701903F1AE0105F096
:104F4000DDF90544E2E760783028EFD1A078313808
:104F50000728EBD2DFE800F0040E0E0F1C232A0016
:104F6000D0485430FBF72BFC0246211D304605F09B
:104F7000C5F905466EE2087900F1010008714FF0AD
:104F8000020204F10401304605F0B8F9054661E279
:104F90000722211D304605F0B1F905465AE20522E7
:104FA000211D304605F0AAF9054653E20322211DD2
:104FB000304605F0A3F905464CE206F0D3FD054660
:104FC000B9A1284604F0DFFA68B3B8A1284604F076
:104FD000DAFA50B3B7A1284604F0D5FA38B3B7A12E
:104FE000284604F0D0FA20B3B5A1284604F0CBFA45
:104FF00008B3B5A1284604F0C6FAF0B1B4A128461A
:1050000004F0C1FAD8B1B3A1284604F0BCFAC0B18B
:10501000B1A506F0A7FD03462A46A11C304605F0BF
:105020006DF9054616E2AEA5F3E7AFA5F1E7B1A528
:10503000EFE7B3A5EDE7B4A5EBE7B6A5E9E7B8A5BB
:10504000E7E7B9A5E5E7A078312893D0322801E257
:10505000A078312804D0322808D033288AD11BE028
:10506000211D304605F04AF90546F3E1104604F0EB
:10507000F1FB04F0F4FB4FF06632AD4B04F062FB41
:105080006FF0090204F0CFFB02460B46211D3046AB
:1050900005F034F90546DDE14FF0640002FB00F253
:1050A0004FEA92225A6004F10401304605F026F9D5
:1050B0000546CFE16078312804D032280BD0332860
:1050C000B0D111E09B48E11CB0F90020304605F05A
:1050D00015F90546BEE19848E11CB0F900203046BC
:1050E00005F00CF90546B5E19448E11C026830462C
:1050F00005F004F90546ADE16078302802D031288A
:1051000090D16EE0A07830380A288BD2DFE800F02A
:10511000050F19232D37414B555F0020FFF762FC27
:105120000246211D304605F0E9F8054692E10120CE
:10513000FFF758FC0246211D304605F0DFF8054612
:1051400088E10220FFF74EFC0246211D304605F0A3
:10515000D5F805467EE10320FFF744FC0246211DF9
:10516000304605F0CBF8054674E10420FFF73AFC21
:105170000246211D304605F0C1F805466AE10520CA
:10518000FFF730FC0246211D304605F0B7F8054612
:1051900060E10620FFF726FC0246211D304605F09F
:1051A000ADF8054656E10720FFF71CFC0246211D1D
:1051B000304605F0A3F805464CE10820FFF712FC45
:1051C0000246211D304605F099F8054642E10920C6
:1051D000FFF708FC0246211D304605F08FF8054612
:1051E00038E1A07830380A2885D2DFE800F0050FD2
:1051F00019232D3741A9B3BD0A20FFF7F3FB02465F
:10520000211D304605F07AF8054623E10B20FFF713
:10521000E9FB0246211D304605F070F8054619E10C
:105220000C20FFF7DFFB0246211D304605F066F833
:1052300005460FE10D20FFF7D5FB0246211D304644
:1052400005F05CF8054605E10E20FFF7CBFB0246B2
:10525000211D304605F052F80546FBE00F20FFF710
:10526000C1FB0246211D304605F048F80546F1E035
:105270001020FFF7B7FB0246211D304605F03EF82F
:105280000546E7E04CEB0000B1E4000038EA0720F7
:105290003C747220616C69676E3D2263656E746553
:1052A00072223E0058EC0000656E0000656E2D75A0
:1052B00073000000656E2D676200000064650000E9
:1052C00064652D636800000064652D617400000052
:1052D00066720000736C0000556E6B6E6F776E0027
:1052E000456E676C69736800456E676C697368200A
:1052F00055534100456E676C697368204742000052
:105300004765726D616E00004765726D616E204386
:10531000480000004765726D616E20415400000036
:105320004672656E63680000536C6F76656E65004B
:1053300066660A40520000105000001000C00720AE
:105340001120FFF74FFB0246211D304604F0D6FF27
:1053500005467FE01220FFF745FB0246211D30463F
:1053600004F0CCFF054675E01320FFF73BFB024637
:10537000211D304604F0C2FF05466BE060783028FE
:1053800008D06E2866D10422E11C304604F0B6FF36
:1053900005465FE0A078313805285BD2DFE800F0F1
:1053A000030B131C24002DA36246211D304604F07C
:1053B000A5FF05464EE04A7828A3211D304604F09B
:1053C0009DFF054646E025A345F6AA12211D30465D
:1053D00004F094FF05463DE021A30022211D304644
:1053E00004F08CFF054635E01FA30022211D304646
:1053F00004F084FF05462DE0611C304604F07EFF7A
:10540000054627E00A70627819A3A2F130000CFA71
:1054100000FC5FEA8C7000D117A319A1304604F09C
:105420006DFF054616E00A70627811A3A2F1300004
:105430000CFA00FC1CF0060F00D10FA310A130469F
:1054400004F05CFF054605E01AA2A11C304604F0FA
:1054500055FF054608B0A8B2BDE8F087200000005F
:1054600061626364656600006768696A0000000045
:10547000747275650000000066616C736500000061
:105480003C636865636B626F783E3C69643E62753D
:1054900074746F6E25633C2F69643E3C6F6E3E25CD
:1054A000733C2F6F6E3E3C2F636865636B626F7851
:1054B0003E000000656E64002DE9F047102001F009
:1054C0002BFCFF4C2080122001F026FC60802C2059
:1054D00001F022FCFB4C20802E2001F01DFC60809E
:1054E000142001F019FCF84C2080162001F014FC67
:1054F0006080182001F010FCF44C20801A2001F08C
:105500000BFC60801C2001F007FCF14C20801E2069
:1055100001F002FC6080202001F0FEFBED490880D4
:10552000242001F0F9FBEC490880262001F0F4FB6F
:10553000EA4C2080282001F0EFFB60802A2001F057
:10554000EBFBA080302001F0E7FBE54C208032200F
:1055500001F0E2FB6080342001F0DEFBA080362009
:1055600001F0DAFBDF4C2080382001F0D5FB6080B1
:105570003A2001F0D1FBA0803C2001F0CDFBDA49BC
:1055800008803E2001F0C8FBD8490880402001F087
:10559000C3FBD7490880422001F0BEFBD5490880F3
:1055A000442001F0B9FBD4490880A62001F0B4FBE7
:1055B000D24C2080A82001F0AFFB6080AA2001F02F
:1055C000ABFBA080762001F0A7FBCD4908807820B6
:1055D00001F0A2FBCB4908807A2001F09DFBCA496B
:1055E00008807C2001F098FBC84908807E2001F0EB
:1055F00093FBC7490880C62001F08EFBC54908808F
:10560000C82001F089FBC4490880822001F084FB96
:10561000C2490880842001F07FFBC14908808620B0
:1056200001F07AFBBF490880882001F075FBBE4974
:105630000880DE2001F070FBBC4908804FF4D27670
:10564000304601F069FBBA4908808C2001F064FB08
:10565000B84908808E2001F05FFBB7490880902090
:1056600001F05AFBB54908804FF4AD7001F054FBCE
:10567000B34908804FF4C47001F04EFBB149088073
:105680004FF4C57001F048FBAF4908804FF4C67075
:1056900001F042FBAD4908804FF4C77001F03CFBBC
:1056A000AB4908804FF4C87001F036FBA949088067
:1056B0004FF4CB7001F030FBA74908804FF4CC7059
:1056C00001F02AFBA54908804FF4CD7001F024FBBE
:1056D000A34908804FF4CE7001F01EFBA149088059
:1056E000B01F01F019FBA0490880341F204601F0CB
:1056F00013FB9E490880A71C384601F00DFB9C490E
:1057000008804FF4B27001F007FB9A49088092209C
:1057100001F002FB98490880942001F0FDFA9749B6
:105720000880962001F0F8FA95490880982001F049
:10573000F3FA944908804FF49B7001F0EDFA924916
:1057400008809A2001F0E8FA904908800F22002191
:105750008E48FAF747FD4FF4177001F0DDFA8C4DD3
:10576000288040F25E2001F0D7FADFF82882A8F8FE
:10577000000040F2662001F0CFFA874908804FF41C
:105780001A7001F0C9FA854908802888B8F8001015
:105790000844834908804FF41B7001F0BDFA814929
:1057A0000880802001F0B8FA7F490880BC2001F011
:1057B000B3FA7E490870BE2001F0AEFA7C49088039
:1057C000C42001F0A9FA7B490880CA2001F0A4FA9C
:1057D00079490880CC2001F09FFA78490880CE20D2
:1057E00001F09AFA764908804FF4197001F094FAA2
:1057F0007449088040F26A2001F08EFA72490880EC
:10580000D02001F089FA71490880D22001F084FA91
:105810006F490880D42001F07FFA6E490880D620B5
:1058200001F07AFA6C490880D82001F075FA6B49CA
:105830000880DA2001F070FA69490880DC2001F064
:105840006BFA68490880E22001F066FA6649088030
:10585000E42001F061FA65490880FE2001F05CFA5D
:10586000634908804FF4807001F056FA614908805E
:10587000E62001F051FA60490870E82001F04CFA86
:105880005E490870EA2001F047FA5D490870EC2093
:1058900001F042FA5B490880EE2001F03DFA5A49D6
:1058A0000880F02001F038FA584908804FF4B670AB
:1058B00001F032FA56490880F22001F02DFAA9E0F1
:1058C0003002001014C007203402001018C0072056
:1058D000380200103C02001022C007203E020010D7
:1058E000F4C00720080300104402001024C0072061
:1058F0004602001026C00720280200101CC0072006
:105900004802001028C007204A0200102AC00720C1
:105910004C0200102CC007205E0200102EC0072091
:105920005002001030C007205202001032C0072081
:105930005402001034C007205602001036C0072061
:105940009A0200107EC007209E02001080C007202F
:10595000A002001082C00720A202001084C007200D
:10596000A402001086C00720A602001088C00720ED
:10597000A80200107CC007205802001038C0072081
:105980005A020010660000105EC007206800001078
:1059900060C007207E0200106A00001062C007206D
:1059A0008002001064C007204E020010D2C0072001
:1059B000D4C007203CC007203EC007206002001072
:1059C00040C007206202001042C00720640200109D
:1059D00044C007206602001046C00720680200107D
:1059E00048C007206A0200104AC007206C0200105D
:1059F0004CC007206E0200104EC007207402001039
:105A000054C007207002001052C0072050C0072069
:105A100072020010FF490880F42001F07DF9FE4970
:105A20000880F62001F078F9FC490880F82001F0A0
:105A300073F9FB490880FA2001F06EF9F9490880F2
:105A4000FC2001F069F9F84908804FF4817001F0F9
:105A500063F9F64908804FF48B7001F05DF9F44961
:105A600008804FF48C7001F057F9F24908804FF428
:105A70008D7001F051F9F04908804FF48E7001F0FB
:105A80004BF9EE4908804FF4907001F045F9EC496C
:105A900008804FF4917001F03FF9EA4908804FF413
:105AA0008F7001F039F9E84908804FF4927001F0E5
:105AB00033F9E64908804FF4937001F02DF9E44979
:105AC00008804FF4957001F027F9E24908804FF4FF
:105AD000967001F021F9E04908804FF4977001F0C9
