:020000040000FA
:10000000A0710010E1000000E5000000E700000022
:10001000E9000000EB000000ED000000000000001F
:10002000000000000000000000000000EF000000E1
:10003000F100000000000000F30000003B5D000044
:10004000F7000000779C0000A39C0000F700000070
:10005000F700000015B20000A7CE0000F700000076
:10006000F7000000F7000000F7000000F7000000B4
:10007000F7000000F7000000F7000000F7000000A4
:10008000F7000000F7000000F7000000F700000094
:10009000F7000000F70000002D2E0000F700000020
:1000A000F7000000F7000000F7000000F700000074
:1000B00059D60000F7000000F7000000F70000002C
:1000C000F7000000F7000000F7000000DFF80CD098
:1000D0000DF064FF00480047815E0000A071001031
:1000E00005480047FEE7FEE7FEE7FEE7FEE7FEE71E
:1000F000FEE7FEE7FEE7FEE7CD000000FEE710B5F5
:1001000010F0D2FA10F05EFB10F050FB10F0DEFAA7
:10011000AFF30080BDE8104010F01ABB10B511F02D
:100120002BF911F09BFF11F07FF9BDE8104011F0A1
:10013000F7BA11F03FB810F007BE09B100207047C0
:100140000FF00EBB0020704730B54FF000003D4B64
:10015000A3F1140202F10A04115C61B1255CA94209
:1001600009D1195C39B1A1F10101C9B2195411B910
:100170004FF000011154115C215400F10100C0B294
:100180000A28E9D330BD70B54FF000042D4EA6F11A
:10019000140604F10104E4B2355D1DB1854201D0BD
:1001A0000A2CF6D3305527480C3040F8241028305C
:1001B00040F824203438035570BD4FF00001214A27
:1001C000A2F1140201F10101C9B2535C834201D0D2
:1001D0000A29F7D3535C834212D11A480C3050F8E5
:1001E000213019480360174B343353F821304360F2
:1001F0004FF000005054134A50544FF00100704724
:10020000002070474FF000010E4AA2F1140201F1E4
:100210000101C9B2535C834201D00A29F7D3525C71
:1002200082420CD107480C3050F821200648026069
:10023000044A343252F821104160012070470020F6
:10024000704700003459001010C00720204BDA60BE
:100250001870597070471E48C16800290ED0491E99
:10026000C1600BD11B4A0178117041785170117136
:100270004FF00001C1700171417181717047144AE2
:100280001161907070471248016900290CD0491E15
:10029000016109D10F4A817811704FF0000151704E
:1002A000C1700171417181717047094908817047BE
:1002B0000749B1F90800002809D0A0F1010000B2F7
:1002C0000881002803D10146084601F0AFBE7047FF
:1002D00004000010E900001040EA01039B0703D06E
:1002E00009E008C9121F08C0042AFAD203E011F875
:1002F000013B00F8013B521EF9D27047FFFFFFFFA0
:10030000002802DAC0F1000000B270474FF0000090
:10031000FD4A4FF02001115400F10100C0B2C8287D
:10032000F9D3704701464FF00000F74A00F1010091
:10033000C0B2135C8B4201D0C828F7D3704710B508
:100340004FF00001F14C4FF00A020346B0FBF2F00F
:1003500002FB1033635401F10101C9B20529F4D342
:1003600010BDF0B5EA4D4FF0010129704FF00501C5
:10037000E64B4FF020064FF000072A7842B15A189A
:1003800012F8014C24B9814202D902F8016C07E04D
:1003900003EB010212F8014D04F1300414702F70C8
:1003A000A1F10101C9B20029E7D1F0BD70B50D4638
:1003B0001446002804DA6FEA000000F1010000B2E0
:1003C000FFF7BDFF601CC0B2FFF7CBFF2846FFF769
:1003D000A9FFFF2822D04FF00001CC4DCA4AA1420C
:1003E00002D26B5C135411E008D14FF02E0313546A
:1003F00002EB00066B5C06F8013C07E06B5C202B0F
:1004000004D064B102EB000606F8013CA0F1010043
:10041000C0B201F10101C9B20529E0D370BD135486
:10042000F4E7F0B50C461546002802DAC0F10000EA
:1004300000B24FF02D06FFF782FF681CC0B2FFF735
:1004400090FF2046FFF76EFF4FF00001AF4AAE4C21
:100450007DB9535C202B0CD057187F78202F06D104
:100460002D2E04D104EB000C37460CF8017C2354EC
:1004700017E0A94202D2535C235412E008D14FF096
:100480002E03235404EB0007535C07F8013C08E0FB
:10049000535C202B04D004EB000707F8013C00E07C
:1004A0002D2EA0F10100C0B201F10101C9B2052950
:1004B000CED3F0BDFEB503464FF02B07002B04DA78
:1004C000C3F1000003B24FF02D074FF000004FF0D2
:1004D0000A046D4693FBF4F604FB16332B5433B237
:1004E00000F1010040B20A28F4DB4FF001034FF0A5
:1004F00000044FF009004FF0200643B115F800C08A
:10050000BCF1000F03D1904201DD2E5408E02B5CBA
:1005100003F130032B544FF0000304F10104E4B263
:10052000A0F1010040B20028E7DA2D2F04D12046C7
:1005300004F10104E4B22F548AB160B207E005EB84
:10054000000313F8013C2B54A0F1010040B290428B
:10055000F5DC4FF02E00A85404F10104E4B2084683
:10056000FFF7E0FE4FF00001674A06E0A0EB01064E
:100570006B5C935501F1010149B2A142F6DBFEBD6E
:10058000FEB503464FF02B07002B03DAC3F100033F
:100590004FF02D074FF000004FF00A046D461E4645
:1005A00093FBF4F304FB13662E5400F1010040B2F8
:1005B0000A28F4DB4FF001034FF000044FF009006C
:1005C0004FF0200643B115F800C0BCF1000F03D175
:1005D000904201DD2E5408E02B5C03F130032B54D4
:1005E0004FF0000304F10104E4B2A0F1010040B2B5
:1005F0000028E7DA2D2F04D1204604F10104E4B2EB
:100600002F548AB160B207E005EB000313F8013CF8
:100610002B54A0F1010040B29042F5DC4FF02E00C7
:10062000A85404F10104E4B20846FFF77BFE4FF042
:100630000001354A06E0A0EB01066B5C935501F121
:10064000010149B2A142F6DBFEBD2DE9FE414FF0AA
:100650002B0C002803DAC0F100004FF02D0C4FF0F6
:1006600000044FF00A056F46064690FBF5F005FBC7
:1006700010663E5504F1010464B20A2CF4DB4FF01D
:1006800001054FF000044FF009004FF0200645B17E
:1006900017F80080B8F1000F03D1984201DD3E54F5
:1006A00008E03D5C05F130053D544FF0000504F1D4
:1006B0000104E4B2A0F1010040B20028E7DABCF185
:1006C0002D0F05D1204604F10104E4B207F800C063
:1006D0008BB160B207E007EB000515F8015C3D54F3
:1006E000A0F1010040B29842F5DC4FF02E00F85422
:1006F00004F10104E4B201EB810002EB8000C1B21D
:100700004FF00000004A0CE0F3000010EAC00720A0
:10071000F2020010A1EB00053B5C535500F1010013
:1007200040B2A042F6DBBDE8FE8170B50D4616462C
:100730001C46FFF704FE601CC0B2FFF712FE05EB7B
:10074000850006EB8000C1B24FF00000FE4BFF4D6C
:10075000A04201D21A5C6A5407D31A5C202A04D042
:1007600064B105EB010606F8012CA1F10101C9B243
:1007700000F10100C0B20528EAD370BD6A54F4E765
:1007800030B5044608461546FFF7CCFDFF280CD0CF
:10079000EE4A07E000EB050304F10104D15400F137
:1007A0000100C0B221780029F4D130BD70B50D46EA
:1007B0001446FFF7C4FD601CC0B2FFF7D2FD284607
:1007C000FFF7B0FD4FF00001DF4AE04D24B9535C64
:1007D000202B01D02B5415E0A14202D2535C2B54A4
:1007E00010E008D14FF02E032B5405EB0006535CAC
:1007F00006F8013C06E0535C202B03D005EB000615
:1008000006F8013CA0F10100C0B201F10101C9B23A
:100810000529DBD370BD1044002801DA084403E049
:10082000884201DBA0EB0100C0B270472DE9FE4F0A
:1008300004460D464FF460600AF079F862424021A8
:10084000FFF7E9FF4FEA401000F58060044602A977
:1008500020460AF0F3F801A904F108000AF0EEF8C6
:10086000694604F10C000AF0E9F82846FFF75AFD42
:1008700004469DF80800DFF8D4A2DFF8D4B24FF0A8
:1008800040074FF030064FF021084FF023094FF09A
:100890002005552851D0CF214FF0D10C50287DD0C4
:1008A000E22251287BD042287AD0532879D0492897
:1008B00078D0752877D19DF80A005A28FAD14FF0E0
:1008C000D30104F10100C0B20AF804104FF0F003A4
:1008D00000F10101C9B20AF800304FF02E0001F119
:1008E0000102D2B20AF801004FF0E70102F1010063
:1008F000C0B20AF802104FF0E00200F10101C9B2E3
:100900000AF8002001F10100C0B20AF801309DF898
:10091000091009297DD201F1310100F10102D2B2A1
:100920000AF8001002F10100C1B20AF8025001F108
:100930000100C0B20AF80150F3E39DF80A00522802
:1009400014D14FF0C20104F10100C0B20AF8041042
:100950004FF0EA0200F10101C9B20AF800204FF09D
:10096000EB0201F10100C4B20AF8012004F1010018
:10097000C0B20AF8045000F10101C9B20AF80050EF
:1009800001F10100C0B20AF8015000F10101C9B241
:100990000AF8005001F10100C0B205E09DE067E1F6
:1009A0002EE2FBE3FBE350E00AF801509DF804104F
:1009B000BBF83C2091424AD19DF805109BF83820A5
:1009C000914244D19DF806109BF82C2091423ED1D3
:1009D00000F10101C9B20AF8006001F10100C0B2E2
:1009E0000AF801804FF03A0200F10101C9B20AF899
:1009F000002001F10100C0B20AF8016000F101011C
:100A0000C9B20AF8007001F10100C0B20AF8012071
:100A100000E0FEE300F10101C9B20AF800600AF843
:100A200001909DF800004FF000024FF02101FFF708
:100A3000BDFE9DF8010000224021FFF7B7FE9DF8A2
:100A4000020000222321FFF7B1FEBDE8FE8F00F176
:100A50000101C9B20AF8005001F10100C0B20AF860
:100A6000016000F10101C9B20AF8008001F1010042
:100A7000C0B20AF8017000F10101C9B20AF80050D1
:100A800001F10100C0B20AF8015000F10101C9B240
:100A90000AF800600AF801909DF806004FF0000285
:100AA0004FF02101FFF782FE9DF804000022232170
:100AB000FFF77CFE9DF80500401E0C2803D34FF085
:100AC00001008DF805009DF805102248002200EB7A
:100AD00081004021FFF754FEB7E74FF0C00204F158
:100AE0000100C0B20AF804204FF0C20300F1010275
:100AF000D2B20AF800304FF02E0302F10100C0B26A
:100B00000AF8023000F10102D2B20AF8001002F134
:100B10000101C9B20AF802C001F10100C0B20AF82D
:100B2000015000F10101C9B20AF8005001F10100C1
:100B3000C0B20AF801509DF80410BBF83C20914265
:100B400050D19DF8051007E0EAC00720F30000101F
:100B500000400240742F01009BF83820914241D19F
:100B60009DF806109BF82C2091423BD100F1010129
:100B7000C9B20AF8006001F10100C0B20AF80180B0
:100B80004FF03A0200F10101C9B20AF8002001F168
:100B90000100C0B20AF8016000F10101C9B20AF80F
:100BA000007001F10100C0B20AF8012000F101015A
:100BB000C9B20AF800600AF801909DF800004FF0F1
:100BC00000024FF02101FFF7F1FD9DF80100002226
:100BD0004021FFF7EBFD9DF8020000222321FFF7E3
:100BE000E5FD32E700F10101C9B20AF8005001F158
:100BF0000100C0B20AF8016000F10101C9B20AF8AF
:100C0000008001F10100C0B20AF8017000F1010199
:100C1000C9B20AF8005001F10100C0B20AF801504F
:100C200000F10101C9B20AF800600AF801909DF8CC
:100C300006004FF000024FF02101FFF7B7FD9DF8CD
:100C4000040000222321FFF7B1FD9DF80500401E9E
:100C50000C2803D34FF001008DF805009DF8051016
:100C6000FF48002200EB81004021FFF789FDECE600
:100C70004FF0C00104F10100C0B20AF804104FF0B7
:100C8000C20300F10101C9B20AF800304FF02E038F
:100C900001F10100C0B20AF801304FF0550300F134
:100CA0000101C9B20AF8003001F10100C0B20AF82E
:100CB00001204FF0FB0200F10101C9B20AF8002047
:100CC0004FF0F50001F10102D2B20AF8010002F181
:100CD0000100C0B20AF802509DF80410BBF83C2095
:100CE000914247D19DF805109BF83820914241D19F
:100CF0009DF806109BF82C2091423BD100F1010198
:100D0000C9B20AF8006001F10100C0B20AF801801E
:100D10004FF03A0200F10101C9B20AF8002001F1D6
:100D20000100C0B20AF8016000F10101C9B20AF87D
:100D3000007001F10100C0B20AF8012000F10101C8
:100D4000C9B20AF800600AF801909DF800004FF05F
:100D500000024FF02101FFF729FD9DF8010000225C
:100D60004021FFF723FD9DF8020000222321FFF719
:100D70001DFD6AE600F10101C9B20AF8005001F157
:100D80000100C0B20AF8016000F10101C9B20AF81D
:100D9000008001F10100C0B20AF8017000F1010108
:100DA000C9B20AF8005001F10100C0B20AF80150BE
:100DB00000F10101C9B20AF800600AF801909DF83B
:100DC00006004FF000024FF02101FFF7EFFC9DF805
:100DD000040000222321FFF7E9FC9DF80500401ED6
:100DE0000C2803D34FF001008DF805009DF8051085
:100DF0009B48002200EB81004021FFF7C1FC24E664
:100E00009DF80A0043287DD14FF0C00104F1010094
:100E1000C0B20AF804104FF0C20200F10101C9B2D9
:100E20000AF800204FF02E0201F10100C0B20AF8CA
:100E300001204FF0C10100F10102D2B20AF8001006
:100E40004FF0E00002F10101C9B20AF802004FF0D0
:100E5000F20201F10100C0B20AF801209DF8091068
:100E6000092911D201F1310100F10102D2B20AF8CF
:100E7000001002F10100C1B20AF8025001F10100B4
:100E8000C0B20AF801502EE0A1F109025A2A1BD281
:100E900001F101014FF00A0CB1FBFCF303F1300446
:100EA00000F10102D2B20AF800400CFB131000F16D
:100EB000300002F10101C9B20AF8020001F101009B
:100EC000C0B20AF801500EE000F10101C9B20AF8FF
:100ED000005001F10100C2B20AF8015002F1010014
:100EE000C0B20AF802509DF80410BBF83C209142B1
:100EF0004CD19DF805109BF83820914246D19DF8C1
:100F0000061000E08AE09BF82C2091423ED100F1CF
:100F10000101C9B20AF8006001F10100C0B20AF88B
:100F200001804FF03A0200F10101C9B20AF8002035
:100F300001F10100C0B20AF8016000F10101C9B27B
:100F40000AF8007001F10100C0B20AF8012000F1B6
:100F50000101C9B20AF8006001F10100C4B20AF847
:100F600001909DF800004FF000024FF02101FFF7C3
:100F70001DFC9DF8010000224021FFF717FC9DF8A1
:100F8000020000222321FFF711FC47E000F10101DC
:100F9000C9B20AF8005001F10100C0B20AF80160BC
:100FA00000F10101C9B20AF8008001F10100C0B2EC
:100FB0000AF8017000F10101C9B20AF8005001F10C
:100FC0000100C0B20AF8015000F10101C9B20AF8EB
:100FD000006001F10100C4B20AF801909DF806001A
:100FE0004FF000024FF02101FFF7E0FB9DF80400F5
:100FF00000222321FFF7DAFB9DF80500401E0C2894
:1010000003D34FF001008DF805009DF8051014483A
:10101000002200EB81004021FFF7B2FB9DF80A009F
:1010200053287DD14FF0C00304F10100C0B20AF88B
:1010300004304FF0C20200F10101C9B20AF80020E9
:101040004FF02E0201F10100C0B20AF801204FF06A
:10105000C10200F10101C9B20AF8002002E000005B
:10106000742F01004FF0E00001F10102D2B20AF842
:1010700001004FF0F20102F10100C0B20AF80210C3
:101080009DF809104FF04304092911D201F13101F3
:1010900000F10102D2B20AF8001002F10100C1B25F
:1010A0000AF8023001F10100C0B20AF8014021E063
:1010B00009395A290FD200F10101C9B20AF80030EA
:1010C00001F10100C2B20AF8014002F10100C0B210
:1010D0000AF802500EE000F10101C9B20AF800500E
:1010E00001F10100C2B20AF8015002F10100C0B2E0
:1010F0000AF802509DF80410BBF83C2091424FD1F1
:101100009DF805109BF83820914249D19DF80610B2
:101110009BF82C20914243D100F10101C9B201E0BA
:1011200088E0FEE30AF8006001F10100C2B20AF8AB
:1011300001804FF03A0302F10100C0B20AF8023018
:1011400000F10101C9B20AF8006001F10100C0B26A
:101150000AF8017000F10101C9B20AF8003001F18A
:101160000100C0B20AF8016000F10101CCB20AF836
:1011700000909DF800004FF000024FF02101FFF7B2
:1011800015FB9DF8010000224021FFF70FFB9DF8A1
:10119000020000222321FFF709FB4BE016E3FEE3E8
:1011A00000F10101C9B20AF8005001F10100C0B21A
:1011B0000AF8016000F10101CAB20AF8008002F1E8
:1011C0000100C1B20AF8027001F10100C0B20AF8D0
:1011D000015000F10101C9B20AF8005001F101000B
:1011E000C0B20AF8016000F10101CCB20AF8009027
:1011F0009DF806004FF000024FF02101FFF7D6FAEC
:101200009DF8040000222321FFF7D0FA9DF8050085
:1012100000E0FDE3401E0C2803D34FF001008DF8E1
:1012200005009DF80510FF48002200EB81004021D9
:10123000FFF7A6FA9DF80A005A2877D122464FF008
:10124000C20104F10104E0B20AF802104FF0C70233
:1012500000F10101C9B20AF8002001F10100C0B299
:101260000AF8015000F10101C9B20AF8005001F179
:101270000100C0B20AF8015000F10101C9B20AF838
:10128000005001F10100C0B20AF801509DF80410AD
:10129000BBF83C2091424AD19DF805109BF83820BC
:1012A000914244D19DF806109BF82C2091423ED1EA
:1012B00000F10101C9B20AF8006001F10100C0B2F9
:1012C0000AF801804FF03A0200F10101C9B20AF8B0
:1012D000002001F10100C0B20AF8016000F1010133
:1012E000C9B20AF8007001F10100C0B20AF8012089
:1012F00000F10101C9B20AF8006001F10100C4B2B5
:101300000AF801909DF800004FF000024FF0210113
:10131000FFF74CFA9DF8010000224021FFF746FA42
:101320009DF8020000222321FFF740FA47E000F178
:101330000101C9B20AF8005001F10100C0B20AF877
:10134000016000F10101C9B20AF8008001F1010059
:10135000C0B20AF8017000F10101C9B20AF80050E8
:1013600001F10100C0B20AF8015000F10101C9B257
:101370000AF8006001F10100C4B20AF801909DF87A
:1013800006004FF000024FF02101FFF70FFA9DF821
:10139000040000222321FFF709FA9DF80500401EF2
:1013A0000C2803D34FF001008DF805009DF80510BF
:1013B0009C48002200EB81004021FFF7E1F99DF8F5
:1013C0000A0057287DD14FF0C10104F10100C0B2DD
:1013D0000AF804104FF0E00200F10101C9B20AF866
:1013E00000204FF0F20201F10100C0B20AF8012022
:1013F0009DF80920092A13D202F1310200F10101FE
:10140000C9B20AF800204FF0F00201F10100C0B2A9
:101410000AF8012000F10101C9B20AF8005030E0D9
:10142000A2F109015A291DD202F101024FF00A046A
:10143000B2FBF4F303F1300C00F10101C9B20AF878
:1014400000C004FB132202F1300201F10100C0B21E
:101450000AF801204FF0F00200F10101C9B20AF8C8
:1014600000200EE000F10101C9B20AF8005001F1BC
:101470000100C0B20AF8015000F10101C9B20AF836
:10148000005001F10100C0B20AF801509DF80410AB
:10149000BBF83C2091424CD19DF805109BF83820B8
:1014A000914246D19DF806109BF82C20914240D1E4
:1014B00000F10101C9B20AF8006001F10100C0B2F7
:1014C00000E07EE00AF801804FF03A0200F10101ED
:1014D000C9B20AF8002001F10100C0B20AF80160A7
:1014E00000F10101C9B20AF8007001F10100C0B2B7
:1014F0000AF8012000F10101C9B20AF8006001F107
:101500000100C4B20AF801909DF800004FF00002FB
:101510004FF02101FFF74AF99DF801000022402118
:10152000FFF744F99DF8020000222321FFF73EF95E
:1015300047E000F10101C9B20AF8005001F10100D1
:10154000C0B20AF8016000F10101C9B20AF80080D6
:1015500001F10100C2B20AF8017002F10100C0B24B
:101560000AF8025000F10101C9B20AF8005001F175
:101570000100C0B20AF8016000F10101CCB20AF822
:1015800000909DF806004FF000024FF02101FFF798
:101590000DF99DF8040000222321FFF707F99DF8BB
:1015A0000500401E0C2803D34FF001008DF8050004
:1015B0009DF805101B48002200EB81004021FFF739
:1015C000DFF89DF80A004B287FF419AC4FF0C101F9
:1015D00004F10100C0B20AF804104FF0E00200F17B
:1015E0000101C9B20AF800204FF0F20201F1010036
:1015F000C0B20AF801209DF8091009291AD2034641
:1016000001F1310100F10100C2B20AF803104FF0FC
:10161000EA0102F10100C0B20AF802104FF0E5023F
:1016200002E00000742F010000F10101C9B20AF8C4
:10163000002030E0A1F109025A2A1DD201F1010176
:101640004FF00A0CB1FBFCF303F1300400F101028E
:10165000D2B20AF800400CFB131101F1300102F183
:101660000100C0B20AF802104FF0EA0200F10101D5
:10167000C9B20AF800200EE000F10101C9B20AF86F
:10168000005001F10100C0B20AF8015000F101015F
:10169000C9B20AF8005001F10100C0B20AF80150C5
:1016A0009DF80410BBF83C20914248D19DF80510EC
:1016B0009BF83820914242D19DF806109BF82C20CF
:1016C00091423CD100F10101C9B20AF8006001F178
:1016D0000100C0B20AF801804FF03A0200F10101A6
:1016E000C9B20AF8002001F10100C0B20AF8016095
:1016F00000F10101C9B20AF8007001F10100C0B2A5
:101700000AF8012000F10101C9B20AF800600AF8E4
:1017100001909DF800004FF000024FF02101FFF70B
:1017200045F89DF8010000224021FFF73FF89DF8A1
:10173000020000222321FFF739F8BDE8FE8F0246A0
:1017400000F10100C1B20AF8025001F10100C0B27B
:101750000AF8016000F10101C9B20AF8008001F144
:101760000100C0B20AF8017000F10101C9B20AF823
:10177000005001F10100C0B20AF8015000F101016E
:10178000C9B20AF800600AF801909DF806004FF00F
:1017900000024FF02101FFF709F89DF80400002234
:1017A0002321FFF703F89DF80500401E0C2803D302
:1017B0004FF001008DF805009DF80510FF4800224C
:1017C00000EB81004021FEF7DBFFB6E74FF0C002DF
:1017D00004F10100C0B20AF804204FF0C20300F186
:1017E0000102D2B20AF800304FF02E0302F10100DC
:1017F000C0B20AF802304FF0C10300F10102D2B2C8
:101800000AF8003002F10100C3B20AF8021003F135
:101810000100C0B20AF803C09DF80920092A0CD2C1
:1018200002F1310200F10101C9B20AF8002001F110
:101830000100C2B20AF8015024E0A2F109015A29BC
:1018400016D202F101024FF00A0CB2FBFCF303F1D5
:10185000300400F10101C9B20AF800400CFB13206A
:1018600000F1300001F10102D2B20AF8010009E0F2
:1018700000F10101C9B20AF8005001F10100C2B241
:101880000AF8015002F10100C0B20AF802509DF8B6
:101890000410BBF83C20914249D19DF805109BF8FB
:1018A0003820914243D19DF806109BF82C2091429C
:1018B0003DD100F10101C9B20AF8006001F1010057
:1018C000C0B20AF801804FF03A0200F10101C9B23A
:1018D0000AF8002001F10100C0B20AF8016000F12D
:1018E0000101C9B20AF8007001F10100C0B20AF8A2
:1018F000012000F10101C9B20AF800600AF8019064
:101900009DF800004FF000024FF02101FEF74EFF5E
:101910009DF8010000224021FEF748FF9DF80200DB
:1019200000E0DEE000222321FEF740FF05E700F1A2
:101930000101C9B20AF8005001F10100C0B20AF871
:10194000016000F10101C9B20AF8008001F1010053
:10195000C0B20AF8017000F10101C9B20AF80050E2
:1019600001F10100C0B20AF8015000F10101C9B251
:101970000AF800600AF801909DF806004FF0000296
:101980004FF02101FEF712FF9DF8040000222321F1
:10199000FEF70CFF9DF80500401E0C2800E00EE04D
:1019A00003D34FF001008DF805009DF80510834822
:1019B000002200EB81004021FEF7E2FEBDE64FF081
:1019C000C00104F10100C0B20AF804104FF0C203D4
:1019D00000F10101C9B20AF800304FF02E0301F105
:1019E0000100C0B20AF801304FF0C80300F1010154
:1019F000C9B20AF800304FF0ED0401F10100C3B2A2
:101A00000AF8014003F10100C0B20AF8032000E027
:101A100038E09DF8091009290CD201F1310100F1DB
:101A20000102D2B20AF8001002F10100C0B20AF8B5
:101A3000025024E0A1F109025A2A16D201F1010153
:101A40004FF00A06B1FBF6F303F1300400F1010296
:101A5000D2B20AF8004006FB131101F1300102F185
:101A60000100C0B20AF8021009E000F10101C9B298
:101A70000AF8005001F10100C0B20AF801500AF85A
:101A800000505AE6A1F109025A2A1BD201F10101C4
:101A90004FF00A0CB1FBFCF303F1300400F101023A
:101AA000D2B20AF800400CFB131000F1300002F132
:101AB0000101C9B20AF8020001F10100C0B20AF83E
:101AC00001500EE000F10101C9B20AF8005001F125
:101AD0000100C2B20AF8015002F10100C0B20AF8D6
:101AE00002509DF80410BBF83C20914247D19DF86C
:101AF00005109BF83820914241D19DF806109BF8C3
:101B00002C2091423BD100F10101C9B20AF80060DA
:101B100001F10100C0B20AF801804FF03A0200F171
:101B20000101C9B20AF8002001F10100C0B20AF8AF
:101B3000016000F10101C9B20AF8007001F1010071
:101B4000C0B20AF8012000F10101C9B20AF8006030
:101B50000AF801909DF800004FF000024FF02101BB
:101B6000FEF724FE9DF8010000224021FEF71EFE34
:101B70009DF8020000222321FEF718FEDDE5024653
:101B800000F10100C1B20AF8025001F10100C0B237
:101B90000AF8016000F10101C9B20AF8008001F100
:101BA0000100C0B20AF8017000F10101C9B20AF8DF
:101BB000005001F10100C0B202E00000742F0100EA
:101BC0000AF8015000F10101C9B20AF800600AF8F0
:101BD00001909DF806004FF000024FF02101FEF742
:101BE000E5FD9DF8040000222321FEF7DFFD9DF8AE
:101BF0000500401E0C2803D34FF001008DF80500AE
:101C00009DF80510FA48002200EB81004021FEF704
:101C1000B7FD92E5F0B50446084616461F46FEF7A6
:101C200081FB02461046F34DFF2806D108E02954F7
:101C300004F1010400F10100C0B221780029F6D1BD
:101C4000ED480078002806D0002F04D002EB0601F2
:101C50004FF05F006854F0BD2DE9F04F0746DDE915
:101C60000905884691469A46FEF75CFBE24B202127
:101C7000E04C0A224FF0640C012D09D11E783EB1D0
:101C800004EB0006A6F10E06B1707170317017E01A
:101C900097FBF2FB02FB1B7E04EB00060EF1300EFD
:101CA00006F80CEC9BFBF2FE02FB1EBB0BF1300BAB
:101CB00006F80DBC97FBFCF707F1300706F80E7C21
:101CC000022D09D11E783EB104EB0006A6F10A06EA
:101CD000B1707170317017E098FBF2F702FB178B4F
:101CE00004EB0006A6F10A060BF1300B86F802B0F1
:101CF00097FBF2FB02FB1B7707F13007777098FB2D
:101D0000FCF707F130073770032D09D11E783EB17B
:101D100004EB0006A6F10606B1707170317017E091
:101D200099FBF2F702FB179804EB0006A6F10606F2
:101D300008F1300886F8028097FBF2F802FB18776A
:101D400007F13007777099FBFCF707F13007377020
:101D5000042D09D11B783BB121542044A0F102008D
:101D600041700170BDE8F08F9AFBF2F102FB11A304
:101D700003F13003235491FBF2F302FB13112044CF
:101D8000A0F1020001F1300141709AFBFCF101F178
:101D900030010170E6E710B50C46FEF7C3FA95492D
:101DA0001CB14FF003020A5410BD4FF004020A5454
:101DB00010BD17B501EB810002EB8000C2B29DF8A7
:101DC00000308E4803F00F01445C8A498C54A2F124
:101DD0000102D2B200EB13131B788B54A2F1010263
:101DE000D2B29DF8013003F00F04045D8C54A2F1CF
:101DF0000102D2B200EB13131B788B54A2F1010243
:101E0000D2B29DF8023003F00F04045D8C54A2F1AD
:101E10000102D2B200EB13131B788B54A2F1010222
:101E2000D3B29DF8032002F00F04045DCC54A3F15B
:101E30000103DBB200EB12100078C8541EBD10B5D0
:101E400004460846FEF76EFA6C4A04F00F01535C34
:101E500068490B54A0F10100C0B202EB14121278D1
:101E60000A5410BD10B501EB810102EB8101C9B22A
:101E7000624A00F00F03D45C5E4B5C54A1F1010197
:101E8000C9B202EB10100078585410BD10B501EB28
:101E9000810102EB8101C9B2584B00F00F02554C91
:101EA0009A5C6254A1F10101C9B24FEA101202F02A
:101EB0000F00185C6054A1F10101C8B24FEA121181
:101EC00001F00F029A5C2254A0F10100C0B24FEA67
:101ED0001111595C215410BD30B501EB810102EBA9
:101EE0008101CCB2454900F001028D5CA4F10102F0
:101EF000D3B2404A15554FEA500404F001000D5C7E
:101F0000A3F10100C0B2D5544FEA540404F0010318
:101F1000CD5CA0F10103DBB215544FEA540404F088
:101F200001000D5CA3F10100C0B2D5544FEA540486
:101F300004F00103CD5CA0F10103DBB215544FEABC
:101F4000540404F001000D5CA3F10100C0B2D554AB
:101F50004FEA540303F001040D5DA0F10104E4B263
:101F600015544FEA5300085C105530BD30B5244974
:101F70000124204B91F9012091F904108A4204D1E7
:101F800000EB800003F8204030BD4D1CAA4206D172
:101F900000F1010000EB800003F8204030BD8D1CF3
:101FA000AA4206D100F1020000EB800003F82040B5
:101FB00030BDCD1CAA4206D100F1030000EB800029
:101FC00003F8204030BD0D1DAA4206D100F10400E7
:101FD00000EB800003F8204030BD4D1DAA4211D116
:101FE00000F1050000EB800003F8204030BD000048
:101FF000742F0100F300001030000010B22F010018
:10200000E90000108D1DAA4206D100F1060000EB88
:10201000800003F82040E9E7C91D8A42E6D100F1BB
:10202000070000EB800003F82040DFE7904B1A88A0
:10203000A2F1010212B21A80002A02DC4FF0000263
:102040001A801A88104400B218808A4A00EB800077
:10205000024489481368036012790271427811447E
:102060004170704770B5824DB5F9004004F101062A
:102070002E80804D04EB840425447F4C26682E601E
:1020800026792E71207061702271A37070BD2DE9C8
:10209000F04180460F461646FEF738F9774C4FF070
:1020A000000518F8010B04F8010B05F10105EDB26C
:1020B000142DF6D34FF0000017F8011B04F8011B94
:1020C00000F10100C0B21428F6D34FF0000016F85A
:1020D000011B04F8011B00F10100C0B21428F6D363
:1020E0004FF0000013F8011B04F8011B00F1010080
:1020F000C0B21428F6D3BDE8F08130B5039C4FF090
:10210000640594FBF5F45E4D2C705E4C20605E48D7
:1021100001605E4802605E48036067E7F0B5DDE994
:102120000646059D4FF0640795FBF7F5544F3D704B
:10213000544D28605448016054480260544803607C
:102140005448048054480670F0BD2DE9FE430D4606
:102150004FEA401000F58060044602A9204608F0CE
:102160006DFC01A904F1080008F068FC694604F15F
:102170000C0008F063FC2846FEF7D4F83F4C4FF003
:10218000200600F10101C9B226544FF0300701F1D9
:102190000100C0B267544FF0210800F10101C9B23B
:1021A00004F800804FF0400901F10100C0B204F8CA
:1021B000019000F10101C9B2265401F10100C0B241
:1021C000665400F10101C9B227544FF0230201F116
:1021D0000100C5B262549DF806004FF000024FF0B6
:1021E0002101FEF7E3FA9DF8040000222321FEF707
:1021F000DDFA9DF80500401E0C2803D34FF00100C6
:102200008DF805009DF805002449002201EB8000AF
:102210004021FEF7B5FA05F10100C0B2665500F1A4
:102220000101C9B2275401F10100C0B204F80180D4
:102230004FF03A0200F10101C9B2225401F101004C
:10224000C0B2675400F10101CDB204F800909DF8CE
:1022500000004FF000024FF02101FEF7A7FA9DF8B1
:10226000010000224021FEF7A1FA6655BDE8FE8379
:1022700020C0072080030820E9000010F3000010B0
:1022800033000010C8000010CC000010D000001077
:10229000D4000010B400001034000010742F0100AE
:1022A00090F900308B4200DA027090F900309342CE
:1022B00000DD0170704790F900308B4200DA017048
:1022C00090F90010914200DD02707047B0F90030C3
:1022D0008B4200DA0180B0F90010914200DD0280EB
:1022E0007047B0F900308B4200DA0280B0F900305C
:1022F000934200DD0180704703688B4200DA026080
:102300000368934200DD016070470000FE494FF012
:10231000110008727047FD4B4FF0080058704FF0E5
:102320000000FB49C0EBC00202EB001211F82220B2
:10233000052A05D000F10100C0B20C28F2D3704785
:1023400058707047002801DA404200B270472DE90A
:10235000F04F06464FF000021146EE484FF041079D
:102360004FF0440C4FF042084FF046094FF0470A37
:102370004FF0480B4FF05E034FF05804ACE0C02D17
:102380007ED0C12D7DD0C22D7CD0C32D7BD0C42D5D
:102390007AD0C52D79D0A82D78D0C62D77D0C72D6D
:1023A00076D0C82D75D0C92D74D0CA2D73D0CB2D41
:1023B00072D0CC2D71D0CD2D70D0CE2D6FD0CF2D31
:1023C0006ED0D02D6DD0D12D6CD0D22D6BD0D32D21
:1023D0006AD0D42D69D0D52D68D0D62D67D0D72D11
:1023E00066D0D82D7ED0D92D7DD0DA2D7CD0DB2DB6
:1023F0007BD0DC2D7AD0DD2D79D0DE2D78D0DF2D8D
:1024000077D0E02D76D0E12D75D0E22D74D0E32D7C
:1024100073D0E42D72D0E52D71D0B82D70D0E62D9B
:102420006FD0E72D6ED0E82D6DD0E92D6CD0EA2D60
:102430006BD0EB2D6AD0EC2D69D0ED2D68D0EE2D50
:1024400067D0EF2D66D0F02D74D0F12D73D0F22D22
:1024500072D0F32D71D0F42D70D0F52D6FD0F62DF4
:102460006ED0F72D6DD0F82D6CD0F92D6BD0FA2DE4
:102470006AD0FB2D69D0FC2D68D0FD2D67D018E007
:102480004CE065E071E07FE08FE09BE0A9E0BDE01B
:10249000D1E0DFE0EDE0FBE009E117E125E13BE120
:1024A00049E157E165E173E181E18FE19BE1A7E15A
:1024B000B5E1FE2D75D0FF2D74D0B02D73D0B92DA0
:1024C00072D015468E4602F10102755D01F10101DF
:1024D00012B209B200F80E50B55C002D7FF44FAF78
:1024E0002A4618E0AAE1BBE1CDE1DFE1F1E103E238
:1024F00015E223E231E23FE24DE25BE269E277E29C
:1025000085E299E2ADE2BBE2C9E2D7E2E5E2F3E2BD
:1025100001E30FE31DE34254BDE8F08F01F1010533
:102520002DB2435405F1010109B2475502F10102F0
:1025300012B2D1E71CE32AE338E346E354E362E353
:1025400070E37EE38CE3A0E3B4E3C8E3DCE3F0E311
:1025500001F101052DB2435405F1010109B200F862
:10256000058002F1010212B2B6E701F101052DB2B8
:1025700043544FF0570E05F1010109B200F805E090
:1025800002F1010212B2A7E701F101052DB2435495
:1025900005F1010109B200F805A002F1010212B231
:1025A0009AE7DCE3EAE3F8E3F8E301F101052DB291
:1025B000435405F1010109B200F805C002F101021E
:1025C00012B289E701F101052DB243544FF0450ED7
:1025D00005F1010109B200F805E002F1010212B2B1
:1025E0007AE701F101050FFA85FE43540EF101016E
:1025F0000DB200F80E404FF0450E05F1010109B291
:1026000000F805E002F1010212B265E701F10105EF
:102610000FFA85FE43540EF101010DB200F80E4091
:102620004FF0430E05F1010109B200F805E002F197
:10263000010212B250E701F101052DB243544FF0EF
:102640005A0E05F1010109B200F805E002F101029C
:1026500012B241E701F101052DB243544FF0490E8A
:1026600005F1010109B200F805E002F1010212B220
:1026700032E701F101052DB243544FF04A0E05F146
:10268000010109B200F805E002F1010212B223E7EC
:1026900001F101052DB243544FF04B0E05F101013C
:1026A00009B200F805E002F1010212B214E701F1EB
:1026B00001052DB243544FF04C0E05F1010109B252
:1026C00000F805E002F1010212B205E701F101058F
:1026D0002DB243544FF04D0E05F1010109B200F83F
:1026E00005E002F1010212B2F6E601F101052DB298
:1026F00043544FF04E0E05F1010109B200F805E018
:1027000002F1010212B2E7E6004002401C00001094
:10271000E8EB072054FA072001F101052DB24354DC
:102720004FF04F0E05F1010109B200F805E002F18A
:10273000010212B2D0E601F101052DB243544FF06F
:10274000500E05F1010109B200F805E002F10102A5
:1027500012B2C1E601F101052DB243544FF0520E01
:1027600005F1010109B200F805E002F1010212B21F
:10277000B2E601F101052DB243544FF0530E05F1BD
:10278000010109B200F805E002F1010212B2A3E66C
:1027900001F101052DB243544FF0540E05F1010132
:1027A00009B200F805E002F1010212B294E601F16B
:1027B00001052DB243544FF0550E05F1010109B248
:1027C00000F805E002F1010212B285E601F101050F
:1027D0002DB2435405F1010109B200F8059002F150
:1027E000010212B278E601F101052DB2435405F160
:1027F000010109B200F805B002F1010212B26BE664
:1028000001F101052DB243544FF0430E05F10101D2
:1028100009B200F805E002F1010212B25CE601F132
:1028200001052DB243544FF0590E05F1010109B2D3
:1028300000F805E002F1010212B24DE601F10105D6
:102840000FFA85FE43540EF101010DB200F80E405F
:1028500005F1010109B2475502F1010212B23BE64E
:1028600001F101050FFA85FE43540EF101010DB28D
:1028700000F80E4005F1010109B200F805C002F1AF
:10288000010212B228E601F101050FFA85FE435458
:102890000EF101010DB200F80E4005F1010109B27F
:1028A00000F8058002F1010212B215E601F10105FE
:1028B0000FFA85FE43540EF101010DB200F80E40EF
:1028C00005F1010109B200F8059002F1010212B20E
:1028D00002E601F101050FFA85FE43540EF10101F4
:1028E0000DB200F80E4005F1010109B200F805A093
:1028F00002F1010212B2EFE501F101050FFA85FEC6
:1029000043540EF101010DB200F80E4005F1010132
:1029100009B200F805B002F1010212B2DCE501F1E2
:1029200001052DB243544FF0560E05F1010109B2D5
:1029300000F805E002F1010212B2CDE501F1010556
:102940002DB243544FF0510E05F1010109B200F8C8
:1029500005E002F1010212B2BEE501F101052DB25E
:1029600043544FF0610E05F1010109B200F805E092
:1029700002F1010212B2AFE501F101052DB243549B
:102980004FF0620E05F1010109B200F805E002F115
:10299000010212B2A0E501F101052DB243544FF03E
:1029A000770E05F1010109B200F805E002F101021C
:1029B00012B291E501F101052DB243544FF0670EBB
:1029C00005F1010109B200F805E002F1010212B2BD
:1029D00082E501F101052DB243544FF0640E05F17B
:1029E000010109B200F805E002F1010212B273E53B
:1029F00001F101052DB243544FF0650E05F10101BF
:102A000009B200F805E002F1010212B264E501F139
:102A100001050FFA85FE43540EF101010DB200F8D5
:102A20000E404FF0650E05F1010109B200F805E016
:102A300002F1010212B24FE501F101050FFA85FE24
:102A400043540EF101010DB200F80E404FF0630E39
:102A500005F1010109B200F805E002F1010212B22C
:102A60003AE501F101052DB243544FF07A0E05F11C
:102A7000010109B200F805E002F1010212B22BE5F2
:102A800001F101052DB243544FF0690E05F101012A
:102A900009B200F805E002F1010212B21CE501F1F1
:102AA00001052DB243544FF06A0E05F1010109B240
:102AB00000F805E002F1010212B20DE501F1010595
:102AC0002DB243544FF06B0E05F1010109B200F82D
:102AD00005E002F1010212B2FEE401F101052DB29E
:102AE00043544FF06C0E05F1010109B200F805E006
:102AF00002F1010212B2EFE401F101052DB24354DB
:102B00004FF06D0E05F1010109B200F805E002F188
:102B1000010212B2E0E401F101052DB243544FF07D
:102B20006E0E05F1010109B200F805E002F10102A3
:102B300012B2D1E401F101052DB243544FF06F0EF2
:102B400005F1010109B200F805E002F1010212B23B
:102B5000C2E401F101052DB243544FF0700E05F1AE
:102B6000010109B200F805E002F1010212B2B3E47A
:102B700001F101052DB243544FF0720E05F1010130
:102B800009B200F805E002F1010212B2A4E401F179
:102B900001052DB243544FF0730E05F1010109B246
:102BA00000F805E002F1010212B295E401F101051D
:102BB0002DB243544FF0740E05F1010109B200F833
:102BC00005E002F1010212B286E401F101052DB225
:102BD00043544FF0750E05F1010109B200F805E00C
:102BE00002F1010212B277E401F101052DB2435462
:102BF0004FF0660E05F1010109B200F805E002F19F
:102C0000010212B268E401F101052DB243544FF004
:102C1000680E05F1010109B200F805E002F10102B8
:102C200012B259E401F101052DB243544FF0630E85
:102C300005F1010109B200F805E002F1010212B24A
:102C40004AE401F101052DB243544FF0790E05F12C
:102C5000010109B200F805E002F1010212B23BE401
:102C600001F101050FFA85FE43540EF101010DB289
:102C700000F80E404FF0610E05F1010109B200F8B5
:102C800005E002F1010212B226E401F101050FFA9A
:102C900085FE43540EF101010DB200F80E404FF0D5
:102CA000640E05F1010109B200F805E002F101022C
:102CB00012B211E401F101050FFA85FE43540EF141
:102CC00001010DB200F80E404FF0620E05F1010156
:102CD00009B200F805E002F1010212B229E401F1A3
:102CE00001050FFA85FE43540EF101010DB200F803
:102CF0000E404FF0660E05F1010109B200F805E043
:102D000002F1010212B214E401F101050FFA85FE8D
:102D100043540EF101010DB200F80E404FF0670E62
:102D200005F1010109B200F805E002F1010212B259
:102D30001AE4FFE701F101050FFA85FE43540EF195
:102D400001010DB200F80E404FF0680E05F10101CF
:102D500009B200F805E002F1010212B204E401F147
:102D600001052DB243544FF0760E05F1010109B271
:102D700000F805E002F1010212B204E401F10105DC
:102D80002DB243544FF0710E05F1010109B200F864
:102D900005E002F1010212B213E400E014E001F1D7
:102DA00001050FFA85FE43540EF101010DB200F842
:102DB0000E404FF0690E05F1010109B200F805E07F
:102DC00002F1010212B20BE401F101050FFA85FED6
:102DD00043540EF101010DB200F80E404FF06A0E9F
:102DE00005F1010109B200F805E002F1010212B299
:102DF0000BE410B54FF0C004FF4804704FF0A80278
:102E000042704FF0010383704FF02301C1704FF007
:102E1000FF010172417281724FF00001C1720471B1
:102E2000427183714FF0FE01C17110BDF34801681A
:102E300021F0E061016070472DE9F0470E46DDE9C1
:102E40000A19DDE90858824614461F4609B24FF0B8
:102E5000980007F0AFFE00219A2007F0ABFE00219A
:102E6000762007F0A7FE0121CA2007F0A3FE3C212F
:102E7000C22007F09FFE0FFA8AF1782007F09AFE31
:102E800004EBD470401001B2C82007F093FE31B2B9
:102E90007A2007F08FFE21B27C2007F08BFE4621BE
:102EA000C62007F087FE50217E2007F083FE39B24E
:102EB000822007F07FFEBB21842007F07BFE0021EB
:102EC000862007F077FE0A21882007F073FE0FFAAC
:102ED00089F1DE2007F06EFE29B28C2007F06AFE31
:102EE000E8000A2190FBF1F001B28E2007F062FEAB
:102EF0000121A02007F05EFE0121A22007F05AFE6A
:102F00000121A42007F056FEA021922007F052FED6
:102F10000FFA88F1942007F04DFE0321962007F068
:102F200049FE3221CC2007F045FE2821CE2007F0B3
:102F300041FE5521BC2007F03DFE1E21BE2007F0BA
:102F400039FE0121802007F035FE4621D02007F010
:102F500031FE3C21D42007F02DFE1921D22007F0AC
:102F600029FE5021D62007F025FE4621D82007F063
:102F700021FE5B21DA2007F01DFE5021DC2007F046
:102F800019FE9F4C0021B4F9000007F013FE9D4D7F
:102F90000021B5F9000007F00DFE9B4E4FF0FF3702
:102FA0003946B6F9000007F005FEB4F90200002129
:102FB00007F000FEB5F90200002107F0FBFDB6F9AD
:102FC0000200394607F0F6FDB4F90400002107F0CD
:102FD000F1FDB5F90400002107F0ECFDB6F904009D
:102FE000394607F0E7FDB4F90600002107F0E2FDDD
:102FF000B5F90600002107F0DDFDB6F906003946F7
:1030000007F0D8FD0A214FF4197007F0D3FDBDE891
:10301000F0470B214FF4187007F0CCBD2DE9FF5F8E
:1030200004464FF000054FF00706182C0CD1F02095
:103030009621CDE90010CDE90265162322462146EE
:103040004FF49670FFF7F8FE4FF416774FF0640ACE
:10305000302C0BD14FF4F070CDE900A0CDE9026522
:103060002C23224621463846FFF7E6FE3C2C0AD1A7
:10307000CDE900A7CDE9026537232246214640F27B
:10308000EE20FFF7D9FE5E4F5E4D5F4E4FF0020916
:103090004FF0FF38DC2C7ED140F69800CDE900A03F
:1030A00040F62A1BCDE9029B40F60B1ABB23524681
:1030B00040F63E1140F69210FFF7BEFE0221982026
:1030C00007F078FD00219A2007F074FD002176209A
:1030D00007F070FD0121CA2007F06CFD3C21C220E1
:1030E00007F068FD40F69211782007F063FD40F28A
:1030F0008541C82007F05EFD40F63E117A2007F0BA
:1031000059FD51467C2007F055FD4621C62007F0A9
:1031100051FD50217E2007F04DFDBB21822007F09C
:1031200049FDBB21842007F045FD0021862007F0E2
:1031300041FD1421882007F03DFD5946DE2007F0AF
:1031400039FD50218C2007F035FD32218E2007F00B
:1031500031FD0121A02007F02DFD0121A22007F063
:1031600029FD0121A42007F025FDA021922007F0D0
:1031700021FD40F69801942007F01CFD03219620C4
:1031800007F018FD3221CC2007F014FD2821CE20B5
:1031900007F010FD00E094E05521BC2007F00AFD87
:1031A0001E21BE2007F006FD0121802007F002FD50
:1031B0004621D02007F0FEFC3C21D42007F0FAFC89
:1031C0001921D22007F0F6FC5021D62007F0F2FC9E
:1031D0004621D82007F0EEFC5B21DA2007F0EAFC5C
:1031E0005021DC2007F0E6FCB7F90000002107F0D1
:1031F000E1FCB5F9000009E064310820004003401B
:103200005C290100642901006C290100002107F0FC
:10321000D1FCB6F90000414607F0CCFCB7F902003A
:10322000002107F0C7FCB5F90200002107F0C2FC3D
:10323000B6F90200414607F0BDFCB7F904000021D1
:1032400007F0B8FCB5F90400002107F0B3FCB6F9AB
:103250000400414607F0AEFCB7F90600002107F074
:10326000A9FCB5F90600002107F0A4FCB6F9060098
:10327000414607F09FFC0A214FF4197007F09AFCB1
:103280000B214FF4187007F095FC40F2BD11C820D7
:1032900007F090FC40F69801C42007F08BFC142145
:1032A000922007F087FC45F211614FF4AA7007F0F5
:1032B00081FC0121CA2007F07DFCAA21BC2007F077
:1032C00079FC6E2C7ED140F20A5A40F2C44414209C
:1032D0008DE8110640F2C94940F2465B63234A4635
:1032E00040F2F6415846FFF7A7FD0221982007F06B
:1032F00061FC00219A2007F05DFC0021762007F098
:1033000059FC0121CA2007F055FC3C21C22007F0DE
:1033100051FC5946782007F04DFC40F2A321C8200B
:1033200007F048FC40F2F6417A2007F043FC49469A
:103330007C2007F03FFC4621C62007F03BFC5021D3
:103340007E2007F037FC6321822007F033FCBB218D
:10335000842007F02FFC0021862007F02BFC14218D
:10336000882007F027FC5146DE2007F023FC50217F
:103370008C2007F01FFC32218E2007F01BFC01215E
:10338000A02007F017FC0121A22007F013FC012167
:10339000A42007F00FFCA021922007F00BFC21468F
:1033A000942007F007FC0321962007F003FC32214C
:1033B000CC2007F0FFFB2821CE2007F0FBFB552196
:1033C000BC2000E086E007F0F5FB1E21BE2007F0E0
:1033D000F1FB0121802007F0EDFB4621D02007F012
:1033E000E9FB3C21D42007F0E5FB1921D22007F0AE
:1033F000E1FB5021D62007F0DDFB4621D82007F065
:10340000D9FB5B21DA2007F0D5FB5021DC2007F047
:10341000D1FBB7F90000002107F0CCFBB5F90000A3
:10342000002107F0C7FBB6F90000414607F0C2FBD8
:10343000B7F90200002107F0BDFBB5F90200002139
:1034400007F0B8FBB6F90200414607F0B3FBB7F945
:103450000400002107F0AEFBB5F90400002107F0DD
:10346000A9FBB6F90400414607F0A4FBB7F9060032
:10347000002107F09FFBB5F90600002107F09AFB39
:10348000B6F90600414607F095FB0A214FF4197082
:1034900007F090FB0B214FF4187007F08BFB4FF4F3
:1034A0001B71C82007F086FB2146C42007F082FB71
:1034B0001421922007F07EFB45F211614FF4AA70AF
:1034C00007F078FB0121CA2007F074FBAA21BC2079
:1034D00007F070FBFF4DAA21B5F9000007F06AFB69
:1034E000FD4C2178FD4EB6F9000007F063FB217B0F
:1034F000FB4FB7F9000007F05DFBB4F91010DFF8DF
:10350000E483B8F9000007F055FBDFF8DC930021F5
:10351000B9F9000007F04EFBDFF8D0A30021BAF99B
:10352000000007F047FBB5F90200AA2107F042FBB3
:103530002178B6F9020007F03DFB217BB7F90200C4
:1035400007F038FBB4F91010B8F9020007F032FBAD
:10355000B9F90200002107F02DFBBAF902000021A1
:1035600007F028FB4FF416614FF48C7007F022FB34
:1035700014214FF48B7007F01DFB01214FF48D7067
:1035800007F018FB00214FF48E7007F013FB0021A9
:103590004FF4907007F00EFB00214FF4917007F08C
:1035A00009FB28214FF48F7007F004FB40F21E51F5
:1035B0004FF4957007F0FEFA40F24C414FF49670CC
:1035C00007F0F8FA01214FF4C47007F0F3FA07216D
:1035D0004FF4C57007F0EEFA01214FF4337007F095
:1035E000E9FA002140F2CE2007F0E4FAC0214FF4BE
:1035F000347007F0DFFAA82140F2D22007F0DAFA9F
:1036000001214FF4357007F0D5FAFB2140F2D620A6
:1036100007F0D0FAFF214FF4367007F0CBFAFF2104
:1036200040F2DA2007F0C6FAFF214FF4377007F0B6
:10363000C1FA002140F2DE2007F0BCFAC0214FF4AD
:10364000437007F0B7FAA82140F20E3007F0B2FA43
:1036500001214FF4447007F0ADFAFE2140F2123020
:1036600007F0A8FAA1214FF4427007F0A3FAA221B3
:1036700040F20A3007F09EFA312140F2DA3007F0CA
:1036800099FA32214FF4777007F094FA332140F21F
:10369000DE3007F08FFA00214FF4787007F08AFAD5
:1036A000002140F2E23007F085FAFF214FF4387034
:1036B00007F080FAFF2140F2E22007F07BFAFF21B9
:1036C0004FF4397007F076FAFF2140F2E62007F058
:1036D00071FAFF214FF43A7007F06CFAFF2140F2C3
:1036E000EA2007F067FAFF214FF43B7007F062FA17
:1036F000FF2140F2EE2007F05DFAFF214FF43C700D
:1037000007F058FAFF2140F2F22007F053FAFF21A8
:103710004FF43D7007F04EFAFF2140F2F62007F01B
:1037200049FAFF214FF43E7007F044FAFF2140F2BE
:10373000FA2007F03FFAFF214FF43F7007F03AFA02
:10374000FF2140F2FE2007F035FAFF214FF44070D0
:1037500007F030FAFF2140F2023007F02BFAFF2188
:103760004FF4417007F026FA04B0FF21BDE8F05F86
:1037700040F2063007F01EBA5D494FF000000870B5
:103780004870887001F12D01487070472DE9F041B3
:103790004FF00000574B01464FF4F472195400F1FA
:1037A000010000B29042F9DB4FF000024FF0140C20
:1037B0004FF07A0102FB01F002EB82014FEA810136
:1037C00009B202EB82040CEB840724E0484C4A4E19
:1037D0003734645C04EB440500F1010416F81580ED
:1037E00003F8008006EB450004F1010645781D55FD
:1037F000847806F101059C55C47805F101065C55F5
:10380000057906F101049D55457904F101001D5526
:1038100001F1010109B28F42D8DC02F1010212B2BA
:10382000042AC5DBBDE8F0812DE9F047ADF5AD6DAB
:103830002F4EA03EB6F84200B6F84410084430704F
:10384000B07900F10100C0B2B0714FF0000414284B
:1038500008D3B471707900F10100C0B2707105280D
:1038600000D37471224D0DF5806C2D3529462A78D0
:1038700091F90100A1F14D0791F90410012A02D03C
:10388000C42A7ED0F9E31DA2CDF800241BA2CDF8F6
:1038900004241AA2CDF8082418A2CDF80C2430B1C3
:1038A0000A1A022A05DD00F10200287104E02C71D9
:1038B00002E0884200DD287196F80580B8F1050F16
:1038C00030D295F90400C11C5CF82130811C5CF8F1
:1038D00021201FE04C2901002C400240502901000A
:1038E00054290100482901004429010058290100F8
:1038F000BC00001054F6072074290100202020206D
:1039000020202020202020202020202020202020B7
:1039100000000000401C5CF82010DDF80004FEF7F9
:10392000B6FB11E095F90400A8F10508C11C5CF88C
:103930002130811C401C5CF821205CF8201006A876
:1039400050F82800FEF7A3FBF0795028B88A4FF012
:1039500001024FF0230180B2FCF728FFF88A012210
:10396000242180B2FCF722FFDFF8448498F8280075
:1039700000222521FCF71AFF98F8240000225E217E
:1039800000E010E1FCF712FF98F820000022262149
:10399000FCF70CFF98F82C0000223C21FCF706FFF6
:1039A000B8F83C0000227B21FCF700FF98F83800B3
:1039B0004FF0010918B198F838000C2801D988F89F
:1039C000389098F83800FB49002201EB80003E2136
:1039D000FCF7D6FE307DDFF8E08388B13A20FCF7B3
:1039E000A1FC4FF0200A08F800A04FF03A00FCF7C5
:1039F00099FC08F800A03A20FCF794FC08F800A015
:103A000095F9040090B195F9011079B1884202D17D
:103A100088F83C900AE0401A012802D0022803D01E
:103A200004E088F8289001E088F81490307A00F1DA
:103A30000100C1B23172B6F9400000EB8002B1EB77
:103A4000820F00DB347268B1307A1424B0FBF4F1D9
:103A5000DFF864834846A8F18F0898F80020552ABB
:103A600008D106E06FF001027A21D4A0FCF788FEAD
:103A700041E000200844401C00227A21FCF796FE19
:103A8000307A98F80010B0FBF4F0552901D14FF0CE
:103A900000094844401C00227A21FCF787FEB6F852
:103AA0004000CC4D01280AD198F80000552806D0D6
:103AB000B5F84E0001225D21FCF778FE0DE0307A6A
:103AC0000122B0FBF4F000EB400101EB001005EB2C
:103AD00080005D214088FCF769FE307A0122B0FB4E
:103AE000F4F000EB400101EB001005EB80005D21DC
:103AF0004088FCF75BFEB08D00230422194680B29B
:103B0000FCF713FEF08D00230822194680B2FCF763
:103B10000CFEA94C00230F3C032220780121FCF766
:103B200004FE6078002307220121FCF7FEFDA07847
:103B300000230B220121FCF7F8FDE07800230F227F
:103B40000121FCF7F2FD2079002313220121FCF76B
:103B5000ECFDA04C002398340322E069022180B2DE
:103B6000FCF7E3FDA06F032280B200231146FCF7AF
:103B7000DCFD994C0023072220780221FCF7D5FDBB
:103B8000607800230B220221FCF7CFFDA0780023F0
:103B90000F220221FCF7C9FDE07800231322022145
:103BA000FCF7C3FD30E3834AD2E90D38D26BCDE98F
:103BB0000338059289A2CDF800248EA2CDF8042402
:103BC00092A2CDF8082497A2CDF80C249BA2CDF8A0
:103BD0001024A0A2CDF81424A4A2CDF81824A9A2E0
:103BE000CDF81C24ADA2CDF82024B2A2CDF8242417
:103BF000B6A2CDF82824BBA2CDF82C24BFA2CDF8C4
:103C00003024C4A2CDF83424C8A2CDF83824CDA2E3
:103C1000CDF83C24D1A2CDF84024D6A2CDF844243E
:103C2000DAA2CDF84824DFA2CDF84C24E3A2CDF8E7
:103C30005024E8A2CDF85424B6F84A2052B9E5A29F
:103C4000CDF80424AFF24C32CDF80824AFF2543250
:103C5000CDF80C24884201DA287105E0411A0229C6
:103C600002DDA0F10200287195F90400811C5CF8C6
:103C70002130411C5CF821205CF82010DBA0FEF70D
:103C800006FA0120FEF772F9B6F84A006FF0020852
:103C90006FF0030928B142462121DAA0FCF770FD3C
:103CA00004E04A462121D9A0FCF76AFDB6F84C0091
:103CB00028B142464021D3A0FCF762FD04E04A4609
:103CC0004021D2A0FCF75CFD6978232002293ED078
:103CD000CDE90004B6F95430B6F95220B6F95010C7
:103CE000B6F94E00FDF7B8FF6978242004293ED0CC
:103CF000CDE90004B6F95C30B6F95A20B6F958108F
:103D0000B6F95600FDF7A8FF6978292006293ED0AC
:103D1000CDE90004B7F91030B7F90E20B7F90C104F
:103D2000B7F90A00FDF798FFF88800225B2180B2FE
:103D3000FCF73CFD388900225D2180B2FCF736FD9E
:103D4000B6F95E006FF00D08FF2830D06EE1A9785B
:103D5000491CC9B2CDE90001B6F95430B6F9522078
:103D6000B6F95010B6F94E00FDF776FFBCE7A9781A
:103D7000491CC9B2CDE90001B6F95C30B6F95A2048
:103D8000B6F95810B6F95600FDF766FFBCE7A978FA
:103D9000491CC9B2CDE90001B7F91030B7F90E20BE
:103DA000B7F90C10B7F90A00FDF756FFBCE731E18F
:103DB00000400240742F0100F300001020D0E0E129
:103DC000EEF2E020E1E5E720E1E0F2E0F0E5E920D5
:103DD0000000000050EB0720643108202045746883
:103DE00065726E6574202020202020202020212054
:103DF000000000002044484350EAEBE8E5EDF220E3
:103E0000202020202020402000000000204950E0F9
:103E1000E4F0E5F120202020202020202020202078
:103E20000000000020203030302E3030302E303076
:103E3000302E3030232020200000000020CCE0F184
:103E4000EAE020EFEEE4F1E5F2E820202020202057
:103E50000000000020203030302E3030302E303046
:103E6000302E3030242020200000000020D8EBFE2F
:103E7000E72020202020202020202020202020207B
:103E80000000000020203030302E3030302E303016
:103E9000302E3030292020200000000020CFEEF00E
:103EA000F22EF7F2E5EDE8FF202020202020205B15
:103EB0000000000020CFEEF0F22EE7E0EFE8F1E89E
:103EC000202020202020205D0000000020436F6D76
:103ED0006D756E697479203C2020202020202020E0
:103EE0000000000020C0E4F0E5F1E0F220E4EBFF88
:103EF0002054524150204E3100000000202030302C
:103F0000302E3030302E3030302E303025202020F2
:103F10000000000020C0E4F0E5F1E0F220E4EBFF57
:103F20002054524150204E320000000020203030FA
:103F3000302E3030302E3030302E30305E20202089
:103F40000000000020C0E4F0E5F1E0F220E4EBFF27
:103F50002054524150204E330000000020203030C9
:103F6000302E3030302E3030302E30302620202091
:103F70000000000020C0E4F0E5F1E0F220E4EBFFF7
:103F80002054524150204E34000000002020303098
:103F9000302E3030302E3030302E30302A2020205D
:103FA0000000000020C0E4F0E5F1E0F220E4EBFFC7
:103FB0002054524150204E35000000002020303067
:103FC000302E3030302E3030302E3030282020202F
:103FD0000000000020C2FBF5EEE42020202020207D
:103FE00020202020202020200000000020D3D1D23B
:103FF000C0CDCEC2CAC82045746865726E65742093
:1040000000000000C2CACB2E00000000C2DBCACBF9
:104010002E000000B6F86010FF2907D1B6F8621034
:10402000FF2903D1B6F86410FF2912D06978252240
:104030000B2914D0CDE90024B6F96430B6F962201A
:10404000B6F96010FDF708FEB6F96600FF2815D036
:1040500020E042462521F8A0FCF792FBF4E7A9787E
:10406000491CC9B2CDE90021B6F96430B6F9622025
:10407000B6F96010FDF7F0FDE6E7C5E0B6F86810A8
:10408000FF2907D1B6F86A10FF2903D1B6F86C10E2
:10409000FF2912D069785E220D2914D0CDE90024C1
:1040A000B6F96C30B6F96A20B6F96810FDF7D4FDA0
:1040B000B6F96E00FF2814D01FE042465E21DEA054
:1040C000FCF75EFBF4E7A978491CC9B2CDE90021F1
:1040D000B6F96C30B6F96A20B6F96810FDF7BCFD88
:1040E000E6E7B6F87010FF2907D1B6F87210FF297D
:1040F00003D1B6F87410FF2912D0697826220F294F
:1041000014D0CDE90024B6F97430B6F97220B6F9AE
:104110007010FDF7A1FDB6F97600FF2814D01FE05E
:1041200042462621C4A0FCF72BFBF4E7A978491CE2
:10413000C9B2CDE90021B6F97430B6F97220B6F9EA
:104140007010FDF789FDE6E7B6F87810FF2907D172
:10415000B6F87A10FF2903D1B6F87C10FF2912D0E7
:1041600069782A22112914D0CDE90024B6F97C30CF
:10417000B6F97A20B6F97810FDF76EFDB6F97E0033
:10418000FF2814D01CE042462A21ABA0FCF7F8FA25
:10419000F4E7A978491CC9B2CDE90021B6F97C3011
:1041A000B6F97A20B6F97810FDF756FDE6E73988BA
:1041B000FF2905D17988FF2902D1B988FF2938D094
:1041C0006978282213293AD0CDE90024B7F90430C0
:1041D000B7F90220B7F90010FDF73EFD4FF00000DF
:1041E0009A4903AA0B5C135400F10100C0B20928DC
:1041F000F8D38DF8154068780A282ED0AA780023C5
:104200003C2103A8FDF706FDF07D00282CD0A0F18D
:104210000100F07507F12C000FC8FDF738FF388B4F
:10422000327E0DF5AD6D4021BDE8F04780B2FCF760
:10423000BDBA4246282180A0FCF7A2FACEE7A978B1
:10424000491CC9B2CDE90021B7F90430B7F9022001
:10425000B7F90010FDF700FDC0E7AA7801233C2163
:1042600003A8FDF7D7FCCFE70DF5AD6DBDE8F087EE
:104270002DE9F0437649086A40F400100862486B63
:1042800020F400104863086A20F0F8600862714862
:10429000C26C714B02EA0302C264086C40F4807085
:1042A0000864486D20F4807048654FF0000000BF3E
:1042B00000BF00BF00BF00BF00BF00BF00BF00F1D4
:1042C0000100C0B2C828F2D3086C40F480700864C2
:1042D000486D40F480704865486B604F60F0F8604E
:1042E0004FEA90523A64A7F1800338461C7F456C30
:1042F000587F997FA2F5407905F07F064FF0010CB9
:104300004FF00008B9F1FF0901D0AA4219D083F893
:104310001F80042C00D228B193F8204014B983F8F0
:1043200021C0DD76884202D383F821C0DE7683F88F
:1043300020804FF01400987783F81C8083F81D804C
:104340001EE004F10104E4B21C77042C18D383F8B6
:104350001C8000F10100C0B25877884210D3DE768D
:1043600083F81D8083F821C083F820C0D87F38B13E
:104370004FEA51009877022802D84FF00200987750
:104380007A64BDE8F0832DE9F05F344F0026803F6A
:1043900097F82100002821D007F1CD00FA7E03789C
:1043A0002E4DF92A0BD00124E72A1DD0792AF2D00C
:1043B0007A2A1FD04FF0050AFE2A25D027E08B2B42
:1043C0000DD0D5F84D00C5F8520015F8510F6871A1
:1043D00000231A4610218B20FDF744FEE2E3002162
:1043E0000846FDF723FEF9E7EC635321002005F0B2
:1043F000DDFCF3E797F8230018B187F82360FE7718
:10440000ECE787F82340FAE73979032928D01349E4
:104410004D318B2B91F9011001F1010C4FFA8CF801
:10442000A1F1010C4FFA8CF922D0012B71D08046FA
:10443000C42B6FD0D2E7000020202020EDE5E0EA79
:10444000F2E8E2E5ED202020200000000A5F0010E5
:1044500000C0092000C00240FF0FC0FF9C000010F8
:1044600087F804A005214FF4B47006F065FBB5E7AA
:10447000EF2A11D0F72A18D0044601291ED00529A9
:10448000ACD020460E293FD0FF49FD2A91F90410F7
:1044900041D0FB2A4BD0A1E780F8018006711022A1
:1044A0000021401CFDF7FCFE98E780F801900671A2
:1044B00010220021401CFDF7F3FE8FE7FD2A0BD1EF
:1044C000A078A0F10100A0704FF01E024FF0000193
:1044D00004F10200FDF7EFFEF87EFB280BD1A07877
:1044E00000F10100A0704FF01E024FF0000104F136
:1044F0000200FDF7E0FEF87EFE289BD12670667074
:10450000A670E670267169E7FE2A93D103F059FD83
:1045100064E718E068E1A1F1010101714FF00402C4
:104520004FF0000100F10400FDF7C5FE56E701F170
:10453000010101714FF004024FF0000100F104008D
:10454000FDF7B9FE4AE7DFF840A3FB2AAAF1CD0A3E
:10455000BAF94440BAF94030BAF9425003EB040BBF
:10456000BAF946A0AB4408D0FD2A16D0F72A24D0C9
:10457000FE2A24D07E2A72D030E780F80180BAF17A
:10458000000F01D0012100E0002159440C314AB252
:104590000021401CFDF78FFE20E780F80190BAF162
:1045A000000F01D0012100E0002159440C314AB232
:1045B0000021401CFDF77FFE10E746700EE7002942
:1045C000A1D015DD994213DCAF4885380078552815
:1045D00006D00022012311462320FDF743FDFDE60E
:1045E00000220CF0FF0311462320FDF73BFDF5E60A
:1045F000DFF89482A44AA8F1CD08B8F940C092F936
:104600000120B8F94280A2EB0C02521EC444994228
:1046100008DD614506DCD3B2002211462D20FDF7EE
:1046200021FDDBE661450ADD23442B44994206DC8B
:10463000D3B200221146C520FDF714FDCEE60CEBE7
:104640000402531C99420BD100231A461946142028
:10465000FDF708FD4FF47A70FBF727FEBEE6B8E0E1
:10466000931C99420AD100231A4619464A20FDF7A5
:10467000F9FC4FF47A70FBF718FEAFE6D31C9942B1
:104680008AD0131D99420AD100231A460121C12064
:10469000FDF7E8FC4FF47A70FBF707FE9EE6531D2A
:1046A00099420DD1BAF1000F0AD000231A461946DB
:1046B000C320FDF7D7FC4FF47A70FBF7F6FD8DE6CB
:1046C000BAF1000F01D0012300E0002363449B1DD9
:1046D0008B420AD100231A4619464220FDF7C2FC3C
:1046E0004FF47A70FBF7E1FD78E6BAF1000F01D0E4
:1046F000012300E000231344DB1D8B420BD1002378
:104700001A4619463020FDF7ADFC3220FBF7CDFDEF
:10471000FFF732F862E6BAF1000F01D0012300E0A2
:104720000023134408338B420AD100231A4619464A
:10473000B820FDF797FC4FF47A70FBF7B6FD4DE615
:10474000BAF1000F01D0012300E000231344093324
:104750008B4201D1467041E6BAF1000F01D0012031
:1047600000E0002010440A3088420AD100231A4693
:104770001946BA20FDF776FC4FF47A70FBF795FDE9
:104780002CE6BAF1000F01D0012000E00020104417
:104790000B3088420AD1002201231146BA20FDF7CE
:1047A00061FC4FF47A70FBF780FD17E6BAF1000F59
:1047B00001D0012000E0002010440C30884293D149
:1047C00000231A4619465B20FDF74CFCFEF7D4FF88
:1047D00004E600231A461946C420FDF743FC4FF4B3
:1047E0007A70FBF762FDF9E54FF47A70FBF75DFD37
:1047F0004FF00102B7F94A0008B14FF01502F97EF7
:104800004FF00D094FF00F0BFB2912D0FD297DD081
:104810007B297CD040F2CE294FF4347A40F2D22B5F
:10482000672975D098F90130002B72D0012B71D017
:10483000B9E198F8010000F1010041B288F80110D7
:10484000022906D198F8040018B988F8044088F8BD
:1048500002604046032906D14FF0040141704FF039
:104860000301017186704178052905D14FF00601D9
:10487000417080F804A086704178072903D14FF079
:1048800008014170867001E0E900001090F9011004
:104890000A2900D186700B2903D14FF00A03037156
:1048A00086700C2901D180F8019090F901100D2932
:1048B00003D14FF00C03037186700E2901D180F8EB
:1048C00001B090F901100F2903D14FF00E030371CD
:1048D0008670102902D14FF01101417090F901103A
:1048E000112903D14FF0100303718670122902D1F0
:1048F0004FF01301417090F90110132903D14FF0CB
:10490000120303718670142908D104E00CE055E00D
:1049100057E021E133E14FF01501417052B200211F
:10492000401CFDF7C8FC59E598F80100A0F1010012
:1049300088F8010052B24FF0000108F10100FDF7C4
:10494000BAFC98F80100142803D14FF0130088F83E
:10495000010098F80100122803D14FF0110088F8E7
:10496000010098F80100102801D188F801B098F8EA
:1049700001000E2801D188F8019098F801000C2858
:1049800003D14FF00B0088F8010098F801000728C8
:1049900003D14FF0060088F8010098F801000528BF
:1049A00003D14FF0040088F8010098F801000328B3
:1049B000B9D14FF0020088F801000FE588F8012016
:1049C0000CE501214FF4337006F0F4F8012148465C
:1049D00006F0F0F8C021504606F0ECF8A821584641
:1049E00006F0E8F801214FF4357006F0E3F8FB21FA
:1049F00040F2D62006F0DEF8FF214FF4367006F0C4
:104A0000D9F8FF2140F2DA2006F0D4F8FF214FF464
:104A1000377006F0CFF8002140F2DE2006F0CAF829
:104A2000C0214FF4437006F0C5F8A82140F20E30C3
:104A300006F0C0F801214FF4447006F0BBF8FE21E7
:104A400040F2123006F0B6F8A1214FF4427006F0A1
:104A5000B1F8A22140F20A3006F0ACF8312140F260
:104A6000DA3006F0A7F832214FF4777006F0A2F89A
:104A7000332140F2DE3006F09DF800214FF47870CB
:104A800006F098F8002140F2E23006F093F8FF219A
:104A90004FF4387006F08EF8FF2140F2E22006F065
:104AA00089F8FF214FF4397006F084F8FF2140F2B5
:104AB000E62006F07FF8FF214FF43A7006F07AF80E
:104AC000FF2140F2EA2006F075F8FF214FF43B7019
:104AD00006F070F8FF2140F2EE2006F06BF8FF219F
:104AE0004FF43C7006F066F8FF2140F2F22006F029
:104AF00061F8FF214FF43D7006F05CF8FF2140F2B1
:104B0000F62006F057F8FF214FF43E7006F052F8F9
:104B1000FF2140F2FA2006F04DF8FF214FF43F70DC
:104B200006F048F8FF2140F2FE2006F043F8FF218E
:104B30004FF4407006F03EF8FF2140F2023006F0DC
:104B400039F8FF214FF4417006F034F8FF2140F2AC
:104B5000063006F02FF841E4FE2903D0F72901D0F2
:104B6000EF29F8D128B100214FF4337006F022F874
:104B700034E401214FF4337006F01CF82EE490B1B8
:104B8000FE2903D0F72901D0EF29E4D1B7F84C0072
:104B900020B10021484606F00DF81FE401214846E7
:104BA00006F008F808E2022B19D0042B7ED0062B61
:104BB0007DD0082B7CD0092B7BD00A2B7AD04046A5
:104BC0000B2B78D00D2B77D00F2B76D0112B75D0E7
:104BD000132B74D09342BED1FE2971D0ECE17E2913
:104BE00009D098F90200A8B1012843D0022868D062
:104BF000032867D0E0E198F8020000F1010088F88E
:104C000002004FF003024FF0000108F10200FDF72F
:104C100047FBD1E1EF2906D06F2904D0F72915D041
:104C2000772913D024E0B7F84E0000F10100A7F86F
:104C30004E004FF0FF024FF00001FC48FDF751FB22
:104C4000B7F94E10504605F0B5FF11E0B7F84E0029
:104C5000A0F10100A7F84E004FF0FF024FF0000155
:104C6000F248FDF73EFBB7F94E10504605F0A2FFA3
:104C7000FC77A1E1EF2906D06F2904D0F72925D0D0
:104C8000772923D036E0B7F8500000F10100A7F8EB
:104C90005000E6484FF0FF024FF0000100F1020023
:104CA000FDF71FFBB7F9501058460CE090E084E187
:104CB00069E28CE2AFE238E3F4E3F4E3F4E3F4E333
:104CC000F4E319E04EE005F075FF13E0B7F850008B
:104CD000A0F10100A7F85000D4484FF0FF024FF0B8
:104CE000000100F10200FDF7FCFAB7F95010584638
:104CF00005F060FFFC775FE1EF2906D06F2904D053
:104D0000F72918D0772916D02AE0B7F8520000F119
:104D10000100A7F85200C5484FF0FF024FF0000114
:104D200000F10400FDF7DDFAB7F952104FF43570C9
:104D300005F040FF14E0B7F85200A0F10100A7F819
:104D40005200BA484FF0FF024FF0000100F104009A
:104D5000FDF7C7FAB7F952104FF4357005F02AFF86
:104D6000FC7729E1EF2906D06F2904D0F72918D064
:104D7000772916D02AE0B7F8540000F10100A7F80F
:104D80005400AA484FF0FF024FF0000100F1060066
:104D9000FDF7A7FAB7F9541040F2D62005F00AFF44
:104DA00014E0B7F85400A0F10100A7F854009F48A0
:104DB0004FF0FF024FF0000100F10600FDF791FAFD
:104DC000B7F9541040F2D62005F0F4FEFC77F3E07A
:104DD0007E2909D098F90200A8B1012849D00228FB
:104DE0007FD003287CD0E7E098F8020000F10100B2
:104DF00088F802004FF003024FF0000108F10200B2
:104E0000FDF74EFAD8E0EF2906D06F2904D0F72934
:104E100018D0772916D02AE0B7F8560000F1010023
:104E2000A7F8560081484FF0FF024FF0000100F153
:104E30000800FDF756FAB7F956104FF4367005F032
:104E4000B9FE14E0B7F85600A0F10100A7F856002B
:104E500076484FF0FF024FF0000100F10800FDF727
:104E600040FAB7F956104FF4367005F0A3FEFC7700
:104E7000A2E0EF2906D06F2904D0F72918D07729AE
:104E800016D02AE0B7F8580000F10100A7F8580042
:104E900066484FF0FF024FF0000100F10A00FDF7F5
:104EA00020FAB7F9581040F2DA2005F083FE14E03A
:104EB000B7F85800A0F10100A7F858005B484FF080
:104EC000FF024FF0000100F10A00FDF70AFAB7F9FE
:104ED000581040F2DA2005F06DFEFC776CE000E03F
:104EE00035E0EF2906D06F2904D0F72918D07729AB
:104EF00016D02AE0B7F85A0000F10100A7F85A00CE
:104F00004A484FF0FF024FF0000100F10C00FDF79E
:104F1000E8F9B7F95A104FF4377005F04BFE14E07A
:104F2000B7F85A00A0F10100A7F85A003F484FF027
:104F3000FF024FF0000100F10C00FDF7D2F9B7F9C4
:104F40005A104FF4377005F035FEFC7734E0EF2946
:104F500006D06F2904D0F72918D0772916D02AE077
:104F6000B7F85C0000F10100A7F85C002F484FF093
:104F7000FF024FF0000100F10E00FDF7B2F9B7F9A2
:104F80005C1040F2DE2005F015FE14E0B7F85C007E
:104F9000A0F10100A7F85C0024484FF0FF024FF099
:104FA000000100F10E00FDF79CF9B7F95C1040F22A
:104FB000DE2005F0FFFDFC7705E27E2909D098F997
:104FC0000200A8B1012846D0022878D0032875D065
:104FD000F9E198F8020000F1010088F802004FF0B2
:104FE00003024FF0000108F10200FDF759F9EAE170
:104FF000EF2906D06F2904D0F72919D0772917D0C7
:1050000027E0688900F10100688108484FF0FF023D
:105010004FF0000100F13C00FDF763F9B5F90A100B
:105020004FF4437005F0C6FD13E000006A00001065
:105030006889A0F1010068814FF0FF024FF0000184
:10504000FC48FDF74EF9B5F90A104FF4437005F02E
:10505000B1FDFC77B7E1EF2906D06F2904D0F7291D
:1050600016D0772914D026E0A88900F10100A88184
:10507000F0484FF0FF024FF0000100F10200FDF791
:1050800030F9B5F90C1040F20E3005F093FD12E046
:10509000A889A0F10100A881E6484FF0FF024FF077
:1050A000000100F10200FDF71CF9B5F90C1040F207
:1050B0000E3005F07FFDFC7785E100E031E0EF295F
:1050C00006D06F2904D0F72916D0772914D026E00E
:1050D000E88900F10100E881D6484FF0FF024FF067
:1050E000000100F10400FDF7FCF8B5F90E104FF4D3
:1050F000447005F05FFD12E0E889A0F10100E8814D
:10510000CC484FF0FF024FF0000100F10400FDF722
:10511000E8F8B5F90E104FF4447005F04BFDFC773C
:1051200051E1EF2906D06F2904D0F72916D077294D
:1051300014D026E0288A00F101002882BD484FF0F3
:10514000FF024FF0000100F10600FDF7CAF8B5F9C3
:10515000101040F2123005F02DFD12E0288AA0F167
:1051600001002882B3484FF0FF024FF0000100F128
:105170000600FDF7B6F8B5F9101040F2123005F050
:1051800019FDFC771FE1EF2906D06F2909D0F72917
:105190000CD077290FD012E0E88800F10100E880F8
:1051A0000DE0E88800F10200E88008E0E888A0F15E
:1051B0000100E88003E0E888A0F10200E880FC77C5
:1051C000B5F906104FF4427005F0F4FCFBE0EF294E
:1051D00006D06F2909D0F7290CD077290FD012E01B
:1051E000288900F1010028810DE0288900F10200E2
:1051F000288108E02889A0F10100288103E028899E
:10520000A0F102002881FC77B5F9081040F20A30BD
:1052100005F0D0FCD7E07E290DD198F8020000F10E
:10522000010088F802004FF008024FF0000108F179
:105230000200FDF735F8F87E2025DFF8FC91EF2815
:1052400001D06F2835D198F9020019F8001001F14A
:105250000101C9B209F80010202902D209F8005052
:105260001EE0A1F121020F2A04D24FF0300109F80B
:10527000001015E0A1F13A02072A04D24FF04101D3
:1052800009F800100CE0A1F15B02062A04D24FF0ED
:10529000610109F8001003E07A2901D909F80050EA
:1052A00019F8001040F2DA3202EB400005F082FCFF
:1052B000FC77F87EF72801D0772887D198F902008B
:1052C00019F80010A1F10101C9B209F800104FF05E
:1052D0007A02202902D209F800201CE0A1F1210362
:1052E0000F2B02D209F8005015E0A1F13A03072B69
:1052F00004D24FF0390109F800100CE0A1F15B0372
:10530000062B04D24FF05A0109F8001003E07A2965
:1053100001D909F8002019F8001040F2DA3202EB46
:10532000400005F047FCFC774DE07E2909D090F95C
:10533000020098B1012847D002287FD003287ED0F0
:1053400041E0817801F1010181704FF003024FF0DB
:10535000000100F10200FCF7A3FF34E0EF2906D0C2
:105360006F2904D0F72918D0772916D02AE0B7F88A
:105370005E0000F10100A7F85E002E484FF0FF022A
:105380004FF00001A0F12C00FCF7ABFFB7F95E1065
:105390004FF4387005F00EFC14E0B7F85E00A0F191
:1053A0000100A7F85E0023484FF0FF024FF0000114
:1053B000A0F12C00FCF795FFB7F95E104FF43870A0
:1053C00005F0F8FBFC771FE2EF2906D06F2904D027
:1053D000F72918D0772916D02AE0B7F8600000F135
:1053E0000100A7F8600013484FF0FF024FF00001E2
:1053F000A0F12A00FCF775FFB7F9601040F2E22037
:1054000005F0D8FB14E0B7F86000A0F10100A7F8A0
:10541000600008484FF0FF024FF00001A0F12A00A1
:10542000FCF75FFFB7F9601040F2E22005F0C2FB25
:10543000FC77E9E1A60000100A5F001000E036E00A
:10544000EF2906D06F2904D0F72916D0772914D078
:1054500026E0B7F8620000F10100A7F862004FF003
:10546000FF024FF00001F948FCF73BFFB7F962106B
:105470004FF4397005F09EFB12E0B7F86200A0F11E
:105480000100A7F862004FF0FF024FF00001EF4863
:10549000FCF727FFB7F962104FF4397005F08AFB6B
:1054A000FC77FDE339E02BE11DE20FE3F3E3EF29A5
:1054B00006D06F2904D0F72918D0772916D02AE012
:1054C000B7F8640000F10100A7F86400DF484FF06E
:1054D000FF024FF0000100F10200FCF702FFB7F9F4
:1054E000641040F2E62005F065FB14E0B7F86400B4
:1054F000A0F10100A7F86400D4484FF0FF024FF07C
:10550000000100F10200FCF7ECFEB7F9641040F274
:10551000E62005F04FFBFC77C2E37E2909D090F925
:10552000020098B1012847D002287DD003287AD004
:10553000B6E3817801F1010181704FF003024FF071
:10554000000100F10200FCF7ABFEA9E3EF2906D051
:105550006F2904D0F72918D0772916D02AE0B7F898
:10556000660000F10100A7F86600B8484FF0FF029E
:105570004FF0000100F10400FCF7B3FEB7F966102C
:105580004FF43A7005F016FB14E0B7F86600A0F18E
:105590000100A7F86600AD484FF0FF024FF0000190
:1055A00000F10400FCF79DFEB7F966104FF43A7065
:1055B00005F000FBFC7773E3EF2906D06F2904D0D8
:1055C000F72918D0772916D02AE0B7F8680000F13B
:1055D0000100A7F868009D484FF0FF024FF000015E
:1055E00000F10600FCF77DFEB7F9681040F2EA20F2
:1055F00005F0E0FA14E0B7F86800A0F10100A7F8A0
:10560000680092484FF0FF024FF0000100F10600E1
:10561000FCF767FEB7F9681040F2EA2005F0CAFA15
:10562000FC773DE300E035E0EF2906D06F2904D098
:10563000F72918D0772916D02AE0B7F86A0000F1C8
:105640000100A7F86A0081484FF0FF024FF0000107
:1056500000F10800FCF745FEB7F96A104FF43B7003
:1056600005F0A8FA14E0B7F86A00A0F10100A7F865
:105670006A0076484FF0FF024FF0000100F1080089
:10568000FCF72FFEB7F96A104FF43B7005F092FA61
:10569000FC7705E3EF2906D06F2904D0F72918D04D
:1056A000772916D02AE0B7F86C0000F10100A7F8BE
:1056B0006C0066484FF0FF024FF0000100F10A0055
:1056C000FCF70FFEB7F96C1040F2EE2005F072FA0D
:1056D00014E0B7F86C00A0F10100A7F86C005B487B
:1056E0004FF0FF024FF0000100F10A00FCF7F9FD56
:1056F000B7F96C1040F2EE2005F05CFAFC77CFE2CF
:105700007E2909D090F9020098B1012847D00228DB
:105710007DD003287AD0C3E2817801F10101817044
:105720004FF003024FF0000100F10200FCF7B8FD5A
:10573000B6E2EF2906D06F2904D0F72918D07729CF
:1057400016D02AE0B7F86E0000F10100A7F86E004D
:105750003E484FF0FF024FF0000100F10C00FCF753
:10576000C0FDB7F96E104FF43C7005F023FA14E059
:10577000B7F86E00A0F10100A7F86E0033484FF0B3
:10578000FF024FF0000100F10C00FCF7AAFDB7F991
:105790006E104FF43C7005F00DFAFC7780E2EF29B3
:1057A00006D06F2904D0F72918D0772916D02AE01F
:1057B000B7F8700000F10100A7F8700023484FF01F
:1057C000FF024FF0000100F10E00FCF78AFDB7F96F
:1057D000701040F2F22005F0EDF914E0B7F8700017
:1057E000A0F10100A7F8700018484FF0FF024FF039
:1057F000000100F10E00FCF774FDB7F9701040F2E3
:10580000F22005F0D7F9FC774AE200E035E0EF2915
:1058100006D06F2904D0F7291AD0772918D02AE0AA
:10582000B7F8720000F10100A7F8720007484FF0C6
:10583000FF024FF0000100F11000FCF752FDB7F934
:1058400072104FF43D7005F0B5F914E07E000010C1
:10585000B7F87200A0F10100A7F872004FF0FF0244
:105860004FF00001F848FCF73CFDB7F972104FF417
:105870003D7005F09FF9FC7712E2EF2906D06F2901
:1058800004D0F72918D0772916D02AE0B7F8740089
:1058900000F10100A7F87400EB484FF0FF024FF051
:1058A000000100F10200FCF71CFDB7F9741040F292
:1058B000F62005F07FF914E0B7F87400A0F10100BC
:1058C000A7F87400E0484FF0FF024FF0000100F12C
:1058D0000200FCF706FDB7F9741040F2F62005F05F
:1058E00069F9FC77DCE17E2909D090F9020098B1D2
:1058F000012847D002287DD003287AD0D0E18178D2
:1059000001F1010181704FF003024FF0000100F13D
:105910000200FCF7C5FCC3E1EF2906D06F2904D0D3
:10592000F72918D0772916D02AE0B7F8760000F1C9
:105930000100A7F87600C4484FF0FF024FF00001C5
:1059400000F10400FCF7CDFCB7F976104FF43E707F
:1059500005F030F914E0B7F87600A0F10100A7F8DF
:105960007600B9484FF0FF024FF0000100F104004B
:10597000FCF7B7FCB7F976104FF43E7005F01AF952
:10598000FC778DE1EF2906D06F2904D0F72918D0D4
:10599000772916D02AE0B7F8780000F10100A7F8BF
:1059A0007800A9484FF0FF024FF0000100F1060017
:1059B000FCF797FCB7F9781040F2FA2005F0FAF8F6
:1059C00014E0B7F87800A0F10100A7F878009E482D
:1059D0004FF0FF024FF0000100F10600FCF781FCE0
:1059E000B7F9781040F2FA2005F0E4F8FC7757E1B7
:1059F00000E035E0EF2906D06F2904D0F72918D050
:105A0000772916D02AE0B7F87A0000F10100A7F84C
:105A10007A008D484FF0FF024FF0000100F10800BE
:105A2000FCF75FFCB7F97A104FF43F7005F0C2F84D
:105A300014E0B7F87A00A0F10100A7F87A008248D4
:105A40004FF0FF024FF0000100F10800FCF749FCA5
:105A5000B7F97A104FF43F7005F0ACF8FC771FE10E
:105A6000EF2906D06F2904D0F72918D0772916D04E
:105A70002AE0B7F87C0000F10100A7F87C0072482A
:105A80004FF0FF024FF0000100F10A00FCF729FC83
:105A9000B7F97C1040F2FE2005F08CF814E0B7F85E
:105AA0007C00A0F10100A7F87C0067484FF0FF02DE
:105AB0004FF0000100F10A00FCF713FCB7F97C106D
:105AC00040F2FE2005F076F8FC77E9E07E2909D067
:105AD00090F9020098B1012847D0022879D0032814
