:020000040000FA
:1000000038710010E1000000E5000000E70000008A
:10001000E9000000EB000000ED000000000000001F
:10002000000000000000000000000000EF000000E1
:10003000F100000000000000F30000002731000084
:10004000F7000000110200003D020000F700000070
:10005000F70000001F700000D38B0000F7000000C5
:10006000F7000000F7000000F7000000F7000000B4
:10007000F7000000F7000000F7000000F7000000A4
:10008000F7000000F7000000F7000000F700000094
:10009000F7000000F7000000630B0000F70000000D
:1000A000F7000000F7000000F7000000F700000074
:1000B00085930000F7000000F7000000F700000043
:1000C000F7000000F7000000F7000000DFF80CD098
:1000D00009F0F2FD004800476B3200003871001053
:1000E00005480047FEE7FEE7FEE7FEE7FEE7FEE71E
:1000F000FEE7FEE7FEE7FEE7CD000000FEE710B5F5
:100100000CF042F90CF0CEF90CF0C0F90CF04EF9FD
:10011000AFF30080BDE810400CF08AB910B50CF0C8
:100120009BFF0DF0DDFC0CF0EFFFBDE810400DF083
:1001300067B90CF0AFBE0CF077BC09B10020704776
:100140000BF07EB90020704730B54FF000000E4B29
:10015000A3F1140202F10A04115C61B1255CA94209
:1001600009D1195C39B1A1F10101C9B2195411B910
:100170004FF000011154115C215400F10100C0B294
:100180000A28E9D330BD000048EB0720094908815F
:1001900070470849B1F90800002809D0A0F1010012
:1001A00000B20881002803D10146084600F084BA55
:1001B000704700001000001090F900308B4200DA08
:1001C000027090F90030934200DD0170704790F9A1
:1001D00000308B4200DA017090F90010914200DD8E
:1001E00002707047B0F900308B4200DA0180B0F93C
:1001F0000010914200DD02807047B0F900308B4260
:1002000000DA0280B0F90030934200DD01807047CF
:100210004FF040214FF0010008600D48016801F1E6
:10022000010101600B48016821F0FF0101F10401A7
:100230000160016841F080710160704706494FF02C
:10024000010008600248416801F101014160704706
:10025000DC57001000400340008000402049086A3D
:1002600040F0004008621F4A5068C3070AD01E4B86
:100270001B883BB18B6B43F000438B634FF006014F
:10028000917003E0CB6B43F00043CB634FEA500027
:1002900050605078A0F1010010F0FF00507004D1C0
:1002A0004FF02000507090685060704710B50D4AB4
:1002B000002420234F2909D041290BD052290DD0E9
:1002C000532902D154609460537010BD5060946003
:1002D000537010BD50609060537010BD906010BDA1
:1002E00000C00920E457001054020010014600200D
:1002F00000E0401C0A5C002AFBD17047FFFFFFFFB3
:100300004FF00000FA4A4FF02001115400F10100B3
:10031000C0B2C828F9D3704701464FF00000F44A34
:1003200000F10100C0B2135C8B4201D0C828F7D3A2
:10033000704710B54FF00001EE4C4FF00A02034633
:10034000B0FBF2F002FB1033635401F10101C9B2BA
:100350000529F4D310BDF0B5E74D4FF00101297028
:100360004FF00501E34B4FF020064FF000072A78CD
:1003700042B15A1812F8014C24B9814202D902F84C
:10038000016C07E003EB010212F8014D04F13004A7
:1003900014702F70A1F10101C9B20029E7D1F0BD9D
:1003A00070B50D4616461C46FFF7C3FF601CC0B271
:1003B000FFF7D1FF05EB850006EB8000C1B24FF0DF
:1003C0000000CC4BCA4DA04201D21A5C6A5407D33C
:1003D0001A5C202A04D064B105EB010606F8012C52
:1003E000A1F10101C9B200F10100C0B20528EAD3B0
:1003F00070BD6A54F4E730B5044608461546FFF769
:100400008BFFFF280CD0BA4A07E000EB050304F18C
:100410000104D15400F10100C0B221780029F4D1C7
:1004200030BD70B50D461446FFF783FF601CC0B2A7
:10043000FFF791FF2846FFF76FFF4FF00001AD4A2D
:10044000AB4D24B9535C202B01D02B5415E0A142B5
:1004500002D2535C2B5410E008D14FF02E032B54E2
:1004600005EB0006535C06F8013C06E0535C202BCC
:1004700003D005EB000606F8013CA0F10100C0B274
:1004800001F10101C9B20529DBD370BDF0B5044605
:10049000084616461F46FFF73FFF02461046944D9A
:1004A000FF2806D108E0295404F1010400F10100FD
:1004B000C0B221780029F6D190480078002806D0F3
:1004C000002F04D002EB06014FF05F006854F0BD2E
:1004D0002DE9F04F0746DDE90905884691469A4621
:1004E000FFF71AFF854B2021814C0A224FF0640C44
:1004F000012D09D11E783EB104EB0006A6F10E06CF
:10050000B1707170317017E097FBF2FB02FB1B7E3C
:1005100004EB00060EF1300E06F80CEC9BFBF2FE2D
:1005200002FB1EBB0BF1300B06F80DBC97FBFCF772
:1005300007F1300706F80E7C022D09D11E783EB176
:1005400004EB0006A6F10A06B1707170317017E075
:1005500098FBF2F702FB178B04EB0006A6F10A06E4
:100560000BF1300B86F802B097FBF2FB02FB1B7716
:1005700007F13007777098FBFCF707F13007377009
:10058000032D09D11E783EB104EB0006A6F1060644
:10059000B1707170317017E099FBF2F702FB179898
:1005A00004EB0006A6F1060608F1300886F8028082
:1005B00097FBF2F802FB187707F13007777099FB89
:1005C000FCF707F130073770042D09D11B783BB1D8
:1005D00021542044A0F1020041700170BDE8F08F69
:1005E0009AFBF2F102FB11A303F13003235491FBB8
:1005F000F2F302FB13112044A0F1020001F13001DB
:1006000041709AFBFCF101F130010170E6E730B571
:100610003B490124364B91F9012091F904108A429B
:1006200004D100EB800003F8204030BD4D1CAA42ED
:1006300006D100F1010000EB800003F8204030BD3E
:100640008D1CAA4206D100F1020000EB800003F8E5
:10065000204030BDCD1CAA4206D100F1030000EBC2
:10066000800003F8204030BD0D1DAA4206D100F1E4
:10067000040000EB800003F8204030BD4D1DAA426D
:1006800006D100F1050000EB800003F8204030BDEA
:100690008D1DAA4206D100F1060000EB800003F890
:1006A000204030BDC91D8A42FBD100F1070000EB9C
:1006B000800003F8204030BD124B1A88A2F10102DD
:1006C00012B21A80002A02DC4FF000021A801A8847
:1006D000104400B218800C4A00EB80000244084825
:1006E00013680360127902714278114441707047B7
:1006F000FB000010FA020010FF020010380000108A
:10070000F1000010300200107859001070B5254D2E
:10071000B5F9004004F101062E80234D04EB84045A
:100720002544224C26682E6026792E712070617037
:100730002271A37070BD2DE9F04180460F46164628
:10074000FFF7DEFD1A4C4FF0000518F8010B04F816
:10075000010B05F10105EDB2142DF6D34FF00000A9
:1007600017F8011B04F8011B00F10100C0B21428A6
:10077000F6D34FF0000016F8011B04F8011B00F13E
:100780000100C0B21428F6D34FF0000013F8011B8B
:1007900004F8011B00F10100C0B21428F6D3BDE833
:1007A000F08100003002001078590010F1000010B4
:1007B000FB0000104FF01100FF4908727047F0B5C0
:1007C000B2B04FF0000211464FF05E054FF0430605
:1007D0006C4639E0C02B3FD0C12B4BD0C22B58D038
:1007E000C32B64D0C42B7AD0C52B6FD0A82B6ED06E
:1007F000C62B6DD0C72B6CD0C82B6BD0C92B6AD041
:10080000CA2B69D0CB2B68D0CC2B67D0CD2B74D022
:10081000CE2B73D0CF2B72D0D02B71D0D12B70D0E8
:10082000D22B6FD0D32B6ED0D42B6DD0D52B6CD0D8
:10083000D62B6BD0134602F10102C75C0B4601F1C7
:10084000010112B209B2E754835C002BC2D11846F1
:100850006054684632B0F0BD01F101031BB265542B
:100860004FF0410703F1010109B2E75402F101021F
:1008700012B2E9E70F4601F101010BB2E5554FF065
:10088000420703F1010109B2E75402F1010212B279
:10089000DAE701F101031BB265544FF0560703F18B
:1008A000010109B2E75402F1010212B2CCE701F1F1
:1008B00001031BB265544FF0470703F1010109B270
:1008C000E75402F1010212B2BEE708E01FE02CE09B
:1008D00039E046E053E060E06DE07BE088E001F164
:1008E00001031BB265544FF0440703F1010109B243
:1008F000E75402F1010212B2A6E787E094E0A3E018
:10090000B0E0BFE0CAE0D9E0E6E0F3E000E101F1E9
:1009100001031BB265544FF0450703F1010109B211
:10092000E75402F1010212B28EE701F101031BB29A
:1009300065544FF0310703F1010109B2E75402F1A8
:10094000010212B280E701F101031BB265544FF0BE
:10095000330703F1010109B2E75402F1010212B2B7
:1009600072E701F101031BB265544FF05A0703F11E
:10097000010109B2E75402F1010212B264E701F188
:1009800001031BB265544FF0490703F1010109B29D
:10099000E75402F1010212B256E701F101031BB262
:1009A00065544FF0350703F1010109B2E75402F134
:1009B000010212B248E70F4601F101010BB2E55501
:1009C0004FF04B0703F1010109B2E75402F10102B4
:1009D00012B239E701F101031BB265544FF04C0725
:1009E00003F1010109B2E75402F1010212B22BE74F
:1009F00001F101031BB265544FF04D0703F10101F2
:100A000009B2E75402F1010212B21DE701F101033C
:100A10001BB265544FF04E0703F1010109B2E754D0
:100A200002F1010212B20FE701F101031BB265549A
:100A30001F464FF04F0C03F1010319B204F807C031
:100A400002F1010212B2FFE601F101031BB265548B
:100A50004FF0500703F1010109B2E75402F101021E
:100A600012B2F1E601F101031BB265541F464FF0CB
:100A7000520C03F1010319B204F807C002F101029C
:100A800012B2E1E601F101031BB2655403F1010169
:100A900009B2E65402F1010212B2D5E601F10103F6
:100AA0001BB265541F464FF0540C03F1010319B2F9
:100AB00004F807C002F1010212B2C5E601F1010318
:100AC0001BB265544FF0550703F1010109B2E75419
:100AD00002F1010212B2B7E601F101031BB2655443
:100AE0004FF0460703F1010109B2E75402F1010298
:100AF00012B2A9E601F101031BB265544FF0480799
:100B000003F1010109B2E75402F1010212B29BE6BE
:100B100001F101031BB2655403F1010109B2E6546E
:100B200002F1010212B28FE610B524484FF0C00462
:100B300004704FF0A80242704FF0010383704FF031
:100B40002301C1704FF0FF010172417281724FF0B9
:100B50000001C1720471427183714FF0FE01C171D5
:100B600010BD1748016821F0E06101607047154928
:100B70004FF0000008704870887001F12D01487036
:100B800070472DE9F0414FF000000F4B01464FF444
:100B9000F472195400F1010000B29042F9DB4FF0F9
:100BA00000024FF0140C4FF07A0102FB01F002EB4F
:100BB00082014FEA810109E000400240F86800101C
:100BC00000400340C4000010A8F6072009B202EB61
:100BD00082040CEB840723E0FF4C645C04EB4405C7
:100BE000FE4E00F1010416F8158003F8008006EBB4
:100BF000450004F1010645781D55847806F101058C
:100C00009C55C47805F101065C55057906F101048F
:100C10009D55457904F101001D5501F1010109B20D
:100C20008F42D9DC02F1010212B2042ABBDBBDE81B
:100C3000F0812DE9F047ADF5AD6DE74ED73EB6F842
:100C40004200B6F8441008443070B07900F1010059
:100C5000C0B2B0714FF00004142808D3B471707999
:100C600000F10100C0B27071052800D37471DA4D33
:100C70000DF5806C0A3D29462A7891F90100A1F111
:100C80004D0791F90410012A02D0C42A7ED0FDE359
:100C9000D3A2CDF80024D2A2CDF80424D0A2CDF85E
:100CA0000824CFA2CDF80C2430B10A1A022A05DD9F
:100CB00000F10200287104E02C7102E0884200DD9E
:100CC000287196F80580B8F1050F0FD295F9040048
:100CD000C11C5CF82130811C401C5CF821205CF8B0
:100CE0002010DDF80004FFF726FD11E095F904005F
:100CF000A8F10508C11C5CF82130811C401C5CF87F
:100D000021205CF8201006A850F82800FFF713FDFA
:100D1000F0795028B88A4FF001024FF0230180B2D9
:100D2000FFF77FFBF88A0122242180B2FFF779FBCD
:100D3000DFF8C48298F8280000222521FFF771FB14
:100D400098F8240000225E21FFF76BFB98F8200042
:100D500000222621FFF765FB98F82C0000223C2199
:100D6000FFF75FFBB8F83C0000227B21FFF759FB3F
:100D700098F838004FF0010918B198F838000C289D
:100D800001D988F8389098F8380000E0EFE09B49E6
:100D9000002201EB80003E21FFF72DFB307DDFF8C4
:100DA000388288B13A20FFF7B7FA4FF0200A08F8E6
:100DB00000A04FF03A00FFF7AFFA08F800A03A2081
:100DC000FFF7AAFA08F800A095F9040090B195F988
:100DD000011079B1884202D188F83C900AE0401AAB
:100DE000012802D0022803D004E088F8289001E00E
:100DF00088F81490307A00F10100C1B23172B6F96E
:100E0000400000EB8002B1EB820F00DB347268B16E
:100E1000307A1424B0FBF4F1DFF8BC814846A8F125
:100E20008F0898F80020552A08D106E06FF00102DB
:100E30007A2173A0FFF7DFFA41E000200844401C4C
:100E400000227A21FFF7EDFA307A98F80010B0FB13
:100E5000F4F0552901D14FF000094844401C00220C
:100E60007A21FFF7DEFAB6F840006B4D01280AD16F
:100E700098F80000552806D0B5F84E0001225D21F3
:100E8000FFF7CFFA0DE0307A0122B0FBF4F000EB6F
:100E9000400101EB001005EB80005D214088FFF769
:100EA000C0FA307A0122B0FBF4F000EB400101EB14
:100EB000001005EB80005D214088FFF7B2FAB08D8D
:100EC00000230422194680B2FFF76AFAF08D00234E
:100ED0000822194680B2FFF763FA3F4C00230F3C0B
:100EE000032220780121FFF75BFA607800230722B4
:100EF0000121FFF755FAA07800230B220121FFF70B
:100F00004FFAE07800230F220121FFF749FA2079F8
:100F1000002313220121FFF743FA3F4C00239834AA
:100F20000322E069022180B2FFF73AFAA06F0322A0
:100F300080B200231146FFF733FA384C0023072212
:100F400020780221FFF72CFA607800230B2202217F
:100F5000FFF726FAA07800230F220221FFF720FADC
:100F6000E078002313220221FFF71AFA4FE3234A05
:100F7000D2E90D38D26BCDE90338059228A2CDF81D
:100F800000242DA2CDF8042431A2CDF8082436A2E5
:100F9000CDF80C243AA2CDF810243FA2CDF81424A9
:100FA00043A2CDF8182448A2CDF81C244CA2CDF8B9
:100FB000202451A2CDF8242455A2CDF828245AA2E9
:100FC000CDF82C245EA2CDF8302463A2CDF83424D1
:100FD00067A2CDF83824D7E0FB000010CCE3000076
:100FE0002020202020202020202020202020202001
:100FF000202020200000000000400240CCE900003A
:1010000020D0E0E1EEF2E020E1E5E720E1E0F2E0EF
:10101000F0E5E92000000000A4EB0720F8680010CC
:101020002045746865726E65742020202020202081
:1010300020202120000000002044484350EAEBE833
:10104000E5EDF2202020202020204020000000009C
:10105000204950E0E4F0E5F120202020202020204D
:10106000202020200000000020203030302E3030A2
:10107000302E3030302E3030232020200000000071
:1010800020CCE0F1EAE020EFEEE4F1E5F2E8202008
:10109000202020200000000020203030302E303072
:1010A000302E3030302E3030242020200000000040
:1010B00020D8EBFEE7202020202020202020202008
:1010C000202020200000000020203030302E303042
:1010D000302E3030302E303029202020000000000B
:1010E00020CFEEF0F22EF7F2E5EDE8FF20202020F1
:1010F0002020205B0000000020CFEEF0F22EE7E081
:10110000EFE8F1E8202020202020205D00000000F2
:1011100020436F6D6D756E697479203C202020200E
:10112000202020200000000020C0E4F0E5F1E0F2E3
:1011300020E4EBFF2054524150204E3100000000CB
:1011400020203030302E3030302E3030302E3030C5
:10115000252020200000000020C0E4F0E5F1E0F2AE
:1011600020E4EBFF2054524150204E32000000009A
:1011700020203030302E3030302E3030302E303095
:101180005E20202000000000E4A2CDF83C24E9A26B
:10119000CDF84024EDA2CDF84424F2A2CDF84824A5
:1011A000F6A2CDF84C24FBA2CDF85024FFA2CDF836
:1011B0005424B6F84A2052B9FCA2CDF80424AFF268
:1011C000E012CDF80824AFF2E812CDF80C248842E2
:1011D00001DA287105E0411A022902DDA0F10200BE
:1011E000287195F90400811C5CF82130411C5CF8E1
:1011F00021205CF82010F3A0FFF79DFA0120FFF7F3
:1012000006FAB6F84A006FF002086FF0030928B139
:1012100042462121F1A0FFF7EEF804E04A462121E1
:10122000F0A0FFF7E8F8B6F84C0028B1424640219C
:10123000EAA0FFF7E0F804E04A464021E9A0FFF702
:10124000DAF86978232002293ED0CDE90004B6F906
:101250005430B6F95220B6F95010B6F94E00FFF7E7
:1012600037F96978242004293ED0CDE90004B6F985
:101270005C30B6F95A20B6F95810B6F95600FFF7A7
:1012800027F96978292006293ED0CDE90004B7F96D
:101290001030B7F90E20B7F90C10B7F90A00FFF7B4
:1012A00017F9F88800225B2180B2FFF7BAF8388975
:1012B00000225D2180B2FFF7B4F8B6F95E006FF04E
:1012C0000D08FF2830D03BE0A978491CC9B2CDE910
:1012D0000001B6F95430B6F95220B6F95010B6F9FB
:1012E0004E00FFF7F5F8BCE7A978491CC9B2CDE973
:1012F0000001B6F95C30B6F95A20B6F95810B6F9C3
:101300005600FFF7E5F8BCE7A978491CC9B2CDE95A
:101310000001B7F91030B7F90E20B7F90C10B7F982
:101320000A00FFF7D5F8BCE7B6F86010FF2907D12F
:10133000B6F86210FF2903D1B6F86410FF2912D065
:10134000697825220B2914D0CDE90024B6F9643040
:10135000B6F96220B6F96010FFF7BAF8B6F9660080
:10136000FF2814D01FE042462521A0A0FFF743F834
:10137000F4E7A978491CC9B2CDE90021B6F9643077
:10138000B6F96220B6F96010FFF7A2F8E6E7B6F802
:101390006810FF2907D1B6F86A10FF2903D1B6F803
:1013A0006C10FF2912D069785E220D2914D0CDE986
:1013B0000024B6F96C30B6F96A20B6F96810FFF768
:1013C00087F8B6F96E00FF2814D01FE042465E2170
:1013D00086A0FFF710F8F4E7A978491CC9B2CDE957
:1013E0000021B6F96C30B6F96A20B6F96810FFF73B
:1013F0006FF8E6E7B6F87010FF2907D1B6F872105B
:10140000FF2903D1B6F87410FF2912D0697826227B
:101410000F2914D0CDE90024B6F97430B6F9722042
:10142000B6F97010FFF754F8B6F97600FF2814D01B
:101430001FE0424626216DA0FEF7DDFFF4E7A97804
:10144000491CC9B2CDE90021B6F97430B6F9722051
:10145000B6F97010FFF73CF8E6E7B6F87810FF2908
:1014600007D1B6F87A10FF2903D1B6F87C10FF290E
:1014700014D069782A22112916D0CDE90024B6F9B2
:101480007C30B6F97A20B6F9781000E0BFE0FFF7BB
:101490001FF8B6F97E00FF2814D01CE042462A212E
:1014A00052A0FEF7A8FFF4E7A978491CC9B2CDE91C
:1014B0000021B6F97C30B6F97A20B6F97810FFF73A
:1014C00007F8E6E73988FF2905D17988FF2902D195
:1014D000B988FF2920D06978282213291DD0CDE9A9
:1014E0000024B7F90430B7F90220B7F90010FEF76D
:1014F000EFFF4FF00000424903AA0B5C135400F1C8
:101500000100C0B20928F8D38DF8154068780A2880
:1015100078D0AA78002376E08EE094E020C0E4F052
:10152000E5F1E0F220E4EBFF2054524150204E332D
:101530000000000020203030302E3030302E30308F
:10154000302E3030262020200000000020C0E4F0A3
:10155000E5F1E0F220E4EBFF2054524150204E34FC
:101560000000000020203030302E3030302E30305F
:10157000302E30302A2020200000000020C0E4F06F
:10158000E5F1E0F220E4EBFF2054524150204E35CB
:101590000000000020203030302E3030302E30302F
:1015A000302E3030282020200000000020C2FBF523
:1015B000EEE4202020202020202020202020202099
:1015C0000000000020D3D1D2C0CDCEC2CAC8204571
:1015D000746865726E65742000000000C2CACB2E6C
:1015E00000000000C2DBCACB2E000000202020201B
:1015F000EDE5E0EAF2E8E2E5ED2020202000000041
:10160000C00508202DE03C2103A8FEF73FFFF07D38
:1016100000282DD0A0F10100F07507F12C000FC8B3
:10162000FFF789F8388B327E0DF5AD6D4021BDE8AE
:10163000F04780B2FEF7F5BE42462821AFF25400D3
:10164000FEF7D9FE55E7A978491CC9B2CDE90021BA
:10165000B7F90430B7F90220B7F90010FEF738FFE8
:1016600047E7AA7801233C2103A8FEF70FFFCEE746
:101670000DF5AD6DBDE8F0872DE9F043F849086A36
:1016800040F400100862486B20F400104863086AB8
:1016900020F0F8600862F348C26CF34B02EA0302E0
:1016A000C264086C40F480700864486D20F4807057
:1016B00048654FF0000000BF00BF00BF00BF00BF83
:1016C00000BF00BF00BF00F10100C0B2C828F2D3C4
:1016D000086C40F480700864486D40F48070486580
:1016E000486BE24F60F0F8604FEA90523A64A7F11D
:1016F000800338461C7F456C587F997FA2F540795E
:1017000005F07F064FF0010C4FF00008B9F1FF091A
:1017100001D0AA4219D083F81F80042C00D228B12E
:1017200093F8204014B983F821C0DD76884202D3B3
:1017300083F821C0DE7683F820804FF0140098777C
:1017400083F81C8083F81D801EE004F10104E4B2DC
:101750001C77042C18D383F81C8000F10100C0B260
:101760005877884210D3DE7683F81D8083F821C035
:1017700083F820C0D87F38B14FEA5100987702280B
:1017800002D84FF0020098777A64BDE8F0832DE923
:10179000F05FB64F0026803F97F82100002821D047
:1017A00007F1CD00FA7E0378B04DF92A0BD0012461
:1017B000E72A1DD0792AF2D07A2A1FD04FF0050AE5
:1017C000FE2A25D027E08B2B0DD0D5F84D00C5F88B
:1017D000520015F8510F687100231A4610218B2012
:1017E000FEF794FFD5E300210846FEF765FFF9E711
:1017F000EC6353210020FEF759FDF3E797F823002F
:1018000018B187F82360FE77ECE787F82340FAE702
:101810003979032913D095494D318B2B91F901105A
:1018200001F1010C4FFA8CF8A1F1010C4FFA8CF97F
:101830000DD0012B77D08046C42B73D0D2E787F828
:1018400004A005214FF4B47005F05FFACAE7EF2A4F
:1018500012D0F72A19D0044601291FD00529C1D07A
:1018600020460E2940D081494D31FD2A91F90410BE
:101870003FD0FB2A49D0B5E780F8018006711022DD
:101880000021401CFEF798FCACE780F8019006713F
:1018900010220021401CFEF78FFCA3E7FD2A0BD18C
:1018A000A078A0F10100A0704FF01E024FF00001DF
:1018B00004F10200FEF78BFCF87EFB280BD1A07828
:1018C00000F10100A0704FF01E024FF0000104F182
:1018D0000200FEF77CFCF87EFE2888D12670667038
:1018E000A670E67026717DE7FE2A86D102F06CFFB5
:1018F00078E7A1F1010101714FF004024FF00001FE
:1019000000F10400FEF763FC6CE701F101010171D5
:101910004FF004024FF0000100F10400FEF757FC05
:1019200060E700E05AE1DFF844A1FB2AAAF1800A4F
:10193000BAF94440BAF94030BAF9425003EB040B0B
:10194000BAF946A0AB4408D0FD2A16D0F72A24D015
:10195000FE2A24D07E2A73D044E780F80180BAF1B1
:10196000000F01D0012100E0002159440C314AB29E
:101970000021401CFEF72BFC34E780F80190BAF1FF
:10198000000F01D0012100E0002159440C314AB27E
:101990000021401CFEF71BFC24E7467022E70029CB
:1019A000A1D015DD994213DC30483838007855282D
:1019B00006D00022012311462320FEF7A7FE11E7DF
:1019C00000220CF0FF0311462320FEF79FFE09E7DB
:1019D000DFF89880A8F1800808F1CD02B8F940C07E
:1019E00092F90120B8F94280A2EB0C02521EC444C5
:1019F000994208DD614506DCD3B2002211462D2054
:101A0000FEF784FEEEE661450ADD23442B4499424D
:101A100006DCD3B200221146C520FEF777FEE1E6D0
:101A20000CEB0402531C99420BD100231A461946B1
:101A30001420FEF76BFE4FF47A70FEF7A7FBD1E699
:101A4000C1E0931C994213D100231A4619464A203B
:101A5000FEF75CFE4FF47A70FEF798FBC2E60000DA
:101A600000C0092000C00240FF0FC0FFA40000100A
:101A7000D31C994290D0131D99420AD100231A46D3
:101A80000121C120FEF742FE4FF47A70FEF77EFB83
:101A9000A8E6531D99420DD1BAF1000F0AD00023D8
:101AA0001A461946C320FEF731FE4FF47A70FEF74E
:101AB0006DFB97E6BAF1000F01D0012300E000238F
:101AC00063449B1D8B420AD100231A4619464220CB
:101AD000FEF71CFE4FF47A70FEF758FB82E6BAF16F
:101AE000000F01D0012300E000231344DB1D8B42D3
:101AF0000BD100231A4619463020FEF707FE32208C
:101B0000FEF744FBFFF733F86CE6BAF1000F01D0A3
:101B1000012300E00023134408338B420AD1002341
:101B20001A461946B820FEF7F1FD4FF47A70FEF719
:101B30002DFB57E6BAF1000F01D0012300E000238E
:101B4000134409338B4201D146704BE6BAF1000FC2
:101B500001D0012000E0002010440A3088420AD160
:101B600000231A461946BA20FEF7D0FD4FF47A70CA
:101B7000FEF70CFB36E6BAF1000F01D0012000E0C1
:101B8000002010440B3088420AD100220123114664
:101B9000BA20FEF7BBFD4FF47A70FEF7F7FA21E6A4
:101BA000BAF1000F01D0012000E0002010440C30F9
:101BB000884293D100231A4619465B20FEF7A6FD02
:101BC000FEF7D5FF0EE600231A461946C420FEF79D
:101BD0009DFD4FF47A70FEF7D9FA03E64FF47A7060
:101BE000FEF7D4FA4FF00102B7F94A0008B14FF0FE
:101BF0001502F97E4FF00D094FF00F0BFB2912D0A3
:101C0000FD297ED07B297DD040F2CE294FF4347A55
:101C100040F2D22B672976D098F90130002B73D08F
:101C2000012B72D0B6E198F8010000F1010041B239
:101C300088F80110022906D198F8040018B988F82C
:101C4000044088F802604046032906D14FF00401A1
:101C500041704FF00301017186704178052905D16B
:101C60004FF00601417080F804A086704178072982
:101C700003D14FF008014170867090F901100A29D4
:101C800000D186700B2903D14FF00A0303718670CF
:101C90000C2901D180F8019090F901100D2903D190
:101CA0004FF00C03037186700E2901D180F801B04A
:101CB00090F901100F2903D14FF00E0303718670C4
:101CC000102902D14FF01101417090F90110112932
:101CD00003D14FF0100303718670122902D14FF027
:101CE0001301417090F90110132903D14FF0120331
:101CF00003718670142902D14FF01501417052B260
:101D000004E008E051E053E01DE12FE10021401C18
:101D1000FEF75DFA66E598F80100A0F1010088F889
:101D2000010052B24FF0000108F10100FEF74FFA36
:101D300098F80100142803D14FF0130088F801002F
:101D400098F80100122803D14FF0110088F8010023
:101D500098F80100102801D188F801B098F8010026
:101D60000E2801D188F8019098F801000C2803D1C1
:101D70004FF00B0088F8010098F80100072803D104
:101D80004FF0060088F8010098F80100052803D1FB
:101D90004FF0040088F8010098F801000328B9D139
:101DA0004FF0020088F801001CE588F8012019E5D1
:101DB00001214FF4337004F0DFFF0121484604F0A5
:101DC000DBFFC021504604F0D7FFA821584604F09D
:101DD000D3FF01214FF4357004F0CEFFFB2140F218
:101DE000D62004F0C9FFFF214FF4367004F0C4FF81
:101DF000FF2140F2DA2004F0BFFFFF214FF43770DB
:101E000004F0BAFF002140F2DE2004F0B5FFC0214B
:101E10004FF4437004F0B0FFA82140F20E3004F0FC
:101E2000ABFF01214FF4447004F0A6FFFE2140F205
:101E3000123004F0A1FFA1214FF4427004F09CFF86
:101E4000A22140F20A3004F097FF312140F2DA304B
:101E500004F092FF32214FF4777004F08DFF3321AC
:101E600040F2DE3004F088FF00214FF4787004F077
:101E700083FF002140F2E23004F07EFFFF214FF4A7
:101E8000387004F079FFFF2140F2E22004F074FF83
:101E9000FF214FF4397004F06FFFFF2140F2E6207C
:101EA00004F06AFFFF214FF43A7004F065FFFF2150
:101EB00040F2EA2004F060FFFF214FF43B7004F091
:101EC0005BFFFF2140F2EE2004F056FFFF214FF4AC
:101ED0003C7004F051FFFF2140F2F22004F04CFF6F
:101EE000FF214FF43D7004F047FFFF2140F2F62040
:101EF00004F042FFFF214FF43E7004F03DFFFF214C
:101F000040F2FA2004F038FFFF214FF43F7004F054
:101F100033FFFF2140F2FE2004F02EFFFF214FF49B
:101F2000407004F029FFFF2140F2023004F024FF4A
:101F3000FF214FF4417004F01FFFFF2140F20630F3
:101F400004F01AFF4EE4FE2903D0F72901D0EF294F
:101F5000F8D128B100214FF4337004F00DFF41E4B3
:101F600001214FF4337004F007FF3BE490B1FE29E8
:101F700003D0F72901D0EF29E4D1B7F84C0020B104
:101F80000021484604F0F8FE2CE40121484604F004
:101F9000F3FE08E2022B19D0042B7ED0062B7DD055
:101FA000082B7CD0092B7BD00A2B7AD040460B2BF8
:101FB00078D00D2B77D00F2B76D0112B75D0132B1B
:101FC00074D09342BED1FE2971D0ECE17E2909D0B4
:101FD00098F90200A8B1012843D0022868D003284C
:101FE00067D0E0E198F8020000F1010088F80200F3
:101FF0004FF003024FF0000108F10200FEF7DCF899
:10200000D1E1EF2906D06F2904D0F72915D077291F
:1020100013D024E0B7F84E0000F10100A7F84E00FD
:102020004FF0FF024FF00001FB48FEF7E6F8B7F96A
:102030004E10504604F0A0FE11E0B7F84E00A0F19B
:102040000100A7F84E004FF0FF024FF00001F248E8
:10205000FEF7D3F8B7F94E10504604F08DFEFC772A
:10206000A1E1EF2906D06F2904D0F72925D07729DF
:1020700023D036E0B7F8500000F10100A7F8500077
:10208000E5484FF0FF024FF0000100F10200FEF7BB
:10209000B4F8B7F9501058460CE090E084E168E2DB
:1020A0008BE2AEE237E3F3E3F3E3F3E3F3E3F3E3EB
:1020B00019E04EE004F060FE13E0B7F85000A0F124
:1020C0000100A7F85000D4484FF0FF024FF0000184
:1020D00000F10200FEF791F8B7F95010584604F0ED
:1020E0004BFEFC775FE1EF2906D06F2904D0F7297A
:1020F00018D0772916D02AE0B7F8520000F1010075
:10210000A7F85200C4484FF0FF024FF0000100F161
:102110000400FEF772F8B7F952104FF4357004F06E
:102120002BFE14E0B7F85200A0F10100A7F852000E
:10213000B9484FF0FF024FF0000100F10400FEF734
:102140005CF8B7F952104FF4357004F015FEFC77C7
:1021500029E1EF2906D06F2904D0F72918D0772973
:1021600016D02AE0B7F8540000F10100A7F8540097
:10217000A9484FF0FF024FF0000100F10600FEF702
:102180003CF8B7F9541040F2D62004F0F5FD14E005
:10219000B7F85400A0F10100A7F854009E484FF092
:1021A000FF024FF0000100F10600FEF726F8B7F934
:1021B000541040F2D62004F0DFFDFC77F3E07E29D6
:1021C00009D098F90200A8B1012849D002287FD08F
:1021D00003287CD0E7E098F8020000F1010088F8BD
:1021E00002004FF003024FF0000108F10200FDF77A
:1021F000E3FFD8E0EF2906D06F2904D0F72918D0E3
:10220000772916D02AE0B7F8560000F10100A7F8A8
:10221000560081484FF0FF024FF0000100F1080026
:10222000FDF7EBFFB7F956104FF4367004F0A4FD3C
:1022300014E0B7F85600A0F10100A7F85600764860
:102240004FF0FF024FF0000100F10800FDF7D5FF4D
:10225000B7F956104FF4367004F08EFDFC77A2E00B
:10226000EF2906D06F2904D0F72918D0772916D086
:102270002AE0B7F8580000F10100A7F858006648B6
:102280004FF0FF024FF0000100F10A00FDF7B5FF2B
:10229000B7F9581040F2DA2004F06EFD14E0B7F8F8
:1022A0005800A0F10100A7F858005B484FF0FF026A
:1022B0004FF0000100F10A00FDF79FFFB7F9581039
:1022C00040F2DA2004F058FDFC776CE000E035E0E5
:1022D000EF2906D06F2904D0F72918D0772916D016
:1022E0002AE0B7F85A0000F10100A7F85A004A485E
:1022F0004FF0FF024FF0000100F10C00FDF77DFFF1
:10230000B7F95A104FF4377004F036FD14E0B7F8FF
:102310005A00A0F10100A7F85A003F484FF0FF0211
:102320004FF0000100F10C00FDF767FFB7F95A10FC
:102330004FF4377004F020FDFC7734E0EF2906D02D
:102340006F2904D0F72918D0772916D02AE0B7F8DA
:102350005C0000F10100A7F85C002F484FF0FF027D
:102360004FF0000100F10E00FDF747FFB7F95C10D8
:1023700040F2DE2004F000FD14E0B7F85C00A0F1AC
:102380000100A7F85C0024484FF0FF024FF0000165
:1023900000F10E00FDF731FFB7F95C1040F2DE20CE
:1023A00004F0EAFCFC7704E27E2909D098F90200E7
:1023B000A8B1012845D0022877D0032874D0F8E1CD
:1023C00098F8020000F1010088F802004FF00302C3
:1023D0004FF0000108F10200FDF7EEFEE9E1EF2900
:1023E00006D06F2904D0F72918D0772916D026E017
:1023F000688900F10100688107484FF0FF024FF043
:10240000000100F13C00FDF7F8FEB5F90A104FF4A9
:10241000437004F0B1FC12E0720000106889A0F172
:10242000010068814FF0FF024FF00001FC48FDF70A
:10243000E4FEB5F90A104FF4437004F09DFCFC77FC
:10244000B7E1EF2906D06F2904D0F72916D07729F4
:1024500014D026E0A88900F10100A881F0484FF0CF
:10246000FF024FF0000100F10200FDF7C6FEB5F9D2
:102470000C1040F20E3004F07FFC12E0A889A0F1AD
:102480000100A881E6484FF0FF024FF0000100F183
:102490000200FDF7B2FEB5F90C1040F20E3004F068
:1024A0006BFCFC7785E100E031E0EF2906D06F2975
:1024B00004D0F72916D0772914D026E0E88900F156
:1024C0000100E881D6484FF0FF024FF0000100F113
:1024D0000400FDF792FEB5F90E104FF4447004F0BD
:1024E0004BFC12E0E889A0F10100E881CC484FF0F4
:1024F000FF024FF0000100F10400FDF77EFEB5F988
:102500000E104FF4447004F037FCFC7751E1EF29D2
:1025100006D06F2904D0F72916D0772914D026E0E9
:10252000288A00F101002882BD484FF0FF024FF0D9
:10253000000100F10600FDF760FEB5F9101040F251
:10254000123004F019FC12E0288AA0F10100288260
:10255000B3484FF0FF024FF0000100F10600FDF715
:102560004CFEB5F9101040F2123004F005FCFC7777
:102570001FE1EF2906D06F2909D0F7290CD0772960
:102580000FD012E0E88800F10100E8800DE0E88853
:1025900000F10200E88008E0E888A0F10100E8808E
:1025A00003E0E888A0F10200E880FC77B5F90610A6
:1025B0004FF4427004F0E0FBFBE0EF2906D06F29F6
:1025C00009D0F7290CD077290FD012E0288900F123
:1025D000010028810DE0288900F10200288108E02F
:1025E0002889A0F10100288103E02889A0F10200D8
:1025F0002881FC77B5F9081040F20A3004F0BCFBE2
:10260000D7E07E290DD198F8020000F1010088F88A
:1026100002004FF008024FF0000108F10200FDF740
:10262000CBFDF87E2025DFF8FC91EF2801D06F2844
:1026300035D198F9020019F8001001F10101C9B271
:1026400009F80010202902D209F800501EE0A1F17B
:1026500021020F2A04D24FF0300109F8001015E0D2
:10266000A1F13A02072A04D24FF0410109F8001003
:102670000CE0A1F15B02062A04D24FF0610109F8D7
:10268000001003E07A2901D909F8005019F8001068
:1026900040F2DA3202EB400004F06EFBFC77F87E89
:1026A000F72801D0772887D198F9020019F800108F
:1026B000A1F10101C9B209F800104FF07A022029F6
:1026C00002D209F800201CE0A1F121030F2B02D255
:1026D00009F8005015E0A1F13A03072B04D24FF09E
:1026E000390109F800100CE0A1F15B03062B04D2BC
:1026F0004FF05A0109F8001003E07A2901D909F8CE
:10270000002019F8001040F2DA3202EB400004F029
:1027100033FBFC774DE07E2909D090F9020098B197
:10272000012847D002287FD003287ED041E081785D
:1027300001F1010181704FF003024FF0000100F13F
:102740000200FDF739FD34E0EF2906D06F2904D0EF
:10275000F72918D0772916D02AE0B7F85E0000F1E3
:102760000100A7F85E002E484FF0FF024FF0000175
:10277000A0F12C00FDF741FDB7F95E104FF4387061
:1027800004F0FAFA14E0B7F85E00A0F10100A7F82F
:102790005E0023484FF0FF024FF00001A0F12C0033
:1027A000FDF72BFDB7F95E104FF4387004F0E4FA32
:1027B000FC771FE2EF2906D06F2904D0F72918D043
:1027C000772916D02AE0B7F8600000F10100A7F8D9
:1027D000600013484FF0FF024FF00001A0F12A0003
:1027E000FDF70BFDB7F9601040F2E22004F0C4FAE7
:1027F00014E0B7F86000A0F10100A7F860000848F5
:102800004FF0FF024FF00001A0F12A00FDF7F5FCA8
:10281000B7F9601040F2E22004F0AEFAFC77E9E18B
:10282000AE000010C005082000E036E0EF2906D019
:102830006F2904D0F72916D0772914D026E0B7F8ED
:10284000620000F10100A7F862004FF0FF024FF0B4
:102850000001F948FDF7D1FCB7F962104FF4397067
:1028600004F08AFA12E0B7F86200A0F10100A7F8BC
:1028700062004FF0FF024FF00001EF48FDF7BDFC92
:10288000B7F962104FF4397004F076FAFC77FDE383
:1028900039E02BE11DE20FE3F3E3EF2906D06F29C6
:1028A00004D0F72918D0772916D02AE0B7F86400A9
:1028B00000F10100A7F86400DF484FF0FF024FF07D
:1028C000000100F10200FDF798FCB7F9641040F236
:1028D000E62004F051FA14E0B7F86400A0F101001A
:1028E000A7F86400D4484FF0FF024FF0000100F158
:1028F0000200FDF782FCB7F9641040F2E62004F014
:102900003BFAFC77C2E37E2909D090F9020098B126
:10291000012847D002287DD003287AD0B6E38178F9
:1029200001F1010181704FF003024FF0000100F14D
:102930000200FDF741FCA9E3EF2906D06F2904D07E
:10294000F72918D0772916D02AE0B7F8660000F1E9
:102950000100A7F86600B8484FF0FF024FF00001F1
:1029600000F10400FDF749FCB7F966104FF43A7026
:1029700004F002FA14E0B7F86600A0F10100A7F82D
:102980006600AD484FF0FF024FF0000100F1040077
:10299000FDF733FCB7F966104FF43A7004F0ECF928
:1029A000FC7773E3EF2906D06F2904D0F72918D0FC
:1029B000772916D02AE0B7F8680000F10100A7F8DF
:1029C00068009D484FF0FF024FF0000100F1060043
:1029D000FDF713FCB7F9681040F2EA2004F0CCF9D7
:1029E00014E0B7F86800A0F10100A7F86800924869
:1029F0004FF0FF024FF0000100F10600FDF7FDFB74
:102A0000B7F9681040F2EA2004F0B6F9FC773DE32C
:102A100000E035E0EF2906D06F2904D0F72918D05F
:102A2000772916D02AE0B7F86A0000F10100A7F86C
:102A30006A0081484FF0FF024FF0000100F10800EA
:102A4000FDF7DBFBB7F96A104FF43B7004F094F923
:102A500014E0B7F86A00A0F10100A7F86A00764810
:102A60004FF0FF024FF0000100F10800FDF7C5FB39
:102A7000B7F96A104FF43B7004F07EF9FC7705E378
:102A8000EF2906D06F2904D0F72918D0772916D05E
:102A90002AE0B7F86C0000F10100A7F86C00664866
:102AA0004FF0FF024FF0000100F10A00FDF7A5FB17
:102AB000B7F96C1040F2EE2004F05EF914E0B7F8BC
:102AC0006C00A0F10100A7F86C005B484FF0FF021A
:102AD0004FF0000100F10A00FDF78FFBB7F96C1011
:102AE00040F2EE2004F048F9FC77CFE27E2909D0CD
:102AF00090F9020098B1012847D002287DD0032820
:102B00007AD0C3E2817801F1010181704FF00302B4
:102B10004FF0000100F10200FDF74EFBB6E2EF2995
:102B200006D06F2904D0F72918D0772916D02AE0CB
:102B3000B7F86E0000F10100A7F86E003E484FF0B4
:102B4000FF024FF0000100F10C00FDF756FBB7F952
:102B50006E104FF43C7004F00FF914E0B7F86E00FB
:102B6000A0F10100A7F86E0033484FF0FF024FF0CC
:102B7000000100F10C00FDF740FBB7F96E104FF4B7
:102B80003C7004F0F9F8FC7780E2EF2906D06F2959
:102B900004D0F72918D0772916D02AE0B7F87000AA
:102BA00000F10100A7F8700023484FF0FF024FF03A
:102BB000000100F10E00FDF720FBB7F9701040F2A4
:102BC000F22004F0D9F814E0B7F87000A0F1010089
:102BD000A7F8700018484FF0FF024FF0000100F115
:102BE0000E00FDF70AFBB7F9701040F2F22004F076
:102BF000C3F8FC774AE200E035E0EF2906D06F2900
:102C000004D0F7291AD0772918D02AE0B7F8720033
:102C100000F10100A7F8720007484FF0FF024FF0E3
:102C2000000100F11000FDF7E8FAB7F972104FF457
:102C30003D7004F0A1F814E086000010B7F87200AF
:102C4000A0F10100A7F872004FF0FF024FF0000161
:102C5000F848FDF7D2FAB7F972104FF43D7004F05E
:102C60008BF8FC7712E2EF2906D06F2904D0F72900
:102C700018D0772916D02AE0B7F8740000F10100C7
:102C8000A7F87400EB484FF0FF024FF0000100F18D
:102C90000200FDF7B2FAB7F9741040F2F62004F022
:102CA0006BF814E0B7F87400A0F10100A7F8740005
:102CB000E0484FF0FF024FF0000100F10200FDF785
:102CC0009CFAB7F9741040F2F62004F055F8FC773E
:102CD000DCE17E2909D090F9020098B1012847D0A3
:102CE00002287DD003287AD0D0E1817801F101015A
:102CF00081704FF003024FF0000100F10200FDF778
:102D00005BFAC3E1EF2906D06F2904D0F72918D068
:102D1000772916D02AE0B7F8760000F10100A7F86D
:102D20007600C4484FF0FF024FF0000100F10400AC
:102D3000FDF763FAB7F976104FF43E7004F01CF813
:102D400014E0B7F87600A0F10100A7F87600B948C2
:102D50004FF0FF024FF0000100F10400FDF74DFAC3
:102D6000B7F976104FF43E7004F006F8FC778DE169
:102D7000EF2906D06F2904D0F72918D0772916D06B
:102D80002AE0B7F8780000F10100A7F87800A94818
:102D90004FF0FF024FF0000100F10600FDF72DFAA1
:102DA000B7F9781040F2FA2003F0E6FF14E0B7F824
:102DB0007800A0F10100A7F878009E484FF0FF02CC
:102DC0004FF0000100F10600FDF717FAB7F978108F
:102DD00040F2FA2003F0D0FFFC7757E100E035E045
:102DE000EF2906D06F2904D0F72918D0772916D0FB
:102DF0002AE0B7F87A0000F10100A7F87A008D48C0
:102E00004FF0FF024FF0000100F10800FDF7F5F967
:102E1000B7F97A104FF43F7003F0AEFF14E0B7F843
:102E20007A00A0F10100A7F87A0082484FF0FF0273
:102E30004FF0000100F10800FDF7DFF9B7F97A1053
:102E40004FF43F7003F098FFFC771FE1EF2906D0A5
:102E50006F2904D0F72918D0772916D02AE0B7F8BF
:102E60007C0000F10100A7F87C0072484FF0FF02DF
:102E70004FF0000100F10A00FDF7BFF9B7F97C102F
:102E800040F2FE2003F078FF14E0B7F87C00A0F1D8
:102E90000100A7F87C0067484FF0FF024FF00001E7
:102EA00000F10A00FDF7A9F9B7F97C1040F2FE2005
:102EB00003F062FFFC77E9E07E2909D090F9020077
:102EC00098B1012847D0022879D0032876D0DDE0D8
:102ED000817801F1010181704FF003024FF0000190
:102EE00000F10200FDF768F9D0E0EF2906D06F2964
:102EF00004D0F72918D0772916D02AE0B7F87E0039
:102F000000F10100A7F87E004A484FF0FF024FF0A1
:102F1000000100F10C00FDF770F9B7F97E104FF4D5
:102F2000407003F029FF14E0B7F87E00A0F1010023
:102F3000A7F87E003F484FF0FF024FF0000100F17C
:102F40000C00FDF75AF9B7F97E104FF4407003F00A
:102F500013FFFC779AE0EF2906D06F2904D0F729F8
:102F600016D0772914D026E0288800F101002880A7
:102F700030484FF0FF024FF0000100F10E00FDF766
:102F80003CF9B5F9001040F2023003F0F5FE12E012
:102F90002888A0F10100288026484FF0FF024FF05A
:102FA000000100F10E00FDF728F9B5F9001040F21C
:102FB000023003F0E1FEFC7768E000E031E0EF2949
:102FC00006D06F2904D0F72916D0772914D026E02F
:102FD000688800F10100688016484FF0FF024FF04A
:102FE000000100F11000FDF708F9B5F902104FF4E7
:102FF000417003F0C1FE12E06888A0F10100688012
:103000000C484FF0FF024FF0000100F11000FDF7F7
:10301000F4F8B5F902104FF4417003F0ADFEFC77FF
:1030200034E0EF2908D06F2906D0F72916D0772988
:1030300014D024E096000010A88800F10100A880B8
:103040004FF0FF024FF00001FF48FDF7D6F8B5F949
:10305000041040F2063003F08FFE10E0A888A0F1C3
:103060000100A8804FF0FF024FF00001F648FDF785
:10307000C4F8B5F9041040F2063003F07DFEFC7789
:1030800004E0FFE700210846FDF716FB87F8216002
:10309000BDE8F09F4FF08040EC4941604FF00001E7
:1030A00001614FF0030101704FF0AA0101724FF06E
:1030B0005501017270474FF080404FF0AA01017234
:1030C0004FF055010172704730B5DF498439488DA2
:1030D00000F1010000B24885142802DD4FF0000025
:1030E00048854FF00000DA4DB1F92A40C0EBC0022C
:1030F00002EB001200EB040105EB820201F52F73D5
:10310000D36101F13203536201F12303DBB2936215
:1031100001F10A03937082F8421000F10100C0B27D
:103120000528E3D330BD2DE9F041C74E4FF001052E
:10313000A6F18406F572B07DC64938B1086A40F040
:1031400080600862486B80F080604863708F002464
:10315000401C00B27087022875DB7487B57248691D
:10316000C0F3C0607076B849B27E091F904203D0A8
:103170008A8B02F101028A83B076B08F401C00B2C4
:10318000B087142801DBB4877573308E401C00B201
:1031900030860A2857DB34863573C88B00F101006E
:1031A00000B2C883B0F5FA7F03DBCC83888B4883F9
:1031B0008C83708E42F21077401C00B270860A2811
:1031C0000ADB7486B573FDF749F8B6F92600B842F4
:1031D00002DA00F10100F084B08E401C00B2B0862B
:1031E000142806DBB486F573F07C08B1F47400E0B3
:1031F000F574F08E401C00B2F086322806DBF486AF
:103200003574307D08B1347500E03575308F401C61
:1032100000B23087642816DB34877574B6F928004D
:10322000B84202DA00F101003085707D08B1747592
:1032300000E07575F08F00F1010000B2F0873C28C6
:1032400001DBF487B5748449844A0878062808D2DB
:1032500000F10100C0B20870062800D31570BDE867
:10326000F081FCD90C701470F9E71CB57CA003C880
:10327000CDE9000102F0B0FF734E4FF00109A6F155
:10328000840686F8169078484FF4FA610068B0FB1F
:10329000F1F14FF0E020A1F1010141614FF0070190
:1032A00001616B494FF00500887081F85E0081F87C
:1032B000BA0081F8160181F8720181F8CE0181F817
:1032C0002A02644C206820F000602060206C40F0EE
:1032D00080002064206C40F480702064206E40F0F8
:1032E00000702066E06F40F00070E06703F065F862
:1032F0005E48A0F101000028FBD14FF0210003F04F
:103300006FF80D2003F06CF8112003F069F84420E9
:1033100003F066F8564947F6FF7048808880C880F9
:10332000088148818881C881088248828882C88251
:10333000088348838883C88348848884C884088530
:1033400048858885C885088648868886C88608870F
:1033500048878887C88747490880488003F016FB5C
:1033600003F066FB03F048FBFDF724FA364F4937BC
:1033700087F80090404B41A246A11846FDF7DBF9C3
:10338000206840F400602060A06940F40060A06103
:103390004FF086014FF0640003F0EEFC01F0FEFFF9
:1033A000A7F14D08B8F9120000EB800041000020A1
:1033B00003F0C4FDA7F1250001788DF805104178D0
:1033C0008DF8041080788DF803000622694637488E
:1033D00009F0C8F940F2DA3003F010FC344D2870DF
:1033E0004FF4777003F00AFCC0B268704FF000042D
:1033F00008B1202800D16C7040F2DE3003F0FEFBF3
:10340000C0B2A87008B1202800D1AC704FF4787019
:1034100003F0F4FBC0B2E87008B1202800D1EC70D2
:1034200040F2E23003F0EAFBC0B2287108B1202874
:1034300000D12C714FF4797003F0E0FBC0B26871D9
:1034400008B1202837D135E0A800001080841E0084
:103450003CEC072000C00920FE57001064C1072083
:10346000007304323C460000D857001080A90300C6
:10347000CA050820FA570010E00F00002020202085
:10348000202045746865726E6574202020202020FD
:103490000000000020202020C8EDE8F6E8E0EBE87E
:1034A000E7E0F6E8FF202020000000000000001008
:1034B000080000106C7140F2E63003F09FFBC0B2D0
:1034C000A87108B1202800D1AC714FF47A7003F0D4
:1034D00095FBC0B2E87108B1202800D1EC7140F230
:1034E000EA3003F08BFBC0B2287208B1202800D16B
:1034F0002C726C72764BAFF27C02AFF26801184608
:10350000FDF719F9FDF73DFB724803F099FA08F051
:103510000BFF704803F094FAFDF706FB4FF03A05F5
:10352000FFF7B8FDB8F9120000EB8000400004F08E
:1035300099FF6948A0F101000028FBD1B8F91200F9
:1035400000EB80004FEA400004F08CFF634B0A223E
:10355000002101200AF0E0F986F8240018B14FF4A8
:10356000FB710AF01DFA4FF4165005F0ECFA5C4AB4
:10357000032100200AF086FD5A49087018B140F274
:10358000E9310AF0A3FD87F80090DFF85CB1DFF8BD
:103590005CA1574FB47509F0B7F8387810B13C709A
:1035A00004F0BEFB9BF8000018B18BF8004005F05A
:1035B00042FC5048017811B1047003F00BFF707A9F
:1035C00000B17472F07A00B1F472B07A10B1B472D2
:1035D00004F094FF307B40B13473B078F178084345
:1035E00001D1FEF749F8FEF7D2F8707B00B1747391
:1035F000387810B13C7004F093FBB07B10B30AF044
:1036000033FDC8F82490B473FDF713FBFDF7B9FA46
:10361000F07810B92F4803F013FAFCF795FDFCF78A
:10362000B8FD9AF80000401CC0B28AF800000D28CE
:1036300008D38AF80040B8F9120000EB800040007F
:1036400004F010FFF07B70B1F473F07808B902F069
:1036500046FFF07808B901F0A1FE00F04FF8B08DF8
:1036600000F10100B085307C20B13474F08D00F1A0
:103670000100F085387810B13C7004F051FB707C8B
:1036800000B374741C49087800F101000870FFF75A
:103690001BFDB07808B9FFF70EFD96F8220000F187
:1036A000010086F8220005F10105EDB23C2D07D39B
:1036B0004FF0000503F06AF903F0BAF903F09CF942
:1036C00001F0B4F8B07C00283FF464AFB47461E753
:1036D000E00F0000A8F60720804F1200D5850000FB
:1036E0005D46000014C107200D58001077C1072067
:1036F00064C1072051C10720EC0000102DE9F05FE4
:10370000FF4C2088FF4F3884FF4800887884FF48AA
:103710000088B884FE480088F884FE480088388510
:10372000FD4800887885FD480088B885FC480088F9
:103730007882FC480088B882FB480088F882FB4801
:1037400000883883FA4800887883FA480088B8836C
:1037500040F6026003F052FAF883F7480088B88612
:10376000F5484088F886F44880883887F34801880F
:1037700079874188B9878088F887F14807F1800800
:103780000068C8F84C00EF480088A7F8420020887D
:10379000A7F8400007F1AC0C4FF00100ACF80000B6
:1037A000E94A07F1B0065188318006F11801938883
:1037B0000B8006F1040511892980E4490988A1F5E7
:1037C000AC432F3B01D0283307D1E14991F8E012F7
:1037D000092902D1DF4909882980DFF828B35189F6
:1037E0000BF1B80BABF80010DFF86CA345F2555E97
:1037F0000BF10403BAF90010714503D1D7490988C8
:10380000198000E01980BF49148AC0310C80BD4C7A
:1038100092F83D10C4342180D14991F80090FF21E5
:10382000B9F1550F00D021804FF00209ACF8029099
:10383000B2F84EC0A6F802C0B24EB2F850C006F1BF
:10384000C806A6F802C0B2F854606E80B2F85650AE
:10385000ABF80250BAF90250754503D1BF4D6D88DF
:103860005D8000E05D80A74BB2F85C50C0335D80A6
:1038700092F889206280BA4A5278552A00D0618035
:10388000B84C2080B24B04F11005DA692A8004F1AB
:1038900020065A6A328004F1300C9A6AACF8002093
:1038A00004F1400293F801A0A2F800A0DFF874A28E
:1038B000BAF900A0BAF1000F00DC1180A4F8029060
:1038C000D3F878B0A5F802B0D3F880B0A6F802B06B
:1038D000D3F884B0ACF802B093F85DB0A2F802B0AF
:1038E000BAF1010F00DC51804FF0030EA4F804E0A0
:1038F000D3F8D4B0A5F804B0D3F8DCB0A6F804B07F
:10390000D3F8E0B0ACF804B093F8B9B0A2F804B0C2
:10391000BAF1020F00DC91804FF0040BA4F806B05E
:10392000D3F830B1A5F806B0D3F838B1A6F806B090
:10393000D3F83CB1ACF806B093F815B1A2F806B0D4
:10394000BAF1030F00DCD1804FF0050BA4F808B0EA
:10395000D3F88CB1A5F808B0D3F894B1A6F808B0A4
:10396000D3F898B1ACF808B093F871B1A2F808B0E8
:10397000BAF1040F00DC11814FF0060BA4F80AB075
:10398000D3F8E8B1A5F80AB0D3F8F0B1A6F80AB0B8
:10399000D3F8F4B1ACF80AB093F8CDB1A2F80AB0FC
:1039A000BAF1050F00DC51814FF0070BA4F80CB001
:1039B000D3F844B2A5F80CB0D3F84CB2A6F80CB0CA
:1039C000D3F850B2ACF80CB093F829B2A2F80CB00E
:1039D000BAF1060F00DC91814FF0080BA4F80EB08D
:1039E00003F52173DC69EC815C6AF4819C6AACF8B4
:1039F0000E405B78D381BAF1070F00DCD181414AD8
:103A0000E43210805849931D8C691C809C1DCD693F
:103A10002580A51D0E6A2E80AE1D91F846C0A6F821
:103A200000C0A2F80290D1F878C0A3F802C0D1F883
:103A30007CC0A4F802C0D1F880C0A5F802C091F8FB
:103A4000A6C0A6F802C0F246A2F804E0D1F8D82039
:103A50009A80D1F8DC20A280D1F8E020AA8091F8E9
:103A60000611B180A3F11A0E8EF800003D4D3FA162
:103A700005F188050A686A644A68AA640989A5F894
:103A80004C10DFF8F0B0A4F11C024FF000019BF8DD
:103A90000030012B33D01170374B1C88194BD833B1
:103AA000002C71D01970354C2678164CDC34012E60
:103AB0006BD021708EF8019031A6D6F800C0C5F801
:103AC00058C0D6F804C0C5F85CC03689A5F8606057
:103AD0009BF80160012E7ED05170274EB6F802C0CF
:103AE000BCF1000F78D05970DFF890C09CF801C08D
:103AF000BCF1010F71D06170DFF808C046E096E0BC
:103B0000D6C007202C030010DAC0072000030010E5
:103B1000D8C0072002030010B8000010BA0000103F
:103B20006400001066000010680000106A000010B9
:103B30005CC00720820200100A030010E6C00720C4
:103B4000F4C0072016030010A4EB0720B8020010F1
:103B50003CEC0720D2C0072090C007208CC0072073
:103B60006C0000102C5A001034FC0720446F6F7258
:103B70000000000006C00720ACC007203202001081
:103B8000536D6F6B6500000053E054E00CF1D00CF6
:103B90008CF802A00FF2104CDCF800E0C5F86CE0E5
:103BA000DCF804E0C5F870E0BCF808C0A5F874C003
:103BB000FF4DAD78012D46D09170FE4DAD88ADB36F
:103BC0009970DFF8F4B39BF80250012D3FD0A1703B
:103BD0004FF0040502E030E031E032E0F74EF570DE
:103BE000F74E0FF2E03CDCF800E0C6F800E0DCF84D
:103BF00004E0C6F804E0BCF808C0A6F808C0EC4E23
:103C0000F678012E25D0D170EA4AD2881AB3D9703D
:103C10009BF80320012A20D0E170EC4AE74BB2F96F
:103C200028403833082C1ADD18801BE00DE0107096
:103C300032E7187037E720703CE750704DE7587056
:103C400052E7607058E79070B7E79870B9E7A070D6
:103C5000BEE7D070D8E7D870DAE7E070DDE7022C75
:103C600000DA1980B2F95240082C01DD588002E0D8
:103C7000022C00DA5980B2F97C40082C01DD9880D2
:103C800002E0022C00DA9980B2F9A640082C01DD8E
:103C9000D88002E0022C00DAD980C84C5389403425
:103CA0002380C64B948948331C80C44CD38950343C
:103CB00023800834138A23800834538A2380203CCD
:103CC000938E63800834D38E63800834138F6380AF
:103CD0000834538F63800834938F6380203CB2F89C
:103CE0005E30A3800834B2F86030A3800834B2F8A4
:103CF0006230A3800834B2F86430A3800834B2F88C
:103D00006630A380203CB2F88830E3800834B2F8F3
:103D10008A30E3800834B2F88C30E3800834B2F89B
:103D20008E30E3800834B2F89030E380A34B948A5D
:103D300068331C8003F10804D68A268003F110063C
:103D4000B2F818C0A6F800C003F1180CB2F81AB007
:103D5000ACF800B003F1200BB2F81CE0ABF800E0C7
:103D6000B2F83EE0A3F802E0B2F840E0A4F802E0C6
:103D7000B2F842E0A6F802E0B2F844E0ACF802E0A3
:103D8000B2F846E0ABF802E0B2F868E0A3F804E06D
:103D9000B2F86AE0A4F804E0B2F86CE0A6F804E037
:103DA000B2F86EE0ACF804E0B2F870E0ABF804E012
:103DB000B2F892E0A3F806E0B2F89430E380B2F8EB
:103DC0009630F380B2F89830ACF80630B2F89A30FA
:103DD000ABF8063006F11803D48B1C8003F10804FD
:103DE000168C268003F11006B2F822C0A6F800C097
:103DF00003F1180CB2F824B0ACF800B003F1200BBA
:103E0000B2F826E0ABF800E0B2F848E0A3F802E030
:103E1000B2F84AE0A4F802E0B2F84CE0A6F802E0FA
:103E2000B2F84EE0ACF802E0B2F850E0ABF802E0D5
:103E3000B2F872E0A3F804E0B2F874E0A4F804E089
:103E4000B2F876E0A6F804E0B2F878E0ACF804E066
:103E5000B2F87AE0ABF804E0B2F89CE0A3F806E030
:103E6000B2F89E30E380B2F8A030F380B2F8A2300E
:103E7000ACF80630B2F8A420ABF80620544A1288F9
:103E8000A7F87620534AA4F5B4731288A3F87820D3
:103E9000514A1288A3F87A20504A1288A3F87C204D
:103EA0004F4A1288A3F87E204E4A1288A8F80020B4
:103EB0004D4A1288A8F802204C4A1288A8F804201B
:103EC0004B4A1288A8F806204A4A1288A8F8082007
:103ED000494AB2F90070A8F80A70B2F902C0A8F80D
:103EE0000CC0B2F904B0A8F80EB0444A1288A3F886
:103EF0004820434A1288A3F84A20424A1288A3F86D
:103F00004C20414A1288A3F84E20404A404BA4F569
:103F1000B47412881B88A2EB0303A4F850303D4B05
:103F20001B88A4F852302346A3F854203A4A12883A
:103F3000A3F85620394A1288A3F85820384A128824
:103F4000A3F85A20374A1288A3F85C20364A13880F
:103F50002246A2F85E30354A23461288A3F8602034
:103F6000334A1288A3F86220324A1288A3F86420E8
:103F7000314A1288A3F86620304A1288A3F86820D4
:103F80002F4B1B88A4F86A302E4B1B88A4F86C308A
:103F90002D4B1B88A4F86E302346A3F870202B4AC3
:103FA0001288A3F8722053E053686F636B0000001F
:103FB00006C00720ACC0072032020010FC0300102E
:103FC000345B00102020202020000000A8FA0720E9
:103FD0000403001040C0072054C007207A020010DC
:103FE00056C007207C02001044C007206A0200105F
:103FF00046C007206C020010DCC0072054020010ED
:104000002AC0072038C007204C0200104E020010C2
:104010003AC0072026C00720520200102CC00720FB
:104020005C0200102EC0072034C007205802001088
:1040300032C007205602001036C0072028C00720D3
:10404000640200103CC00720500200103EC0072050
:10405000FB4A1288A3F874204FF00002F94CDFF8F5
:10406000E88304F10C0602F10103A35418F802E0FE
:10407000BEF1000F7ED0B054DAB20C2AF3D3F3496C
:10408000087081F8019081F802A072310F80A1F8C8
:1040900002C0A1F804B0EE4CEC4BDB1C2178197087
:1040A000EC494FF0FF32B1F90010012900DA1A7023
:1040B00066785E70022900DA1A70A4789C70032971
:1040C00000DA1A70042900DA1A70DE4968310880B3
:1040D000A1F80290A1F804A0CD804FF0050008815E
:1040E0004FF0060048814FF0070088814FF0000034
:1040F000D94D01F10E0301F11C0601F12A0701F16E
:10410000380C01F1460801F1540901F1620A01F18C
:10411000700B01F17E0E00EB400101EB001205EB8C
:1041200082010C8923F8104035F8222026F810204F
:104130004A8827F810208A882CF81020CA8828F886
:1041400010204A8929F810208A892AF81020CA8963
:104150002BF810200A8A2EF81020BA4A4C8A02F155
:10416000F40222F8104002F10E028C8A22F810406C
:10417000CC8A00E03BE002F10E0222F8104002F18E
:104180000E024C8B22F8104002F10E028C8B22F8AA
:104190001040AE4A91F83A4002F106021454AB4C7A
:1041A00091F83B2004F10904225404F1030491F82E
:1041B0003C20225404F1030491F83D20225404F1E0
:1041C000030491F83E20225404F1030291F83F10B9
:1041D000115400F10100C0B203289CD34FF000003D
:1041E00000F10100C0B20728FAD3BDE8F09FB15436
:1041F00042E770B501280CD14FF00004974D04F54B
:104200006570295D02F081FD04F10104E4B2402CE7
:10421000F5D370BD01280FD18C4848300178904803
:1042200021B1B0F90000002102F0A6BDB0F90000F4
:104230004FF0FF3102F0A0BD704701280FD1834835
:1042400048304178864821B1B0F90200002102F0DF
:1042500093BDB0F902004FF0FF3102F08DBD704701
:1042600001280FD17948483081787D4821B1B0F9D3
:104270000400002102F080BDB0F904004FF0FF31CE
:1042800002F07ABD704701280FD170484830C178DC
:10429000734821B1B0F90600002102F06DBDB0F9FC
:1042A00006004FF0FF3102F067BD7047012806D1CC
:1042B00066489038B0F94810862002F05DBD70471E
:1042C000012806D161489038B0F94A10802002F0E8
:1042D00053BD7047012806D15C489038B0F94C10A6
:1042E000C22002F049BD7047012806D157489038D6
:1042F000B0F94E10782002F03FBD704701280AD176
:104300005249584890390088B1F85010401A01B20B
:10431000C82002F031BD704710B501280DD14B4CBB
:104320007A20903CB4F9521002F026FDB4F95210F4
:10433000BDE810407C2002F01FBD10BD012806D151
:1043400042489038B0F952107A2002F015BD7047FB
:10435000012806D13D489038B0F954107C2002F075
:104360000BBD7047012806D138489038B0F9561077
:10437000822002F001BD7047012806D133489038F1
:10438000B0F95810842002F0F7BC7047012806D11C
:104390002E489038B0F95A10942002F0EDBC7047C6
:1043A000012806D129489038B0F95C10882002F025
:1043B000E3BC7047012806D124489038B0F95E105C
:1043C000922002F0D9BC7047012806D11F489038CE
:1043D000B0F960108C2002F0CFBC7047012806D1E4
:1043E0001A489038B0F962108E2002F0C5BC7047B0
:1043F000012806D115489038B0F96610962002F0D1
:10440000BBBC7047012806D110489038B0F96A103B
:10441000CE2002F0B1BC7047012806D10B4890387D
:10442000B0F96C10CC2002F0A7BC7047012806D16F
:1044300006489038B0F96E10C62002F09DBC704757
:10444000CEC00720E05A0010B4030820BC030010BF
:10445000070300105CC0072050FB0720C85900105C
:10446000C4E300004E0200100128E8D17A48B0F9F8
:1044700070107E2002F080BCE1E70128DFD1764891
:10448000B0F96410DE2002F077BCD8E70128D6D15D
:104490007148B0F972104FF4197002F06DBCCEE79C
:1044A0000128CCD16C48B0F9741040F2622002F0BF
:1044B00063BCC4E710B5012813D1674845F25552D3
:1044C0000146B0F94440D343E41EB1F94610062C2E
:1044D0001CD2DFE804F00A15031B1807A0F84420DB
:1044E000012910BDA0F8442010BD491E172902D88B
:1044F000A0F8443010BD4EF6EF61A0F8441010BD96
:10450000A0F8443010BDA0F8442010BD4EF6EE6176
:10451000A0F8441010BD012891D14F4801784FF404
:104520008270012902D0002102F026BC012102F094
:1045300023BC84E7012882D1474841784FF48A7030
:10454000012902D0002102F017BC012102F014BCA5
:1045500075E7012806D1404890F902104FF48370A6
:1045600002F00ABC6BE7012806D13B4890F9031022
:104570004FF4847002F000BC61E7012806D1364890
:1045800090F904104FF4857002F0F6BB57E701284C
:1045900006D1314890F905104FF4A37002F0ECBB3E
:1045A0004DE7012806D12C4890F906104FF4A2706F
:1045B00002F0E2BB43E7012806D1274890F9071033
:1045C0004FF4A17002F0D8BB39E7012806D1224888
:1045D00090F908104FF4A07002F0CEBB2FE701282D
:1045E00006D11D4890F909104FF49F7002F0C4BB2A
:1045F00025E7012806D1184890F90A104FF4A97050
:1046000002F0BABB1BE7012806D1134890F90B1042
:104610004FF4A87002F0B0BB11E7012806D10E4894
:1046200090F90C104FF4A77002F0A6BB07E7012821
:1046300006D1094890F90D104FF4A67002F09CBB0A
:10464000FDE6012806D1044890F90E104FF4A5703C
:1046500002F092BBF3E600002C0300102DE9F043BA
:10466000874C658805F1010565802578A84277D1DA
:10467000A68806F10106A680824D08782880487831
:1046800068808878A880C878E8802A8113F8287F15
:104690006F815978A9819A78EA81D87828824FEA7F
:1046A000072341EA03014FEA012142EA01024FEAEE
:1046B000022140EA010006F10106A6807249411874
:1046C0007248B0F90000C0EB4012C2EB002001EBD1
:1046D0000017A7626E48B7FBF0F6266206F10102EA
:1046E00062624FF00003E3626381E06A844600F295
:1046F0006D10E06261895FEA817802D100F101000A
:10470000E062E06A824205D8C4F82CC0A2EB0C003B
:10471000E08005E001F1010188B260816428E4D302
:1047200023814FF00100A081DFF86881B4F80AC04E
:10473000E3882189A08938F810200A4492B22281A6
:104740005FEA8C7904D1022802D102F101022281B0
:104750002289934205D82181A3EB0100E08106E084
:1047600030E000F1010080B2A0810D28E1D3A6EB7A
:10477000061000EB4000C0EB001007EBC0102063F8
:104780004FF46166B0FBF6F291B2218206FB12068D
:104790004FF03C07B6FBF7F082B2628207FB106075
:1047A00086B2A682AB82E08A00280BD03A4801721A
:1047B00002710670A0F81CC0A1890176E18901731D
:1047C000A0F12000BDE8F08338B52D4D28780028F1
:1047D0002BD0302009F04EFC04464FF030024FF051
:1047E0000001204604F018FE4FF0E30020704FF067
:1047F000000060704FF00600A0704FF0EC00E07019
:104800004FF0310121734FF04E006073A1734FF0F0
:104810003400E0734FF03000009023464FF07B02ED
:1048200005F11801287809F08FFC38BD70B5144CDB
:10483000E08A10B1A0F10100E082184D288800281C
:1048400016D0E069002813D0A0F10100E061002833
:104850000ED14FF00500E082FFF7B6FFB5F900007A
:10486000012806D0022808D0032801D10C48E061B5
:1048700070BD4FF46160E06170BD0548E06170BDDE
:1048800014C10720F05D0010003EE8437CC0072003
:104890008051010014EA000020400240A0020010F4
:1048A000803A090000B59DB0C0EBC00101EB0011DA
:1048B000F84800EB8100827890F84210836ACDE9D5
:1048C00000320291436AC269F3A104A805F088FC92
:1048D00004A81DB000BD2DE9F04387B08146F3491F
:1048E000487800F1010048704FF0280006F084F984
:1048F0000446DFF8BC8303AF06AD05AE282221468F
:10490000484607F0AFF88146207800281DD0E9A17D
:10491000204608F07DFF012818D0E7A1204608F0C6
:1049200077FF012827D0E6A1204608F071FF012873
:1049300036D0E4A1204608F06BFF012845D0E3A162
:10494000204608F065FF012854D067E0CDE90065F6
:104950003B1D03AADFA1E01C04F096FD039888F834
:104960000000049888F80100059888F8020006986D
:1049700088F8030052E0CDE900653B1D03AAD5A1EC
:10498000201D04F081FD039888F80800049888F839
:104990000900059888F80A00069888F80B003DE0A1
:1049A000CDE900653B1D03AACAA1E01C04F06CFD23
:1049B000039888F80400049888F80500059888F89A
:1049C0000600069888F8070028E0CDE900653B1D41
:1049D00003AAC0A1601D04F057FD039888F80C00DD
:1049E000049888F80D00059888F80E00069888F855
:1049F0000F0013E0CDE900653B1D03AAB5A1601DC2
:104A000004F042FD039888F81000049888F811001B
:104A1000059888F81200069888F81300B9F1000F7D
:104A20007FF46CAF204606F057FD07B0BDE8F08379
:104A3000F0B587B003460F469C4EB07800F10100F8
:104A4000B070F0781044F070002B56D1A44918468D
:104A50000870002A51D004464FF0280006F0CCF828
:104A6000054628222946384606F0FCFF07462878E6
:104A700000282DD09BA1284608F0CAFE012827D087
:104A80009BA1284608F0C4FE012838D09BA12846E7
:104A900008F0BEFE01281BD09BA1284608F0B8FEF6
:104AA000012815D09BA1284608F0B2FE01283BD072
:104AB00099A1284608F0ACFE01283CD098A12846D0
:104AC00008F0A6FE012803D097A1284608F0A0FE12
:104AD000002FC6D1284606F0FFFC032C0DD104A8F8
:104AE000FBF704FC82B201A904A807F02BFE012801
:104AF00003D104A98E4808F073FE07B0F0BD8DA164
:104B0000284604F09CFC20B1707800F10100707020
:104B1000DEE789A1284604F092FC0028D8D07078FE
:104B2000A0F101007070D3E7E91C04A808F058FE5A
:104B300044F00104CCE7291D01A808F051FE44F01F
:104B40000204C5E72DE9F04788B004460E469046BA
:104B50001F464FF0000555492078614B91F800C081
:104B6000662874D017DC4FF0010C622873D00BDC80
:104B70000A463228127802F10102D2B269D03328F3
:104B800068D0612832D117E063287DD064287CD0BA
:104B90006528F7D170E1524A7828526876D006DC51
:104BA000672874D06D2873D07328EBD103E279287D
:104BB0006FD07A28E6D1B9E3A0783D496D2816D0A8
:104BC00004DC67281FD06928DCD104E0702826D0D7
:104BD0007328D7D12FE0CA788878CDE900024B78C6
:104BE0000A78211D304605F0FBFA0546A4E3C87A91
:104BF0008A7ACDE900204B7A0A7A211D304605F0E9
:104C0000EFFA054698E3C8798A79CDE900204B7917
:104C10000A79211D304605F0E3FA05468CE3CA7B8C
:104C2000887BCDE900024B7B0A7B211D304605F0D5
:104C3000D7FA054680E3C87C8A7CCDE900204B7C0E
:104C40000A7C211D304605F0CBFA054674E359E194
:104C500001E049E359E3A0786328C7D0A0F1300010
:104C6000C0B2072801D94FF000000CFA00FC0CF08C
:104C7000FF00197831A2014200D110A2211D304657
:104C800005F0AEFA054657E35CE0BCE026E33EE102
:104C90006FE1E5E23CEC07202564202564202564D3
:104CA000202564203078253032780000EC00001098
:104CB000F868001069703D006D736B3D00000000E6
:104CC00067773D0070646E733D00000073646E731F
:104CD0003D00000025642E25642E25642E256400E9
:104CE00048C107206275743D627574300000000091
:104CF0006275743D62757431000000006275743D28
:104D000062757432000000006275743D6275743320
:104D10000000000070773D007077323D0000000019
:104D20006C6364313D0000006C6364323D00000040
:104D3000A4C10720706C00006D69000063686563A2
:104D40006B656400DFF8FC93DFF8FCA343E0388870
:104D5000FE4A00EB400101EBC00102EB810400F1CF
:104D60000100388006EB0500F9A105F039FA054489
:104D7000207801280DD800EB400101EBC000F1497B
:104D800000EB09033A8870197C3105F029FA0544D3
:104D90001CE002282BD02389E18B628994F807C09C
:104DA000CDE903C3CDE905216279A1792379029187
:104DB000CDE9003200EB400101EBC00000EB09033C
:104DC0003A887019E74905F00BFA054438889AF8D3
:104DD0000010884203D005F196004045B7D33888CB
:104DE0009AF80010884201D245F40045A4E2608997
:104DF000D44B009016333A88701903F1AE0105F0D8
:104E0000EFF90544E2E760783028EFD1A078313837
:104E10000728EBD2DFE800F0040D0D0E1B2229005D
:104E2000D1A0FBF7CCFC0246211D304605F0D8F995
:104E3000054681E2087900F1010008714FF0020295
:104E400004F10401304605F0CBF9054674E207226F
:104E5000211D304605F0C4F905466DE20522211DED
:104E6000304605F0BDF9054666E20322211D3046B5
:104E700005F0B6F905465FE206F0E6FD0546C3A17A
:104E8000284604F0F2FA68B3C1A1284604F0EDFA0E
:104E900050B3C1A1284604F0E8FA38B3C0A12846AF
:104EA00004F0E3FA20B3BFA1284604F0DEFA08B309
:104EB000BEA1284604F0D9FAF0B1BEA1284604F0FC
:104EC000D4FAD8B1BCA1284604F0CFFAC0B1BBA532
:104ED00006F0BAFD03462A46A11C304605F080F9CB
:104EE000054629E2B7A5F3E7B8A5F1E7BAA5EFE7CC
:104EF000BCA5EDE7BDA5EBE7BFA5E9E7C1A5E7E7E1
:104F0000C2A5E5E7A078312893D0322814E2A07832
:104F1000312804D0322808D033288AD11BE0211D43
:104F2000304605F05DF9054606E2104604F004FC43
:104F300004F007FC4FF06632B64B04F075FB6FF0DF
:104F4000090204F0E2FB02460B46211D304605F043
:104F500047F90546F0E14FF0640002FB00F24FEA2A
:104F600092225A6004F10401304605F039F90546F1
:104F7000E2E16078312804D032280BD03328B0D158
:104F800011E0A548E11CB0F90020304605F028F9F1
:104F90000546D1E1A148E11CB0F90020304605F0FA
:104FA0001FF90546C8E19E48E11C0268304605F03D
:104FB00017F90546C0E16078302802D0312890D139
:104FC0006EE0A07830380A288BD2DFE800F0050FB9
:104FD00019232D37414B555F0020FFF763FC024634
:104FE000211D304605F0FCF80546A5E10120FFF73C
:104FF00059FC0246211D304605F0F2F805469BE1BA
:105000000220FFF74FFC0246211D304605F0E8F86C
:10501000054691E10320FFF745FC0246211D30467D
:1050200005F0DEF8054687E10420FFF73BFC024669
:10503000211D304605F0D4F805467DE10520FFF737
:1050400031FC0246211D304605F0CAF8054673E1E1
:105050000620FFF727FC0246211D304605F0C0F868
:10506000054669E10720FFF71DFC0246211D304679
:1050700005F0B6F805465FE10820FFF713FC02468D
:10508000211D304605F0ACF8054655E10920FFF733
:1050900009FC0246211D304605F0A2F805464BE109
:1050A000A07830380A2885D2DFE800F0050F1923F0
:1050B0002D3741BCC6D00A20FFF7F4FB0246211D64
:1050C000304605F08DF8054636E10B20FFF7EAFB88
:1050D0000246211D304605F083F805462CE10C20E0
:1050E000FFF7E0FB0246211D304605F079F8054642
:1050F00022E10D20FFF7D6FB0246211D304605F0C8
:105100006FF8054618E10E20FFF7CCFB0246211D83
:10511000304605F065F805460EE10F20FFF7C2FBAB
:105120000246211D304605F05BF8054604E11020DB
:10513000FFF7B8FB0246211D304605F051F8054641
:10514000FAE0000030EA000095E3000084EA07205E
:105150003C747220616C69676E3D2263656E746594
:1051600072223E003CEB0000C0C1C2C3C4C5A8C649
:10517000C7C8C9CACBCCCDCEC0C1C2C3C4C5A8C6DE
:10518000C7C8C9CACBCCCDCE00000000656E0000F8
:10519000656E2D7573000000656E2D67620000005E
:1051A0006465000064652D636800000064652D611E
:1051B0007400000066720000736C0000556E6B6E28
:1051C0006F776E00456E676C69736800456E676C3B
:1051D0006973682055534100456E676C6973682098
:1051E000474200004765726D616E00004765726D51
:1051F000616E2043480000004765726D616E20417A
:10520000540000004672656E63680000536C6F7650
:10521000656E650066660A4052000010500000107E
:1052200000C007201120FFF73DFB0246211D30463C
:1052300004F0D6FF05467FE01220FFF733FB02465D
:10524000211D304604F0CCFF054675E01320FFF722
:1052500029FB0246211D304604F0C2FF05466BE0E3
:105260006078302808D06E2866D10422E11C3046D0
:1052700004F0B6FF05465FE0A078313805285BD220
:10528000DFE800F0030B131C24002DA36246211D50
:10529000304604F0A5FF05464EE04A7828A3211DBC
:1052A000304604F09DFF054646E025A345F6AA12C8
:1052B000211D304604F094FF05463DE021A3002265
:1052C000211D304604F08CFF054635E01FA3002267
:1052D000211D304604F084FF05462DE0611C304658
:1052E00004F07EFF054627E00A70627819A3A2F158
:1052F00030000CFA00FC5FEA8C7000D117A319A1F2
:10530000304604F06DFF054616E00A70627811A37E
:10531000A2F130000CFA00FC1CF0060F00D10FA324
:1053200010A1304604F05CFF054605E01AA2A11C5E
:10533000304604F055FF054608B0A8B2BDE8F08736
:105340002000000061626364656600006768696A46
:1053500000000000747275650000000066616C73E7
:10536000650000003C636865636B626F783E3C6972
:10537000643E627574746F6E25633C2F69643E3CB5
:105380006F6E3E25733C2F6F6E3E3C2F63686563E6
:105390006B626F783E000000656E64002DE9F04797
:1053A000102001F02BFCFF4C2080122001F026FC85
:1053B00060802C2001F022FCFB4C20802E2001F08C
:1053C0001DFC6080142001F019FCF84C2080162090
:1053D00001F014FC6080182001F010FCF44C2080D7
:1053E0001A2001F00BFC60801C2001F007FCF14C3E
:1053F00020801E2001F002FC6080202001F0FEFBD6
:10540000ED490880242001F0F9FBEC4908802620B2
:1054100001F0F4FBEA4C2080282001F0EFFB6080D3
:105420002A2001F0EBFBA080302001F0E7FBE54CE7
:105430002080322001F0E2FB6080342001F0DEFBAE
:10544000A080362001F0DAFBDF4C2080382001F00C
:10545000D5FB60803A2001F0D1FBA0803C2001F018
:10546000CDFBDA4908803E2001F0C8FBD84908800E
:10547000402001F0C3FBD7490880422001F0BEFB69
:10548000D5490880442001F0B9FBD4490880A62002
:1054900001F0B4FBD24C2080A82001F0AFFB60806B
:1054A000AA2001F0ABFBA080762001F0A7FBCD493C
:1054B0000880782001F0A2FBCB4908807A2001F017
:1054C0009DFBCA4908807C2001F098FBC8490880F0
:1054D0007E2001F093FBC7490880C62001F08EFBB7
:1054E000C5490880C82001F089FBC4490880822092
:1054F00001F084FBC2490880842001F07FFBC14990
:105500000880862001F07AFBBF490880882001F0DE
:1055100075FBBE490880DE2001F070FBBC490880A5
:105520004FF4D276304601F069FBBA4908808C20EE
:1055300001F064FBB84908808E2001F05FFBB74999
:105540000880902001F05AFBB54908804FF4AD70F7
:1055500001F054FBB34908804FF4C47001F04EFBD6
:10556000B14908804FF4C57001F048FBAF4908808D
:105570004FF4C67001F042FBAD4908804FF4C7708C
:1055800001F03CFBAB4908804FF4C87001F036FBDA
:10559000A94908804FF4CB7001F030FBA74908807F
:1055A0004FF4CC7001F02AFBA54908804FF4CD7070
:1055B00001F024FBA34908804FF4CE7001F01EFBDC
:1055C000A1490880B01F01F019FBA0490880341FD1
:1055D000204601F013FB9E490880A71C384601F0C5
:1055E0000DFB9C4908804FF4B27001F007FB9A490B
:1055F0000880922001F002FB98490880942001F075
:10560000FDFA97490880962001F0F8FA954908803C
:10561000982001F0F3FA944908804FF49B7001F050
:10562000EDFA924908809A2001F0E8FA9049088042
:105630000F2200218E48FAF7D5FD4FF4177001F0C4
:10564000DDFA8C4D288040F25E2001F0D7FADFF8B9
:105650002882A8F8000040F2662001F0CFFA8749BE
:1056600008804FF41A7001F0C9FA8549088028882B
:10567000B8F800100844834908804FF41B7001F00B
:10568000BDFA81490880802001F0B8FA7F4908807E
:10569000BC2001F0B3FA7E490870BE2001F0AEFADA
:1056A0007C490880C42001F0A9FA7B490880CA20FF
:1056B00001F0A4FA79490880CC2001F09FFA7849DA
:1056C0000880CE2001F09AFA764908804FF41970CC
:1056D00001F094FA7449088040F26A2001F08EFAD1
:1056E00072490880D02001F089FA71490880D220DF
:1056F00001F084FA6F490880D42001F07FFA6E49E6
:105700000880D62001F07AFA6C490880D82001F090
:1057100075FA6B490880DA2001F070FA694908804F
:10572000DC2001F06BFA68490880E22001F066FA9B
:1057300066490880E42001F061FA65490880FE208E
:1057400001F05CFA634908804FF4807001F056FA6A
:1057500061490880E62001F051FA60490870E820AC
:1057600001F04CFA5E490870EA2001F047FA5D4901
:105770000870EC2001F042FA5B490880EE2001F04D
:105780003DFA5A490880F02001F038FA584908805B
:105790004FF4B67001F032FA56490880F22001F059
:1057A0002DFAA9E00CC007203802001010C0072015
:1057B0003C02001014C0072018C007204602001049
:1057C0001AC0072010030010ECC0072020C00720DB
:1057D0004802001022C007204A02001004C007201F
:1057E0004002001024C007204C02001026C00720F1
:1057F0004E02001028C00720500200103AC00720B7
:10580000520200102CC00720540200102EC00720A6
:105810005602001030C007205802001032C0072086
:105820005A02001078C00720A00200107CC0072098
:10583000A20200107EC00720A402001080C0072032
:10584000A602001082C00720A802001084C0072012
:10585000AA02001086C007209E02001034C0072054
:105860005C02001036C007206600001080020010A5
:1058700068000010820200105CC007206A0000105F
:10588000840200105EC00720860200102AC0072094
:10589000CCC00720F002001060020010620200106D
:1058A0003CC00720640200103EC0072066020010C2
:1058B00040C007206802001042C007206A020010A2
:1058C00044C007206C02001046C007206E02001082
:1058D00048C00720700200104AC007204CC00720B3
:1058E0007602001052C007204EC00720740200103C
:1058F0007202001050C00720FF490880F42001F018
:105900007DF9FE490880F62001F078F9FC4908800D
:10591000F82001F073F9FB490880FA2001F06EF9D4
:10592000F9490880FC2001F069F9F84908804FF432
:10593000817001F063F9F64908804FF48B7001F033
:105940005DF9F44908804FF48C7001F057F9F24981
:1059500008804FF48D7001F051F9F04908804FF440
:105960008E7001F04BF9EE4908804FF4907001F011
:1059700045F9EC4908804FF4917001F03FF9EA498C
:1059800008804FF48F7001F039F9E84908804FF42E
:10599000927001F033F9E64908804FF4937001F0FA
:1059A0002DF9E44908804FF4957001F027F9E24998
:1059B00008804FF4967001F021F9E04908804FF417
:1059C000977001F01BF9DE4908804FF4987001F0E0
:1059D00015F9DC4908804FF4997001F00FF9DA49A4
:1059E00008804FF49A7001F009F9D84908804FF403
:1059F0009C7001F003F9D64908804FF49D7001F0C6
:105A0000FDF8D44908804FF4B77001F0F7F8D24997
:105A100008804FF4B87001F0F1F8D04908804FF4D5
:105A2000BA7001F0EBF8CE4908804FF4B97001F07C
:105A3000E5F8CC4908804FF4BB7001F0DFF8CA49A3
:105A400008804FF4BC7001F0D9F8C84908804FF4C1
:105A5000BD7001F0D3F8C64908804FF4BE7001F064
:105A6000CDF8C44908804FF4BF7001F0C7F8C249AF
:105A700008804FF4C07001F0C1F8C04908804FF4AD
:105A8000C17001F0BBF8BE4908804FF4C27001F04C
:105A9000B5F8BC4908804FF4C37001F0AFF8BA49BB
:105AA0000880204601F0AAF8B84D28704FF4DF7046
:105AB00001F0A4F8C1B26970B54A4FF00004148037
:105AC0002878552802D104F101001080552903D10E
:105AD000108800F101001080384601F08FF8AD4DBC
