:020000040000FA
:1000000098710010E1000000E5000000E70000002A
:10001000E9000000EB000000ED000000000000001F
:10002000000000000000000000000000EF000000E1
:10003000F100000000000000F30000002333000086
:10004000F7000000050200002B020000F70000008E
:10005000F700000027710000818B0000F70000000E
:10006000F7000000F7000000F7000000F7000000B4
:10007000F7000000F7000000F7000000F7000000A4
:10008000F7000000F7000000F7000000F700000094
:10009000F7000000F70000005B100000F700000010
:1000A000F7000000F7000000F7000000F700000074
:1000B00053920000F7000000F7000000F700000076
:1000C000F7000000F7000000F7000000DFF80CD098
:1000D00009F04AFD004800475934000098710010AB
:1000E00005480047FEE7FEE7FEE7FEE7FEE7FEE71E
:1000F000FEE7FEE7FEE7FEE7CD000000FEE710B5F5
:100100000CF062F80CF0F0F80CF0E2F80CF06EF87D
:10011000AFF30080BDE810400CF0ACB810B50CF0A7
:10012000B7FE0DF0EFFB0CF009FFBDE810400DF03D
:1001300079B80CF0C3BD0CF09BBB09B1002070472F
:100140000BF0A2B80020704730B500200C4BA3F193
:10015000140202F10A04115C51B1255CA94207D1D5
:10016000195C29B1491EC9B2195409B900211154A9
:10017000115C2154401CC0B20A28ECD330BD0000F1
:100180003C5900100849088170470749B1F9080037
:10019000002808D0401E00B20881002803D10021A9
:1001A000084600F05BBA704700C0072090F90030A5
:1001B0008B4200DA027090F90030934200DD01704A
:1001C000704790F900308B4200DA017090F900100E
:1001D000914200DD02707047B0F900308B4200DAC6
:1001E0000180B0F90010914200DD02807047B0F943
:1001F00000308B4200DA0280B0F90030934200DD1B
:10020000018070474FF04021012008600B480168D1
:10021000491C01600A48016821F0FF01091D0160C5
:10022000016841F080710160704706490120086053
:1002300002484168491C41607047000000580010A6
:1002400000400340008000401E49086A40F0004022
:1002500008621D4A5068C30709D01C4B1B8833B184
:100260008B6B43F000438B630621917003E0CB6BF3
:1002700043F00043CB63400850605078401E10F0BC
:10028000FF00507003D1202050709068506070477C
:1002900010B50D4A002420234F2909D041290BD045
:1002A00052290DD0532902D154609460537010BD6F
:1002B00050609460537010BD50609060537010BDDA
:1002C000906010BD00C00920085800103CC00720F5
:1002D000D2B201E000F8012B491EFBD27047002288
:1002E000F6E710B504460846114602462046FFF7D9
:1002F000EFFF204610BD704700207047FFFFFFFF53
:1003000000202021FF4A1154401CC0B2C828FAD353
:10031000704701460020FB4A401CC0B2135C8B4270
:1003200001D0C828F8D3704710B50021F64C0A2236
:100330000346B0FBF2F002FB10336354491CC9B210
:100340000529F5D310BDF0B5F04D01212970052127
:100350002026ED4B00272A7842B15A1812F8014C9A
:1003600024B9814202D902F8016C05E05A1812F84A
:10037000014D303414702F70491EC9B20029EAD1E2
:10038000F0BD70B50D4616461C46FFF7CDFF601C4C
:10039000C0B2FFF7D8FF05EB850006EB8000C1B2C5
:1003A0000020D94BD74DA04201D21A5C6A5406D323
:1003B0001A5C202A03D04CB16E1806F8012C491E95
:1003C000C9B2401CC0B20528EDD370BD6A54F6E72F
:1003D00030B5044608461546FFF79BFFFF2809D0B5
:1003E000C84A04E04319641CD154401CC0B22178AF
:1003F0000029F7D130BD70B50D461446FFF794FFC4
:10040000601CC0B2FFF79FFF2846FFF782FF002164
:10041000BD4ABC4D24B9535C202B01D02B5414E0B1
:10042000A14202D2535C2B540FE008D14FF02E03AF
:100430002B5405EB0006535C06F8013C05E0535CC9
:10044000202B02D02E1806F8013C401EC0B2491CD9
:10045000C9B20529DED370BDF0B50446084616467C
:100460001F46FFF756FF02461046A64DFF2804D14F
:1004700006E02954641C401CC0B221780029F8D140
:10048000A3480078002804D0002F02D05F209119E3
:100490006854F0BD2DE9F04F0746DDE909058846AF
:1004A00091469A46FFF735FF994B2021954C0A2239
:1004B0004FF0640C012D08D11E7836B12618A6F134
:1004C0000E06B1707170317015E097FBF2FB02FB04
:1004D0001B7E26180EF1300E06F80CEC9BFBF2FE8C
:1004E00002FB1EBB0BF1300B06F80DBC97FBFCF7B3
:1004F000303706F80E7C022D08D11E7836B126184A
:10050000A6F10A06B1707170317016E098FBF2F72F
:1005100002FB178B2618A6F10A060BF1300B86F8A2
:1005200002B097FBF2FB02FB1B7707F130077770F5
:1005300098FBFCF707F130073770032D08D11E78C0
:1005400036B12618A6F10606B1707170317016E04A
:1005500099FBF2F702FB17982618A6F1060608F198
:10056000300886F8028097FBF2F802FB187707F153
:100570003007777099FBFCF707F130073770042DCF
:1005800009D11B783BB121542044A0F102004170F5
:100590000170BDE8F08F9AFBF2F102FB11A330333A
:1005A000235491FBF2F302FB13112044A0F102004B
:1005B000303141709AFBFCF101F130010170E8E744
:1005C00030B5544901244F4B91F9012091F90410A1
:1005D0008A4204D100EB800003F8204030BD4D1C5E
:1005E000AA4205D1401C00EB800003F8204030BD3A
:1005F0008D1CAA4205D1801C00EB800003F820402E
:1006000030BDCD1CAA4205D1C01C00EB800003F810
:10061000204030BD0D1DAA4205D1001D00EB800019
:1006200003F8204030BD4D1DAA4205D1401D00EB0E
:10063000800003F8204030BD8D1DAA4205D1801DE9
:1006400000EB800003F8204030BDC91D8A42FBD179
:10065000C01D00EB800003F8204030BD2E4B1A88EF
:10066000521E12B21A80002A01DC00221A801A8857
:10067000104400B21880294A00EB8000024425484B
:100680001368036012790271427811444170704717
:1006900070B5214DB5F90040661C2E801F4D04EB4E
:1006A000840425441B4C26682E6026792E71207008
:1006B00061702271A37070BD2DE9F04180460F4634
:1006C0001646FFF71DFE0F4C002518F8010B04F825
:1006D000010B6D1CEDB2142DF7D3002017F8011B90
:1006E00004F8011B401CC0B21428F7D3002016F8F0
:1006F000011B04F8011B401CC0B21428F7D30020D2
:100700000EE00000E7000010E4C00720E9C0072069
:1007100024000010DD00001014C00720680308202A
:1007200013F8011B04F8011B401CC0B21428E7D3C6
:10073000BDE8F081FA491120087270472DE9F04FA9
:10074000064600220021F74841275E234FF0440C63
:100750004FF042084FF046094FF0470A4FF0480B60
:100760005824AAE0C02D7ED0C12D7DD0C22D7CD0D2
:10077000C32D7BD0C42D7AD0C52D79D0A82D78D0AB
:10078000C62D77D0C72D76D0C82D75D0C92D74D081
:10079000CA2D73D0CB2D72D0CC2D71D0CD2D70D071
:1007A000CE2D6FD0CF2D6ED0D02D6DD0D12D6CD061
:1007B000D22D6BD0D32D6AD0D42D69D0D52D68D051
:1007C000D62D67D0D72D66D0D82D7ED0D92D7DD00F
:1007D000DA2D7CD0DB2D7BD0DC2D7AD0DD2D79D0CD
:1007E000DE2D78D0DF2D77D0E02D76D0E12D75D0BD
:1007F000E22D74D0E32D73D0E42D72D0E52D71D0AD
:10080000B82D70D0E62D6FD0E72D6ED0E82D6DD0CD
:10081000E92D6CD0EA2D6BD0EB2D6AD0EC2D69D090
:10082000ED2D68D0EE2D67D0EF2D6FD0F02D6ED06E
:10083000F12D6DD0F22D6CD0F32D6BD0F42D6AD04C
:10084000F52D69D0F62D68D0F72D67D0F82D70D032
:10085000F92D6FD0FA2D6ED0FB2D6DD0FC2D6CD004
:10086000FD2D6BD018E048E059E068E073E07CE0D3
:1008700089E094E0A5E0B6E0C1E0CCE0D7E0E2E0BA
:10088000EDE0F8E003E10EE119E124E12FE13AE1C6
:100890004AE153E15CE167E1FE2D70D0FF2D6FD09E
:1008A000B02D6ED0B92D6DD01546521C8E46755D9B
:1008B000491C12B209B200F80E50B55C002D7FF44D
:1008C00051AF00224254BDE8F08F59E167E176E173
:1008D00085E194E1A3E1B2E1BDE1C8E1D3E1DEE16C
:1008E000E9E1F4E1FFE10AE21BE22CE237E242E255
:1008F0004DE258E263E26EE279E24D1C2DB24354C0
:10090000691C09B24755521C12B2D6E77BE286E257
:1009100091E29CE2A7E2B2E2BDE2C8E2D3E24D1C62
:100920002DB24354691C09B200F80580521C12B262
:10093000C3E7D4E2E5E2F6E207E318E329E34D1C5E
:100940002DB243544FF0570E691C09B200F805E070
:10095000521C12B2B1E74D1C2DB24354691C09B2AE
:1009600000F805A0521C12B2A7E74D1C2DB243544B
:10097000691C09B200F805C0521C12B29DE71AE3C7
:1009800025E330E341E34D1C2DB243544FF0450EB7
:10099000691C09B200F805E0521C12B28DE74D1C2B
:1009A0000FFA85FE43540EF101010DB200F80E401E
:1009B0004FF0450E691C09B200F805E0521C12B256
:1009C0007BE74D1C0FFA85FE43540EF101010DB279
:1009D00000F80E404FF0430E691C09B200F805E024
:1009E000521C12B269E74D1C2DB243544FF05A0EFF
:1009F000691C09B200F805E0521C12B25DE74D1CFB
:100A00002DB243544FF0490E691C09B200F805E0BD
:100A1000521C12B251E74D1C2DB243544FF04A0EF6
:100A2000691C09B200F805E0521C12B245E74D1CE2
:100A30002DB243544FF04B0E691C09B200F805E08B
:100A4000521C12B239E74D1C2DB243544FF04C0EDC
:100A5000691C09B200F805E0521C12B22DE74D1CCA
:100A60002DB243544FF04D0E691C09B200F805E059
:100A7000521C12B221E74D1C2DB243544FF04E0EC2
:100A8000691C09B200F805E0521C12B215E74D1CB2
:100A90002DB243544FF04F0E691C09B200F805E027
:100AA000521C12B209E74D1C2DB243544FF0500EA8
:100AB000691C09B200F805E0521C12B2FDE64D1C9B
:100AC0002DB243544FF0520E691C09B200F805E0F4
:100AD000521C12B2F1E64D1C2DB243544FF0530E8E
:100AE000691C09B200F805E0521C12B2E5E64D1C83
:100AF0002DB243544FF0540E691C09B200F805E0C2
:100B0000521C12B2D9E64D1C2DB243544FF0550E73
:100B1000691C09B200F805E0521C12B2CDE60000D3
:100B2000004002403CFA07204D1C2DB24354691C82
:100B300009B200F80590521C12B2BEE64D1C2DB24F
:100B40004354691C09B200F805B0521C12B2B4E655
:100B50004D1C2DB243544FF0430E691C09B200F8EE
:100B600005E0521C12B2A8E64D1C2DB243544FF0C2
:100B7000590E691C09B200F805E0521C12B29CE63D
:100B80004D1C0FFA85FE43540EF101010DB200F821
:100B90000E40691C09B24755521C12B28DE64D1C1D
:100BA0000FFA85FE43540EF101010DB200F80E401C
:100BB000691C09B200F805C0521C12B27DE64D1C3A
:100BC0000FFA85FE43540EF101010DB200F80E40FC
:100BD000691C09B200F80580521C12B26DE64D1C6A
:100BE0000FFA85FE43540EF101010DB200F80E40DC
:100BF000691C09B200F80590521C12B25DE64D1C4A
:100C00000FFA85FE43540EF101010DB200F80E40BB
:100C1000691C09B200F805A0521C12B24DE64D1C29
:100C20000FFA85FE43540EF101010DB200F80E409B
:100C3000691C09B200F805B0521C12B23DE64D1C09
:100C40002DB243544FF0560E691C09B200F805E06E
:100C5000521C12B231E64D1C2DB243544FF0510ECE
:100C6000691C09B200F805E0521C12B225E64D1CC1
:100C70002DB243544FF0610E691C09B200F805E033
:100C8000521C12B219E64D1C2DB243544FF0620EA5
:100C9000691C09B200F805E0521C12B20DE64D1CA9
:100CA0002DB243544FF0770E691C09B200F805E0ED
:100CB000521C12B201E64D1C2DB243544FF0670E88
:100CC000691C09B200F805E0521C12B2F5E54D1C92
:100CD0002DB243544FF0640E691C09B200F805E0D0
:100CE000521C12B2E9E54D1C2DB243544FF0650E73
:100CF000691C09B200F805E0521C12B2DDE54D1C7A
:100D00000FFA85FE43540EF101010DB200F80E40BA
:100D10004FF0650E691C09B200F805E0521C12B2D2
:100D2000CBE54D1C0FFA85FE43540EF101010DB2C7
:100D300000F80E404FF0630E691C09B200F805E0A0
:100D4000521C12B2B9E54D1C2DB243544FF07A0E2D
:100D5000691C09B200F805E0521C12B2ADE54D1C49
:100D60002DB243544FF0690E691C09B200F805E03A
:100D7000521C12B2A1E54D1C2DB243544FF06A0E25
:100D8000691C09B200F805E0521C12B295E54D1C31
:100D90002DB243544FF06B0E691C09B200F805E008
:100DA000521C12B289E54D1C2DB243544FF06C0E0B
:100DB000691C09B200F805E0521C12B27DE54D1C19
:100DC0002DB243544FF06D0E691C09B200F805E0D6
:100DD000521C12B271E54D1C2DB243544FF06E0EF1
:100DE000691C09B200F805E0521C12B265E54D1C01
:100DF0002DB243544FF06F0E691C09B200F805E0A4
:100E0000521C12B259E54D1C2DB243544FF0700ED6
:100E1000691C09B200F805E0521C12B24DE54D1CE8
:100E20002DB243544FF0720E691C09B200F805E070
:100E3000521C12B241E54D1C2DB243544FF0730EBB
:100E4000691C09B200F805E0521C12B235E54D1CD0
:100E50002DB243544FF0740E691C09B200F805E03E
:100E6000521C12B229E54D1C2DB243544FF0750EA1
:100E7000691C09B200F805E0521C12B21DE54D1CB8
:100E80002DB243544FF0660E691C09B200F805E01C
:100E9000521C12B211E54D1C2DB243544FF0680E96
:100EA000691C09B200F805E0521C12B205E54D1CA0
:100EB0002DB243544FF0630E691C09B200F805E0EF
:100EC000521C12B2F9E44D1C2DB243544FF0790E6E
:100ED000691C09B200F805E0521C12B2EDE44D1C89
:100EE0000FFA85FE43540EF101010DB200F80E40D9
:100EF0004FF0610E691C09B200F805E0521C12B2F5
:100F0000DBE44D1C0FFA85FE43540EF101010DB2D6
:100F100000F80E404FF0640E691C09B200F805E0BD
:100F2000521C12B2C9E44D1C0FFA85FE43540EF157
:100F300001010DB200F80E404FF0620E691C09B2BB
:100F400000F805E0521C12B2B7E44D1C0FFA85FE02
:100F500043540EF101010DB200F80E404FF0660E41
:100F6000691C09B200F805E0521C12B2A5E44D1C40
:100F70000FFA85FE43540EF101010DB200F80E4048
:100F80004FF0670E691C09B200F805E0521C12B25E
:100F900093E44D1C0FFA85FE43540EF101010DB28E
:100FA00000F80E404FF0680E691C09B200F805E029
:100FB000521C12B281E44D1C2DB243544FF0760EF8
:100FC000691C09B200F805E0521C12B275E44D1C10
:100FD0002DB243544FF0710E691C09B200F805E0C0
:100FE000521C12B269E44D1C0FFA85FE43540EF1F7
:100FF00001010DB200F80E404FF0690E691C09B2F4
:1010000000F805E0521C12B257E44D1C0FFA85FEA1
:1010100043540EF101010DB200F80E404FF06A0E7C
:10102000691C09B200F805E0521C12B245E410B583
:10103000FD48C0240470A82242700023837014214C
:10104000C170FF21017241728172C37204714271D9
:10105000022181710121C17110BDF448016821F0A4
:10106000E06101607047F2490020087048708870A4
:101070002D31487070472DE9F0410020ED4B0021E3
:101080004FF4F4721954401C00B29042FADB002273
:101090004FF0140C7A2102FB01F002EB820189006F
:1010A00009B202EB82040CEB84071DE0E04CE24E37
:1010B0003734645C04EB4405441C16F8158003F8CF
:1010C000008006EB4500661C45781D558478751C2C
:1010D0009C55C4786E1C5C550579741C9D554579EA
:1010E000601C1D55491C09B28F42DFDC521C12B234
:1010F000042ACFDBBDE8F0812DE9F047ADF5AD6DF9
:10110000CB4DA03DB5F84200B5F844100844287016
:10111000A879401CC0B2A8710027142807D3AF716A
:101120006879401CC0B26871052800D36F71C04C4B
:101130000DF5806C2D342146227891F90100A1F142
:101140004D0691F90410012A02D0C42A7ED0D2E2C1
:10115000BAA2CDF80024B9A2CDF80424B7A2CDF8E4
:101160000824B6A2CDF80C2428B10A1A022A04DDFC
:10117000801C207104E0277102E0884200DD2071AC
:1011800095F80580B8F1050F0FD294F90400C11C41
:101190005CF82130811C401C5CF821205CF8201098
:1011A000DDF80004FFF788FA11E094F90400A8F1D3
:1011B0000508C11C5CF82130811C401C5CF8212012
:1011C0005CF8201006A850F82800FFF775FAE879B7
:1011D000B08A0122232180B2FFF70DF9F08A0122A3
:1011E000242180B2FFF707F9DFF8688298F8280019
:1011F00000222521FFF7FFF898F8240000225E2145
:10120000FFF7F9F898F8200000222621FFF7F3F8FD
:1012100098F82C0000223C21FFF7EDF8B8F83C00CC
:1012200000227B21FFF7E7F898F838004FF001091A
:1012300018B198F838000C2801D988F8389098F837
:1012400038008549002201EB800000E014E13E21D6
:10125000FFF7BEF8DFF8D881287D08F1370880B1A4
:101260003A20FFF756F84FF0200A08F800A03A207D
:10127000FFF74FF808F800A03A20FFF74AF808F8FF
:1012800000A094F9040090B194F9011079B188425A
:1012900002D188F83C900AE0401A012802D00228C6
:1012A00003D004E088F8289001E088F81490287AA8
:1012B000401CC1B22972B5F9400000EB8002B1EBCD
:1012C000820F00DB2F7268B1287A1424B0FBF4F18E
:1012D000DFF85C814846A8F1580898F80020552AA4
:1012E00008D106E06FF001027A215CA0FFF770F8E8
:1012F00041E000200844401C00227A21FFF77BF8DF
:10130000287A98F80010B0FBF4F0552901D14FF07D
:1013100000094844401C00227A21FFF76CF8B5F818
:101320004000544F01280AD198F80000552806D0F3
:10133000B7F84E0001225D21FFF75DF80DE0287A35
:101340000122B0FBF4F000EB400101EB001007EBD1
:1013500080005D214088FFF74EF8287A0122B0FB1B
:10136000F4F000EB400101EB001007EB80005D2181
:101370004088FFF740F8A88D00230422194680B268
:10138000FEF7FFFFE88D00230822194680B2FEF722
:10139000F8FF274C00232834032220780121FEF790
:1013A000F0FF6078002307220121FEF7EAFFA07812
:1013B00000230B220121FEF7E4FFE07800230F2237
:1013C0000121FEF7DEFF2079002313220121FEF721
:1013D000D8FF284C002398340322E069022180B210
:1013E000FEF7CFFFA06F032280B200231146FEF765
:1013F000C8FF0D4C0023072220780221FEF7C1FF11
:10140000607800230B220221FEF7BBFFA0780023A7
:101410000F220221FEF7B5FFE078002313220221FC
:10142000FEF7AFFF5EE300005C31082000400340A0
:10143000B00000103CF60720F0E100002020202042
:10144000202020202020202020202020202020209C
:101450000000000000400240F0E7000020D0E0E182
:10146000EEF2E020E1E5E720E1E0F2E0F0E5E9205E
:101470000000000038EB07209F4AD2E90D38D26BFC
:10148000CDE9033805929DA2CDF80024A1A2CDF8A4
:101490000424A6A2CDF80824AAA2CDF80C24AFA259
:1014A000CDF81024B3A2CDF81424B8A2CDF8182496
:1014B000BCA2CDF81C24C1A2CDF82024C5A2CDF831
:1014C0002424CAA2CDF82824CEA2CDF82C24D3A25D
:1014D000CDF83024D7A2CDF83424DCA2CDF83824BE
:1014E000E0A2CDF83C24E5A2CDF84024E9A2CDF855
:1014F0004424EEA2CDF84824F2A2CDF84C24F7A261
:10150000CDF85024FBA2CDF85424B5F84A2052B9A6
:10151000F8A2CDF80424AFF2DC02CDF80824AFF233
:10152000E402CDF80C24884201DA207104E0411A6B
:10153000022901DD801E207194F90400811C5CF8F1
:101540002130411C5CF821205CF82010EFA0FFF74F
:10155000B3F80120FFF734F8B5F84A006FF002083D
:101560006FF0030928B142462121EEA0FEF730FFBB
:1015700004E04A462121EDA0FEF72AFFB5F84C0011
:1015800028B142464021E7A0FEF722FF04E04A4688
:101590004021E6A0FEF71CFF6078022842D000231D
:1015A0002322CDE90023B5F95430B5F95220B5F91D
:1015B0005010B5F94E00FEF76DFF6078042842D058
:1015C00000232422CDE90023B5F95C30B5F95A2077
:1015D000B5F95810B5F95600FEF75CFF607806289B
:1015E00042D000232922CDE90023B6F91030B6F904
:1015F0000E20B6F90C10B6F90A00FEF74BFFF08882
:1016000000225B2180B2FEF7F6FE308900225D21C8
:1016100080B2FEF7F0FEB5F95E006FF00D08FF280E
:1016200033D03EE0A0782322401CC3B2CDE9002392
:10163000B5F95430B5F95220B5F95010B5F94E004E
:10164000FEF728FFB9E7A0782422401CC3B2CDE9F9
:101650000023B5F95C30B5F95A20B5F95810B5F941
:101660005600FEF717FFB9E7A0782922401CC3B245
:10167000CDE90023B6F91030B6F90E20B6F90C10FA
:10168000B6F90A00FEF706FFB9E7B5F86010FF29C2
:1016900007D1B5F86210FF2903D1B5F86410FF290E
:1016A00013D061780B2916D000232522CDE9002321
:1016B000B5F96430B5F96220B5F96010FEF7EAFEBD
:1016C000B5F96600FF2815D04AE14246252199A0C8
:1016D000FEF77EFEF4E7A1782522491CCBB2CDE9C6
:1016E0000023B5F96430B5F96220B5F96010FEF752
:1016F000D1FEE5E728E1F5E1F0E700002045746858
:1017000065726E657420202020202020202021205A
:10171000000000002044484350EAEBE8E5EDF220E9
:10172000202020202020402000000000204950E000
:10173000E4F0E5F12020202020202020202020207F
:101740000000000020203030302E3030302E30307D
:10175000302E3030232020200000000020CCE0F18B
:10176000EAE020EFEEE4F1E5F2E82020202020205E
:101770000000000020203030302E3030302E30304D
:10178000302E3030242020200000000020D8EBFE36
:10179000E720202020202020202020202020202082
:1017A0000000000020203030302E3030302E30301D
:1017B000302E3030292020200000000020CFEEF015
:1017C000F22EF7F2E5EDE8FF202020202020205B1C
:1017D0000000000020CFEEF0F22EE7E0EFE8F1E8A5
:1017E000202020202020205D0000000020436F6D7D
:1017F0006D756E697479203C2020202020202020E7
:101800000000000020C0E4F0E5F1E0F220E4EBFF8E
:101810002054524150204E31000000002020303032
:10182000302E3030302E3030302E303025202020F9
:101830000000000020C0E4F0E5F1E0F220E4EBFF5E
:101840002054524150204E32000000002020303001
:10185000302E3030302E3030302E30305E20202090
:101860000000000020C0E4F0E5F1E0F220E4EBFF2E
:101870002054524150204E330000000020203030D0
:10188000302E3030302E3030302E30302620202098
:101890000000000020C0E4F0E5F1E0F220E4EBFFFE
:1018A0002054524150204E3400000000202030309F
:1018B000302E3030302E3030302E30302A20202064
:1018C0000000000020C0E4F0E5F1E0F220E4EBFFCE
:1018D0002054524150204E3500000000202030306E
:1018E000302E3030302E3030302E30302820202036
:1018F0000000000020C2FBF5EEE420202020202084
:1019000020202020202020200000000020D3D1D241
:10191000C0CDCEC2CAC82045746865726E65742099
:1019200000000000C2CACB2E00000000C2DBCACB00
:101930002E00000020202020EDE5E0EAF2E8E2E5BC
:10194000ED20202020000000B5F86810FF2907D105
:10195000B5F86A10FF2903D1B5F86C10FF2913D030
:1019600061780D2917D000235E22CDE90023B5F957
:101970006C30B5F96A20B5F96810FEF78BFDB5F942
:101980006E00FF2816D021E042465E21AFF25C00D7
:10199000FEF71EFDF3E7A1785E22491CCBB2CDE92C
:1019A0000023B5F96C30B5F96A20B5F96810FEF777
:1019B00071FDE4E7B5F87010FF2907D1B5F8721092
:1019C000FF2903D1B5F87410FF2913D061780F29CE
:1019D00017D000232622CDE90023B5F97430B5F9DC
:1019E0007220B5F97010FEF755FDB5F97600FF28A5
:1019F00016D021E042462621AFF2C800FEF7E8FCEF
:101A0000F3E7A1782622491CCBB2CDE90023B5F932
:101A10007430B5F97220B5F97010FEF73BFDE4E7BC
:101A2000B5F87810FF2907D1B5F87A10FF2903D14E
:101A3000B5F87C10FF2913D06178112917D0002345
:101A40002A22CDE90023B5F97C30B5F97A20B5F921
:101A50007810FEF71FFDB5F97E00FF2816D01EE0B6
:101A600042462A21AFF23410FEF7B2FCF3E7A17828
:101A70002A22491CCBB2CDE90023B5F97C30B5F957
:101A80007A20B5F97810FEF705FDE4E73188FF29E3
:101A900005D17188FF2902D1B188FF2936D061783C
:101AA00013293AD000232822CDE90023B6F90430C7
:101AB000B6F90220B6F90010FEF7ECFC0020FA4956
:101AC00003AA0B5C1354401CC0B20928F9D38DF84B
:101AD000157060780A282FD0A27800233C2103A833
:101AE000FEF7BAFCE87D00282DD0401EE87506F10F
:101AF0002C000FC8FEF7E0FD308B2A7E0DF5AD6D92
:101B00004021BDE8F04780B2FEF775BC424628216F
:101B1000AFF2E010FEF75CFCD0E7A1782822491C68
:101B2000CBB2CDE90023B6F90430B6F90220B6F9FC
:101B30000010FEF7AFFCC1E7A27801233C2103A807
:101B4000FEF78AFCCEE70DF5AD6DBDE8F0872DE917
:101B5000F043D649086A40F400100862486B20F44C
:101B600000104863086A20F0F8600862D048C26C30
:101B7000D04B1A40C264086C40F480700864486D11
:101B800020F480704865002000BF00BF00BF00BF88
:101B900000BF00BF00BF00BF401CC0B2C828F3D3C5
:101BA000086C40F480700864486D40F480704865AB
:101BB000486BC14F60F0F860820D3A64A7F1800372
:101BC00038461C7F456C587F997FA2F5407905F017
:101BD0007F064FF0010C4FF00008B9F1FF0901D06A
:101BE000AA4218D083F81F80042C00D228B193F8A1
:101BF000204014B983F821C0DD76884202D383F8EF
:101C000021C0DE7683F820801420987783F81C802A
:101C100083F81D801AE0641CE4B21C77042C15D3F1
:101C200083F81C80401CC0B2587788420ED3DE7601
:101C300083F81D8083F821C083F820C0D87F28B1A5
:101C400048089877022801D8022098777A64BDE87E
:101C5000F0832DE9F05F984F803F002697F8210030
:101C600008B307F1CD00FA7E0378934DF92A0BD023
:101C70000124E72A1DD0792A15D07A2A1FD04FF0E7
:101C8000050AFE2A25D027E08B2B0DD0D5F84D0074
:101C9000C5F8520015F8510F687100231A4610213B
:101CA0008B20FEF7F5FC47E000210846FEF7D6FC46
:101CB00042E0EC6353210020FEF7EAFA3CE097F89B
:101CC000230018B187F82360FE7735E087F82340BA
:101CD000FAE73979032913D077494D318B2B91F9E4
:101CE000011001F1010C4FFA8CF8A1F1010C4FFA2F
:101CF0008CF90DD0012B65D08046C42B7CD01BE025
:101D000087F804A005214FF4B47005F09BF813E0A8
:101D1000EF2A12D0F72A19D0044601291FD005292D
:101D20000AD020460E2938D063494D31FD2A91F959
:101D3000041037D0FB2A3DD02EE080F801800671D8
:101D400010220021401CFEF731FA25E080F80190B6
:101D5000067110220021401CFEF728FA1CE0FD2A23
:101D600007D1A078401EA0701E220021A01CFEF703
:101D700028FAF87EFB2807D1A078401CA0701E220C
:101D80000021A01CFEF71DFAF87EFE2804D1267063
:101D90006670A670E670267103E0FE2A01D102F09B
:101DA000CAFD5CE0491E017104220021001DFEF7FE
:101DB00008FA54E0491C017104220021001DFEF7BD
:101DC00000FA4CE0DFF8F0A0FB2AAAF1800ABAF989
:101DD0004440BAF94030BAF9425003EB040BBAF967
:101DE00046A0AB4409D0FD2A17D0F72A25D0FE2AF9
:101DF00025D07E2A57D032E041E180F80180BAF147
:101E0000000F01D0012100E0002159440C314AB2F9
:101E10000021401CFEF7D5F921E080F80190BAF1CD
:101E2000000F01D0012100E0002159440C314AB2D9
:101E30000021401CFEF7C5F911E046700FE00029B3
:101E40000DD015DD994213DC1B4838380078552831
:101E500006D00022012311462320FEF719FC68E07A
:101E600000220CF0FF0311462320FEF711FC60E076
:101E7000DFF84480A8F1800808F1CD02B8F940C02D
:101E800092F90120B8F94280A2EB0C02521EC44420
:101E9000994213DD614511DCD3B2002211462D2099
:101EA000FEF7F6FB45E0DFE0A603082000C00920AE
:101EB00000C00240FF0FC0FF9000001061450ADD26
:101EC00023442B44994206DCD3B200221146C5209C
:101ED000FEF7DEFB2DE00CEB0402531C99420AD105
:101EE00000231A4619461420FEF7D2FB4FF47A70ED
:101EF000FEF748F91DE0931C99420AD100231A46C7
:101F000019464A20FEF7C4FB4FF47A70FEF73AF9FF
:101F10000FE0D31C99420CD0131D99420AD1002323
:101F20001A460121C120FEF7B3FB4FF47A70FEF789
:101F300029F998E0531D99420DD1BAF1000F0AD04A
:101F400000231A461946C320FEF7A2FB4FF47A700D
:101F5000FEF718F987E0BAF1000F01D0012300E085
:101F6000002363449B1D8B420AD100231A46194665
:101F70004220FEF78DFB4FF47A70FEF703F972E012
:101F8000BAF1000F01D0012300E000231344DB1D50
:101F90008B420BD100231A4619463020FEF778FBFE
:101FA0003220FEF7EFF8FFF75EF85CE0BAF1000FC1
:101FB00001D0012300E00023134408338B420AD1EF
:101FC00000231A461946B820FEF762FB4FF47A70D8
:101FD000FEF7D8F847E0BAF1000F01D0012300E086
:101FE0000023134409338B4201D146703BE0BAF120
:101FF000000F01D0012000E0002010440A30884288
:102000000AD100231A461946BA20FEF741FB4FF4C5
:102010007A70FEF7B7F826E0BAF1000F01D0012080
:1020200000E0002010440B3088420AD10022012336
:102030001146BA20FEF72CFB4FF47A70FEF7A2F897
:1020400011E0BAF1000F01D0012000E0002010449F
:102050000C30884207D100231A4619465B20FEF750
:1020600017FBFFF700F8D8E000231A461946C420F2
:10207000FEF70EFB4FF47A70FEF784F8CDE04FF4D4
:102080007A70FEF77FF80122B7F94A0000B11522F5
:10209000F97E4FF00D094FF00F0BFB2911D0FD29F0
:1020A0007AD07B2975D040F2CE294FF4347A40F2B1
:1020B000D22B67296ED098F90130F3B3012B6AD087
:1020C000A1E198F80100401C41B288F801100229F2
:1020D00006D198F8040018B988F8044088F802601E
:1020E0004046032904D10421417003210171867007
:1020F0004178052904D10621417080F804A086703A
:102100004178072902D108214170867090F90110A9
:102110000A2900D186700B2902D10A230371867027
:102120000C2901D180F8019090F901100D2902D1FC
:102130000C23037186700E2900E03DE101D180F887
:1021400001B090F901100F2902D10E23037186709E
:10215000102901D11121417090F90110112902D1EA
:10216000102303718670122901D11321417090F957
:102170000110132902D1122303718670142901D191
:102180001521417052B20021401CFEF71AF844E0BC
:1021900002E043E045E022E198F80100401E88F8A3
:1021A000010052B2002108F10100FEF70AF898F888
:1021B0000100142802D1132088F8010098F80100CA
:1021C000122802D1112088F8010098F80100102887
:1021D00001D188F801B098F801000E2801D188F8E3
:1021E000019098F801000C2802D10B2088F801001A
:1021F00098F80100072802D1062088F8010098F815
:102200000100052802D1042088F8010098F8010097
:10221000032802D1022088F80100D9E088F80120C3
:10222000D6E001214FF4337004F042FE012148460C
:1022300004F03EFEC021504604F03AFEA821584664
:1022400004F036FE01214FF4357004F031FEFB211D
:1022500040F2D62004F02CFEFF214FF4367004F03B
:1022600027FEFF2140F2DA2004F022FEFF214FF486
:10227000377004F01DFE002140F2DE2004F018FE4D
:10228000C0214FF4437004F013FEA82140F20E3039
:1022900004F00EFE01214FF4447004F009FEFE210B
:1022A00040F2123004F004FEA1214FF4427004F019
:1022B000FFFDA22140F20A3004F0FAFD312140F284
:1022C000DA3004F0F5FD32214FF4777004F0F0FDC0
:1022D000332140F2DE3004F0EBFD00214FF4787042
:1022E00004F0E6FD002140F2E23004F0E1FDFF21C0
:1022F0004FF4387004F0DCFDFF2140F2E22004F0DE
:10230000D7FDFF214FF4397004F0D2FDFF2140F2D8
:10231000E62004F0CDFDFF214FF43A7004F0C8FD33
:10232000FF2140F2EA2004F0C3FDFF214FF43B708F
:1023300004F0BEFDFF2140F2EE2004F0B9FDFF21C4
:102340004FF43C7004F0B4FDFF2140F2F22004F0A1
:10235000AFFDFF214FF43D7004F0AAFDFF2140F2D4
:10236000F62004F0A5FDFF214FF43E7004F0A0FD1F
:10237000FF2140F2FA2004F09BFDFF214FF43F7053
:1023800004F096FDFF2140F2FE2004F091FDFF21B4
:102390004FF4407004F08CFDFF2140F2023004F055
:1023A00087FDFF214FF4417004F082FDFF2140F2D0
:1023B000063004F07DFD0BE0FE2903D0F72901D0A3
:1023C000EF2905D128B100214FF4337004F070FDDE
:1023D00013E001214FF4337004F06AFD0DE090B179
:1023E000FE2903D0F72901D0EF2906D1B7F84C0018
:1023F00020B10021484604F05BFD1FE00121484662
:1024000004F056FD1AE0022B19D0042B73D0062BD2
:1024100072D0082B71D0092B70D00A2B6FD0404698
:102420000B2B6DD00D2B6CD00F2B6BD0112B6AD0DA
:10243000132B69D0934201D1FE2978D012E27E2974
:1024400009D098F9020090B101283AD0022871D041
:1024500003286ED006E298F80200401C88F80200BB
:102460000322002108F10200FDF7A0FEFAE1EF29A6
:1024700006D06F2904D0F72912D0772910D01EE09A
:10248000B7F84E00401CA7F84E00FF220021FA4882
:10249000FDF7ADFEB7F94E10504604F009FD0EE011
:1024A000B7F84E00401EA7F84E00FF220021F24868
:1024B000FDF79DFEB7F94E10504604F0F9FCFC778D
:1024C000D0E1EF2906D06F2904D0F7291DD0772954
:1024D0001BD02AE0B7F85000401CA7F85000E6488F
:1024E000FF220021801CFDF782FEB7F950105846EC
:1024F00004F0DEFC19E079E049E109E228E247E274
:10250000C5E293E3F4E3F4E3F4E3B7F85000401ECC
:10251000A7F85000D848FF220021801CFDF767FE75
:10252000B7F95010584604F0C3FCFC779AE1F5E384
:1025300000E02DE0EF2906D06F2904D0F72914D050
:10254000772912D022E0B7F85200401CA7F85200B9
:10255000C948FF220021001DFDF749FEB7F95210BE
:102560004FF4357004F0A4FC10E0B7F85200401EA0
:10257000A7F85200C048FF220021001DFDF737FEDA
:10258000B7F952104FF4357004F092FCFC7769E112
:10259000EF2906D06F2904D0F72914D0772912D05B
:1025A00022E0B7F85400401CA7F85400B248FF22BC
:1025B0000021801DFDF71BFEB7F9541040F2D62014
:1025C00004F076FC10E0B7F85400401EA7F8540061
:1025D000A948FF220021801DFDF709FEB7F954101C
:1025E00040F2D62004F064FCFC773BE17E2909D060
:1025F00098F9020090B101283ED002286AD0032841
:1026000071D02FE198F80200401C88F802000322E4
:10261000002108F10200FDF7C9FD23E1EF2906D0F2
:102620006F2904D0F72914D0772912D022E0B7F807
:102630005600401CA7F856008F48FF2200210830A2
:10264000FDF7D5FDB7F956104FF4367004F030FCA5
:1026500010E0B7F85600401EA7F856008648FF2243
:1026600000210830FDF7C3FDB7F956104FF436705E
:1026700004F01EFCFC77F5E0EF2906D06F2904D0AA
:10268000F72914D0772912D022E0B7F85800401C5F
:10269000A7F858007848FF2200210A30FDF7A7FD6F
:1026A000B7F9581040F2DA2004F002FC10E0B7F855
:1026B0005800401EA7F858006F48FF2200210A303A
:1026C000FDF795FDB7F9581040F2DA2004F0F0FB61
:1026D000FC77C7E0EF2907D06F2905D0F72915D07F
:1026E000772913D023E024E0B7F85A00401CA7F85C
:1026F0005A006148FF2200210C30FDF778FDB7F940
:102700005A104FF4377004F0D3FB10E0B7F85A00BA
:10271000401EA7F85A005848FF2200210C30FDF750
:1027200066FDB7F95A104FF4377004F0C1FBFC771F
:1027300098E0EF2906D06F2904D0F72914D0772923
:1027400012D022E0B7F85C00401CA7F85C004A48B1
:10275000FF2200210E30FDF74AFDB7F95C1040F270
:10276000DE2004F0A5FB10E0B7F85C00401EA7F8DF
:102770005C004148FF2200210E30FDF738FDB7F91B
:102780005C1040F2DE2004F093FBFC776AE07E29C7
:1027900009D098F9020090B101283AD0022862D0FD
:1027A00003286BD05EE098F80200401C88F8020015
:1027B0000322002108F10200FDF7F8FC52E0EF29A6
:1027C00006D06F2904D0F72912D0772910D01EE047
:1027D0006889401C68812848FF2200213C30FDF7B1
:1027E00006FDB5F90A104FF4437004F061FB0EE0EA
:1027F0006889401E68812048FF2200213C30FDF797
:10280000F6FCB5F90A104FF4437004F051FBFC7765
:1028100028E0EF2906D06F2904D0F72912D07729B4
:1028200010D01EE0A889401CA8811348FF22002177
:102830003E30FDF7DCFCB5F90C1040F20E3004F030
:1028400037FB0EE0A889401EA8810B48FF2200211B
:102850003E30FDF7CCFCB5F90C1040F20E3004F020
:1028600027FBFC7712E1EF2909D06F2907D0F72960
:1028700014D0772912D01FE05E0000101EE0E88916
:10288000401CE881FF220021FF48FDF7B0FCB5F9AC
:102890000E104FF4447004F00BFB0DE0E889401E6D
:1028A000E881FF220021F848FDF7A1FCB5F90E10E0
:1028B0004FF4447004F0FCFAFC77E7E0EF2906D00F
:1028C0006F2904D0F72912D0772910D01EE0288A6A
:1028D000401C2882EC48FF220021801CFDF787FC69
:1028E000B5F9101040F2123004F0E2FA0EE0288A36
:1028F000401E2882E448FF220021801CFDF777FC5F
:10290000B5F9101040F2123004F0D2FAFC77BDE0B5
:10291000EF2906D06F2908D0F7290AD077290CD0E3
:102920000EE0E888401CE8800AE0E888801CE88027
:1029300006E0E888401EE88002E0E888801EE88023
:10294000FC77B5F906104FF4427004F0B1FA9DE03F
:10295000EF2906D06F2908D0F7290AD077290CD0A3
:102960000EE02889401C28810AE02889801C2881E3
:1029700006E02889401E288102E02889801E2881DF
:10298000FC77B5F9081040F20A3004F091FA7DE0C6
:102990007E290AD198F80200401C88F8020008221B
:1029A000002108F10200FDF701FCF87E2025DFF888
:1029B000DC92EF2801D06F2831D198F9020019F884
:1029C0000010491CC9B209F80010202902D209F8E8
:1029D00000501BE0A1F121020F2A03D2302109F897
:1029E000001013E0A1F13A02072A03D2412109F8AD
:1029F00000100BE0A1F15B02062A03D2612109F865
:102A0000001003E07A2901D909F8005019F80010E4
:102A100040F2DA3202EB400004F04AFAFC77F87E2A
:102A2000F72801D0772831D198F9020019F8001061
:102A3000491EC9B209F800107A22202902D209F8E9
:102A400000201AE0A1F121030F2B02D209F8005057
:102A500013E0A1F13A03072B03D2392109F8001042
:102A60000BE0A1F15B03062B03D25A2109F80010F9
:102A700003E07A2901D909F8002019F8001040F282
:102A8000DA3202EB400004F013FAFC7715E27E29FB
:102A900009D090F9020078B101283BD0022867D014
:102AA00003287ED0FEE38178491C81700322002137
:102AB000801CFDF77BFBF5E3EF2906D06F2904D0DE
:102AC000F72914D0772912D022E0B7F85E00401C15
:102AD000A7F85E006C48FF2200213038FDF787FB25
:102AE000B7F95E104FF4387004F0E2F910E0B7F86F
:102AF0005E00401EA7F85E006348FF2200213038C8
:102B0000FDF775FBB7F95E104FF4387004F0D0F99B
:102B1000FC77C7E3EF2906D06F2904D0F72914D03A
:102B2000772912D022E0B7F86000401CA7F86000B7
:102B30005548FF2200212E38FDF759FBB7F96010E8
:102B400040F2E22004F0B4F910E0B7F86000401E53
:102B5000A7F860004C48FF2200212E38FDF747FB04
:102B6000B7F9601040F2E22004F0A2F9FC7799E393
:102B7000EF2906D06F2904D0F72916D0772914D071
:102B800024E0B7F86200401CA7F862003E48FF222C
:102B900000212C38FDF72BFBB7F962104FF4397088
:102BA00000E015E004F084F910E0B7F86200401E80
:102BB000A7F862003448FF2200212C38FDF717FBEC
:102BC000B7F962104FF4397004F072F9FC7769E3D9
:102BD000EF2906D06F2904D0F72914D0772912D015
:102BE00022E0B7F86400401CA7F864002648FF22E2
:102BF00000212A38FDF7FBFAB7F9641040F2E6200D
:102C000004F056F910E0B7F86400401EA7F864001D
:102C10001D48FF2200212A38FDF7E9FAB7F96410B0
:102C200040F2E62004F044F9FC773BE37E2909D02A
:102C300090F9020078B101283FD0022871D0032812
:102C40006ED02FE38178491C817003220021801C03
:102C5000FDF7ACFA26E3EF2906D06F2904D0F72957
:102C600019D0772917D026E0B7F86600401CA7F8DE
:102C700066000548FF2200212838FDF7B8FAB7F9A9
:102C800066104FF43A7003E09E000010A60308207F
:102C900004F00EF90FE0B7F86600401EA7F86600D2
:102CA000FF220021FB48FDF7A2FAB7F966104FF4A6
:102CB0003A7004F0FDF8FC77F4E2EF2906D06F29B2
:102CC00004D0F72917D0772915D025E0B7F8680088
:102CD000401CA7F86800EF48FF220021801CFDF788
:102CE00086FAB7F9681040F2EA2004F0E1F813E040
:102CF00073E041E110E2B7F86800401EA7F86800F1
:102D0000E448FF220021801CFDF771FAB7F9681032
:102D100040F2EA2004F0CCF8FC77C3E2BEE200E027
:102D20002DE0EF2906D06F2904D0F72914D0772998
:102D300012D022E0B7F86A00401CA7F86A00D54814
:102D4000FF220021001DFDF752FAB7F96A104FF477
:102D50003B7004F0ADF810E0B7F86A00401EA7F829
:102D60006A00CC48FF220021001DFDF740FAB7F9A8
:102D70006A104FF43B7004F09BF8FC7792E2EF2965
:102D800006D06F2904D0F72914D0772912D022E079
:102D9000B7F86C00401CA7F86C00BE48FF22002169
:102DA000801DFDF724FAB7F96C1040F2EE2004F014
:102DB0007FF810E0B7F86C00401EA7F86C00B5482B
:102DC000FF220021801DFDF712FAB7F96C1040F2C6
:102DD000EE2004F06DF8FC7764E27E2909D090F9CA
:102DE000020078B101283BD0022867D003287ED0AA
:102DF00058E28178491C817003220021801CFDF774
:102E0000D5F94FE2EF2906D06F2904D0F72914D065
:102E1000772912D022E0B7F86E00401CA7F86E00A8
:102E20009C48FF2200210830FDF7E1F9B7F96E1048
:102E30004FF43C7004F03CF810E0B7F86E00401E10
:102E4000A7F86E009348FF2200210830FDF7CFF964
:102E5000B7F96E104FF43C7004F02AF8FC7721E2C9
:102E6000EF2906D06F2904D0F72914D0772912D082
:102E700022E0B7F87000401CA7F870008548FF22D8
:102E800000210A30FDF7B3F9B7F9701040F2F220D3
:102E900004F00EF810E0B7F87000401EA7F87000BC
:102EA0007C48FF2200210A30FDF7A1F9B7F9701024
:102EB00040F2F22003F0FCFFFC77F3E1EF2906D0AB
:102EC0006F2904D0F72916D0772914D024E0B7F859
:102ED0007200401CA7F872006E48FF2200210C30DF
:102EE000FDF785F9B7F972104FF43D7000E015E079
:102EF00003F0DEFF10E0B7F87200401EA7F8720082
:102F00006448FF2200210C30FDF771F9B7F9721007
:102F10004FF43D7003F0CCFFFC77C3E1EF2906D0FE
:102F20006F2904D0F72914D0772912D022E0B7F8FE
:102F30007400401CA7F874005648FF2200210E3090
:102F4000FDF755F9B7F9741040F2F62003F0B0FF21
:102F500010E0B7F87400401EA7F874004D48FF2237
:102F600000210E30FDF743F9B7F9741040F2F62056
:102F700003F09EFFFC7795E17E2909D090F90200CD
:102F800078B101283BD0022867D003287ED089E1A0
:102F90008178491C817003220021801CFDF706F90D
:102FA00080E1EF2906D06F2904D0F72914D07729C2
:102FB00012D022E0B7F87600401CA7F8760035481A
:102FC000FF2200211030FDF712F9B7F976104FF407
:102FD0003E7003F06DFF10E0B7F87600401EA7F8D2
:102FE00076002C48FF2200211030FDF700F9B7F9D8
:102FF00076104FF43E7003F05BFFFC7752E1EF294F
:1030000006D06F2904D0F72914D0772912D022E0F6
:10301000B7F87800401CA7F878001E48FF2200216E
:103020001230FDF7E4F8B7F9781040F2FA2003F017
:103030003FFF10E0B7F87800401EA7F87800154869
:10304000FF2200211230FDF7D2F8B7F9781040F2D4
:10305000FA2003F02DFFFC7724E1EF2906D06F2939
:1030600004D0F72918D0772916D025E0B7F87A00D0
:10307000401CA7F87A000748FF2200211430FDF712
:10308000B6F8B7F97A104FF43F7000E016E003F09D
:103090000FFF11E076000010B7F87A00401EA7F885
:1030A0007A00FF220021FF48FDF7A1F8B7F97A1056
:1030B0004FF43F7003F0FCFEFC77F3E0EF2906D0FD
:1030C0006F2904D0F72914D0772912D022E0B7F85D
:1030D0007C00401CA7F87C00F248FF220021801CE5
:1030E000FDF785F8B7F97C1040F2FE2003F0E0FE12
:1030F00010E0B7F87C00401EA7F87C00E948FF22EA
:103100000021801CFDF773F8B7F97C1040F2FE2017
:1031100003F0CEFEFC77C5E07E2909D090F90200CD
:1031200078B101283BD0022863D003287AD0B9E0D7
:103130008178491C817003220021801CFDF736F83C
:10314000B0E0EF2906D06F2904D0F72914D07729F1
:1031500012D022E0B7F87E00401CA7F87E00D148CC
:10316000FF220021001DFDF742F8B7F97E104FF451
:10317000407003F09DFE10E0B7F87E00401EA7F8F7
:103180007E00C848FF220021001DFDF730F8B7F986
:103190007E104FF4407003F08BFEFC7782E0EF2945
:1031A00006D06F2904D0F72912D0772910D01EE05D
:1031B0002888401C2880BB48FF220021801DFDF785
:1031C00016F8B5F9001040F2023003F071FE0EE07F
:1031D0002888401E2880B348FF220021801DFDF76B
:1031E00006F8B5F9001040F2023003F061FEFC77FA
:1031F00058E0EF2906D06F2904D0F72913D077299A
:1032000011D01FE06888401C6880A648FF2200217A
:103210000830FCF7ECFFB5F902104FF4417003F0F1
:1032200047FE0FE010E06888401E68809D48FF223E
:1032300000210830FCF7DBFFB5F902104FF44170B4
:1032400003F036FEFC772DE0EF2906D06F2904D07D
:10325000F72912D0772910D01EE0A888401CA8803A
:103260009048FF2200210A30FCF7C1FFB5F9041095
:1032700040F2063003F01CFE0EE0A888401EA88035
:103280008848FF2200210A30FCF7B1FFB5F904108D
:1032900040F2063003F00CFEFC7703E00021084604
:1032A000FDF7DCF987F82160BDE8F09F7E49C8058D
:1032B00041600021016103210170AA2101725521A1
:1032C00001727047AA2148070172552101727047A7
:1032D00030B574497A39488D401C00B248851428AD
:1032E00001DD002048850020704DB1F92A40C0EB77
:1032F000C00202EB0012011905EB820201F52F73E7
:10330000D36101F1320353620F3BDBB2936201F1EF
:103310000A03937082F84210401CC0B20528E6D31D
:1033200030BD2DE9F0415F4E01257A3EF572B07D4A
:103330005F4938B1086A40F080600862486B80F0ED
:1033400080604863708F0024401C00B270870228A0
:1033500070DB7487B5724869C0F3C06070765149FC
:10336000B27E891D904202D08A8B521C8A83B0762D
:10337000B08F401C00B2B087142801DBB48775738E
:10338000308E401C00B230860A2853DB34863573F9
:10339000C88B401C00B2C883B0F5FA7F03DBCC8336
:1033A000888B48838C83708E42F21077401C00B269
:1033B00070860A2809DB7486B573FCF745FFB6F9F9
:1033C0002600B84201DA401CF084B08E401C00B2E6
:1033D000B086142806DBB486F573F07C08B1F4746B
:1033E00000E0F574F08E401C00B2F086322806DB57
:1033F000F4863574307D08B1347500E03575308F52
:10340000401C00B23087642814DB34877574B6F929
:103410002800B84201DA401C3085707D08B174750F
:1034200000E07575F08F401C00B2F0873C2801DB8E
:10343000F487B5741F49204A0878062808D200F19D
:103440000100C0B20870062800D31570BDE8F081F5
:10345000FCD90C701470F9E71CB518A003C8CDE9AD
:10346000000102F0A9FF0F4E4FF001097A3E86F8E5
:10347000169014484FF4FA610068B0FBF1F14FF078
:10348000E020491E4161072101610849052088703B
:1034900081F85E0081F8BA0081F8160181F87201A6
:1034A00012E000008A00001080841E00D0EB07208C
:1034B00000C0092036C1072038C10720007304323C
:1034C0003C460000FC57001081F8CE0181F82A022A
:1034D000DF4C206820F000602060206C40F080000D
:1034E0002064206C40F480702064206E40F00070F6
:1034F0002066E06F40F00070E06703F03AF8D548CE
:10350000401E0028FCD1212003F045F80D2003F0D7
:1035100042F8112003F03FF8442003F03CF8CE4974
:1035200047F6FF7048808880C8800881488188817C
:10353000C881088248828882C88208834883888339
:10354000C88348848884C884088548858885C88558
:10355000088648868886C886088748878887C887F7
:10356000BE490880488003F0D3FA03F017FB03F04C
:10357000FDFAFDF7DFF8BA4F87F80090B94BBAA211
:10358000BFA11846FDF798F8206840F4006020605D
:10359000A06940F40060A0618621642003F088FCEB
:1035A00001F0F2FFA7F14D08B8F9120000EB80001E
:1035B0004100002003F04CFDA7F1250001788DF8B3
:1035C000051041788DF8041080788DF803000622EC
:1035D0006946B14808F0E4FF40F2DA3003F0B6FB88
:1035E000AE4D28704FF4777003F0B0FBC0B2687036
:1035F000002408B1202800D16C7040F2DE3003F0C6
:10360000A5FBC0B2A87008B1202800D1AC704FF45F
:10361000787003F09BFBC0B2E87008B1202800D19D
:10362000EC7040F2E23003F091FBC0B2287108B1B7
:10363000202800D12C714FF4797003F087FBC0B2C1
:10364000687108B1202800D16C7140F2E63003F0B7
:103650007DFBC0B2A87108B1202800D1AC714FF435
:103660007A7003F073FBC0B2E87108B1202800D172
:10367000EC7140F2EA3003F069FBC0B2287208B185
:10368000202800D12C726C72764B77A27CA1184650
:10369000FDF712F8FDF7EFFC814803F087FA08F018
:1036A00063FD7F4803F082FAFDF7C1FC3A25FFF77E
:1036B000FDFDB8F9120000EB8000400004F0D1FEDF
:1036C0007848401E0028FCD1B8F9120000EB8000B9
:1036D000400004F0C6FE744B0A22002101200AF0CB
:1036E0002FF886F8240018B14FF4FB710AF06CF83B
:1036F0004FF4165005F007FA6C4A032100200AF037
:10370000D3FB6B49087018B140F2E9310AF0F0FBC5
:1037100087F80090DFF89CB1DFF89CA1674FB47583
:1037200008F010FF387810B13C7004F026FB9BF8CD
:10373000000018B18BF8004005F03BFB60480178B1
:1037400011B1047003F0B3FE707A00B17472F07AB4
:1037500000B1F472B07A10B1B47204F0CDFE307BD7
:1037600040B13473B078F178084301D1FEF7EFF936
:10377000FEF76FFA707B00B17473387810B13C704B
:1037800004F0FBFAB07B10B30AF080FBC8F8249079
:10379000B473FDF7B1FCFDF76EFCF07810B940484A
:1037A00003F004FAFCF7D0FCFCF7EFFC9AF80000F9
:1037B000401CC0B28AF800000D2808D38AF80040E7
:1037C000B8F9120000EB8000400004F04AFEF07BE4
:1037D00068B1F473F07808B902F04FFFF07808B9D7
:1037E00001F0D2FE00F06EF8B08D401CB085307C48
:1037F00018B13474F08D401CF085387810B13C70ED
:1038000004F0BBFA707CE8B174741549491F08785C
:10381000401C0870FFF75CFDB07808B9FFF752FD57
:1038200096F82200401C86F822006D1CEDB23C2D5B
:1038300006D3002503F06CF903F0B0F903F096F914
:1038400001F0A0F8B07C00283FF469AFB47466E7DB
:1038500000C0092080A90300B003082032C107205E
:10386000DD0000103C1400002020202020204574A2
:103870006865726E65742020202020200000000002
:1038800020202020C8EDE8F6E8E0EBE8E7E0F6E8E5
:10389000FF202020000000000000001006000010A3
:1038A0003CF60720804F1200C9850000E947000060
:1038B000C85700104DC107202858001038C10720F4
:1038C000155800102DE9F05FFE4CFF4F208838841A
:1038D000FE4800887884FE480088B884FD48008847
:1038E000F884FD4800883885FC4800887885FC48C5
:1038F0000088B885FB4800887882FB480088B88239
:10390000FA480088F882FA4800883883F948008825
:103910007883F9480088B88340F6026003F016FA0D
:10392000F883F6480088B886F4484088F886F3485B
:1039300080883887F248018879874188B9878088EC
:10394000F887F04807F180080068C8F84C00EE4896
:103950000088A7F842002088A7F8400007F1AC0CC7
:103960000120ACF80000E94A07F1B0065188318027
:1039700006F1180193880B80351D11892980E449CF
:103980000988A1F5AC432F3B01D0283307D1E14989
:1039900091F8E012092902D1DF4909882980DFF86E
:1039A00028B351890BF1B80BABF80010DFF86CA30A
:1039B00045F2555E0BF10403BAF90010714503D1CD
:1039C000D7490988198000E01980BF49148AC0319D
:1039D0000C80BD4C92F83D10C4342180D14991F83F
:1039E0000090FF21B9F1550F00D021804FF002095E
:1039F000ACF80290B2F84EC0A6F802C0B24EB2F8CF
:103A000050C0C836A6F802C0B2F854606E80B2F852
:103A10005650ABF80250BAF90250754503D1C04D6B
:103A20006D885D8000E05D80A74BB2F85C50C033CC
:103A30005D8092F889206280BA4A5278552A00D077
:103A40006180B94C2080B34B04F11005DA692A80FB
:103A500004F120065A6A328004F1300C9A6AACF8FC
:103A6000002004F1400293F801A0A2F800A0DFF8C2
:103A700078A2BAF900A0BAF1000F00DC1180A4F816
:103A80000290D3F878B0A5F802B0D3F880B0A6F8C9
:103A900002B0D3F884B0ACF802B093F85DB0A2F8ED
:103AA00002B0BAF1010F00DC51804FF0030EA4F810
:103AB00004E0D3F8D4B0A5F804B0D3F8DCB0A6F88D
:103AC00004B0D3F8E0B0ACF804B093F8B9B0A2F801
:103AD00004B0BAF1020F00DC91804FF0040BA4F89F
:103AE00006B0D3F830B1A5F806B0D3F838B1A6F8CF
:103AF00006B0D3F83CB1ACF806B093F815B1A2F813
:103B000006B0BAF1030F00DCD1804FF0050BA4F82A
:103B100008B0D3F88CB1A5F808B0D3F894B1A6F8E2
:103B200008B0D3F898B1ACF808B093F871B1A2F826
:103B300008B0BAF1040F00DC11814FF0060BA4F8B5
:103B40000AB0D3F8E8B1A5F80AB0D3F8F0B1A6F8F6
:103B50000AB0D3F8F4B1ACF80AB093F8CDB1A2F83A
:103B60000AB0BAF1050F00DC51814FF0070BA4F841
:103B70000CB0D3F844B2A5F80CB0D3F84CB2A6F808
:103B80000CB0D3F850B2ACF80CB093F829B2A2F84C
:103B90000CB0BAF1060F00DC91814FF0080BA4F8CD
:103BA0000EB003F52173DC69EC815C6AF4819C6AD8
:103BB000ACF80E405B78D381BAF1070F00DCD181FD
:103BC000414AE43210805949931D8C691C809C1D28
:103BD000CD692580A51D0E6A2E80AE1D91F846C0C8
:103BE000A6F800C0A2F80290D1F878C0A3F802C0ED
:103BF000D1F87CC0A4F802C0D1F880C0A5F802C0FA
:103C000091F8A6C0A6F802C0F246A2F804E0D1F8E6
:103C1000D8209A80D1F8DC20A280D1F8E020AA80B8
:103C200091F80611B180A3F11A0E8EF800003E4DF6
:103C30003FA188350A686A644A68AA640989A5F8B8
:103C40004C10DFF8F4B00021A4F11C029BF8003006
:103C5000012B7BD01170394B1C881B4BD83384B39C
:103C60001970374C2678184CDC34012E6FD0217037
:103C70008EF8019033A6D6F800C0C5F858C0D6F823
:103C800004C0C5F85CC03689A5F860609BF8016087
:103C9000012E7ED05170294EB6F802C0BCF1000F43
:103CA00078D05970DFF898C09CF801C0BCF1010FC2
:103CB00071D06170DFF810C00CF1D00C8CF802A04C
:103CC00046E093E0E60200101C030010EA02001038
:103CD000EAC00720E8020010ECC00720A400001092
:103CE000A6000010500000105200001054000010F8
:103CF00056000010700200106AC00720F2C00720B2
:103D0000F802001000C1072004C1072038EB07208B
:103D1000A0C00720D0EB0720E20200109CC00720C3
:103D200098C00720580000100E5D0010E8FB072027
:103D3000446F6F720000000016C00720BAC0072051
:103D40001E020010536D6F6B650000004CE04FE0E9
:103D50000FF2104CDCF800E0C5F86CE0DCF804E091
:103D6000C5F870E0BCF808C0A5F874C0FF4DAD7888
:103D7000012D45D09170FE4DAD88A5B39970DFF847
:103D8000F4B39BF80250012D3ED0A1700425FA4EE9
:103D900002E02FE030E031E0F570F84E0FF2E03C49
:103DA000DCF800E0C6F800E0DCF804E0C6F804E067
:103DB000BCF808C0A6F808C0EC4EF678012E25D055
:103DC000D170EB4AD2881AB3D9709BF80320012A2C
:103DD00020D0E170EC4AE84BB2F928403833082C87
:103DE0001ADD18801BE00DE0107034E7187038E71A
:103DF00020703DE750704EE7587053E7607059E708
:103E00009070B8E79870BAE7A070BFE7D070D8E7B5
:103E1000D870DAE7E070DDE7022C00DA1980B2F939
:103E20005240082C01DD588002E0022C00DA598053
:103E3000B2F97C40082C01DD988002E0022C00DA07
:103E40009980B2F9A640082C01DDD88002E0022C4E
:103E500000DAD980C84C538940342380C64B9489FA
:103E600048331C80C44CD389503423800834138ACF
:103E700023800834538A2380203C938E6380083447
:103E8000D38E63800834138F63800834538F63802C
:103E90000834938F6380203CB2F85E30A3800834EE
:103EA000B2F86030A3800834B2F86230A3800834DE
:103EB000B2F86430A3800834B2F86630A380203CA6
:103EC000B2F88830E3800834B2F88A30E3800834EE
:103ED000B2F88C30E3800834B2F88E30E3800834D6
:103EE000B2F89030E380A44B948A68331C8003F1CD
:103EF0000804D68A268003F11006B2F818C0A6F886
:103F000000C003F1180CB2F81AB0ACF800B003F11D
:103F1000200BB2F81CE0ABF800E0B2F83EE0A3F8EA
:103F200002E0B2F840E0A4F802E0B2F842E0A6F8FD
:103F300002E0B2F844E0ACF802E0B2F846E0ABF8D8
:103F400002E0B2F868E0A3F804E0B2F86AE0A4F88E
:103F500004E0B2F86CE0A6F804E0B2F86EE0ACF869
:103F600004E0B2F870E0ABF804E0B2F892E0A3F835
:103F700006E0B2F89430E380B2F89630F380B2F8FD
:103F80009830ACF80630B2F89A30ABF8063006F14B
:103F90001803D48B1C8003F10804168C268003F1CF
:103FA0001006B2F822C0A6F800C003F1180CB2F84F
:103FB00024B0ACF800B003F1200BB2F826E0ABF867
:103FC00000E0B2F848E0A3F802E0B2F84AE0A4F852
:103FD00002E0B2F84CE0A6F802E0B2F84EE0ACF82D
:103FE00002E0B2F850E0ABF802E0B2F872E0A3F8F9
:103FF00004E0B2F874E0A4F804E0B2F876E0A6F8C1
:1040000004E0B2F878E0ACF804E0B2F87AE0ABF89B
:1040100004E0B2F89CE0A3F806E0B2F89E30E3803A
:10402000B2F8A030F380B2F8A230ACF80630B2F8A3
:10403000A420ABF80620554A1288A7F87620544AE7
:10404000A4F5B4731288A3F87820524A1288A3F812
:104050007A20514A1288A3F87C20504A1288A3F88B
:104060007E204F4A1288A8F800204E4A1288A8F8ED
:1040700002204D4A1288A8F804204C4A1288A8F859
:1040800006204B4A1288A8F808204A4AB2F9007064
:10409000A8F80A70B2F902C0A8F80CC0B2F904B0CE
:1040A000A8F80EB0444A1288A3F84820434A128860
:1040B000A3F84A20424A1288A3F84C20414A1288A9
:1040C000A3F84E20404A414BA4F5B47412881B88D3
:1040D000D31AA4F850303E4B1B88A4F85230234624
:1040E000A3F854203B4A1288A3F856203A4A128873
:1040F000A3F85820394A1288A3F85A20384A12885F
:10410000A3F85C20374A13882246A2F85E30364A6C
:1041100023461288A3F86020344A1288A3F862204C
:10412000334A1288A3F86420324A1288A3F8662022
:10413000314A1288A3F86820304B1B88A4F86A30F3
:104140002F4B1B88A4F86C302E4B1B88A4F86E30C4
:104150002346A3F870202C4A1288A3F872202B4A19
:10416000128855E053686F636B00000016C007208B
:10417000BAC007201E020010EC030010165E0010EB
:104180002020202020000000E4590010EEC007206D
:10419000540200106802001062C007206A0200107A
:1041A00064C007205802001052C007205A020010B5
:1041B00054C00720EC0200103CC007203E02001053
:1041C0004C02001034C0072036C007204E020010F9
:1041D0003A0200103AC007204002001044C00720F5
:1041E000420200104802001040C0072046020010A2
:1041F0003EC007204A0200103C0200104CC00720BD
:104200005002001038C0072052020010DE020010D9
:10421000A3F874200022F84CDFF8E08304F10C06C8
:10422000531CA35418F802E0BEF1000F7DD0B05427
:10423000DAB20C2AF4D3F249087081F8019081F8BF
:1042400002A072310F80A1F802C0A1F804B0ED4CB9
:10425000EB4BDB1C21781970EB494FF0FF32B1F9C1
:104260000010012900DA1A7066785E70022900DAFF
:104270001A70A4789C70032900DA1A70042900DAF5
:104280001A70DD4968310880A1F80290A1F804A0F5
:10429000CD800520088106204881072088810020E4
:1042A000DA4D01F10E0301F11C0601F12A0701F1BB
:1042B000380C01F1460801F1540901F1620A01F1DB
:1042C000700B01F17E0E00EB400101EB001205EBDB
:1042D00082010C8923F8104035F8222026F810209E
:1042E0004A8827F810208A882CF81020CA8828F8D5
:1042F00010204A8929F810208A892AF81020CA89B2
:104300002BF810200A8A2EF81020BB4A4C8AF4326F
:1043100022F810400E328C8A22F810400E32CC8ADD
:1043200022F810404C8B0E3200E02AE022F81040B8
:104330000E328C8B22F81040B14A91F83A40921D0F
:104340001454AF4C91F83B2009342254E41C91F8EA
:104350003C202254E41C91F83D202254E41C91F8A6
:104360003E202254E21C91F83F101154401CC0B270
:104370000328A8D30020401CC0B20728FBD3BDE807
:10438000F09FB15454E770B501280AD10024A04D24
:1043900004F56570295D02F055FD641CE4B2402C03
:1043A000F6D370BD01280FD195484830017899485F
:1043B00021B1B0F90000002102F07ABDB0F900008F
:1043C0004FF0FF3102F074BD704701280FD18C48C7
:1043D000483041788F4821B1B0F90200002102F045
:1043E00067BDB0F902004FF0FF3102F061BD7047C8
:1043F00001280FD1824848308178864821B1B0F930
:104400000400002102F054BDB0F904004FF0FF3168
:1044100002F04EBD704701280FD179484830C1786D
:104420007C4821B1B0F90600002102F041BDB0F98D
:1044300006004FF0FF3102F03BBD7047012806D166
:104440006F489038B0F94810862002F031BD7047AF
:10445000012806D16A489038B0F94A10802002F04D
:1044600027BD7047012806D165489038B0F94C1037
:10447000C22002F01DBD7047012806D16048903867
:10448000B0F94E10782002F013BD704701280AD110
:104490005B49614890390088B1F85010401A01B268
:1044A000C82002F005BD704710B501280DD1544C4D
:1044B0007A20903CB4F9521002F0FAFCB4F9521090
:1044C000BDE810407C2002F0F3BC10BD012806D1ED
:1044D0004B489038B0F952107A2002F0E9BC70478E
:1044E000012806D146489038B0F954107C2002F0DB
:1044F000DFBC7047012806D141489038B0F956100A
:10450000822002F0D5BC7047012806D13C48903883
:10451000B0F95810842002F0CBBC7047012806D1B6
:1045200037489038B0F95A10942002F0C1BC704757
:10453000012806D132489038B0F95C10882002F08A
:10454000B7BC7047012806D12D489038B0F95E10ED
:10455000922002F0ADBC7047012806D1284890385F
:10456000B0F960108C2002F0A3BC7047012806D17E
:1045700023489038B0F962108E2002F099BC704741
:10458000012806D11E489038B0F96610962002F036
:104590008FBC7047012806D119489038B0F96A10CD
:1045A000CE2002F085BC7047012806D1144890380F
:1045B000B0F96C10CC2002F07BBC7047012806D10A
:1045C0000F489038B0F96E10C62002F071BC7047E9
:1045D000012806D10A489038B0F970107E2002F008
:1045E00067BC7047012806D105489038B0F96410BF
:1045F000DE2002F05DBC7047C25D00109A03082007
:10460000AC030010F30200107002001004FB07203E
:10461000AA5C0010E6E1000036C007200128EAD1BC
:104620007048B0F972104FF4197002F041BCE2E723
:104630000128E0D16B48B0F9741040F2622002F01A
:1046400037BCD8E710B5012812D1664845F255525B
:104650000146B0F94440D343E41EB1F94610062C9C
:104660001BD2DFE804F00914031A1706A0F844204F
:1046700010BDA0F8442010BD491E172902D8A0F88B
:10468000443010BD4EF6EF61A0F8441010BDA0F804
:10469000443010BDA0F8442010BD4EF6EE61A0F8E5
:1046A000441010BD0128A6D14E4801784FF4827005
:1046B000012902D0002102F0FBBB012102F0F8BB6E
:1046C00099E7012897D1474841784FF48A7001292A
:1046D00002D0002102F0ECBB012102F0E9BB8AE725
:1046E000012888D13F4890F902104FF4837002F0FE
:1046F000DFBB80E7012806D13A4890F903104FF458
:10470000847002F0D5BB76E7012806D1354890F9D0
:1047100004104FF4857002F0CBBB6CE7012806D182
:10472000304890F905104FF4A37002F0C1BB62E766
:10473000012806D12B4890F906104FF4A27002F020
:10474000B7BB58E7012806D1264890F907104FF467
:10475000A17002F0ADBB4EE7012806D1214890F9C7
:1047600008104FF4A07002F0A3BB44E7012806D163
:104770001C4890F909104FF49F7002F099BB3AE77A
:10478000012806D1174890F90A104FF4A97002F0D9
:104790008FBB30E7012806D1124890F90B104FF477
:1047A000A87002F085BB26E7012806D10D4890F9D4
:1047B0000C104FF4A77002F07BBB1CE7012806D158
:1047C000084890F90D104FF4A67002F071BB12E783
:1047D000012806D1034890F90E104FF4A57002F09D
:1047E00067BB08E71C0300102DE9F043794C65888E
:1047F0006D1C65802578A8427ED1A688761CA6808F
:10480000754D08782880487868808878A880C878AE
:10481000E8802A8113F8287F6F815978A9819A78D6
:10482000EA81D87828823B02194309020A4311021F
:104830000843761CA680694941186948B0F9000010
:10484000C0EB4012C2EB002001EB0017A7626548E5
:10485000B7FBF0F6266206F1010262624FF0000338
:10486000E3626381E06A844600F26D10E062618970
:104870005FEA817801D1401CE062E06A824205D89B
:10488000C4F82CC0A2EB0C00E08004E0491C88B204
:1048900060816428E6D323810120A081DFF848816C
:1048A000B4F80AC0E3882189A08938F810200A44A6
:1048B00092B222815FEA8C7903D1022801D1521C85
:1048C00022812289934203D82181581AE08104E091
:1048D000401C80B2A0810D28E5D3A6EB061000EBAA
:1048E0004000C0EB001007EBC01020634FF461667E
:1048F000B0FBF6F291B200E01BE0218206FB12064B
:104900003C27B6FBF7F082B2628207FB106086B2EA
:10491000A682AB82E08A00280BD034480172027173
:104920000670A0F81CC0A1890176E1890173A0F18D
:104930002000BDE8F08338B5264D2878002820D027
:10494000302009F0A9FA0446302200212046FBF766
:10495000BFFCE3202070002060700620A070EC20D7
:10496000E070312121734E206073A1733420E07315
:104970003023009323467B2205F11801287809F0A3
:10498000F5FA38BD70B5134CE08A08B1401EE082DC
:10499000174D2888002814D0E069002811D0401E47
:1049A000E06100280DD10520E082FFF7C4FFB5F9D2
:1049B0000000012806D0022808D0032801D10D48A4
:1049C000E06170BD4FF46160E06170BD0548E06179
:1049D00070BD0000C8570010D2600010003EE843D0
:1049E000900200108051010038E800002040024091
:1049F00088C00720803A090000B59DB0C0EBC00117
:104A000001EB0011F94800EB8100816A90F8423017
:104A100082788DE80E00436AC269F5A104A805F00A
:104A200037FB04A81DB000BD2DE9F04387B0074651
:104A3000F4494878401C4870282006F009F80446DC
:104A4000F14E03AD0DF118080DF11409282221468D
:104A5000384606F029FF0746207870B3EBA12046C0
:104A600008F0ECFD012818D0E9A1204608F0E6FD89
:104A7000012823D0E8A1204608F0E0FD01282ED02F
:104A8000E6A1204608F0DAFD012839D0E5A120464C
:104A900008F0D4FD012844D053E0CDE900982B1D47
:104AA00003AAE2A1E01C04F04BFC039830700498C8
:104AB00070700598B0700698F07042E0CDE90098EB
:104AC0002B1D03AAD9A1201D04F03AFC03983072D3
:104AD000049870720598B0720698F07231E0CDE9D2
:104AE00000982B1D03AAD1A1E01C04F029FC039817
:104AF0003071049870710598B0710698F07120E0DB
:104B0000CDE900982B1D03AAC8A1601D04F018FC74
:104B100003983073049870730598B0730698F07317
:104B20000FE0CDE900982B1D03AAC0A1601D04F081
:104B300007FC03983074049870740598B074069854
:104B4000F074002F82D1204606F0E8FB07B0BDE8E4
:104B5000F0832DE9F74F86B01646AA4FB978491C65
:104B6000B970F9783144F97000285BD1DFF8C8B228
:104B700082468BF802A0002E54D00024282005F095
:104B800067FF0546DFF8B4924FF001082822294656
:104B9000079806F089FE0790287868B3A8A12846F0
:104BA00008F04CFD012840D0A7A1284608F046FD9A
:104BB000012821D0A7A1284608F040FD01281BD0DC
:104BC000A7A1284608F03AFD012815D0A7A128463C
:104BD00008F034FD01283BD0A5A1284608F02EFDA1
:104BE00001283CD0A4A1284608F028FD012803D0C4
:104BF000A3A1284608F022FD07980028C6D1284620
:104C000006F08CFB032C0DD103A804F083FB82B2C9
:104C1000694603A807F0B4FC012803D103A99A4808
:104C200008F0F4FC09B0BDE8F08F7878401C78708B
:104C300096A1A81D08F002FD012801D1092E04D07B
:104C40008BF8018089F800A0D6E789F80080D3E7C7
:104C5000E91C03A808F0DAFC44F00104CCE7291DA4
:104C6000684608F0D3FC44F00204C5E72DE9F0479C
:104C700088B004460F4690461E46002561492078BC
:104C8000DFF8B49191F800C066287DD017DC4FF0B2
:104C9000010C622826D00BDC0A463228127802F179
:104CA0000102D2B271D0332870D0612831D14CE1E9
:104CB00063282FD064286AD065282AD15FE15E4A34
:104CC000732852787DD006DC67287BD06C287AD098
:104CD0006D281ED1CCE1782876D0792875D07A2835
:104CE00017D1FDE3A078632813D03038C0B207286D
:104CF00000D900200CFA00FC0CF0FF0099F802101B
:104D000063A2014200D143A2211D384605F0C0F93B
:104D10000546FEE3DFF88091DFF880A147E03088A8
:104D20005F4A00EB400101EBC00102EB8104401C33
:104D3000308078195BA105F0ABF9054494F800C008
:104D4000BCF1010F0DD80CEB4C0000EBCC0052492C
:104D500000EB0903328878197C3105F099F9054494
:104D600020E0BCF1020F34D0E38B62892189E07925
:104D7000CDE90523CDE903010CEB4C00A379627961
:104D8000217900EBCC0003E03FE198E3A9E395E053
:104D90008DE80E0000EB090332887819464905F0CA
:104DA00077F9054430889AF80010884203D005F15D
:104DB00096004045B3D330889AF80010884207D255
:104DC00004E0B6E123E17CE160E321E345F4004542
:104DD0009FE363890093304B32881633781903F1CF
:104DE000AE0105F055F90544DCE70000D0EB0720E3
:104DF0002564202564202564202564203078253012
:104E000032780000D80000105C31082069703D0045
:104E10006D736B3D0000000067773D0070646E733A
:104E20003D00000073646E733D00000025642E2574
:104E3000642E25642E25640020C107201AC0072097
:104E40007061726F6C3D00006275743D6275743103
:104E5000000000006275743D62757432000000004D
:104E60006275743D627574330000000070773D0018
:104E70007077323D000000006C6364313D0000003B
:104E80006C6364323D0000004C5800103132330036
:104E9000636865636B65640054E80000B5E1000079
:104EA00028EA07203C747220616C69676E3D2263BA
:104EB000656E746572223E0060E9000060783028FB
:104EC00012D1A078313807280ED2DFE800F0040EA6
:104ED000151F29303700FAA0FBF730FC0246211DD0
:104EE000384605F0D5F8054613E3FA4A211D384641
:104EF00005F0CEF805460CE3F7A0FBF71FFC0246D1
:104F0000211D384605F0C4F8054602E30879401C27
:104F100008710222211D384605F0BAF80546F8E26C
:104F20000722211D384605F0B3F80546F1E20522B7
:104F3000211D384605F0ACF80546EAE20322211DA2
:104F4000384605F0A5F80546E3E2607830280BD135
:104F5000A078312802D0322806D106E0EBA2211D2C
:104F6000384605F095F80546D3E2EAA0FBF7E6FBE4
:104F70000246211D384605F08BF80546C9E206F0C9
:104F800085FC0546E7A1284604F0CCF968B3E6A104
:104F9000284604F0C7F950B3E5A1284604F0C2F949
:104FA00038B3E5A1284604F0BDF920B3E3A12846B3
:104FB00004F0B8F908B3E3A1284604F0B3F9F0B15E
:104FC000E2A1284604F0AEF9D8B1E1A1284604F0E8
:104FD000A9F9C0B1DFA506F059FC03462A46A11C79
:104FE000384605F055F8054693E2DCA5F3E7DDA564
:104FF000F1E7DFA5EFE7E1A5EDE7E2A5EBE7E4A543
:10500000E9E7E6A5E7E7E7A5E5E7A07881E2E74875
:10501000A1784068312904D0322909D0332906D13A
:105020001BE00246211D384605F032F8054670E2C5
:1050300004F0DEFA04F0E1FA4FF06632DC4B04F0E3
:105040004FFA6FF0090204F0BCFA02460B46211D2C
:10505000384605F01DF805465BE264214843820AA4
:10506000C9F80420211D384605F012F8054650E223
:105070006078312804D032280BD0332808D111E0D1
:10508000CC48E11CB0F90020384605F001F805468F
:105090003FE2C948E11CB0F90020384604F0F8FFAF
:1050A000054636E232B1C5A2E11C384604F0F0FFF5
:1050B00005462EE2C3A2E11C384604F0E9FF05468E
:1050C00027E26078302820D0642804D0652826D0D4
:1050D0006E2806D106E00A22E11C384604F0D8FF0B
:1050E000054616E299F80020E11C384604F0D0FF8E
:1050F000054699F80000401CC0B289F800000A2853
:1051000002D3002089F8000003E2B048FBF716FB49
:105110000246E11C384604F0BBFF0546F9E1ACA0AD
:10512000FBF70CFB0246E11C384604F0B1FF0546D4
:10513000EFE16078302802D0312814D16EE0A078F9
:1051400030380A280FD2DFE800F0050F19232D3779
:10515000414B555F0020FFF74FFC0246211D3846AA
:1051600004F096FF0546D4E10120FFF745FC024616
:10517000211D384604F08CFF0546CAE10220FFF7E6
:105180003BFC0246211D384604F082FF0546C0E183
:105190000320FFF731FC0246211D384604F078FF5A
:1051A0000546B6E10420FFF727FC0246211D3846DC
:1051B00004F06EFF0546ACE10520FFF71DFC02463A
:1051C000211D384604F064FF0546A2E10620FFF7E2
:1051D00013FC0246211D384604F05AFF054698E1AB
:1051E0000720FFF709FC0246211D384604F050FF56
:1051F00005468EE10820FFF7FFFB0246211D3846D9
:1052000004F046FF054684E10920FFF7F5FB02465E
:10521000211D384604F03CFF05467AE1A07830387D
:105220000A280FD2DFE800F0050F19232D3741D6E9
:10523000E0EA0A20FFF7E0FB0246211D384604F0B1
:1052400027FF054665E10B20FFF7D6FB0246211D2F
:10525000384604F01DFF05465BE10C20FFF7CCFB50
:105260000246211D384604F013FF054651E10D208A
:10527000FFF7C2FB0246211D384604F009FF054630
:1052800047E10E20FFF7B8FB0246211D384604F027
:10529000FFFE05463DE10F20FFF7AEFB0246211D54
:1052A000384604F0F5FE054633E11020FFF7A4FB75
:1052B0000246211D384604F0EBFE054629E10000B8
:1052C000C8C1DDCF3232302F34382D3830C02D34C4
:1052D0002F340000286EAB00CDEEE2EEF1E8E1E8FD
:1052E000F0F1EA2C20CDEEE2EEEBF3E3EEE2EEE5B8
:1052F0002031323334353637383930313233343582
:105300003637383930313233340000006E6F726D09
:10531000616C0000C0E2E0F0E8FF20C1CFD120B90D
:1053200031000000656E0000656E2D757300000091
:10533000656E2D67620000006465000064652D6382
:105340006800000064652D61740000006672000052
:10535000736C0000556E6B6E6F776E00456E676CF8
:1053600069736800456E676C697368205553410026
:10537000456E676C69736820474200004765726D2F
:10538000616E00004765726D616E20434800000049
:105390004765726D616E2041540000004672656E73
:1053A00063680000536C6F76656E650020C107204E
:1053B00066660A403E0000103C0000106572726F85
:1053C00072000000676F6F6400000000B4E9000025
:1053D000656E64001120FFF70FFB0246211D384661
:1053E00004F056FE054694E01220FFF705FB024646
:1053F000211D384604F04CFE05468AE01320FFF7D5
:10540000FBFA0246211D384604F042FE054680E0C4
:105410006078302808D06E287BD10422E11C384601
:1054200004F036FE054674E0A0783138052870D2C5
:10543000DFE800F0030B131C240038A36246211D93
:10544000384604F025FE054663E04A7833A3211D63
:10545000384604F01DFE05465BE030A345F6AA126F
:10546000211D384604F014FE054652E02CA300220C
:10547000211D384604F00CFE05464AE02AA300220E
:10548000211D384604F004FE054642E02848007815
:1054900030B128A2611C384604F0FAFD054638E018
:1054A00032B125A2611C384604F0F2FD054630E019
:1054B00023A2611C384604F0EBFD054629E00A7082
:1054C000627820A3A2F130000CFA00FC5FEA8C7035
:1054D00000D11EA31FA1384604F0DAFD054618E0EE
:1054E00010E00A70627817A3A2F130000CFA00FCF9
:1054F0001CF0060F00D115A316A1384604F0C8FD14
:10550000054606E0AFF23812A11C384604F0C0FD93
:10551000054608B0A8B2BDE8F087000020000000F2
:1055200061626364656600006768696A0000000084
:105530001AC007204F4E000044454E494544000024
:105540004F464600747275650000000066616C731A
:10555000650000003C636865636B626F783E3C6980
:10556000643E627574746F6E25633C2F69643E3CC3
:105570006F6E3E25733C2F6F6E3E3C2F63686563F4
:105580006B626F783E0000002DE9F047102001F0BB
:10559000DDFBFF4C2080122001F0D8FB60802C2026
:1055A00001F0D4FBFB4C20802E2001F0CFFB60806B
:1055B000142001F0CBFBF84C2080162001F0C6FB34
:1055C0006080182001F0C2FBF44C20801A2001F00A
:1055D000BDFB60801C2001F0B9FBF14C20801E2037
:1055E00001F0B4FB6080202001F0B0FBED490880A1
:1055F000242001F0ABFBEC490880262001F0A6FB3B
:10560000EA4C2080282001F0A1FB60802A2001F0D4
:105610009DFBA080302001F099FBE54C20803220DA
:1056200001F094FB6080342001F090FBA0803620D4
:1056300001F08CFBDF4C2080382001F087FB60807C
:105640003A2001F083FBA0803C2001F07FFBDA4987
:1056500008803E2001F07AFBD8490880402001F004
:1056600075FBD7490880422001F070FBD5490880BE
:10567000442001F06BFBD4490880A62001F066FBB2
:10568000D24C2080A82001F061FB6080AA2001F0AC
:105690005DFBA080762001F059FBCD490880782081
:1056A00001F054FBCB4908807A2001F04FFBCA4936
:1056B00008807C2001F04AFBC84908807E2001F068
:1056C00045FBC7490880C62001F040FBC54908805A
:1056D000C82001F03BFBC4490880822001F036FB62
:1056E000C2490880842001F031FBC149088086202E
:1056F00001F02CFBBF490880882001F027FBBE4940
:105700000880DE2001F022FBBC4908804FF4D276ED
:10571000304601F01BFBBA4908808C2001F016FBD3
:10572000B84908808E2001F011FBB749088090200D
:1057300001F00CFBB54908804FF4AD7001F006FB99
:10574000B34908804FF4C47001F000FBB1490880F0
:105750004FF4C57001F0FAFAAF4908804FF4C670F3
:1057600001F0F4FAAD4908804FF4C77001F0EEFA89
:10577000AB4908804FF4C87001F0E8FAA9490880E5
:105780004FF4CB7001F0E2FAA74908804FF4CC70D7
:1057900001F0DCFAA54908804FF4CD7001F0D6FA8B
:1057A000A34908804FF4CE7001F0D0FAA1490880D7
:1057B000B01F01F0CBFAA0490880341F204601F049
:1057C000C5FA9E490880A71C384601F0BFFA9C49DB
:1057D00008804FF4B27001F0B9FA9A49088092201B
:1057E00001F0B4FA98490880942001F0AFFA974983
:1057F0000880962001F0AAFA95490880982001F0C7
:10580000A5FA944908804FF49B7001F09FFA9249E1
:1058100008809A2001F09AFA904908800F2200210E
:105820008E48FAF7D9FC4FF4177001F08FFA8C4DBF
:10583000288040F25E2001F089FADFF82882A8F87B
:10584000000040F2662001F081FA874908804FF499
:105850001A7001F07BFA854908802888B8F8001092
:105860000844834908804FF41B7001F06FFA8149A6
:105870000880802001F06AFA7F490880BC2001F08E
:1058800065FA7E490870BE2001F060FA7C49088004
:10589000C42001F05BFA7B490880CA2001F056FA67
:1058A00079490880CC2001F051FA78490880CE204F
:1058B00001F04CFA764908804FF4197001F046FA6D
:1058C0007449088040F26A2001F040FA7249088069
:1058D000D02001F03BFA71490880D22001F036FA5D
:1058E0006F490880D42001F031FA6E490880D62033
:1058F00001F02CFA6C490880D82001F027FA6B4996
:105900000880DA2001F022FA69490880DC2001F0E1
:105910001DFA68490880E22001F018FA66490880FB
:10592000E42001F013FA65490880FE2001F00EFA28
:10593000634908804FF4807001F008FA61490880DB
:10594000E62001F003FA60490870E82001F0FEF952
:105950005E490870EA2001F0F9F95D490870EC2011
:1059600001F0F4F95B490880EE2001F0EFF95A49A3
:105970000880F02001F0EAF9584908804FF4B67029
:1059800001F0E4F956490880F22001F0DFF9A9E0BE
:105990001CC007202402001020C00720280200108D
:1059A00024C007202C0200102EC007202E02001059
:1059B000F8C00720FE0200103402001030C007209B
:1059C0003602001032C007201402001028C0072041
:1059D0003802001034C007203A02001036C00720F9
:1059E0003C02001038C007204E0200103AC00720C9
:1059F000400200103CC00720420200103EC00720B9
:105A00004402001040C007204602001042C0072098
:105A10008C02001088C00720900200108AC0072066
:105A2000920200108CC00720940200108EC0072044
:105A30009602001090C007209802001092C0072024
:105A40009A02001086C007204802001044C00720B8
:105A50004A0200105200001068C0072054000010D5
:105A60006AC0072070020010560000106CC00720AA
:105A7000720200106EC007203E020010DC0200100F
:105A8000DAC0072048C007204AC007205002001093
:105A90004CC00720520200104EC0072054020010D4
:105AA00050C007205602001052C0072058020010B4
:105AB00054C007205A02001056C007205C02001094
:105AC00058C007205E020010600200105EC0072070
:105AD00066020010620200105CC007205AC0072056
