:020000040000FA
:1000000038710010E1000000E5000000E70000008A
:10001000E9000000EB000000ED000000000000001F
:10002000000000000000000000000000EF000000E1
:10003000F100000000000000F3000000FB290000B8
:10004000F7000000050200002B020000F70000008E
:10005000F7000000FB66000055810000F70000007B
:10006000F7000000F7000000F7000000F7000000B4
:10007000F7000000F7000000F7000000F7000000A4
:10008000F7000000F7000000F7000000F700000094
:10009000F7000000F700000069070000F70000000B
:1000A000F7000000F7000000F7000000F700000074
:1000B00027880000F7000000F7000000F7000000AC
:1000C000F7000000F7000000F7000000DFF80CD098
:1000D00009F04AF800480047312B00003871001041
:1000E00005480047FEE7FEE7FEE7FEE7FEE7FEE71E
:1000F000FEE7FEE7FEE7FEE7CD000000FEE710B5F5
:100100000BF062FB0BF0F0FB0BF0E2FB0BF06EFB75
:10011000AFF30080BDE810400BF0ACBB10B50CF0A5
:10012000B7F90CF0EFFE0CF009FABDE810400CF046
:1001300079BB0CF0C3B80BF09BBE09B1002070472F
:100140000AF0A2BB0020704730B500200C4BA3F191
:10015000140202F10A04115C51B1255CA94207D1D5
:10016000195C29B1491EC9B2195409B900211154A9
:10017000115C2154401CC0B20A28ECD330BD0000F1
:1001800054EB07200849088170470749B1F9080076
:10019000002808D0401E00B20881002803D10021A9
:1001A000084600F05BBA704700C0072090F90030A5
:1001B0008B4200DA027090F90030934200DD01704A
:1001C000704790F900308B4200DA017090F900100E
:1001D000914200DD02707047B0F900308B4200DAC6
:1001E0000180B0F90010914200DD02807047B0F943
:1001F00000308B4200DA0280B0F90030934200DD1B
:10020000018070474FF04021012008600B480168D1
:10021000491C01600A48016821F0FF01091D0160C5
:10022000016841F080710160704706490120086053
:1002300002484168491C416070470000CC570010DB
:1002400000400340008000401E49086A40F0004022
:1002500008621D4A5068C30709D01C4B1B8833B184
:100260008B6B43F000438B630621917003E0CB6BF3
:1002700043F00043CB63400850605078401E10F0BC
:10028000FF00507003D1202050709068506070477C
:1002900010B50D4A002420234F2909D041290BD045
:1002A00052290DD0532902D154609460537010BD6F
:1002B00050609460537010BD50609060537010BDDA
:1002C000906010BD00C00920D457001040C0072026
:1002D000D2B201E000F8012B491EFBD27047002288
:1002E000F6E710B504460846114602462046FFF7D9
:1002F000EFFF204610BD704700207047FFFFFFFF53
:1003000000202021FF4A1154401CC0B2C828FAD353
:10031000704701460020FB4A401CC0B2135C8B4270
:1003200001D0C828F8D3704710B50021F64C0A2236
:100330000346B0FBF2F002FB10336354491CC9B210
:100340000529F5D310BDF0B5F04D01212970052127
:100350002026ED4B00272A7842B15A1812F8014C9A
:1003600024B9814202D902F8016C05E05A1812F84A
:10037000014D303414702F70491EC9B20029EAD1E2
:10038000F0BD70B50D4616461C46FFF7CDFF601C4C
:10039000C0B2FFF7D8FF05EB850006EB8000C1B2C5
:1003A0000020D94BD74DA04201D21A5C6A5406D323
:1003B0001A5C202A03D04CB16E1806F8012C491E95
:1003C000C9B2401CC0B20528EDD370BD6A54F6E72F
:1003D00030B5044608461546FFF79BFFFF2809D0B5
:1003E000C84A04E04319641CD154401CC0B22178AF
:1003F0000029F7D130BD70B50D461446FFF794FFC4
:10040000601CC0B2FFF79FFF2846FFF782FF002164
:10041000BD4ABC4D24B9535C202B01D02B5414E0B1
:10042000A14202D2535C2B540FE008D14FF02E03AF
:100430002B5405EB0006535C06F8013C05E0535CC9
:10044000202B02D02E1806F8013C401EC0B2491CD9
:10045000C9B20529DED370BDF0B50446084616467C
:100460001F46FFF756FF02461046A64DFF2804D14F
:1004700006E02954641C401CC0B221780029F8D140
:10048000A3480078002804D0002F02D05F209119E3
:100490006854F0BD2DE9F04F0746DDE909058846AF
:1004A00091469A46FFF735FF994B2021954C0A2239
:1004B0004FF0640C012D08D11E7836B12618A6F134
:1004C0000E06B1707170317015E097FBF2FB02FB04
:1004D0001B7E26180EF1300E06F80CEC9BFBF2FE8C
:1004E00002FB1EBB0BF1300B06F80DBC97FBFCF7B3
:1004F000303706F80E7C022D08D11E7836B126184A
:10050000A6F10A06B1707170317016E098FBF2F72F
:1005100002FB178B2618A6F10A060BF1300B86F8A2
:1005200002B097FBF2FB02FB1B7707F130077770F5
:1005300098FBFCF707F130073770032D08D11E78C0
:1005400036B12618A6F10606B1707170317016E04A
:1005500099FBF2F702FB17982618A6F1060608F198
:10056000300886F8028097FBF2F802FB187707F153
:100570003007777099FBFCF707F130073770042DCF
:1005800009D11B783BB121542044A0F102004170F5
:100590000170BDE8F08F9AFBF2F102FB11A330333A
:1005A000235491FBF2F302FB13112044A0F102004B
:1005B000303141709AFBFCF101F130010170E8E744
:1005C00030B5544901244F4B91F9012091F90410A1
:1005D0008A4204D100EB800003F8204030BD4D1C5E
:1005E000AA4205D1401C00EB800003F8204030BD3A
:1005F0008D1CAA4205D1801C00EB800003F820402E
:1006000030BDCD1CAA4205D1C01C00EB800003F810
:10061000204030BD0D1DAA4205D1001D00EB800019
:1006200003F8204030BD4D1DAA4205D1401D00EB0E
:10063000800003F8204030BD8D1DAA4205D1801DE9
:1006400000EB800003F8204030BDC91D8A42FBD179
:10065000C01D00EB800003F8204030BD2E4B1A88EF
:10066000521E12B21A80002A01DC00221A801A8857
:10067000104400B21880294A00EB8000024425484B
:100680001368036012790271427811444170704717
:1006900070B5214DB5F90040661C2E801F4D04EB4E
:1006A000840425441B4C26682E6026792E71207008
:1006B00061702271A37070BD2DE9F04180460F4634
:1006C0001646FFF71DFE0F4C002518F8010B04F825
:1006D000010B6D1CEDB2142DF7D3002017F8011B90
:1006E00004F8011B401CC0B21428F7D3002016F8F0
:1006F000011B04F8011B401CC0B21428F7D30020D2
:100700000EE00000E7000010E6020010EB0200100F
:1007100024000010DD00001018C007206C590010E4
:1007200013F8011B04F8011B401CC0B21428E7D3C6
:10073000BDE8F081FF4911200872704710B5FE48EE
:10074000C0240470A8224270002383701421C17059
:10075000FF21017241728172C372047142710221E0
:1007600081710121C17110BDF448016821F0E0617F
:1007700001607047F24900200870487088702D3180
:10078000487070472DE9F0410020EE4B00214FF4F6
:10079000F4721954401C00B29042FADB00224FF070
:1007A000140C7A2102FB01F002EB8201890009B2EC
:1007B00002EB82040CEB84071DE0E14CE24E37347F
:1007C000645C04EB4405441C16F8158003F80080B3
:1007D00006EB4500661C45781D558478751C9C55B4
:1007E000C4786E1C5C550579741C9D554579601C58
:1007F0001D55491C09B28F42DFDC521C12B2042A7B
:10080000CFDBBDE8F0812DE9F047ADF5AD6DCC4D06
:10081000A03DB5F84200B5F8441008442870A87906
:10082000401CC0B2A8710027142807D3AF716879A3
:10083000401CC0B26871052800D36F71C04C0DF523
:10084000806C2D342146227891F90100A1F14D06EA
:1008500091F90410012A02D0C42A7ED052E3BBA22F
:10086000CDF80024B9A2CDF80424B8A2CDF808240C
:10087000B6A2CDF80C2428B10A1A022A04DD801C85
:10088000207104E0277102E0884200DD207195F8B4
:100890000580B8F1050F0FD294F90400C11C5CF873
:1008A0002130811C401C5CF821205CF82010DDF810
:1008B0000004FFF701FF11E094F90400A8F1050816
:1008C000C11C5CF82130811C401C5CF821205CF8C4
:1008D000201006A850F82800FFF7EEFEE879B08A4D
:1008E0000122232180B2FFF786FDF08A0122242114
:1008F00080B2FFF780FDDFF83C8298F828000022E4
:100900002521FFF778FD98F8240000225E21FFF7EB
:1009100072FD98F8200000222621FFF76CFD98F860
:100920002C0000223C21FFF766FDB8F83C000022B5
:100930007B21FFF760FD98F838004FF0010918B1EE
:1009400098F838000C2801D988F8389098F83800C1
:100950008449002201EB800000E0D2E03E21FFF755
:1009600037FDDFF8DC81287D08F1370880B13A20B7
:10097000FFF7CFFC4FF0200A08F800A03A20FFF75D
:10098000C8FC08F800A03A20FFF7C3FC08F800A054
:1009900094F9040090B194F9011079B1884202D120
:1009A00088F83C900AE0401A012802D0022803D0BF
:1009B00004E088F8289001E088F81490287A401C18
:1009C000C1B22972B5F9400000EB8002B1EB820F91
:1009D00000DB2F7268B1287A1424B0FBF4F1DFF841
:1009E00060814846A8F1580898F80020552A08D197
:1009F00006E06FF001027A215BA0FFF7E9FC41E01D
:100A000000200844401C00227A21FFF7F4FC287AD9
:100A100098F80010B0FBF4F0552901D14FF000090F
:100A20004844401C00227A21FFF7E5FCB5F840005D
:100A3000534F01280AD198F80000552806D0B7F87E
:100A40004E0001225D21FFF7D6FC0DE0287A01223D
:100A5000B0FBF4F000EB400101EB001007EB80006D
:100A60005D214088FFF7C7FC287A0122B0FBF4F033
:100A700000EB400101EB001007EB80005D21408896
:100A8000FFF7B9FCA88D00230422194680B2FFF7B6
:100A900078FCE88D00230822194680B2FFF771FC2C
:100AA000274C00232834032220780121FFF769FC1A
:100AB0006078002307220121FFF763FCA078002360
:100AC0000B220121FFF75DFCE07800230F220121BA
:100AD000FFF757FC2079002313220121FFF751FC77
:100AE000274C002398340322E069022180B2FFF7EB
:100AF00048FCA06F032280B200231146FFF741FC9F
:100B00005FE3184AD2E90D38D26BCDE9033805927C
:100B10001CA2CDF8002421A2CDF8042425A2CDF8F2
:100B200008242AA2CDF80C242EA2CDF8102433A23A
:100B300070E0000000400240F868001000400340F0
:100B4000B0000010B4F60720F0D7000020202020CD
:100B50002020202020202020202020202020202095
:100B600000000000F0DD000020D0E0E1EEF2E02027
:100B7000E1E5E720E1E0F2E0F0E5E9200000000037
:100B8000B0EB07202045746865726E6574202020E4
:100B90002020202020202120000000002044484365
:100BA00050EAEBE8E5EDF220202020202020402034
:100BB00000000000204950E0E4F0E5F12020202072
:100BC0002020202020202020000000002020303085
:100BD000302E3030302E3030302E30302320202058
:100BE0000000000020CCE0F1EAE020EFEEE4F1E5C7
:100BF000F2E82020202020200000000020203030BB
:100C0000302E3030302E3030302E30302420202026
:100C100000000000CDF81424BBA2CDF81824C0A217
:100C2000CDF81C24C4A2CDF82024C9A2CDF82424D8
:100C3000CDA2CDF82824D2A2CDF82C24D6A2CDF86E
:100C40003024DBA2CDF83424DFA2CDF83824E4A28E
:100C5000CDF83C24E8A2CDF84024EDA2CDF8442400
:100C6000F1A2CDF84824F6A2CDF84C24FAA2CDF892
:100C70005024FFA2CDF85424B5F84A2052B9FCA262
:100C8000CDF80424AFF23C12CDF80824AFF24412A0
:100C9000CDF80C24884201DA207104E0411A0229BF
:100CA00001DD801E207194F90400811C5CF8213064
:100CB000411C5CF821205CF82010F3A0FFF7FCFC3D
:100CC0000120FFF77DFCB5F84A006FF002086FF0D5
:100CD000030928B142462121F1A0FFF779FB04E086
:100CE0004A462121F0A0FFF773FBB5F84C0028B16C
:100CF00042464021EAA0FFF76BFB04E04A46402150
:100D0000E9A0FFF765FB6078022842D00023232288
:100D1000CDE90023B5F95430B5F95220B5F950109A
:100D2000B5F94E00FFF7B6FB6078042842D00023E7
:100D30002422CDE90023B5F95C30B5F95A20B5F984
:100D40005810B5F95600FFF7A5FB6078062842D089
:100D500000232922CDE90023B6F91030B6F90E2080
:100D6000B6F90C10B6F90A00FFF794FBF0880022E0
:100D70005B2180B2FFF73FFB308900225D2180B20A
:100D8000FFF739FBB5F95E006FF00D08FF2833D08F
:100D90003EE0A0782322401CC3B2CDE90023B5F980
:100DA0005430B5F95220B5F95010B5F94E00FFF79F
:100DB00071FBB9E7A0782422401CC3B2CDE900231F
:100DC000B5F95C30B5F95A20B5F95810B5F95600A7
:100DD000FFF760FBB9E7A0782922401CC3B2CDE938
:100DE0000023B6F91030B6F90E20B6F90C10B6F99A
:100DF0000A00FFF74FFBB9E7B5F86010FF2907D1EC
:100E0000B5F86210FF2903D1B5F86410FF2913D09B
:100E100061780B2916D000232522CDE90023B5F9EE
:100E20006430B5F96220B5F96010FFF733FBB5F90E
:100E30006600FF2815D020E0424625219CA0FFF740
:100E4000C7FAF4E7A1782522491CCBB2CDE90023EB
:100E5000B5F96430B5F96220B5F96010FFF71AFBF7
:100E6000E5E7B5F86810FF2907D1B5F86A10FF2942
:100E700003D1B5F86C10FF2913D061780D2916D075
:100E800000235E22CDE90023B5F96C30B5F96A2064
:100E9000B5F96810FFF7FEFAB5F96E00FF2815D016
:100EA00020E042465E2182A0FFF792FAF4E7A178A3
:100EB0005E22491CCBB2CDE90023B5F96C30B5F9FF
:100EC0006A20B5F96810FFF7E5FAE5E7B5F87010A4
:100ED000FF2907D1B5F87210FF2903D1B5F87410B6
:100EE000FF290DD061780F290BD000232622CDE9F0
:100EF0000023B5F97430B5F97220B5F97010E1E04E
:100F0000E7E0EDE05DE1000020D8EBFEE7202020E7
:100F10002020202020202020202020200000000051
:100F200020203030302E3030302E3030302E3030E7
:100F3000292020200000000020CFEEF0F22EF7F252
:100F4000E5EDE8FF202020202020205B00000000AD
:100F500020CFEEF0F22EE7E0EFE8F1E820202020AD
:100F60002020205D0000000020436F6D6D756E69CC
:100F70007479203C20202020202020200000000028
:100F800020C0E4F0E5F1E0F220E4EBFF2054524110
:100F900050204E310000000020203030302E303004
:100FA000302E3030302E3030252020200000000040
:100FB00020C0E4F0E5F1E0F220E4EBFF20545241E0
:100FC00050204E320000000020203030302E3030D3
:100FD000302E3030302E30305E20202000000000D7
:100FE00020C0E4F0E5F1E0F220E4EBFF20545241B0
:100FF00050204E330000000020203030302E3030A2
:10100000302E3030302E30302620202000000000DE
:1010100020C0E4F0E5F1E0F220E4EBFF205452417F
:1010200050204E340000000020203030302E303070
:10103000302E3030302E30302A20202000000000AA
:1010400020C0E4F0E5F1E0F220E4EBFF205452414F
:1010500050204E350000000020203030302E30303F
:10106000302E3030302E303028202020000000007C
:1010700020C2FBF5EEE4202020202020202020208C
:10108000202020200000000020D3D1D2C0CDCEC22D
:10109000CAC82045746865726E657420000000003F
:1010A000C2CACB2E00000000C2DBCACB2E0000005B
:1010B00020202020EDE5E0EAF2E8E2E5ED20202026
:1010C00020000000FFF7E6F9B5F97600FF2816D0FA
:1010D00021E042462621AFF22800FFF779F9F3E735
:1010E000A1782622491CCBB2CDE90023B5F9743092
:1010F000B5F97220B5F97010FFF7CCF9E4E7B5F84F
:101100007810FF2907D1B5F87A10FF2903D1B5F877
:101110007C10FF2913D06178112917D000232A22CF
:10112000CDE90023B5F97C30B5F97A20B5F978100E
:10113000FFF7B0F9B5F97E00FF2816D01EE0424651
:101140002A21AFF29400FFF743F9F3E7A1782A22AE
:10115000491CCBB2CDE90023B5F97C30B5F97A2032
:10116000B5F97810FFF796F9E4E73188FF2905D142
:101170007188FF2902D1B188FF2936D061781329FF
:101180003AD000232822CDE90023B6F90430B6F97D
:101190000220B6F90010FFF77DF90020F94A03A9F3
:1011A000135C0B54401CC0B20928F9D38DF815709C
:1011B00060780A282FD0A27800233C2103A8FFF7EB
:1011C0004BF9E87D00282DD0401EE87506F12C0073
:1011D0000FC8FFF771FA308B2A7E0DF5AD6D4021F7
:1011E000BDE8F04780B2FFF706B942462821AFF2CA
:1011F0004010FFF7EDF8D0E7A1782822491CCBB2C8
:10120000CDE90023B6F90430B6F90220B6F9001092
:10121000FFF740F9C1E7A27801233C2103A8FFF7BB
:101220001BF9CEE70DF5AD6DBDE8F0872DE9F04374
:10123000D549086A40F400100862486B20F4001099
:101240004863086A20F0F8600862D048C26CD04B4E
:101250001A40C264086C40F480700864486D20F441
:1012600080704865002000BF00BF00BF00BF00BF06
:1012700000BF00BF00BF401CC0B2C828F3D3086C39
:1012800040F480700864486D40F480704865486B95
:10129000C04F60F0F860820D3A64A7F180033846D1
:1012A0001C7F456C587F997FA2F5407905F07F0639
:1012B0004FF0010C4FF00008B9F1FF0901D0AA422C
:1012C00018D083F81F80042C00D228B193F8204056
:1012D00014B983F821C0DD76884202D383F821C097
:1012E000DE7683F820801420987783F81C8083F8BA
:1012F0001D801AE0641CE4B21C77042C15D383F81B
:101300001C80401CC0B2587788420ED3DE7683F82A
:101310001D8083F821C083F820C0D87F28B14808F9
:101320009877022801D8022098777A64BDE8F08384
:101330002DE9F05F974F803F002697F8210008B312
:1013400007F1CD00FA7E0378924DF92A0BD00124E3
:10135000E72A1DD0792A15D07A2A1FD04FF0050A26
:10136000FE2A25D027E08B2B0DD0D5F84D00C5F8EF
:10137000520015F8510F687100231A4610218B2076
:10138000FFF786F947E000210846FFF767F942E0DA
:10139000EC6353210020FEF77BFF3CE097F823002D
:1013A00018B187F82360FE7735E087F82340FAE725
:1013B0003979032913D077494D318B2B91F90110DD
:1013C00001F1010C4FFA8CF8A1F1010C4FFA8CF9E4
:1013D0000DD0012B65D08046C42B7CD01BE087F854
:1013E00004A005214FF4B47005F016F813E0EF2ABD
:1013F00012D0F72A19D0044601291FD005290AD096
:1014000020460E2938D063494D31FD2A91F9041048
:1014100037D0FB2A3DD02EE080F8018006711022E3
:101420000021401CFEF7C2FE25E080F80190067105
:1014300010220021401CFEF7B9FE1CE0FD2A07D156
:10144000A078401EA0701E220021A01CFEF7B9FE4D
:10145000F87EFB2807D1A078401CA0701E22002136
:10146000A01CFEF7AEFEF87EFE2804D12670667042
:10147000A670E670267103E0FE2A01D102F0CFFDCE
:101480005CE0491E017104220021001DFEF799FE57
:1014900054E0491C017104220021001DFEF791FE59
:1014A0004CE0DFF8F0A0FB2AAAF1800ABAF9444028
:1014B000BAF94030BAF9425003EB040BBAF946A02E
:1014C000AB4409D0FD2A17D0F72A25D0FE2A25D013
:1014D0007E2A7ED032E041E180F80180BAF1000F2F
:1014E00001D0012100E0002159440C314AB2002111
:1014F000401CFEF766FE21E080F80190BAF1000F73
:1015000001D0012100E0002159440C314AB20021F0
:10151000401CFEF756FE11E046700FE000290DD08A
:1015200015DD994213DC1B4838380078552806D061
:101530000022012311462320FFF7AAF868E00022C9
:101540000CF0FF0311462320FFF7A2F860E0DFF85C
:101550004480A8F1800808F1CD02B8F940C092F9A2
:101560000120B8F94280A2EB0C02521EC4449942F9
:1015700012DD614510DCD3B2002211462D20FFF7A9
:1015800087F845E0C005082000C0092000C00240DF
:10159000FF0FC0FF9000001061450ADD23442B447B
:1015A000994206DCD3B200221146C520FFF770F83D
:1015B0002EE00CEB0402531C99420BD100231A4677
:1015C00019461420FFF764F84FF47A70FEF7DAFD3D
:1015D0001EE0B8E0931C99420AD100231A4619462E
:1015E0004A20FFF755F84FF47A70FEF7CBFD0FE075
:1015F000D31C99420CD0131D99420AD100231A46DC
:101600000121C120FFF744F84FF47A70FEF7BAFDCC
:1016100098E0531D99420DD1BAF1000F0AD0002372
:101620001A461946C320FFF733F84FF47A70FEF7D5
:10163000A9FD87E0BAF1000F01D0012300E00023EB
:1016400063449B1D8B420AD100231A46194642204F
:10165000FFF71EF84FF47A70FEF794FD72E0BAF1CE
:10166000000F01D0012300E000231344DB1D8B4257
:101670000BD100231A4619463020FFF709F8322013
:10168000FEF780FDFFF776F85CE0BAF1000F01D0BD
:10169000012300E00023134408338B420AD10023C6
:1016A0001A461946B820FEF7F3FF4FF47A70FEF79A
:1016B00069FD47E0BAF1000F01D0012300E00023EB
:1016C000134409338B4201D146703BE0BAF1000F5D
:1016D00001D0012000E0002010440A3088420AD1E5
:1016E00000231A461946BA20FEF7D2FF4FF47A704B
:1016F000FEF748FD26E0BAF1000F01D0012000E01E
:10170000002010440B3088420AD1002201231146E8
:10171000BA20FEF7BDFF4FF47A70FEF733FD11E0FB
:10172000BAF1000F01D0012000E0002010440C307D
:10173000884207D100231A4619465B20FEF7A8FF0E
:10174000FFF718F8D8E000231A461946C420FEF720
:101750009FFF4FF47A70FEF715FDCDE04FF47A70DD
:10176000FEF710FD0122B7F94A0000B11522F97EFB
:101770004FF00D094FF00F0BFB2911D0FD297AD046
:101780007B2975D040F2CE294FF4347A40F2D22B27
:1017900067296ED098F90130F3B3012B6AD0A1E12B
:1017A00098F80100401C41B288F80110022906D1C6
:1017B00098F8040018B988F8044088F80260404698
:1017C000032904D1042141700321017186704178FD
:1017D000052904D10621417080F804A08670417863
:1017E000072902D108214170867090F901100A2959
:1017F00000D186700B2902D10A23037186700C294F
:1018000001D180F8019090F901100D2902D10C232B
:10181000037186700E2900E03DE101D180F801B02E
:1018200090F901100F2902D10E230371867010293F
:1018300001D11121417090F90110112902D1102319
:1018400003718670122901D11321417090F90110A2
:10185000132902D1122303718670142901D1152195
:10186000417052B20021401CFEF7ABFC44E002E0A4
:1018700043E045E022E198F80100401E88F80100AD
:1018800052B2002108F10100FEF79BFC98F801001C
:10189000142802D1132088F8010098F801001228BA
:1018A00002D1112088F8010098F80100102801D118
:1018B00088F801B098F801000E2801D188F801904D
:1018C00098F801000C2802D10B2088F8010098F844
:1018D0000100072802D1062088F8010098F80100CD
:1018E000052802D1042088F8010098F80100032897
:1018F00002D1022088F80100D9E088F80120D6E062
:1019000001214FF4337004F0BDFD0121484604F07D
:10191000B9FDC021504604F0B5FDA821584604F099
:10192000B1FD01214FF4357004F0ACFDFB2140F214
:10193000D62004F0A7FDFF214FF4367004F0A2FD7D
:10194000FF2140F2DA2004F09DFDFF214FF43770B3
:1019500004F098FD002140F2DE2004F093FDC02148
:101960004FF4437004F08EFDA82140F20E3004F0D5
:1019700089FD01214FF4447004F084FDFE2140F202
:10198000123004F07FFDA1214FF4427004F07AFD83
:10199000A22140F20A3004F075FD312140F2DA3024
:1019A00004F070FD32214FF4777004F06BFD3321A9
:1019B00040F2DE3004F066FD00214FF4787004F050
:1019C00061FD002140F2E23004F05CFDFF214FF4A4
:1019D000387004F057FDFF2140F2E22004F052FD80
:1019E000FF214FF4397004F04DFDFF2140F2E62055
:1019F00004F048FDFF214FF43A7004F043FDFF214D
:101A000040F2EA2004F03EFDFF214FF43B7004F069
:101A100039FDFF2140F2EE2004F034FDFF214FF4A8
:101A20003C7004F02FFDFF2140F2F22004F02AFD6B
:101A3000FF214FF43D7004F025FDFF2140F2F62018
:101A400004F020FDFF214FF43E7004F01BFDFF2148
:101A500040F2FA2004F016FDFF214FF43F7004F02D
:101A600011FDFF2140F2FE2004F00CFDFF214FF498
:101A7000407004F007FDFF2140F2023004F002FD47
:101A8000FF214FF4417004F0FDFCFF2140F20630CD
:101A900004F0F8FC0BE0FE2903D0F72901D0EF2970
:101AA00005D128B100214FF4337004F0EBFC13E0B2
:101AB00001214FF4337004F0E5FC0DE090B1FE29F4
:101AC00003D0F72901D0EF2906D1B7F84C0020B197
:101AD0000021484604F0D6FC1FE00121484604F0EE
:101AE000D1FC1AE0022B19D0042B73D0062B72D034
:101AF000082B71D0092B70D00A2B6FD040460B2BCE
:101B00006DD00D2B6CD00F2B6BD0112B6AD0132BFB
:101B100069D0934201D1FE2978D012E27E2909D002
:101B200098F9020090B101283AD0022871D0032818
:101B30006ED006E298F80200401C88F802000322EA
:101B4000002108F10200FEF731FBFAE1EF2906D08F
:101B50006F2904D0F72912D0772910D01EE0B7F8EA
:101B60004E00401CA7F84E00FF220021FA48FEF765
:101B70003EFBB7F94E10504604F084FC0EE0B7F877
:101B80004E00401EA7F84E00FF220021F248FEF74B
:101B90002EFBB7F94E10504604F074FCFC77D0E1F0
:101BA000EF2906D06F2904D0F7291DD077291BD043
:101BB0002AE0B7F85000401CA7F85000E648FF2282
:101BC0000021801CFEF713FBB7F95010584604F0B3
:101BD00059FC19E079E049E109E228E247E2C5E26F
:101BE00093E3F3E3F3E3F3E3B7F85000401EA7F801
:101BF0005000D948FF220021801CFEF7F8FAB7F9FF
:101C00005010584604F03EFCFC779AE1F4E300E003
:101C10002DE0EF2906D06F2904D0F72914D07729B9
:101C200012D022E0B7F85200401CA7F85200CA4870
:101C3000FF220021001DFEF7DAFAB7F952104FF427
:101C4000357004F01FFC10E0B7F85200401EA7F8F2
:101C50005200C148FF220021001DFEF7C8FAB7F963
:101C600052104FF4357004F00DFCFC7769E1EF2958
:101C700006D06F2904D0F72914D0772912D022E09A
:101C8000B7F85400401CA7F85400B348FF220021C5
:101C9000801DFEF7ACFAB7F9541040F2D62004F0DC
:101CA000F1FB10E0B7F85400401EA7F85400AA4812
:101CB000FF220021801DFEF79AFAB7F9541040F276
:101CC000D62004F0DFFBFC773BE17E2909D098F9B0
:101CD000020090B101283ED002286AD0032871D0BA
:101CE0002FE198F80200401C88F80200032200212E
:101CF00008F10200FEF75AFA23E1EF2906D06F2916
:101D000004D0F72914D0772912D022E0B7F8560072
:101D1000401CA7F856009048FF2200210830FEF72B
:101D200066FAB7F956104FF4367004F0ABFB10E0CA
:101D3000B7F85600401EA7F856008748FF2200213A
:101D40000830FEF754FAB7F956104FF4367004F025
:101D500099FBFC77F5E0EF2906D06F2904D0F7292D
:101D600014D0772912D022E0B7F85800401CA7F809
:101D700058007948FF2200210A30FEF738FAB7F9F7
:101D8000581040F2DA2004F07DFB10E0B7F858005C
:101D9000401EA7F858007048FF2200210A30FEF7C5
:101DA00026FAB7F9581040F2DA2004F06BFBFC7702
:101DB000C7E0EF2907D06F2905D0F72915D077297B
:101DC00013D023E024E0B7F85A00401CA7F85A00CB
:101DD0006148FF2200210C30FEF709FAB7F95A10CA
:101DE0004FF4377004F04EFB10E0B7F85A00401E75
:101DF000A7F85A005848FF2200210C30FEF7F7F9E7
:101E0000B7F95A104FF4377004F03CFBFC7798E0B8
:101E1000EF2906D06F2904D0F72914D0772912D0E2
:101E200022E0B7F85C00401CA7F85C004A48FF229B
:101E300000210E30FEF7DBF9B7F95C1040F2DE202E
:101E400004F020FB10E0B7F85C00401EA7F85C002F
:101E50004148FF2200210E30FEF7C9F9B7F95C10A6
:101E600040F2DE2004F00EFBFC776AE07E2909D008
:101E700098F9020090B101283AD0022862D00328D4
:101E800069D05EE098F80200401C88F80200032246
:101E9000002108F10200FEF789F952E0EF2906D08F
:101EA0006F2904D0F72912D0772910D01EE0688955
:101EB000401C68812848FF2200213C30FEF797F93A
:101EC000B5F90A104FF4437004F0DCFA0EE06889AB
:101ED000401E68812048FF2200213C30FEF787F930
:101EE000B5F90A104FF4437004F0CCFAFC7728E0FF
:101EF000EF2906D06F2904D0F72912D0772910D006
:101F00001EE0A889401CA8811348FF2200213E3012
:101F1000FEF76DF9B5F90C1040F20E3004F0B2FA8C
:101F20000EE0A889401EA8810B48FF2200213E3008
:101F3000FEF75DF9B5F90C1040F20E3004F0A2FA8C
:101F4000FC7712E1EF2909D06F2907D0F72914D0C7
:101F5000772912D01FE020E05E000010E889401CC5
:101F6000E881FF220021F848FEF741F9B5F90E108B
:101F70004FF4447004F086FA0DE0E889401EE881D1
:101F8000FF220021F048FEF732F9B5F90E104FF4A8
:101F9000447004F077FAFC77E7E0EF2906D06F2968
:101FA00004D0F72912D0772910D01EE0288A401CCF
:101FB0002882E548FF220021801CFEF718F9B5F9B8
:101FC000101040F2123004F05DFA0EE0288A401E34
:101FD0002882DD48FF220021801CFEF708F9B5F9B0
:101FE000101040F2123004F04DFAFC77BDE0EF29FA
:101FF00006D06F2908D0F7290AD077290CD00EE037
:10200000E888401CE8800AE0E888801CE88006E058
:10201000E888401EE88002E0E888801EE880FC77BF
:10202000B5F906104FF4427004F02CFA9DE0EF2948
:1020300006D06F2908D0F7290AD077290CD00EE0F6
:102040002889401C28810AE02889801C288106E014
:102050002889401E288102E02889801E2881FC777B
:10206000B5F9081040F20A3004F00CFA7DE07E2940
:102070000AD198F80200401C88F8020008220021CA
:1020800008F10200FEF792F8F87E2025DFF8BC92F6
:10209000EF2801D06F2831D198F9020019F800100B
:1020A000491CC9B209F80010202902D209F80050D1
:1020B0001BE0A1F121020F2A03D2302109F8001000
:1020C00013E0A1F13A02072A03D2412109F80010D6
:1020D0000BE0A1F15B02062A03D2612109F800108E
:1020E00003E07A2901D909F8005019F8001040F2EC
:1020F000DA3202EB400004F0C5F9FC77F87EF728ED
:1021000001D0772831D198F9020019F80010491E42
:10211000C9B209F800107A22202902D209F8002059
:102120001AE0A1F121030F2B02D209F8005013E0AD
:10213000A1F13A03072B03D2392109F800100BE073
:10214000A1F15B03062B03D25A2109F8001003E02A
:102150007A2901D909F8002019F8001040F2DA3282
:1021600002EB400004F08EF9FC7714E27E2909D0DE
:1021700090F9020078B101283BD0022867D00328EB
:102180007ED0FBE38178491C817003220021801CF2
:10219000FEF70CF8F2E3EF2906D06F2904D0F729F7
:1021A00014D0772912D022E0B7F85E00401CA7F8BF
:1021B0005E006548FF2200213038FEF718F8B7F9B5
:1021C0005E104FF4387004F05DF910E0B7F85E006F
:1021D000401EA7F85E005C48FF2200213038FEF761
:1021E00006F8B7F95E104FF4387004F04BF9FC773D
:1021F000C4E3EF2906D06F2904D0F72914D077293A
:1022000012D022E0B7F86000401CA7F860004E48EA
:10221000FF2200212E38FDF7EAFFB7F9601040F2E7
:10222000E22004F02FF910E0B7F86000401EA7F894
:1022300060004548FF2200212E38FDF7D8FFB7F98E
:10224000601040F2E22004F01DF9FC7796E3EF29DC
:1022500006D06F2904D0F72916D0772914D024E0AE
:10226000B7F86200401CA7F862003748FF2200213F
:102270002C38FDF7BCFFB7F962104FF4397000E05D
:1022800015E004F0FFF810E0B7F86200401EA7F870
:1022900062002D48FF2200212C38FDF7A8FFB7F976
:1022A00062104FF4397004F0EDF8FC7766E3EF2923
:1022B00006D06F2904D0F72914D0772912D022E054
:1022C000B7F86400401CA7F864001F48FF220021F3
:1022D0002A38FDF78CFFB7F9641040F2E62004F0CD
:1022E000D1F810E0B7F86400401EA7F86400164863
:1022F000FF2200212A38FDF77AFFB7F9641040F277
:10230000E62004F0BFF8FC7738E37E2909D090F985
:10231000020078B101283ED0022870D003286DD089
:102320002CE38178491C817003220021801CFDF779
:102330003DFF23E3EF290BD06F2909D0F72918D0EF
:10234000772916D025E000009E000010C005082067
:10235000B7F86600401CA7F86600FF220021FA4883
:10236000FDF745FFB7F966104FF43A7004F08AF8AC
:102370000FE0B7F86600401EA7F86600FF220021B4
:10238000F148FDF734FFB7F966104FF43A7004F0E6
:1023900079F8FC77F2E2EF2906D06F2904D0F7290B
:1023A00017D0772915D025E0B7F86800401CA7F8AA
:1023B0006800E548FF220021801CFDF718FFB7F9EF
:1023C000681040F2EA2004F05DF813E073E041E1A8
:1023D0000EE2B7F86800401EA7F86800DA48FF224E
:1023E0000021801CFDF703FFB7F9681040F2EA20D6
:1023F00004F048F8FC77C1E2BCE200E02DE0EF29F0
:1024000006D06F2904D0F72914D0772912D022E002
:10241000B7F86A00401CA7F86A00CB48FF220021E9
:10242000001DFDF7E4FEB7F96A104FF43B7004F0AD
:1024300029F810E0B7F86A00401EA7F86A00C24801
:10244000FF220021001DFDF7D2FEB7F96A104FF4FC
:102450003B7004F017F8FC7790E2EF2906D06F2963
:1024600004D0F72914D0772912D022E0B7F86C00F5
:10247000401CA7F86C00B448FF220021801DFDF726
:10248000B6FEB7F96C1040F2EE2003F0FBFF10E04F
:10249000B7F86C00401EA7F86C00AB48FF22002183
:1024A000801DFDF7A4FEB7F96C1040F2EE2003F09A
:1024B000E9FFFC7762E27E2909D090F9020078B149
:1024C00001283BD0022867D003287ED056E28178CD
:1024D000491C817003220021801CFDF767FE4DE23C
:1024E000EF2906D06F2904D0F72914D0772912D00C
:1024F00022E0B7F86E00401CA7F86E009248FF2259
:1025000000210830FDF773FEB7F96E104FF43C70F0
:1025100003F0B8FF10E0B7F86E00401EA7F86E0099
:102520008948FF2200210830FDF761FEB7F96E10DF
:102530004FF43C7003F0A6FFFC771FE2EF2906D0B2
:102540006F2904D0F72914D0772912D022E0B7F8E8
:102550007000401CA7F870007B48FF2200210A3061
:10256000FDF745FEB7F9701040F2F22003F08AFF44
:1025700010E0B7F87000401EA7F870007248FF2204
:1025800000210A30FDF733FEB7F9701040F2F22057
:1025900003F078FFFC77F1E1EF2906D06F2904D032
:1025A000F72916D0772914D024E0B7F87200401C20
:1025B000A7F872006448FF2200210C30FDF717FED7
:1025C000B7F972104FF43D7000E015E003F05AFFC8
:1025D00010E0B7F87200401EA7F872005A48FF22B8
:1025E00000210C30FDF703FEB7F972104FF43D7077
:1025F00003F048FFFC77C1E1EF2906D06F2904D032
:10260000F72914D0772912D022E0B7F87400401CC3
:10261000A7F874004C48FF2200210E30FDF7E7FDBB
:10262000B7F9741040F2F62003F02CFF10E0B7F871
:102630007400401EA7F874004348FF2200210E30AA
:10264000FDF7D5FDB7F9741040F2F62003F01AFF3C
:10265000FC7793E17E2909D090F9020078B1012836
:102660003BD0022867D0032870D087E18178491CCD
:10267000817003220021801CFDF798FD7EE1EF2987
:1026800006D06F2904D0F72914D0772912D022E080
:10269000B7F87600401CA7F876002B48FF220021EF
:1026A0001030FDF7A4FDB7F976104FF43E7003F03B
:1026B000E9FE10E0B7F87600401EA7F87600224841
:1026C000FF2200211030FDF792FDB7F976104FF48C
:1026D0003E7003F0D7FEFC7750E1EF2906D06F295A
:1026E00004D0F72914D0772912D022E0B7F8780067
:1026F000401CA7F878001448FF2200211230FDF793
:1027000076FDB7F9781040F2FA2003F0BBFE10E036
:10271000B7F87800401EA7F878000B48FF22002188
:102720001230FDF764FDB7F9781040F2FA2003F09B
:10273000A9FEFC7722E1EF2909D06F2907D0F729FC
:1027400016D0772914D023E07600001022E0B7F8E5
:102750007A00401CA7F87A00FF220021FF48FDF70D
:1027600046FDB7F97A104FF43F7003F08BFE0FE08F
:10277000B7F87A00401EA7F87A00FF220021F74838
:10278000FDF735FDB7F97A104FF43F7003F07AFE8C
:10279000FC77F3E0EF2906D06F2904D0F72914D095
:1027A000772912D022E0B7F87C00401CA7F87C0003
:1027B000EA48FF220021801CFDF719FDB7F97C10C3
:1027C00040F2FE2003F05EFE10E0B7F87C00401EF1
:1027D000A7F87C00E148FF220021801CFDF707FDDF
:1027E000B7F97C1040F2FE2003F04CFEFC77C5E008
:1027F0007E2909D090F9020078B101283BD0022847
:1028000063D003287AD0B9E08178491C8170032213
:102810000021801CFDF7CAFCB0E0EF2906D06F292B
:1028200004D0F72914D0772912D022E0B7F87E001F
:10283000401CA7F87E00C948FF220021001DFDF7BB
:10284000D6FCB7F97E104FF4407003F01BFE10E089
:10285000B7F87E00401EA7F87E00C048FF22002186
:10286000001DFDF7C4FCB7F97E104FF4407003F073
:1028700009FEFC7782E0EF2906D06F2904D0F72902
:1028800012D0772910D01EE02888401C2880B34839
:10289000FF220021801DFDF7AAFCB5F9001040F2CF
:1028A000023003F0EFFD0EE02888401E2880AB4880
:1028B000FF220021801DFDF79AFCB5F9001040F2BF
:1028C000023003F0DFFDFC7758E0EF2906D06F29D6
:1028D00004D0F72913D0772911D01FE06888401C55
:1028E00068809E48FF2200210830FDF780FCB5F982
:1028F00002104FF4417003F0C5FD0FE010E068884E
:10290000401E68809548FF2200210830FDF76FFCCB
:10291000B5F902104FF4417003F0B4FDFC772DE0DF
:10292000EF2906D06F2904D0F72912D0772910D0CB
:102930001EE0A888401CA8808848FF2200210A3099
:10294000FDF755FCB5F9041040F2063003F09AFD8E
:102950000EE0A888401EA8808048FF2200210A308F
:10296000FDF745FCB5F9041040F2063003F08AFD8E
:10297000FC7703E000210846FDF770FE87F8216030
:10298000BDE8F09F7649C80541600021016103213F
:102990000170AA210172552101727047AA214807CE
:1029A000017255210172704730B56C497A39488DF2
:1029B000401C00B24885142801DD00204885002015
:1029C000684DB1F92A40C0EBC00202EB00120119B8
:1029D00005EB820201F52F73D36101F132035362DB
:1029E0000F3BDBB2936201F10A03937082F842104D
:1029F000401CC0B20528E6D330BD2DE9F041574E4A
:102A000001257A3EF572B07D574938B1086A40F029
:102A100080600862486B80F080604863708F00249B
:102A2000401C00B27087022870DB7487B572486959
:102A3000C0F3C06070764949B27E891D904202D0D1
:102A40008A8B521C8A83B076B08F401C00B2B0874C
:102A5000142801DBB4877573308E401C00B23086B9
:102A60000A2853DB34863573C88B401C00B2C883F8
:102A7000B0F5FA7F03DBCC83888B48838C83708E20
:102A800042F21077401C00B270860A2809DB748677
:102A9000B573FDF7D9FBB6F92600B84201DA401C40
:102AA000F084B08E401C00B2B086142806DBB486D9
:102AB000F573F07C08B1F47400E0F574F08E401CFE
:102AC00000B2F086322806DBF4863574307D08B11A
:102AD000347500E03575308F401C00B230876428B3
:102AE00014DB34877574B6F92800B84201DA401C4B
:102AF0003085707D08B1747500E07575F08F401CED
:102B000000B2F0873C2801DBF487B5741749184AF6
:102B10000878062808D200F10100C0B20870062823
:102B200000D31570BDE8F081FCD90C701470F9E782
:102B30001CB510A003C8CDE9000102F027FF074E25
:102B40004FF001097A3E86F816900C484FF4FA616E
:102B50000068B0FBF1F1491E12E000008A0000108D
:102B600080841E0048EC072000C00920F4570010A4
:102B70006EC10720007304323C460000C8570010A5
:102B80004FF0E020416107210161EA49052088708A
:102B900081F85E0081F8BA0081F8160181F87201AF
:102BA00081F8CE0181F82A02E34C206820F0006011
:102BB0002060206C40F080002064206C40F4807025
:102BC0002064206E40F000702066E06F40F00070DE
:102BD000E06702F0B8FFD948401E0028FCD1212050
:102BE00002F0C3FF0D2002F0C0FF112002F0BDFF74
:102BF000442002F0BAFFD24947F6FF70488088802F
:102C0000C880088148818881C8810882488288827A
:102C1000C882088348838883C88348848884C8849A
:102C2000088548858885C885088648868886C88638
:102C3000088748878887C887C2490880488003F08A
:102C400051FA03F095FA03F07BFAFDF773FDBE4FDE
:102C500087F80090BD4BBEA2C3A11846FDF72CFD1E
:102C6000206840F400602060A06940F40060A0612A
:102C70008621642003F006FC01F070FFA7F14D08E7
:102C8000B8F9120000EB80004100002003F0CAFCFC
:102C9000A7F1250001788DF8051041788DF8041012
:102CA00080788DF8030006226946B54808F078FF61
:102CB00040F2DA3003F034FBB24D28704FF47770F5
:102CC00003F02EFBC0B26870002408B1202800D1A8
:102CD0006C7040F2DE3003F023FBC0B2A87008B184
:102CE000202800D1AC704FF4787003F019FBC0B20B
:102CF000E87008B1202800D1EC7040F2E23003F017
:102D00000FFBC0B2287108B1202800D12C714FF4FC
:102D1000797003F005FBC0B2687108B1202800D1BA
:102D20006C7140F2E63003F0FBFAC0B2A87108B152
:102D3000202800D1AC714FF47A7003F0F1FAC0B2E0
:102D4000E87108B1202800D1EC7140F2EA3003F0BC
:102D5000E7FAC0B2287208B1202800D12C726C7238
:102D60004FF4337003F0DCFA012811D1774B78A2CD
:102D70007DA11846FDF7A0FCFDF704FD824803F095
:102D8000FFF908F0F1FC804803F0FAF9FDF7D6FCF2
:102D90003A25FFF7F7FDB8F9120000EB800040007C
:102DA00004F049FE7948401E0028FCD1B8F9120011
:102DB00000EB8000400004F03EFE754B0A2200212B
:102DC000012009F0BDFF86F8240018B14FF4FB7113
:102DD00009F0FAFF4FF4165005F07FF96D4A032110
:102DE00000200AF061FB6C49087018B140F2E9312B
:102DF0000AF07EFB87F80090DFF8A0B1DFF8A0A111
:102E0000684FB47508F09EFE387810B13C7004F03D
:102E10009EFA9BF8000018B18BF8004005F0B3FA59
:102E20006148017811B1047003F02BFE707A00B193
:102E30007472F07A00B1F472B07A10B1B47204F026
:102E400045FE307B40B13473B078F178084301D14E
:102E5000FEF7ECF9FEF76CFA707B00B1747338780A
:102E600010B13C7004F073FAB07B10B30AF00EFBA3
:102E7000C8F82490B473FDF7C6FCFDF783FCF07826
:102E800010B9414803F07CF9FDF75EF9FDF77DF9D3
:102E90009AF80000401CC0B28AF800000D2808D340
:102EA0008AF80040B8F9120000EB8000400004F0FE
:102EB000C2FDF07B68B1F473F07808B902F0C7FE88
:102EC000F07808B901F04AFE00F070F8B08D401CAF
:102ED000B085307C18B13474F08D401CF0853878A2
:102EE00010B13C7004F033FA707CE8B17474164889
:102EF000401F0178491C0170FFF756FDB07808B9F2
:102F0000FFF74CFD96F82200401C86F822006D1C4D
:102F1000EDB23C2D06D3002503F0E4F803F028F9C8
:102F200003F00EF901F0A2F8B07C00283FF469AF7D
:102F3000B47466E748EC072000C0092080A90300AC
:102F4000E20508206AC10720DD0000104C0B0000DC
:102F500020202020202045746865726E6574202032
:102F6000202020200000000020202020C8EDE8F6CE
:102F7000E8E0EBE8E7E0F6E8FF20202000000000B2
:102F80000000001006000010B4F60720804F120069
:102F90009D7B0000D13E000024C107200558001091
:102FA00081C107206EC10720E15700102DE9F05FB5
:102FB000FE4CFF4F20883884FE4800887884FE4805
:102FC0000088B884FD480088F884FD48008838856A
:102FD000FC4800887885FC480088B885FB48008854
:102FE0007882FB480088B882FA480088F882FA485C
:102FF00000883883F94800887883F9480088B883C6
:1030000040F6026003F08CF9F883F6480088B88631
:10301000F4484088F886F34880883887F248018869
:1030200079874188B9878088F887F04807F1800858
:103030000068C8F84C00EE480088A7F842002088D5
:10304000A7F8400007F1AC0C0120ACF80000E94AF9
:1030500007F1B0065188318006F1180193880B8082
:10306000351D11892980E4490988A1F5AC432F3B1E
:1030700001D0283307D1E14991F8E012092902D1A2
:10308000DF4909882980DFF828B351890BF1B80B93
:10309000ABF80010DFF86CA345F2555E0BF10403AA
:1030A000BAF90010714503D1D7490988198000E0A9
:1030B0001980BF49148AC0310C80BD4C92F83D1074
:1030C000C4342180D14991F80090FF21B9F1550F06
:1030D00000D021804FF00209ACF80290B2F84EC047
:1030E000A6F802C0B24EB2F850C0C836A6F802C068
:1030F000B2F854606E80B2F85650ABF80250BAF98C
:103100000250754503D1C04D6D885D8000E05D8043
:10311000A74BB2F85C50C0335D8092F88920628082
:10312000BA4A5278552A00D06180B94C2080B34BFE
:1031300004F11005DA692A8004F120065A6A328007
:1031400004F1300C9A6AACF8002004F1400293F8C4
:1031500001A0A2F800A0DFF878A2BAF900A0BAF1A5
:10316000000F00DC1180A4F80290D3F878B0A5F825
:1031700002B0D3F880B0A6F802B0D3F884B0ACF8AF
:1031800002B093F85DB0A2F802B0BAF1010F00DC12
:1031900051804FF0030EA4F804E0D3F8D4B0A5F8A2
:1031A00004B0D3F8DCB0A6F804B0D3F8E0B0ACF8C3
:1031B00004B093F8B9B0A2F804B0BAF1020F00DC81
:1031C00091804FF0040BA4F806B0D3F830B1A5F805
:1031D00006B0D3F838B1A6F806B0D3F83CB1ACF8D5
:1031E00006B093F815B1A2F806B0BAF1030F00DCEF
:1031F000D1804FF0050BA4F808B0D3F88CB1A5F836
:1032000008B0D3F894B1A6F808B0D3F898B1ACF8E8
:1032100008B093F871B1A2F808B0BAF1040F00DC5D
:1032200011814FF0060BA4F80AB0D3F8E8B1A5F865
:103230000AB0D3F8F0B1A6F80AB0D3F8F4B1ACF8FC
:103240000AB093F8CDB1A2F80AB0BAF1050F00DCCC
:1032500051814FF0070BA4F80CB0D3F844B2A5F895
:103260000CB0D3F84CB2A6F80CB0D3F850B2ACF80E
:103270000CB093F829B2A2F80CB0BAF1060F00DC3A
:1032800091814FF0080BA4F80EB003F52173DC69AF
:10329000EC815C6AF4819C6AACF80E405B78D38167
:1032A000BAF1070F00DCD181414AE432108059495C
:1032B000931D8C691C809C1DCD692580A51D0E6AFF
:1032C0002E80AE1D91F846C0A6F800C0A2F802906C
:1032D000D1F878C0A3F802C0D1F87CC0A4F802C02D
:1032E000D1F880C0A5F802C091F8A6C0A6F802C027
:1032F000F246A2F804E0D1F8D8209A80D1F8DC2078
:10330000A280D1F8E020AA8091F80611B180A3F143
:103310001A0E8EF800003E4D3FA188350A686A6497
:103320004A68AA640989A5F84C10DFF8F4B00021B6
:10333000A4F11C029BF80030012B7BD01170394B9B
:103340001C881B4BD83384B31970374C2678184C23
:10335000DC34012E6FD021708EF8019033A6D6F8A0
:1033600000C0C5F858C0D6F804C0C5F85CC036899E
:10337000A5F860609BF80160012E7ED05170294E47
:10338000B6F802C0BCF1000F78D05970DFF898C0D1
:103390009CF801C0BCF1010F71D06170DFF810C062
:1033A0000CF1D00C8CF802A046E093E0EC02001087
:1033B0001C030010F0020010EAC00720EE0200100B
:1033C000ECC00720A4000010A60000105000001060
:1033D0005200001054000010560000106E02001041
:1033E00070C00720F8020010F8C0072004C10720B1
:1033F00008C10720B0EB0720A6C0072048EC072033
:10340000E2020010A2C007209EC007205800001052
:103410002C5A001040FC0720446F6F72000000001F
:103420001AC00720C0C007201E020010536D6F6B2A
:10343000650000004CE04FE00FF2104CDCF800E0BB
:10344000C5F86CE0DCF804E0C5F870E0BCF808C032
:10345000A5F874C0FF4DAD78012D45D09170FE4D9B
:10346000AD88A5B39970DFF8F4B39BF80250012D35
:103470003ED0A1700425FA4E02E02FE030E031E0AA
:10348000F570F84E0FF2E03CDCF800E0C6F800E022
:10349000DCF804E0C6F804E0BCF808C0A6F808C0F0
:1034A000EC4EF678012E25D0D170EB4AD2881AB3B3
:1034B000D9709BF80320012A20D0E170EC4AE84B38
:1034C000B2F928403833082C1ADD18801BE00DE0D3
:1034D000107034E7187038E720703DE750704EE701
:1034E000587053E7607059E79070B8E79870BAE782
:1034F000A070BFE7D070D8E7D870DAE7E070DDE7FA
:10350000022C00DA1980B2F95240082C01DD5880F3
:1035100002E0022C00DA5980B2F97C40082C01DD6F
:10352000988002E0022C00DA9980B2F9A640082CBB
:1035300001DDD88002E0022C00DAD980C84C538922
:1035400040342380C64B948948331C80C44CD389B3
:10355000503423800834138A23800834538A23800C
:10356000203C938E63800834D38E63800834138F9D
:1035700063800834538F63800834938F6380203CCA
:10358000B2F85E30A3800834B2F86030A38008340B
:10359000B2F86230A3800834B2F86430A3800834F3
:1035A000B2F86630A380203CB2F88830E38008345B
:1035B000B2F88A30E3800834B2F88C30E380083403
:1035C000B2F88E30E3800834B2F89030E380A44B38
:1035D000948A68331C8003F10804D68A268003F19C
:1035E0001006B2F818C0A6F800C003F1180CB2F823
:1035F0001AB0ACF800B003F1200BB2F81CE0ABF845
:1036000000E0B2F83EE0A3F802E0B2F840E0A4F82F
:1036100002E0B2F842E0A6F802E0B2F844E0ACF80A
:1036200002E0B2F846E0ABF802E0B2F868E0A3F8D6
:1036300004E0B2F86AE0A4F804E0B2F86CE0A6F89E
:1036400004E0B2F86EE0ACF804E0B2F870E0ABF879
:1036500004E0B2F892E0A3F806E0B2F89430E38018
:10366000B2F89630F380B2F89830ACF80630B2F881
:103670009A30ABF8063006F11803D48B1C8003F1A6
:103680000804168C268003F11006B2F822C0A6F8B2
:1036900000C003F1180CB2F824B0ACF800B003F18C
:1036A000200BB2F826E0ABF800E0B2F848E0A3F84F
:1036B00002E0B2F84AE0A4F802E0B2F84CE0A6F862
:1036C00002E0B2F84EE0ACF802E0B2F850E0ABF83D
:1036D00002E0B2F872E0A3F804E0B2F874E0A4F8F3
:1036E00004E0B2F876E0A6F804E0B2F878E0ACF8CE
:1036F00004E0B2F87AE0ABF804E0B2F89CE0A3F89A
:1037000006E0B2F89E30E380B2F8A030F380B2F861
:10371000A230ACF80630B2F8A420ABF80620554A27
:103720001288A7F87620544AA4F5B4731288A3F837
:103730007820524A1288A3F87A20514A1288A3F8B6
:103740007C20504A1288A3F87E204F4A1288A8F89D
:1037500000204E4A1288A8F802204D4A1288A8F884
:1037600004204C4A1288A8F806204B4A1288A8F870
:1037700008204A4AB2F90070A8F80A70B2F902C0EB
:10378000A8F80CC0B2F904B0A8F80EB0444A1288E8
:10379000A3F84820434A1288A3F84A20424A1288D4
:1037A000A3F84C20414A1288A3F84E20404A414BCE
:1037B000A4F5B47412881B88D31AA4F850303E4B79
:1037C0001B88A4F852302346A3F854203B4A1288A1
:1037D000A3F856203A4A1288A3F85820394A12888A
:1037E000A3F85A20384A1288A3F85C20374A138875
:1037F0002246A2F85E30364A23461288A3F860209B
:10380000344A1288A3F86220334A1288A3F864204D
:10381000324A1288A3F86620314A1288A3F8682039
:10382000304B1B88A4F86A302F4B1B88A4F86C30EF
:103830002E4B1B88A4F86E302346A3F870202C4A28
:103840001288A3F872202B4A128855E053686F63E0
:103850006B0000001AC00720C0C007201E02001025
:10386000EC030010345B001020202020200000001A
:10387000B4FA0720F4C007205402001066020010BA
:1038800068C00720680200106AC0072058020010B4
:1038900056C007205A02001058C00720EEC007206B
:1038A00040C007203E0200104C02001038C0072024
:1038B0003AC007204E0200103A0200103EC0072016
:1038C0004002001048C007204202001048020010C9
:1038D00044C007204602001042C007204A020010E0
:1038E0003C02001050C00720500200103CC00720CE
:1038F00052020010DE020010A3F874200022F84CDF
:10390000DFF8E08304F10C06531CA35418F802E01E
:10391000BEF1000F7DD0B054DAB20C2AF4D3F249D4
:10392000087081F8019081F802A072310F80A1F82F
:1039300002C0A1F804B0ED4CEB4BDB1C21781970F0
:10394000EB494FF0FF32B1F90010012900DA1A708B
:1039500066785E70022900DA1A70A4789C700329D8
:1039600000DA1A70042900DA1A70DD49683108801B
:10397000A1F80290A1F804A0CD80052008810620BE
:103980004881072088810020DA4D01F10E0301F102
:103990001C0601F12A0701F1380C01F1460801F17A
:1039A000540901F1620A01F1700B01F17E0E00EB86
:1039B000400101EB001205EB82010C8923F8104055
:1039C00035F8222026F810204A8827F810208A8807
:1039D0002CF81020CA8828F810204A8929F81020CD
:1039E0008A892AF81020CA892BF810200A8A2EF812
:1039F0001020BB4A4C8AF43222F810400E328C8AD6
:103A000022F810400E32CC8A22F810404C8B0E3235
:103A100000E02AE022F810400E328C8B22F8104091
:103A2000B14A91F83A40921D1454AF4C91F83B20A2
:103A300009342254E41C91F83C202254E41C91F8EF
:103A40003D202254E41C91F83E202254E21C91F8BF
:103A50003F101154401CC0B20328A8D30020401CC2
:103A6000C0B20728FBD3BDE8F09FB15454E770B54E
:103A700001280AD10024A04D04F56570295D02F0EB
:103A8000CBFC641CE4B2402CF6D370BD01280FD1EE
:103A9000954848300178994821B1B0F900000021DB
:103AA00002F0F0BCB0F900004FF0FF3102F0EABCC8
:103AB000704701280FD18C48483041788F4821B198
:103AC000B0F90200002102F0DDBCB0F902004FF0B5
:103AD000FF3102F0D7BC704701280FD1824848302F
:103AE0008178864821B1B0F90400002102F0CABCF7
:103AF000B0F904004FF0FF3102F0C4BC7047012858
:103B00000FD179484830C1787C4821B1B0F906001E
:103B1000002102F0B7BCB0F906004FF0FF3102F00F
:103B2000B1BC7047012806D16F489038B0F94810F1
:103B3000862002F0A7BC7047012806D16A48903859
:103B4000B0F94A10802002F09DBC7047012806D1D0
:103B500065489038B0F94C10C22002F093BC704711
:103B6000012806D160489038B0F94E10782002F054
:103B700089BC704701280AD15B49614890390088A7
:103B8000B1F85010401A01B2C82002F07BBC704757
:103B900010B501280DD1544C7A20903CB4F9521044
:103BA00002F070FCB4F95210BDE810407C2002F025
:103BB00069BC10BD012806D14B489038B0F95210AD
:103BC0007A2002F05FBC7047012806D14648903841
:103BD000B0F954107C2002F055BC7047012806D182
:103BE00041489038B0F95610822002F04BBC704723
:103BF000012806D13C489038B0F95810842002F0D2
:103C000041BC7047012806D137489038B0F95A10A6
:103C1000942002F037BC7047012806D13248903812
:103C2000B0F95C10882002F02DBC7047012806D145
:103C30002D489038B0F95E10922002F023BC7047F6
:103C4000012806D128489038B0F960108C2002F085
:103C500019BC7047012806D123489038B0F962108A
:103C60008E2002F00FBC7047012806D11E48903804
:103C7000B0F96610962002F005BC7047012806D105
:103C800019489038B0F96A10CE2002F0FBBB70479B
:103C9000012806D114489038B0F96C10CC2002F0FD
:103CA000F1BB7047012806D10F489038B0F96E106B
:103CB000C62002F0E7BB7047012806D10A489038B9
:103CC000B0F970107E2002F0DDBB7047012806D1EC
:103CD00005489038B0F96410DE2002F0D3BB70477D
:103CE000E05A00109E590010AC030010F3020010BF
:103CF0006E0200105CFB0720C8590010E6D70000D8
:103D00003AC007200128EAD17048B0F972104FF488
:103D1000197002F0B7BBE2E70128E0D16B48B0F9B7
:103D2000741040F2622002F0ADBBD8E710B5012854
:103D300012D1664845F255520146B0F94440D3438A
:103D4000E41EB1F94610062C1BD2DFE804F009147A
:103D5000031A1706A0F8442010BDA0F8442010BD97
:103D6000491E172902D8A0F8443010BD4EF6EF6165
:103D7000A0F8441010BDA0F8443010BDA0F84420B5
:103D800010BD4EF6EE61A0F8441010BD0128A6D17A
:103D90004E4801784FF48270012902D0002102F0D0
:103DA00071BB012102F06EBB99E7012897D147480A
:103DB00041784FF48A70012902D0002102F062BBE1
:103DC000012102F05FBB8AE7012888D13F4890F9C2
:103DD00002104FF4837002F055BB80E7012806D132
:103DE0003A4890F903104FF4847002F04BBB76E729
:103DF000012806D1354890F904104FF4857002F07F
:103E000041BB6CE7012806D1304890F905104FF40A
:103E1000A37002F037BB62E7012806D12B4890F966
:103E200006104FF4A27002F02DBB58E7012806D10E
:103E3000264890F907104FF4A17002F023BB4EE71B
:103E4000012806D1214890F908104FF4A07002F023
:103E500019BB44E7012806D11C4890F909104FF41A
:103E60009F7002F00FBB3AE7012806D1174890F97E
:103E70000A104FF4A97002F005BB30E7012806D103
:103E8000124890F90B104FF4A87002F0FBBA26E725
:103E9000012806D10D4890F90C104FF4A77002F0DC
:103EA000F1BA1CE7012806D1084890F90D104FF42B
:103EB000A67002F0E7BA12E7012806D1034890F98C
:103EC0000E104FF4A57002F0DDBA08E71C030010D5
:103ED0002DE9F043794C65886D1C65802578A842F2
:103EE0007ED1A688761CA680754D087828804878F3
:103EF00068808878A880C878E8802A8113F8287FAD
:103F00006F815978A9819A78EA81D87828823B0212
:103F1000194309020A4311020843761CA680694925
:103F200041186948B0F90000C0EB4012C2EB002014
:103F300001EB0017A7626548B7FBF0F6266206F1B1
:103F4000010262624FF00003E3626381E06A84462B
:103F500000F26D10E06261895FEA817801D1401C56
:103F6000E062E06A824205D8C4F82CC0A2EB0C00E3
:103F7000E08004E0491C88B260816428E6D3238194
:103F80000120A081DFF84881B4F80AC0E3882189C4
:103F9000A08938F810200A4492B222815FEA8C7915
:103FA00003D1022801D1521C22812289934203D8D5
:103FB0002181581AE08104E0401C80B2A0810D28C4
:103FC000E5D3A6EB061000EB4000C0EB001007EBBA
:103FD000C01020634FF46166B0FBF6F291B200E0CE
:103FE0001BE0218206FB12063C27B6FBF7F082B2EB
:103FF000628207FB106086B2A682AB82E08A00284C
:104000000BD03448017202710670A0F81CC0A1895F
:104010000176E1890173A0F12000BDE8F08338B595
:10402000264D2878002820D0302009F035FA0446A3
:10403000302200212046FCF74BF9E32020700020BD
:1040400060700620A070EC20E070312121734E20BA
:104050006073A1733420E0733023009323467B22E6
:1040600005F11801287809F081FA38BD70B5134CB4
:10407000E08A08B1401EE082174D2888002814D03D
:10408000E069002811D0401EE06100280DD1052014
:10409000E082FFF7C4FFB5F90000012806D002282E
:1040A00008D0032801D10D48E06170BD4FF4616074
:1040B000E06170BD0548E06170BD000024C10720CB
:1040C000CA050820003EE8438E020010805101001E
:1040D00038DE0000204002408EC00720803A0900F0
:1040E00000B59DB0C0EBC00101EB0011FB4800EB37
:1040F0008100816A90F8423082788DE80E00436A30
:10410000C269F7A104A805F0C3FA04A81DB000BD58
:104110002DE9F04387B00746F6494878401C4870BF
:10412000282005F095FF0446F34E03AD0DF1180865
:104130000DF1140928222146384606F0B5FE07463F
:10414000207870B3EDA1204608F078FD012818D042
:10415000EBA1204608F072FD012823D0EAA12046F9
:1041600008F06CFD01282ED0E8A1204608F066FD7D
:10417000012839D0E7A1204608F060FD012844D08D
:1041800053E0CDE900982B1D03AAE4A1E01C04F044
:10419000D7FB03983070049870700598B07006983B
:1041A000F07042E0CDE900982B1D03AADBA1201D91
:1041B00004F0C6FB03983072049870720598B072D0
:1041C0000698F07231E0CDE900982B1D03AAD3A127
:1041D000E01C04F0B5FB03983071049870710598E9
:1041E000B0710698F07120E0CDE900982B1D03AA6C
:1041F000CAA1601D04F0A4FB039830730498707387
:104200000598B0730698F0730FE0CDE900982B1D68
:1042100003AAC2A1601D04F093FB039830740498B4
:1042200070740598B0740698F074002F82D12046FF
:1042300006F074FB07B0BDE8F083F0B587B0034625
:104240000F46AC4EB078401CB070F0781044F0705F
:10425000002B54D1B44900200870002A4FD000240C
:10426000282005F0F5FE054628222946384606F0A6
:104270001BFE0746287868B3ACA1284608F0DEFC90
:10428000012827D0ACA1284608F0D8FC012838D056
:10429000ACA1284608F0D2FC01281BD0ACA12846CE
:1042A00008F0CCFC012815D0ACA1284608F0C6FCCB
:1042B000012839D0AAA1284608F0C0FC01283AD02C
:1042C000A9A1284608F0BAFC012803D0A8A12846D5
:1042D00008F0B4FC002FC7D1284606F01FFB032CC2
:1042E0000DD104A804F016FB82B201A904A807F0BE
:1042F00047FC012803D104A99F4808F087FC07B0B8
:10430000F0BD9EA1284604F0EFFA18B17078401C69
:104310007070DFE79AA1284604F0E6FA0028D9D0A9
:104320007078401E7070D5E7E91C04A808F06EFC98
:1043300044F00104CEE7291D01A808F067FC44F011
:104340000204C7E72DE9F04788B004460E469046C0
:104350001F46002567492078734B91F800C06628F6
:1043600074D017DC4FF0010C622873D00BDC0A46C6
:104370003228127802F10102D2B269D0332868D013
:10438000612832D117E063287BD064287AD0652871
:104390002BD17AE1644A7828526874D006DC672809
:1043A00072D06D2871D073281FD106E279286DD0A4
:1043B0007A281AD19CE3A0784F496D2816D004DCE6
:1043C00067281FD0692810D104E0702826D07328F0
:1043D0000BD12FE0CB788A78CDE900234B780A788F
:1043E000211D304605F054F9054687E3CB7A8A7AD9
:1043F000CDE900234B7A0A7A211D304605F048F9B1
:1044000005467BE3CB798A79CDE900234B790A799C
:10441000211D304605F03CF905466FE3CB7B8A7BD6
:10442000CDE900234B7B0A7B211D304605F030F996
:10443000054663E3CB7C8A7CCDE900234B7C0A7C78
:10444000211D304605F024F9054657E363E101E0FC
:104450002CE33CE3A078632812D03038C0B20728A0
:1044600000D900200CFA00FC0CF0FF00197845A2DE
:10447000014200D123A2211D304605F009F905466D
:104480003CE304E0CDE00BE347E174E179E2DFF8DF
:10449000FC90DFF8FCA0ABE038883E4A00EB40011E
:1044A00001EBC00102EB8104401C388070193AA175
:1044B00005F0EEF8054494F800C0BCF1010F76D881
:1044C0000CEB4C0000EBCC00304900EB09033A88C0
:1044D00070197C3105F0DCF8054484E048EC0720D5
:1044E000256420256420256420256420307825302B
:1044F00032780000D8000010F868001069703D00A4
:104500006D736B3D0000000067773D0070646E7353
:104510003D00000073646E733D00000025642E258D
:10452000642E25642E25640058C107206275743DF1
:1045300062757430000000006275743D62757431FC
:10454000000000006275743D627574320000000066
:104550006275743D627574330000000070773D0031
:104560007077323D000000006C6364313D00000054
:104570006C6364323D000000B0C10720706C000025
:104580006D690000636865636B65640054DE00005C
:10459000B5D7000090EA07203C747220616C69670F
:1045A0006E3D2263656E746572223E00FFE7BCF1CA
:1045B000020F2AD0E38B62892189E079CDE90523B6
:1045C000CDE903012179A37962798DE80E000CEB26
:1045D0004C0000EBCC0000EB09033A887019FB4952
:1045E00005F056F8054438889AF80010884204D03F
:1045F00005F196004045FFF44FAF38889AF8001057
:10460000884201D245F4004578E263890093EF4B7C
:104610003A88F63B701903F1AE0105F039F805440C
:10462000E1E76078302810D1A078313807280CD223
:10463000DFE800F0040B0B0C161D2400E34A211DDB
:104640005432304605F024F8054657E20879401CFC
:1046500008710222211D304605F01AF805464DE288
:104660000722211D304605F013F8054646E20522D3
:10467000211D304605F00CF805463FE20322211DBE
:10468000304605F005F8054638E206F0FFFB054622
:10469000CFA1284604F046F968B3CEA1284604F01D
:1046A00041F950B3CDA1284604F03CF938B3CDA16F
:1046B000284604F037F920B3CBA1284604F032F99C
:1046C00008B3CBA1284604F02DF9F0B1CAA12846C1
:1046D00004F028F9D8B1C9A1284604F023F9C0B1E3
:1046E000C7A506F0D3FB03462A46A11C304604F0BA
:1046F000CFFF054602E2C4A5F3E7C5A5F1E7C7A5CC
:10470000EFE7C9A5EDE7CAA5EBE7CCA5E9E7CEA59C
:10471000E7E7CFA5E5E7A078F0E1A078312804D05D
:10472000322808D0332805D11BE0211D304604F083
:10473000AFFF0546E2E1104604F05AFA04F05DFAD4
:104740004FF06632C44B04F0CBF96FF0090204F06D
:1047500038FA02460B46211D304604F099FF054603
:10476000CCE164204243920A5A60211D304604F095
:104770008FFF0546C2E16078312804D032280BD083
:10478000332808D111E0B548E11CB0F900203046CB
:1047900004F07EFF0546B1E1B148E11CB0F900200C
:1047A000304604F075FF0546A8E1AE48E11C0268FA
:1047B000304604F06DFF0546A0E16078302802D055
:1047C000312814D16EE0A07830380A280FD2DFE803
:1047D00000F0050F19232D37414B555F0020FFF7DF
:1047E0007FFC0246211D304604F052FF054685E15C
:1047F0000120FFF775FC0246211D304604F048FFFA
:1048000005467BE10220FFF76BFC0246211D304686
:1048100004F03EFF054671E10320FFF761FC02460C
:10482000211D304604F034FF054667E10420FFF700
:1048300057FC0246211D304604F02AFF05465DE183
:104840000520FFF74DFC0246211D304604F020FFF5
:10485000054653E10620FFF743FC0246211D304682
:1048600004F016FF054649E10720FFF739FC024630
:10487000211D304604F00CFF05463FE10820FFF7FC
:104880002FFC0246211D304604F002FF054635E1AB
:104890000920FFF725FC0246211D304604F0F8FEF2
:1048A00005462BE1A07830380A280FD2DFE800F067
:1048B000050F19232D37414B555F0A20FFF710FCD8
:1048C0000246211D304604F0E3FE054616E10B20AA
:1048D000FFF706FC0246211D304604F0D9FE0546CE
:1048E0000CE10C20FFF7FCFB0246211D304604F0D2
:1048F000CFFE054602E10D20FFF7F2FB0246211D27
:10490000304604F0C5FE0546F8E00E20FFF7E8FB50
:104910000246211D304604F0BBFE0546EEE00F20A6
:10492000FFF7DEFB0246211D304604F0B1FE0546CE
:10493000E4E01020FFF7D4FB0246211D304604F0CE
:10494000A7FE0546DAE01120FFF7CAFB0246211D4B
:10495000304604F09DFE0546D0E01220FFF7C0FB74
:104960000246211D304604F093FE0546C6E01320A2
:10497000FFF7B6FB0246211D304604F089FE0546CE
:10498000BCE06078302808D06E2805D10422E11CF4
:10499000304604F07DFE0546B0E0A07831380528A9
:1049A0000BD2DFE800F0030B636D75002EA36246A7
:1049B000211D304604F06CFE05469FE04A782AA38C
:1049C000211D304604F064FE054697E060DF0000DC
:1049D000656E0000656E2D7573000000656E2D67B5
:1049E000620000006465000064652D6368000000DB
:1049F00064652D617400000066720000736C000035
:104A0000556E6B6E6F776E00456E676C69736800EC
:104A1000456E676C6973682055534100456E676C3D
:104A200069736820474200004765726D616E00003F
:104A30004765726D616E2043480000004765726DE6
:104A4000616E2041540000004672656E636800008C
:104A5000536C6F76656E650066660A403E00001016
:104A60003C00001014C0072020000000AFF2080333
:104A700045F6AA12211D304604F00AFE05463DE027
:104A800020A30022211D304604F002FE054635E039
:104A90001EA30022211D304604F0FAFD05462DE03C
:104AA000611C304604F0F4FD054627E00A70627888
:104AB00018A3A2F130000CFA00FC5FEA8C7000D160
:104AC00016A318A1304604F0E3FD054616E00A706F
:104AD000627810A3A2F130000CFA00FC1CF0060F63
:104AE00000D10EA30FA1304604F0D2FD054605E02B
:104AF00019A2A11C304604F0CBFD054608B0A8B2AF
:104B0000BDE8F08761626364656600006768696A92
:104B100000000000747275650000000066616C732F
:104B2000650000003C636865636B626F783E3C69BA
:104B3000643E627574746F6E25633C2F69643E3CFD
:104B40006F6E3E25733C2F6F6E3E3C2F636865632E
:104B50006B626F783E000000656E64002DE9F047DF
:104B6000102001F0DDFBFF4C2080122001F0D8FB6B
:104B700060802C2001F0D4FBFB4C20802E2001F023
:104B8000CFFB6080142001F0CBFBF84C2080162076
:104B900001F0C6FB6080182001F0C2FBF44C2080BD
:104BA0001A2001F0BDFB60801C2001F0B9FBF14C24
:104BB00020801E2001F0B4FB6080202001F0B0FBBB
:104BC000ED490880242001F0ABFBEC490880262049
:104BD00001F0A6FBEA4C2080282001F0A1FB6080B8
:104BE0002A2001F09DFBA080302001F099FBE54CCC
:104BF0002080322001F094FB6080342001F090FB93
:104C0000A080362001F08CFBDF4C2080382001F0A2
:104C100087FB60803A2001F083FBA0803C2001F0FC
:104C20007FFBDA4908803E2001F07AFBD8490880F2
:104C3000402001F075FBD7490880422001F070FB4D
:104C4000D5490880442001F06BFBD4490880A62098
:104C500001F066FBD24C2080A82001F061FB60804F
:104C6000AA2001F05DFBA080762001F059FBCD4920
:104C70000880782001F054FBCB4908807A2001F0AD
:104C80004FFBCA4908807C2001F04AFBC8490880D4
:104C90007E2001F045FBC7490880C62001F040FB9B
:104CA000C5490880C82001F03BFBC4490880822028
:104CB00001F036FBC2490880842001F031FBC14974
:104CC0000880862001F02CFBBF490880882001F075
:104CD00027FBBE490880DE2001F022FBBC4908808A
:104CE0004FF4D276304601F01BFBBA4908808C2085
:104CF00001F016FBB84908808E2001F011FBB7497E
:104D00000880902001F00CFBB54908804FF4AD708D
:104D100001F006FBB34908804FF4C47001F000FBBA
:104D2000B14908804FF4C57001F0FAFAAF49088024
:104D30004FF4C67001F0F4FAAD4908804FF4C77023
:104D400001F0EEFAAB4908804FF4C87001F0E8FAC0
:104D5000A94908804FF4CB7001F0E2FAA749088016
:104D60004FF4CC7001F0DCFAA54908804FF4CD7007
:104D700001F0D6FAA34908804FF4CE7001F0D0FAC2
:104D8000A1490880B01F01F0CBFAA0490880341F68
:104D9000204601F0C5FA9E490880A71C384601F05C
:104DA000BFFA9C4908804FF4B27001F0B9FA9A49F1
:104DB0000880922001F0B4FA98490880942001F00C
:104DC000AFFA97490880962001F0AAFA9549088021
:104DD000982001F0A5FA944908804FF49B7001F0E7
:104DE0009FFA924908809A2001F09AFA9049088027
:104DF0000F2200218E48FBF7EFF94FF4177001F0F6
:104E00008FFA8C4D288040F25E2001F089FADFF89D
:104E10002882A8F8000040F2662001F081FA874954
:104E200008804FF41A7001F07BFA854908802888C1
:104E3000B8F800100844834908804FF41B7001F053
:104E40006FFA81490880802001F06AFA7F49088062
:104E5000BC2001F065FA7E490870BE2001F060FABE
:104E60007C490880C42001F05BFA7B490880CA2095
:104E700001F056FA79490880CC2001F051FA7849BE
:104E80000880CE2001F04CFA764908804FF4197062
:104E900001F046FA7449088040F26A2001F040FAB5
:104EA00072490880D02001F03BFA71490880D22075
:104EB00001F036FA6F490880D42001F031FA6E49CA
:104EC0000880D62001F02CFA6C490880D82001F027
:104ED00027FA6B490880DA2001F022FA6949088034
:104EE000DC2001F01DFA68490880E22001F018FA80
:104EF00066490880E42001F013FA65490880FE2025
:104F000001F00EFA634908804FF4807001F008FA4E
:104F100061490880E62001F003FA60490870E82042
:104F200001F0FEF95E490870EA2001F0F9F95D49E7
:104F30000870EC2001F0F4F95B490880EE2001F0E4
:104F4000EFF95A490880F02001F0EAF95849088041
:104F50004FF4B67001F0E4F956490880F22001F0F0
:104F6000DFF9A9E020C007202402001024C0072098
:104F70002802001028C007202C02001032C0072091
:104F80002CC00720FE020010FEC0072034020010D3
:104F900034C007203602001036C00720140200106B
:104FA0002E0200103802001038C007203A0200100C
:104FB0003AC007203C0200103CC007204E020010FF
:104FC0003EC007204002001040C0072042020010EF
:104FD00042C007204402001044C0072046020010CF
:104FE00046C007208A0200108EC007208E020010E3
:104FF00090C007209002001092C00720920200107B
:1050000094C007209402001096C00720960200105A
:1050100098C00720980200108CC00720480200109A
:1050200048C007204A020010520000106EC007203E
:105030005400001070C007206E02001056000010CF
:1050400072C007207002001074C007203E020010DA
:10505000DEC00720E0C007204CC007204EC007205C
:105060005002001050C007205202001052C007200A
:105070005402001054C007205602001056C00720EA
:105080005802001058C007205A0200105AC00720CA
:105090005C0200105CC007205E0200105EC00720AA
:1050A0006402001064C007206002001062C0072084
:1050B00060C0072062020010FF490880F42001F060
:1050C0002FF9FE490880F62001F02AF9FC490880F2
:1050D000F82001F025F9FB490880FA2001F020F9B9
:1050E000F9490880FC2001F01BF9F84908804FF4C9
:1050F000817001F015F9F64908804FF48B7001F0CA
:105100000FF9F44908804FF48C7001F009F9F24965
:1051100008804FF48D7001F003F9F04908804FF4D6
:105120008E7001F0FDF8EE4908804FF4907001F0A8
:10513000F7F8EC4908804FF4917001F0F1F8EA4972
:1051400008804FF48F7001F0EBF8E84908804FF4C5
:10515000927001F0E5F8E64908804FF4937001F091
:10516000DFF8E44908804FF4957001F0D9F8E2497E
:1051700008804FF4967001F0D3F8E04908804FF4AE
:10518000977001F0CDF8DE4908804FF4987001F077
:10519000C7F8DC4908804FF4997001F0C1F8DA498A
:1051A00008804FF49A7001F0BBF8D84908804FF49A
:1051B0009C7001F0B5F8D64908804FF49D7001F05D
:1051C000AFF8D44908804FF4B77001F0A9F8D2497C
:1051D00008804FF4B87001F0A3F8D04908804FF46C
:1051E000BA7001F09DF8CE4908804FF4B97001F013
:1051F00097F8CC4908804FF4BB7001F091F8CA4988
:1052000008804FF4BC7001F08BF8C84908804FF457
:10521000BD7001F085F8C64908804FF4BE7001F0FA
:105220007FF8C44908804FF4BF7001F079F8C24993
:1052300008804FF4C07001F073F8C04908804FF443
:10524000C17001F06DF8BE4908804FF4C27001F0E2
:1052500067F8BC4908804FF4C37001F061F8BA499F
:105260000880204601F05CF8B84D28704FF4DF70DC
:1052700001F056F8C1B26970B54A0024148028784C
:10528000552801D1601C1080552902D11088401C7E
:105290001080384601F044F8AE4D2880304601F0C9
:1052A0003FF8AD4E30804FF4D37001F039F8AB4F7A
:1052B00038804FF4D47001F033F8DFF8A482A8F8F6
:1052C00000004FF4D87001F02BF8DFF89892A9F89D
:1052D00000004FF4D57001F023F8DFF88CA2AAF893
:1052E00000004FF4E07001F01BF868804FF4E170AB
:1052F00001F016F870804FF4E27001F011F8788038
:105300004FF4E37001F00CF8A8F802004FF4E870D5
:1053100001F006F8A9F802004FF4E47001F000F87B
:10532000AAF802004FF4467000F0FAFF8F49088097
:10533000A02000F0F5FF8E490870A22000F0F0FFD9
:105340008C490870A42000F0EBFF8B490880C02036
:1053500000F0E6FF89490880C22000F0E1FF88499B
:1053600008804FF4AA7000F0DBFF864908804FF4F4
:10537000AB7001F00DF8844908604FF4AC7001F097
:1053800007F8824908604FF4017000F0C9FF8049B6
:10539000088040F2062000F0C3FF7E4908804FF4E9
:1053A000027000F0BDFF7C49088040F20A2000F046
:1053B000B7FF7A4908804FF4037000F0B1FF7849D5
:1053C000088040F20E2000F0ABFF764908804FF4D1
:1053D000047000F0A5FF7449088040F2122000F02C
:1053E0009FFF724908804FF40D7000F099FF704DD7
:1053F000288040F2362000F093FF6E4E30804FF44C
:105400000E7000F08DFF6C4F388040F23A2000F0B3
:1054100087FFDFF8A881A8F800004FF40F7000F0B4
:105420007FFFDFF89C91A9F8000040F23E2000F0D9
:1054300077FF68804FF4107000F072FF708040F2C8
:10544000422000F06DFF78804FF4117000F068FF8B
:10545000A8F8020040F2462000F062FFA9F802001E
:105460004FF4127000F05CFFA88040F24A2000F078
:1054700057FFB0804FF4137000F052FFB88040F235
:105480004E2000F04DFFA8F804004FF4147000F017
:1054900047FFA9F8040040F2522000F041FFE880E5
:1054A0004FF4157000F03CFFF08040F2562000F001
:1054B00037FFF88086E0000066C007206602001013
:1054C00068C00720680200106AC00720720200103E
:1054D0006A0200100EC107200A03001010C1072045
:1054E0000C03001014C107201003001012C1072084
:1054F0006CC007206C0200107402001076C00720F8
:105500007602001078C0072016C107201203001091
:10551000780200107AC007207A0200107CC00720B1
:105520007C0200107EC007207E02001080C0072091
:105530008002001082C007208202001084C0072071
:105540008402001086C00720860200105800001058
:10555000500000109A0200109AC007209E0200100E
:10556000A2C007209EC00720A2020010E4C00720AE
:105570008802001088C007208AC007204AC0072080
:105580004C020010A6C00720B8000010A8020010AE
:10559000A8C00720AC020010AEC00720B202001065
:1055A000B4C00720B8020010BAC00720BE02001025
:1055B000C0C00720C4020010C8C00720CC020010E1
:1055C000D0C007204FF4167000F0AAFEA8F806001D
:1055D00040F25A2000F0A4FEA9F80600E02000F0F6
:1055E0009FFEB2490880BA2000F09AFEB0490870C8
:1055F000AC2000F095FEAF490880AE2000F090FE90
:10560000AD490880B02000F08BFEAC490880B22084
:1056100000F086FEAA490880B42000F081FEA94966
:105620000880B62000F07CFEA74980B2088008B14F
:105630000D2800D30C80B82000F072FEA34908802A
:105640004FF4187000F06CFEA149088040F262200F
:1056500000F066FE9F4908804FF4337000F060FE52
:105660009D49088040F2CE2000F05AFE9B490880F8
:105670004FF4347000F054FE9949088040F2D22073
:1056800000F04EFE974908804FF4357000F048FE58
:105690009549088040F2D62000F042FE93490880E8
:1056A0004FF4367000F03CFE9149088040F2DA2059
:1056B00000F036FE8F4908804FF4377000F030FE5E
:1056C0008D49088040F2DE2000F02AFE8B490880D8
:1056D0004FF4437000F024FE8949088040F20E30F8
:1056E00000F01EFE874908804FF4447000F018FE59
:1056F0008549088040F2123000F012FE834908808C
:105700004FF4387000F00CFE8149088040F2E2202E
:1057100000F006FE7F4908804FF4397000F000FE6B
:105720007D49088040F2E62000F0FAFD7B490880C0
:105730004FF43A7000F0F4FD7949088040F2EA2015
:1057400000F0EEFD774908804FF43B7000F0E8FD73
:105750007549088040F2EE2000F0E2FD73490880B0
:105760004FF43C7000F0DCFD7149088040F2F220FB
:1057700000F0D6FD6F4908804FF43D7000F0D0FD79
:105780006D49088040F2F62000F0CAFD6B490880A0
:105790004FF43E7000F0C4FD6949088040F2FA20E1
:1057A00000F0BEFD674908804FF43F7000F0B8FD7F
:1057B0006549088040F2FE2000F0B2FD6349088090
:1057C0004FF4407000F0ACFD6149088040F20230B7
:1057D00000F0A6FD5F4908804FF4417000F0A0FD85
:1057E0005D49088040F2063000F09AFD5B49088070
:1057F0004FF4427000F094FD5949088040F20A309D
:1058000000F08EFD574908804FF4457000F088FD88
:105810005549088040F2163000F082FD5349088057
:105820004FF4AE7000F07CFD514C20804FF4AF700F
:1058300000F076FD60804FF4B07000F071FDA08044
:105840004FF4B17000F06CFDE080462000F068FD80
:1058500048490870482000F063FD474908704FF43C
:10586000B47000F05DFD454908704FF4B37000F06E
:1058700057FD434908800024424D04F5657000F04F
:1058800014FD2855641CE4B2402CF6D300243E4D90
:1058900040F2DA3606EB440000F007FD2855641CA0
:1058A000E4B20A2CF6D3BDE8F0870000E2C007207E
:1058B000D4020010DC020010D6020010D8C007206D
:1058C000D8020010DAC00720DA020010DCC007207E
:1058D000F6020010DE0200105A0000105C000010FA
:1058E0005E000010600000106200001064000010F4
:1058F00066000010680000106A0000106C000010C4
:105900009A0000109C0000109E000010A0000010E3
:105910006E00001070000010720000107400001083
:1059200076000010780000107A0000107C00001053
:105930007E00001080000010820000108400001023
:1059400086000010880000108A0000108C000010F3
:105950008E000010900000109200001094000010C3
:105960009600001098000010E0020010A200001045
:10597000160200101EC007202302001014000010A1
:105980008C020010C8590010C005082030B55C49D1
:105990002020C1F8A001D1F8A0014006FBD501F1FB
:1059A00080010323C1F884304FF40030C1F828018E
:1059B0004FF00002C1F82C214FF00100C1F88C001B
:1059C000504C4C6008604FF0AA05CD604FF0550474
:1059D000CC60A1F18001D1F888004001FBD541F8ED
:1059E000803FCD60CC60C1F8882047484864C1F84A
:1059F00048218868454A6FEA1060A1F1800180075C
:105A00000BD0D1F80C0110F003005AD0012861D05E
:105A1000022868D003286FD153E0D1F80C0110F0B0
:105A2000030005D001281BD0022831D0032863D100
:105A300051F8880FC0F30E00401C43000868C0F303
:105A40000740401CB3FBF0F0314B5843CB6FA1F142
:105A50008801DBB203F10103B0FBF3F010604BE00F
:105A600051F8880FC0F30E00401C43000868C0F3D3
:105A70000740401CB3FBF0F0264B5843CB6FA1F11D
:105A80008801DBB203F10103B0FBF3F0106033E0F7
:105A900051F8880FC0F30E00401C43000868C0F3A3
:105AA0000740401CB3FBF0F04FF4FA435843CB6F70
:105AB000A1F18801DBB203F10103B0FBF3F0106048
:105AC0001AE0D1F80401124BC0B2401CB3FBF0F055
:105AD000106011E0D1F804010E4BC0B2401CB3FBC2
